:100000000C94D2030C940A040C940A040C940A0471
:100010000C940A040C940A040C940A040C940A0428
:100020000C940A040C940A040C94672B0C943B2C3B
:100030000C9497250C940A040C940A040C940A045A
:100040000C940A040C940A040C940A040C940A04F8
:100050000C940A040C941D260C940A040C940A04B3
:100060000C940A040C940A040C940A040C940A04D8
:100070000C940A040C940A040C940A040C940A04C8
:100080000C940A040C940A040C940A040C940A04B8
:100090000C940A040C940A040C940A040C940A04A8
:1000A0000C940A040C940A040C940A041E002900FF
:1000B0001E001F0020002100220023002400250034
:1000C000260027002D002E002A004A001F002B00CA
:1000D00014001A000800150017001C0018000C007E
:1000E000120013002F00300031004B002000E00010
:1000F00004001600070009000A000B000D000E00A6
:100100000F00330034000000280047000000E10029
:100110001D001B000600190005000500110010005D
:10012000360037003800E500520000000000E00013
:10013000E300E2000000E400000000002C000000EA
:10014000E60000000151500051004F000100350051
:100150003A003B003C003D003E003F0040004100B3
:1001600042004300440045004C00010001003900FA
:1001700001005200010001000100010001004600E1
:100180004700480052000100010001000100010089
:10019000500051004F0001000100010001004A0021
:1001A0004B0050004F000000010001000000010062
:1001B0000100010001000100010001000100010037
:1001C0004D004E00510001004B00000000000100F6
:1001D000010001000000010000000000010000001B
:1001E0000100000000514A004E004D0001000100D6
:1001F00001000100010001000100010001000100F7
:1002000001000100010001000100010001000100E6
:1002100001000100010001000100010001000100D6
:1002200001000100010001000100010001000100C6
:1002300001000100010001000100010001000100B6
:1002400001000100010000000100010000000100A8
:100250000100010001000100010001000100010096
:100260000100010001000100010000000000010088
:10027000010001000000010000000000010000007A
:100280000100000001000100010001000100010067
:100290000100010001000100010001000100010056
:1002A0000100010001000100010001000100010046
:1002B0000100010001000100010001000100010036
:1002C0000100010001000100010001000100010026
:1002D0000100010001000100010001000100010016
:1002E0000100010001000000010001000000010008
:1002F00001000100010001000100010001000100F6
:1003000001000100010001000100000000000100E7
:1003100001000100000001000000000001000000D9
:1003200001000000010001000100010000000000C8
:10033000000000002A2B2800000000000000000040
:100340000000000000000029000000002C1E3420E6
:10035000212224342627252E362D3738271E1F200C
:100360002122232425263333362E37381F04050651
:100370000708090A0B0C0D0E0F1011121314151695
:100380001718191A1B1C1D2F3130232D3504050693
:100390000708090A0B0C0D0E0F1011121314151675
:1003A0001718191A1B1C1D2F3130354C0000000086
:1003B000000000000000000000000000000000003D
:1003C000000000000000000000000000000000002D
:1003D0007E0F00D4FFFFFFC7000000781E0F05004E
:1003E000047F3F1F643214643214783C1E1E140ACA
:1003F000052223252628292A2C2D2F303233353665
:10040000383A3B3D3E4042434547494A4C4E5051A5
:10041000535557595A5C5E6062646668696B6D6FCC
:1004200071737577797B7D7F81838587898A8C8ECF
:1004300090929496989A9C9E9FA1A3A5A7A8AAACD7
:10044000AEAFB1B3B4B6B8B9BBBCBEBFC1C2C3C511
:10045000C6C7C9CACBCCCDCED0D1D2D2D3D4D5D6B3
:10046000D7D7D8D9D9DADADBDBDBDCDCDCDCDCDDE6
:10047000DDDDDDDCDCDCDCDCDBDBDBDADAD9D9D8CA
:10048000D7D7D6D5D4D3D2D2D1D0CECDCCCBCAC962
:10049000C7C6C5C3C2C1BFBEBCBBB9B8B6B4B3B191
:1004A000AFAEACAAA8A7A5A3A19F9E9C9A9896942C
:1004B00092908E8C8A89878583817F7D7B79777501
:1004C00073716F6D6B6968666462605E5C5A5957E0
:1004D000555351504E4C4A4947454342403E3D3B9F
:1004E0003A3836353332302F2D2C2A292826252329
:1004F00022FFAA7F55400001010101010101010114
:1005000002020202020202020203030303030303C4
:100510000304040404040404050505050506060691
:100520000606070707070708080808090909090A4E
:100530000A0A0B0B0B0C0C0C0D0D0D0E0E0E0F0FF3
:100540000F10101111111212131314141515161681
:100550001717181819191A1A1B1B1C1D1D1E1E1FF0
:100560002020212222232424252626272829292A3F
:100570002B2C2D2D2E2F3031323233343536373867
:10058000393A3B3C3D3E3F40414243444546474863
:10059000494A4C4D4E4F50515354555658595A5B39
:1005A0005D5E5F616264656668696B6C6D6F7072D9
:1005B000737577787A7B7D7E8082838587888A8C45
:1005C0008E8F91939596989A9C9EA0A2A3A5A7A979
:1005D000ABADAFB1B3B5B7BABCBEC0C2C4C6C9CB70
:1005E000CDCFD1D4D6D8DBDDDFE2E4E7E9EBEEF026
:1005F000F3F5F8FAFDFF0A036C0075007900650059
:100600000000160371006D006B0062007500690048
:100610006C00640065007200000004030904090214
:100620005B00030100A0FA090400000103010100BE
:100630000921110100012240000705810308000182
:100640000904010002030000000921110100012238
:100650002200070582032000010705030320000193
:100660000904020001030000000921110100012218
:10067000B6000705840320000112010002000000FB
:1006800008DD0DDD0A0100010200010660FF0961BD
:10069000A1010962150026FF009520750881020955
:1006A00063150026FF00952075089102C005010919
:1006B00002A10185020901A10005091901290815F6
:1006C00000250195087501810205010930093115E0
:1006D00081257F95027508810609381581257F954A
:1006E0000175088106050C0A38021581257F9501E0
:1006F00075088106C0C005010980A10185031901A3
:100700002AB700150126B700950175108100C005B4
:100710000C0901A101850419012AA002150126A0D6
:1007200002950175108100C005010906A101850629
:10073000050719E029E715002501950875018102D3
:100740000507190029EF1500250195F075018102B3
:100750000508190129059505750191029501750393
:100760009101C005010906A101050719E029E71556
:100770000025019508750181029501750881010523
:1007800007190029FF150026FF009506750881004E
:100790000508190129059505750191029501750353
:1007A0009101C00011241FBECFEFDAE0DEBFCDBF44
:1007B00004B603FE18C08091500390915103A0919C
:1007C0005203B09153038730904BA740B04B59F47C
:1007D000109250031092510310925203109253033F
:1007E000E0E0F8E3099511E0A0E0B1E0E2E1FFE527
:1007F00002C005900D92A23EB107D9F723E0A2EE08
:10080000B1E001C01D92A035B207E1F70E94D213FA
:100810000C945E2F0C94000081E0089581E008950F
:100820000C940E0408950C9412041F93CF93DF933D
:1008300000D000D00F92CDB7DEB749835A836B83C7
:100840003091E50189819A8131111DC06623B9F08B
:100850002223A9F00E94A00A182F682F89819A816B
:100860000E944D0A69817A81812F0F900F900F901D
:100870000F900F90DF91CF911F910C9486220E94D0
:10088000790A182FEFCF0E94A00A69817A81EDCFF3
:10089000FC01262F408151816281738184810C94F7
:1008A000150481E00895CF93DF93EC0160E00E948E
:1008B0004804BE01DF91CF910C941304E1E0F0E015
:1008C000DF0102C0AA0FBB1F6A95E2F7BD01DF017D
:1008D00002C0AA0FBB1F4A95E2F76A2B01C0EE0FB8
:1008E0002A95EAF7962F9823961302C08E2B089527
:1008F000E0958E230895242F462F682F80910402BF
:100900000E945E040C940A0A0C9473120C947612E2
:1009100008950E94A6090E9488042FEF84E39CE0BA
:10092000215080409040E1F700C000000C94412627
:100930000F931F93CF93DF938C0161E00E944804D3
:10094000EC01B8010E942F1F882309F441C0B801AF
:10095000CE010E9410048823D9F1B801CE010E9473
:10096000E7238823A9F1B801CE010E9480208823C3
:1009700079F1B801CE010E945123882349F1B801D1
:10098000CE010E94D71D882319F1F80182818823A6
:1009900061F0CA35FDE5DF0721F170F4C115ECE522
:1009A000DE07A1F0CE3DDC45C9F0C801DF91CF9153
:1009B0001F910F910C940C04CB358DE5D807A1F055
:1009C000CC35DD4591F70E94C00EEFCF0E9489041F
:1009D00080E0DF91CF911F910F9108950E94790FD0
:1009E000F7CF0E94C90EE1CF0E94CC0EDECF0E944D
:1009F0007B250E94E4050C94441C0E94E7050E949C
:100A0000101D0C947F25DF92EF92FF920F931F939E
:100A1000CF93DF93E82FF0E0E45DFC4FD490282FD4
:100A200026952695269530E0F901E453FC4F049174
:100A3000877010E0082E02C0159507950A94E2F71A
:100A400001701127F901E454FC4FE490F12C082EB9
:100A500002C0F594E7940A94E2F791E0E922FF24BA
:100A6000F901E455FC4FC491D0E002C0D595C7957B
:100A70008A95E2F7C170DD270115110519F081EEA5
:100A80000E943906E114F10419F086EE0E9439063D
:100A90008D2D0E943807EF2819F086EE0E94CB06B4
:100AA000012B19F081EE0E94CB06CD2B51F08CE288
:100AB000DF91CF911F910F91FF90EF90DF900C94F9
:100AC0003807DF91CF911F910F91FF90EF90DF904A
:100AD0000895EF92FF920F931F93CF93DF93EC0152
:100AE000162F0AE08881882309F454C0813009F068
:100AF0004EC08981813099F47E0122E0E20EF11C22
:100B00008A810E943807E7012196812F815050F396
:100B1000EFE9FFE03197F1F700C00000F7CF823036
:100B200041F47E0182E0E80EF11C8A810E943906C0
:100B3000EACF833041F47E01E2E0EE0EF11C8A81BF
:100B40000E94CB06E0CF843011F02196DDCF2A81C0
:100B5000229690E080E0AE014F5F5F4F2053330B51
:100B60002A30310548F0019778F2EFE9FFE031973C
:100B7000F1F700C00000F7CF089FB001099F700D8A
:100B80001124C901860F971F2981EA01E4CF0E9431
:100B90000305BACFDF91CF911F910F91FF90EF9096
:100BA000089560E00C94690508950C94D40581E0E3
:100BB00008950C94D7050895CF93C82F0E94D505AA
:100BC0008C2FCF910C94D90580E00C94DC050E9409
:100BD00043240C94DC050E9443249091E40198176F
:100BE00021F08093E4010C94DC050895CF93DF930A
:100BF000CDB7DEB72B970FB6F894DEBF0FBECDBFD3
:100C00004F83588769877A878B8761110E940E0E00
:100C10001E821D8285E0FE013796DE01119601904D
:100C20000D928A95E1F78C819D81892B89F4498108
:100C30005A816B817C818D819E810E942F0D2B9624
:100C40000FB6F894DEBF0FBECDBFDF91CF910895F0
:100C500089819A8189238F3F51F3CE0101960E94A9
:100C600051048111E4CFEBCFFC01808191810C9480
:100C7000CD0ACF93C82F882309F48BC08238C1F4E2
:100C80000E94432481FD85C089E30E94C90D0E9412
:100C90002E0E2FEF81EE94E0215080409040E1F73E
:100CA00000C0000089E30E94D00DCF910C942E0E5D
:100CB0008338A1F40E94432480FD6BC083E50E9429
:100CC000C90D0E942E0E2FEF81EE94E0215080403E
:100CD0009040E1F700C0000083E5E5CF8438A1F43F
:100CE0000E94432482FD55C087E40E94C90D0E94E2
:100CF0002E0E2FEF81EE94E0215080409040E1F7DE
:100D000000C0000087E4CFCF8CEF8C0F813A90F4C5
:100D10006C2F80910601909107010E94B7248823CF
:100D200029F08C2F0E94D00D0E942E0E8C2F0E9435
:100D3000C90DBBCF80E28C0F883048F4C77081E0CA
:100D400001C0880FCA95EAF70E94F10DAECFEBE51E
:100D5000EC0FE33040F4F0E0E25AFE4F808190E087
:100D6000CF910C947724E8E5EC0FE73150F4F0E0F4
:100D7000EE0FFF1FE05DFE4F80819181CF910C94BB
:100D80008D24C03F30F08C2F0E945614CF910C94CC
:100D90002915CF910895882309F452C0823871F43F
:100DA0000E94432481FF4CC089E30E94C90D0E9428
:100DB0002E0E89E30E94D00D0C942E0E833859F428
:100DC0000E94432480FF3CC083E50E94C90D0E941D
:100DD0002E0E83E5EFCF843859F40E94432482FF1E
:100DE0002FC087E40E94C90D0E942E0E87E4E2CF37
:100DF0009CEF980F913AF0F290E2980F983050F4EF
:100E0000877091E001C0990F8A95EAF7892F0E94B7
:100E1000F70DD2CF9BE5980F933020F490E080E05F
:100E20000C94772498E5980F973120F490E080E0B7
:100E30000C948D24803F20F00E94B0140C9429154E
:100E400008951F93CF93DF93182FEB010E9439066B
:100E5000209731F4812FDF91CF911F910C94CB0615
:100E60008FE99FE00197F1F700C000002197F0CFD4
:100E700070E060E0893311F460E570E00C942107C4
:100E8000882321F00E94F10D0C942E0E08958823E2
:100E900021F00E94F70D0C942E0E0895BF92CF9270
:100EA000DF92EF92FF920F931F93CF93DF936C012A
:100EB000D62FC72FFC011281F580F2949FE0F92212
:100EC0000E94E70DE82E8823B9F0E12E1123A1F04E
:100ED0008C2F807F803421F080E28D0F8830D0F01D
:100EE00080910D0382FD16C082E00E948F0E0E9449
:100EF000E70D91E0E82EE926BC2EB2948FE0B822EF
:100F0000FBE0FB1508F468C0EB2DF0E0E05AF04D73
:100F10000C94432EE12CF0CF0C2F0F70C07F11F0FA
:100F20000295007F112399F0002359F080E28D0F84
:100F3000883010F0D11107C0802F0E94F10D0E945F
:100F40002E0E8D2F41C0802F0E94010EF8CF8D2FC5
:100F50000E94CB06002309F43FC080E28D0F883049
:100F600010F0D11104C0802F0E94F70D03C0802F14
:100F70000E94070E0E942E0E2FC00C2F0F70C07FF4
:100F8000C03211F00295007FDD2381F0D13009F4E9
:100F900069C0112309F473C0FF2009F469C0F60188
:100FA000858180FFCECF8F70858362C080910D03D5
:100FB00082FF38C0112359F0002329F0802F0E94AE
:100FC000F10D0E942E0E80E00E94390605C080E0DF
:100FD0000E94CB060111C7CFEB2DE850FF0B3497D1
:100FE00020F40E9443240E94DC05EE2009F44DC148
:100FF0000E94E30D80FD49C1F60112820E94DD0DC1
:101000000E941B0AC6010E9466090E94DD0DDF9145
:10101000CF911F910F91FF90EF90DF90CF90BF90F5
:101020000C94260A112389F0F11006C00E94110EBB
:10103000802B0E944007D0CF21E0F212F7CF0E9410
:10104000110E802B0E94170EC7CFF11006C00E9410
:10105000240E802F0E944707BFCF31E0F31609F41A
:10106000BBCFF5CF112331F085E08F1508F4B4CF55
:10107000802FDFCF94E09F1508F4AECFEACFFF209A
:1010800041F3D93349F4FFEF27EE33E0F15020402C
:101090003040E1F700C000008D2F0E94CB069CCFAE
:1010A0008C2F86958695837069F0813009F094CFF6
:1010B0008D2F9C2F9370111102C090E080E00E9450
:1010C0008D248ACF8D2F9C2F9370111102C090E038
:1010D00080E00E94772480CF8D2F112329F00E9479
:1010E00056140E94291578CF0E94B014FACF8C2F85
:1010F000837079F5111170CF4D2F42954695477049
:10110000440F440F8D2F8F70042E01C0880F0A9456
:10111000EAF72D2F2071D4FF07C02FE030E001C087
:10112000220F4A95EAF72095C695C695C370822B83
:10113000C23049F058F4C13019F00E94FC094CCF7C
:101140000E94F70949CF0E94010A46CF0E94F50983
:1011500043CF8695112311F08C2F8170882309F4D9
:101160003BCF4D2F429546954770440F440F8D2F2E
:101170008F70042E01C0880F0A94EAF72D2F20717A
:10118000D4FF07C02FE030E001C0220F4A95EAF7F4
:101190002095C695C695C370822BC23049F058F48D
:1011A000C13019F00E94420A17CF0E943D0A14CFA5
:1011B0000E94470A11CF0E940A0A0ECFCF70112356
:1011C00029F08C2F0E941B0A8D2F33CF8D2F0E9468
:1011D00047078C2F0E94260AFFCED23F51F160F4C0
:1011E000D03FB9F0D13F81F0112309F449C0F1108B
:1011F000A8CE8C2F8F7121C0D33F11F1D43FA1F71E
:1012000080910D0382FF26C08C2F8F71112311F363
:1012100014C0112349F084E08F1508F4DDCE8C2F23
:101220008F710E94320AD8CE95E09F1508F4D4CE73
:10123000F6CF8C2F8F711111CDCF0E941B0ACCCE0F
:10124000112329F08C2F8F710E94130AC5CE0E94A2
:10125000100AC2CE112349F0CF718C2F0E941B0AB5
:1012600063E08C2F0E94740EB7CE81E00E948F0E37
:10127000E1E0EF1508F0B0CE82E00E948F0EACCE18
:10128000F110FFCE8C2F8F71A5CFDF91CF911F91E1
:101290000F91FF90EF90DF90CF90BF9008950F9344
:1012A0001F93CF93DF93EC01688179818A810E943B
:1012B000D70A8C010E944C0A0E94F409B801CE01A1
:1012C000DF91CF911F910F910C944E07CF93DF9335
:1012D000EC018B819C81892B29F08881998189235C
:1012E0008F3F59F4DF91CF910895CE010E944F09AD
:1012F000CE01DF91CF910C945304CE010E9498044B
:101300008111F3CF0E94E70D882361F38A8188233E
:1013100049F380910D0382FDE5CF82E0DF91CF910B
:101320000C948F0E90E080E00E94772490E080E0A3
:101330000E948D240E940E0E0E942E0E0E945016B6
:101340000C9429150E94D70D0C9492090E94FE0D51
:101350000C94A20992959F70963091F058F4925F88
:101360009F70923058F4803F19F030F4883E30F48A
:1013700081E008959A5FF4CF843FD1F380E008952F
:10138000883EB0F3813FD1F7F3CFFC01808191819A
:101390000E94CD0A0C94AA09CF93DF9300D000D00D
:1013A0000F92CDB7DEB70F900F900F900F900F9068
:1013B000DF91CF910895CF93DF9300D000D000D07C
:1013C000CDB7DEB726960FB6F894DEBF0FBECDBF01
:1013D000DF91CF91089508950C94EB090E94EC09D8
:1013E000809305020C94920908950C94EE09909153
:1013F0000502892B0C94EE099091050289230C9427
:10140000EE099091050289270C94EE090C94EB09E2
:101410000C94060A0E94080A809304020C94920914
:1014200080E00C940A0A91E001C0990F8A95EAF7CE
:10143000892F0C940A0A21E030E001C0220F8A951E
:10144000EAF780910402822B0C940A0A21E030E032
:1014500001C0220F8A95EAF7209580910402822329
:101460000C940A0A21E030E001C0220F8A95EAF7C5
:101470008091040282270C940A0A90910402892B1D
:101480000C940A0A9091040289230C940A0A909100
:10149000040289270C940A0A08959295907F890F77
:1014A000982F977041E001C0440F9A95EAF786950E
:1014B0008695869593E0899FF0011124EA51FE4FAD
:1014C00030E020E070E05191DF011197CB01022E56
:1014D00002C0969587950A94E2F7817081958527D9
:1014E000842385278C932F5F3F4F2330310559F795
:1014F00008959295907F890F982F9770869586957D
:10150000869523E0829FF0011124EA51FE4F50E0BE
:1015100040E080E0219130E0092E02C03695279509
:101520000A94E2F721703327042E01C0220F0A9497
:10153000EAF7822B4F5F5F4F4330510559F708950B
:10154000CF92DF92FF920F931F93CF93DF936C01A3
:101550000091040280910502082BC7E0D0E010E062
:10156000FC2EC8010C2E02C0959587950A94E2F7CF
:1015700080FD0CC02197A0F7F12C8F2DDF91CF912A
:101580001F910F91FF90DF90CF900895B6018C2F9F
:101590000E945D11019771F3F0CFCF93DF93EC01BF
:1015A0000E94A00ABE01DF91CF910C945D111F93A0
:1015B000CF93DF93EB019091E501992331F0CB01BB
:1015C000DF91CF911F910C94CD0A882379F0CB0144
:1015D0000E94A00A182F682FCE010E944D0ABE015A
:1015E000812FDF91CF911F910C945D11CB010E944F
:1015F000790A182FF4CF1F93CF93DF93C09106027F
:1016000016E0809107028C1304C0DF91CF911F91E7
:101610000895D0E01C9FF0011D9FF00D1124E85F9C
:10162000FD4F4081518162817381848195810E9447
:10163000DB092196C770E5CF4091380250913902FD
:1016400060913A0270913B0280913C0290913D0280
:101650000C94DB09FF920F931F93CF93DF9380913C
:101660003D02807FD1F480913A028823B1F08091CD
:101670000602109107026091380270913902A09120
:101680003B02B0913C02062F0723C0910401D09188
:10169000050196E0F92E181306C0DF91CF911F9136
:1016A0000F91FF90089590E0109711F00F3F19F4FB
:1016B00001968770F0CFF89E9001F99E300D1124AD
:1016C000F901E85FFD4F41814713F2CF4081461396
:1016D000EFCF42814111ECCF438154814A1B5B0B18
:1016E0004C175D0728F780913D028F7080618093D1
:1016F0003D02F901E35FFD4F80818F70806180833F
:1017000088E392E00E946609DF91CF911F910F91CB
:10171000FF900C94FB0AAF92BF92CF92DF92EF92B0
:10172000FF920F931F93CF93DF93CDB7DEB76197EF
:101730000FB6F894DEBF0FBECDBF8C0185E0F80177
:10174000DE011D9601900D928A95E1F7F801E28085
:1017500088E3C82E82E0D82E60913B0270913C0253
:101760006115710509F45FC1909138022091390229
:10177000892F82238F3F09F456C140815181A38074
:10178000B480F0903A02F501E61BF70BBF01E0913F
:101790000401F0910501FF2009F4F6C080913D029B
:1017A000382F307F6E177F0708F0AFC0311179C036
:1017B000FE2C251323C0941321C0E1101FC08F708D
:1017C000806180933D020E941C0BC6010E94660945
:1017D00080913D02F80185838F2D61960FB6F894B4
:1017E000DEBF0FBECDBFDF91CF911F910F91FF9054
:1017F000EF90DF90CF90BF90AF900895AB2829F085
:10180000842F85238F3F09F027C180E0F82FF170E6
:10181000DF2E80FF3CC0809106022091070236E057
:10182000821315C04D875E878D859E850E94CD0AE7
:10183000292F22952F702230F0F0243018F59F7058
:10184000F1F0F8019581907FD1F4D12C1EC090E089
:10185000389FF001399FF00D1124E85FFD4F618141
:10186000651306C06081641303C062816E110FC0EE
:1018700001968770D5CF9F7011F0882331F3805E79
:10188000883018F3C8010E946609FD2CA5CFEE2010
:1018900009F4A2CF80913D02816080933D02F12C3A
:1018A0009BCF251306C0941304C0F801EE2009F461
:1018B00087C0C8010E94C509882319F1EE2009F1EB
:1018C00080913D02803270F02091380230913902CF
:1018D00038872F831986BB86AA868C87CE01079608
:1018E0000E94660986E0F801A8E3B2E001900D923B
:1018F0008A95E1F70E942A0B0E941C0BFF24F394A7
:101900006BCFC8010E946609F9CF311113C07A2D3F
:10191000B98AA88A6E2D89890E94CC0988E392E051
:101920000E94660986E0F60111928A95E9F70E9405
:101930001C0BB5CF25130FC094130DC0E1100BC0C5
:10194000F8018583C8010E94660986E0F6011192BC
:101950008A95E9F741CFC8010E94C509882389F219
:10196000EE2079F280913D02803208F4BBCF2091C5
:101970003802309139023A8329831B82BD82AC82BE
:101980008E83CE010196ACCF6E177F0708F03EC064
:10199000FE2CEE2009F4B5CF25132AC0941328C0DD
:1019A00080913D0280FD1BC0982F907FC1F0F8010F
:1019B0008583903F31F0982F907F905F8F70892BB7
:1019C0008583C8010E94660986E0F801A8E3B2E0B9
:1019D00001900D928A95E1F70E941C0BFDCE86E0E6
:1019E000F801A8E3B2E001900D928A95E1F7F4CEF8
:1019F000C8010E94C509811175CF80913D028160A7
:101A000080933D02C8010E946609E6CE7A2DB98A0C
:101A1000A88A6E2D89890E94CC0986E0F601119270
:101A20008A95E9F7D9CFEE2009F46BCFC8010E945F
:101A3000C509F82E882309F464CF86E0F801A8E3ED
:101A4000B2E001900D928A95E1F788E392E00E945E
:101A500034060E942A0BC0CF81E08E25D7CE1F937B
:101A6000CF93DF93CDB7DEB72C970FB6F894DEBFD8
:101A70000FBECDBF4F83588769877A878B879C8736
:101A8000CE0107960E948B0B882369F08A859B857F
:101A9000892B39F04F815885842F85238F3F09F09A
:101AA00071C016E05FC086E0FE013796DE01119638
:101AB00001900D928A95E1F78A859B85892B89F3A0
:101AC0008F81988589238F3F61F32091070230E051
:101AD000C901019687709927409106024817190697
:101AE00071F40E94A609109207021092060286E085
:101AF000E8E3F2E0DF011D928A95E9F7D2CF96E0A4
:101B0000929FD001939FB00D1124A85FBD4FFE019D
:101B1000319601900D929A95E1F7809307020E9409
:101B2000FB0ABFCF819FC0011124885F9D4F0E9497
:101B30008B0B8823E9F0E09106021E9FF00111242F
:101B4000E85FFD4F4081518162817381848195817D
:101B50000E94DB098091060290E001968770992728
:101B60008093060280910602909107028913DACFD2
:101B70002C960FB6F894DEBF0FBECDBFDF91CF918C
:101B80001F91089569857A858B859C850E94DB0964
:101B900088CF682F80910601909107010C9437251A
:101BA000682F80910601909107010C944225809145
:101BB0000601909107010C944D2580915E02859558
:101BC00085958595089580915E028770089590911E
:101BD0005E02977081E009F480E0089580918102AF
:101BE000089590918102892B8093810208958095B8
:101BF000909181029823909381020895109281021E
:101C0000089590918002892B809380020895809599
:101C10009091800298239093800208951092800200
:101C2000089580915F02089508950C94140E909188
:101C30000D0392FD08C090915F02981721F08093E8
:101C40005F020C94150E089580915F02882329F09D
:101C500010925F0280E00C94150E0895CF93DF93ED
:101C6000E0910601F0910701809181028083E0916B
:101C70000601F0910701808190918002892B808379
:101C800090915F02992381F0E0910601F0910701A4
:101C90008081892B808380910601909107010E94A9
:101CA000A32481110E94240EC0910601D091070146
:101CB00040E250E06EE372E0CE010E94EA2E892BF2
:101CC00069F080E2FE01AEE3B2E001900D928A95E8
:101CD000E1F7CE01DF91CF910C944F24DF91CF91AA
:101CE000089508950C94710E90910D0392FD10C00B
:101CF00098E0899F90011124622B60935E020E94FC
:101D00001B0A80915E028595859585950C94720ECF
:101D10000C941B0A10925E0280E00C94720E90915B
:101D20005E028095892380935E02282F277091F4AC
:101D3000282F082E000C330B9217130659F09091A0
:101D40000D0392FD07C08595859585950E94260A0D
:101D50000C948A0E089590910D0392FB222720F98E
:101D6000281769F080FB92F990930D0380910C0382
:101D700090910D030E94F60E82E00C948F0E089550
:101D800080910D0382FB882780F991E089270C94CC
:101D9000AB0E81E00C94AB0E80E00C94AB0E6FEFB9
:101DA0007FEF90E080E00C94292F90E080E00E948B
:101DB000052F893E9E4F11F40C94CD1E80E00895AE
:101DC00082E090E00C94F72E83E090E00C94F72EE4
:101DD000CF9384E090E00E94F72EC82F82E290E03B
:101DE0000E94F72E982F8C2FCF910895CF93C92F53
:101DF000682F84E090E00E940B2F6C2F82E290E02D
:101E0000CF910C940B2FAB01BC018FE090E00C94B0
:101E10001D2FAB01BC0183E190E00C941D2F60E00D
:101E200070E0CB010C94090F60E070E0CB010E94E0
:101E3000030F0C940F0F69EE7EEF90E080E00E949C
:101E4000292F60E082E090E00E940B2F60E083E0A9
:101E500090E00E940B2F1092050260E084E090E079
:101E60000E940B2F60E082E290E00E940B2F60E066
:101E700085E090E00E940B2F60E086E090E00E94F9
:101E80000B2F6FEF87E090E00E940B2F40E050E0B7
:101E9000BA0188E090E00E941D2F60E08DE090E0A4
:101EA0000E940B2F40E050E0BA0188E190E00E94D0
:101EB0001D2F60E087E190E00E940B2F40E050E092
:101EC000BA018CE190E00E941D2F70E060E080E29A
:101ED00090E00E94292F40E050E0BA0188E190E0B4
:101EE0000E941D2F80E00E94E61E0E94131F0C948A
:101EF000140F0C941B0F682F8EE090E00C940B2FA6
:101F00000E94022660939002709391028093920245
:101F10009093930260938C0270938D0280938E0253
:101F200090938F02089585B7806885BF85B78068D4
:101F300085BF0895089508950C949B0F08950C94FF
:101F40009E0F0E94930F8BE392E10E9439240E941E
:101F50009A0F0C949C0F81E008950C94AB0F089598
:101F600008950E94AF0F0C94B00F0E9458120C9469
:101F7000DB050E94ED250E94221F0E942C130E9467
:101F8000B50F0E94D51C0C949F0F7F928F929F9249
:101F9000AF92BF92CF92DF92EF92FF920F931F9377
:101FA000CF93DF93CDB7DEB72A970FB6F894DEBF95
:101FB0000FBECDBF0E944113A82E81110E94800F39
:101FC00052E8852E52E0952E10E000E0702E802F12
:101FD0000E9478126C01F401E190F1904F01E81633
:101FE000F90609F453C08091940281FD0E94811288
:101FF000C7018C259D25B12CEE24E394F12C9C0186
:102000002E213F21232BE1F10E94AD0F8823A9F05F
:10201000BE827F82CE20DF2081E0CD2809F480E0DF
:1020200088870E94F6258160782F9A8789874E815C
:102030005F8168858A850E94F605000F111FF801EF
:10204000EE57FD4F80819181E826F926F182E082EA
:1020500081E0A11001C080E02A960FB6F894DEBF9F
:102060000FBECDBFDF91CF911F910F91FF90EF90E9
:10207000DF90CF90BF90AF909F908F907F9008950A
:10208000B394EE0CFF1CF0E1BF12B9CF0F5F1F4FEE
:102090000530110509F09ACF8FEF89838A831B825F
:1020A0000E94F6258160782F9D838C8349815A8117
:1020B0006B818D810E94F605CBCF0E94C50F0E94D7
:1020C000191D0E9444150C94EB05CF93DF930E94D9
:1020D0006111EC01811521E5920708F042C08115DC
:1020E00030E5930708F09DC0883E910530F5803EAD
:1020F000910508F092C0883A910588F4853A9105D7
:1021000008F084C08130910509F487C0009709F474
:1021100084C0049708F081C0D0E0C0E07EC08F3B4F
:102120009105D0F7C85AD0E0CC0FDD1FCF59DE4F54
:102130000990D881C02DD46470C08115904250F4AC
:10214000C11581E0D80708F068C0C03FD10520F371
:10215000D06563C0C11590E4D907F0F2DF70D06A92
:102160005CC0811525E5920700F5811534E59307DC
:1021700008F08BC0811543E5940708F073C0C115C2
:1021800082E5D80708F469C0CE018370992721E061
:1021900030E002C0220F331F8A95E2F7C695C6953C
:1021A00080E2C89FE001112454C0C11599E5D90708
:1021B000A8F4C11528E5D20708F06CC0C11536E5B2
:1021C000D30708F0A9CF8C2F0E94F811C82FD0E0B8
:1021D000DC2FCC27CC27DF71D0621FC0C1154AE5A8
:1021E000D40708F45CC0CE0190568115904208F0E7
:1021F00093CF8D2F8F710E94F81190E0982F882730
:1022000088279F719C012C2BE901E6CFC55AD0E0AD
:10221000C157DE4FC881D0E0D064CE01DF91CF91AD
:102220000895E4E096958795EA95E1F783702C2F61
:1022300026952695237040E2249F90011124382B87
:102240008C2F8370C1E0D0E002C0CC0FDD1F8A95D7
:10225000E2F7C22BD32BDC68E0CFDC2FCC27C16F99
:10226000D06ADBCF8370992721E030E002C0220FD3
:10227000331F8A95E2F7C695C69590E2C99FE001A3
:102280001124C22BD32BDA68C8CFD82FCC27C46F28
:10229000D06AC3CFDC2FCC27C06FD06ABECF8C2FC3
:1022A0008F700E94F81134E0D695C7953A95E1F702
:1022B000CF709C2FEC01D069B0CF0E9486220C9485
:1022C000651082389105B1F1B0F48133910509F4BC
:1022D00075C048F48932910509F469C08A329105C4
:1022E00009F473C008958533910509F459C0893301
:1022F000910501F10895833E9105A9F138F4803EDE
:102300009105F9F0823E910549F10895863E9105C7
:10231000A9F1873E9105C9F1843E910519F52091F7
:102320000D0321FF1FC080910C0384FD14C087EEB4
:1023300090E0089520910C032370A1F080EE90E0CE
:10234000089520910C0320FD47C030910D0330FF0C
:1023500009C024FF44C090E080E004C020910C0339
:1023600022FDF7CF089520910C0322FD3BC0309150
:102370000D0330FDE3CF24FFF5CFEDCF20910C030B
:1023800023FFF0CF24FDE7CFD2CF20910C0323FD14
:102390002CC030910D0331FFEECF84EE90E0089514
:1023A00020910C0325FFDECF89E290E00895209173
:1023B0000C0325FFD7CF85E390E0089520910C030F
:1023C00026FFD0CF8AE290E0089520910C0326FFEB
:1023D000C9CF81E390E0089589E390E0089583EE0A
:1023E00090E0089582EE90E0089586EE90E00895E2
:1023F00090910C0392FF06C0282F28712830F9F421
:10240000877F846093FF06C0282F28712831F1F45C
:10241000877E846120910D0320FF06C0382F38711C
:102420003830D9F4877F816021FF06C0282F2871BA
:102430002831D1F4877E816194FD877E0895282F0D
:1024400024712430F9F68B7F8860DCCF282F24712B
:10245000243101F78B7E8861DDCF382F3171313027
:1024600019F78E7F8860E0CF282F2171213121F765
:102470008E7E8861E1CF80E008950C94CF0E0E949B
:1024800041132FEF86E791E0215080409040E1F723
:1024900000C000000E94411380E00E94781280FF7B
:1024A00004C00E943D120C94412608950C943F12E2
:1024B0000E94D50E811102C00E94790F0E94E00E89
:1024C000809394020E94E80E90930D0380930C0376
:1024D0000E9456120E94E40E0E94F50980910402A7
:1024E0000C94080A08950C94721208950C947512B5
:1024F000E82FF0E0EE0FFF1FE85EFC4F8081918136
:102500000895089580EA8A95F1F7089500C0089526
:102510000C948212F894E82FE295EF70F0E031A16C
:10252000282F2F7081E090E001C0880F2A95EAF7EC
:10253000982F9095932391A392A1892B82A37894AD
:102540000895CF93DF93C2EAD1E089918F3F11F0D4
:102550000E948A1281E0C73AD807B9F7C2E9D1E0F0
:1025600089918F3F11F00E948A1281E0C23AD80708
:10257000B9F7DF91CF910895AF92BF92DF92EF92BA
:10258000FF920F931F93CF93DF938C01D62EC62F0C
:10259000D0E0CE018E559E4F7C01FC0120812F3F63
:1025A00009F44DC0F894E22FE295EF70F0E031A10C
:1025B0002F7081E090E001C0880F2A95EAF7932FF1
:1025C000982B91A392A18095892382A378940E944D
:1025D0008612E2E9F1E042EA51E021E030E0B12C7C
:1025E000A12C61916F3FA9F1A62FA295AF70B0E029
:1025F00090968C9190E06F7002C0959587956A9542
:10260000E2F780FD26C0C901A82AB92A220F331F8C
:102610004E175F0731F7F70180818F3F11F00E945D
:102620008A1261E0A114B10409F460E08D2D0E94CA
:102630008812CC0FDD1FC00FD11FB982A882DF9195
:10264000CF911F910F91FF90EF90DF90BF90AF90CF
:10265000089590E080E0D8CF0E94A1128AE0E8E1DE
:10266000F3E0DF01982F1D929A95E9F7EEE0F3E091
:10267000DF011D928A95E9F785E00E948C130C9486
:102680008404FF920F931F93CF93DF93CDB7DEB7F0
:102690002A970FB6F894DEBF0FBECDBF8E010F5F35
:1026A0001F4F8AE0F80111928A95E9F7F12C6F2DFE
:1026B000C8010E94BC12F394F5E0FF12F8CF4AE083
:1026C00050E0B8018EE093E00E94EA2EFF24F394DC
:1026D000009709F4F12C892B41F08AE0F801AEE073
:1026E000B3E001900D928A95E1F72F2D45E068E166
:1026F00073E08EE093E00E948D130E9486048F2D7C
:102700002A960FB6F894DEBF0FBECDBFDF91CF91F2
:102710001F910F91FF9008950895FF920F931F93BB
:10272000CF93DF93F82E092F162FD72FC42F2223F4
:1027300049F081E0809397020E94F62590939602DB
:1027400080939502809197028823A1F08091950251
:10275000909196020E940E26059760F0EF2DF02FC3
:10276000A12FBD2F90E080E0D0E08C179D0744F0B2
:1027700010929702DF91CF911F910F91FF900895D2
:10278000219131912D933D930196EFCF0E943C28EA
:102790000E94B90F0C9448280E944C280E945D109A
:1027A0000C9466280E9496250E9423280E94A10F5F
:1027B0000E94C6130E94CC130E94B10FFBCF8091E0
:1027C0009E0280FF0DC060910D0170E0660F771FC3
:1027D0006038710570F56115710569F1862F0895EE
:1027E00081FF07C060910D0184E0689FB001112452
:1027F000EFCF60910D0182FD0AC080919D02882378
:10280000A9F020910C0160910D01821710F088E071
:10281000ECCF869FC001112433E0880F991F3A95B1
:10282000E1F7622F70E00E940D2ED2CF68E070E0D9
:10283000D5CF8FE7089581E0089580919E0280FFB3
:102840000CC06091090170E0759567957595679565
:102850006115710549F1862F089581FF06C06091C9
:10286000090170E075956795F3CF6091090182FDCC
:102870000BC090919C029923A1F060910801809176
:102880000901961738F0682F70E06038710500F381
:102890008FE70895899FC001112470E00E940D2EDA
:1028A000F4CF61E070E0D7CF81E00895803F31F44C
:1028B0000E94DF1381958093A2020895813F19F44D
:1028C0000E94DF13F8CF823F31F40E94DF1381951D
:1028D0008093A1020895833F19F40E94DF13F8CF7B
:1028E000893F29F40E941D148093A30208958A3F12
:1028F00021F40E941D148195F7CF8B3F31F40E9483
:102900001D1481958093A40208958C3F19F40E94B0
:102910001D14F8CF9CE0980F953070F4845F990BEC
:1029200021E030E001C0220F8A95EAF78091A002F1
:10293000822B8093A00208958D3F31F480919E02F6
:10294000816080939E0208958E3F21F480919E02C3
:102950008260F7CF8F3FB9F780919E028460F1CFFC
:102960004091A102803F59F48091A20287FF0DC0DF
:102970001092A20241110BC010929D0208C0813F2B
:1029800081F48091A20218169CF3442381F0809177
:10299000A3029091A402892B09F05AC010929C02C4
:1029A0000895823F49F447FFF0CF1092A102809131
:1029B000A2028111ECCFE0CF833F19F41416ACF3DF
:1029C000E4CF9091A302893F29F41916F4F61092EE
:1029D000A302DBCF8A3F19F497FFD7CFF8CF9091AE
:1029E000A4028B3F29F497FFD0CF1092A402CDCF41
:1029F0008C3F19F41916CCF3C8CF9CE0980F953092
:102A000090F4845F990B21E030E0B90102C0660FB9
:102A1000771F8A95E2F7CB0180959091A0028923D8
:102A20008093A002B2CF8D3F31F480919E028E7FC1
:102A300080939E02AACF8E3F21F480919E028D7FCB
:102A4000F7CF8F3F09F0A1CF80919E028B7FF0CF0F
:102A500008950E94F6259C019091A1028091A20206
:102A6000982B21F030939B0220939A029091A3021D
:102A70008091A402982B21F0309399022093980220
:102A80008FE992E00C946924EF92FF920F931F93C9
:102A9000CF93DF9300D000D000D0CDB7DEB786E073
:102AA000EFE9F2E0DE01119601900D928A95E1F7CF
:102AB000E090A102F090A2020091A3021091A40262
:102AC0001092A1021092A2021092A3021092A402EC
:102AD0008E2D8F2991F080919A0290919B020E94F5
:102AE0000E26AC0190919D02992309F43FC080917C
:102AF0000E018417150608F447C0802F812B91F032
:102B000080919802909199020E940E26AC019091BA
:102B10009C02992309F477C080910A018417150655
:102B200008F47FC08091A1029091A202892B90911C
:102B3000A302892B9091A402892B11F00E942915E0
:102B400086E0FE013196AFE9B2E001900D928A95E0
:102B5000E1F726960FB6F894DEBF0FBECDBFDF912A
:102B6000CF911F910F91FF90EF90089520910F0149
:102B70008AE0289F900111242417350708F0BDCF63
:102B80009F5F90939D0202C09F3FD1F7EE2059F0C6
:102B90000E94DF139FEF1E140CF491E0899F802D9B
:102BA00011248093A102FF2059F00E94DF139FEFB0
:102BB0001F140CF491E0899F802D11248093A202B0
:102BC0003091A102332309F498CF2091A20222234D
:102BD00009F493CF45EB3403C0011124992359F034
:102BE0009093A10245EB240390011124332339F083
:102BF0003093A20282CF81E08093A102F3CF81E0E3
:102C00008093A2027ACF20910B018AE0289F900145
:102C100011242417350708F085CF9F5F90939C02FD
:102C200002C09F3FD1F7002359F00E941D149FEF6F
:102C300010160CF491E0899F802D11248093A3023B
:102C4000112359F00E941D149FEF11160CF491E00E
:102C5000899F802D11248093A4023091A3023323F5
:102C600009F460CF2091A402222309F45BCF45EB45
:102C70003403C0011124992359F09093A30245EB2A
:102C8000240390011124332339F03093A4024ACF56
:102C900081E08093A302F3CF81E08093A40242CF2E
:102CA00086E0EFE9F2E0DF011D928A95E9F71092E4
:102CB0009D0210929C0210929E020895EF92FF9244
:102CC0000F931F93CF93DF93EB01E82FD11110C027
:102CD000442321F0F0E0EA50FB4FE4916E2F7E2F69
:102CE0008E2FDF91CF911F910F91FF90EF9008955C
:102CF0000D2F10E0282F30E0442329F02A503B4FBD
:102D0000F901249130E0F6E0CF9FC0011124EFEFEC
:102D1000F0E0BF010E94F92DAB018C2F90E0880FED
:102D2000991FA5E5A49FB001A59F700D1124861BD6
:102D3000970B982F990F980FBF01601B710B629F23
:102D4000D001639FB00D729FB00D11248B2F9D9FFA
:102D5000B0011124672F7727EF01C61BD70BBE01E7
:102D6000629FE001639FD00D729FD00D11247F01FF
:102D7000E91AF108E09EB001E19E700DF09E700D21
:102D80001124672F7727E61BF70BE29F8001E39F53
:102D9000100DF29F100D1124E12F722F42305105BA
:102DA00099F048F44115510569F04130510581F021
:102DB000EB2F8D2F07C04430510569F080F046306D
:102DC0005105B1F76E2F8DCFE22F7B2F812FFACFD8
:102DD000E22F7D2FF7CFEB2F822F712FF3CF7B2F99
:102DE000822FED2FEFCF41E00C945E1608950C94E6
:102DF000F316CF93DF93762FE901682F842F0E947B
:102E0000F716798368838A83DF91CF9108954B3ACF
:102E100008F04AEA0C94F91680912203982F9E7FBD
:102E200061F48170826080932203809125038B3A44
:102E300018F08AEA8093250308958635B0F38170EF
:102E40008465F1CF88E090E00C94FF2ECF92DF9262
:102E5000EF92FF926B017C010E940C17B701A60153
:102E600088E090E0FF90EF90DF90CF900C941D2FC2
:102E70006091220370912303809124039091250394
:102E80000C942617E2E2F3E083E0808311828FEF57
:102E900082838AEA83831482608171818281938133
:102EA0000C9426178091220380FF02C08695089516
:102EB00080E0089590912603933018F49F5F9093DB
:102EC0002603882351F0609122037091230380919F
:102ED0002403909125030C942617089581E00C9407
:102EE0005A1790912603992319F091509093260335
:102EF000882351F060912203709123038091240371
:102F0000909125030C942617089581E00C94711775
:102F100080912603089580932603662351F06091E3
:102F200022037091230380912403909125030C9434
:102F30002617089560E00C948B1780912303089561
:102F400080912403089580912503089570E00C94E6
:102F5000A11E609114018091220380FF0AC080911C
:102F6000130123E0829FC0011124895D9C4F0C94C2
:102F7000A617809115019091160123E0829FF00120
:102F80001124E95DFC4F891750F7118210821282DB
:102F90008F5F3396F8CF9091220390FF14C09091E9
:102FA00015012091160133E0939FF0011124E95D92
:102FB000FC4F921710F00C94A91781836083428311
:102FC0009F5F3396F6CF0895CF93DF9300D00F9293
:102FD000CDB7DEB79091220390FF0AC09E012F5F0C
:102FE0003F4F0E9407174B8169818A810E94CB174E
:102FF0000F900F900F90DF91CF910895CF93DF93B3
:10300000EC01EC81F0E0EF50FC4F4491E2E2F3E0A0
:10301000628181810E94E4178C818F5F8C83DF91B4
:10302000CF910895CF93DF93EC01E2E2F3E0438187
:1030300062818C810E94E4178C818F5F8C83DF9189
:10304000CF9108950F931F93CF93DF9300D00F92EA
:10305000CDB7DEB78C018091A50281110AC09E0117
:103060002F5F3F4F4AEA6FEF0E9407178A818093D4
:10307000A502F8016481613069F08091A50240E009
:10308000662361F040E0623011F44091A50280E0D7
:1030900060E004C06091A50240E080E00E94CB1790
:1030A000F801848190E0019663E070E00E940D2EAB
:1030B00084830F900F900F90DF91CF911F910F910C
:1030C0000895AF92BF92CF92DF92EF92FF920F934B
:1030D0001F93CF93DF9300D00F92CDB7DEB7182F99
:1030E000F62E042FE22E9091220390FF29C0E92FA3
:1030F000E695AE2FB0E0A955BE4F8C918093D902D2
:103100009E7F923059F59E012F5F3F4F812F0E9485
:1031100007174B8169818A810E94CB171093230383
:10312000F092240300932503EE2051F060912203D6
:103130007091230380912403909125030E94261708
:103140000F900F900F90DF91CF911F910F91FF90F3
:10315000EF90DF90CF90BF90AF900895823019F438
:1031600000912503DBCF863019F410912303D6CFCD
:103170008930D9F3893191F6E9518E2F8170D82E9B
:10318000E695F0E0EF50FB4FA590B490C12CBB2426
:1031900060911701C61618F00E94A917BFCF2C2DF9
:1031A00030E0A29EC001A39E900DB29E900D11240E
:1031B00070E00E94F92D812FD11013C0860F40912D
:1031C0001501420F532F511D9A01220F331F240F57
:1031D000351F295D3C4F402F6F2D0E940717C39468
:1031E000D7CF861BECCFE2E2F3E09181282F438119
:1031F000628188E0890F0C94611881E00C94F318C7
:10320000E2E2F3E09181282F4381628188EF890F08
:103210000C94611881E00C940019E2E2F3E0628101
:1032200028E0620F08F46FEF282F438181810C940E
:10323000611881E00C940D19E2E2F3E0628128E06C
:10324000621B08F460E0282F438181810C9461188F
:1032500081E00C941C19E2E2F3E0438128E0420F84
:1032600008F44FEF282F628181810C94611881E06E
:103270000C942B19E2E2F3E0438128E0421B08F4AE
:1032800040E0282F628181810C94611881E00C94C8
:103290003A1920E00C946118EF92FF921F93CF939C
:1032A000DF93EC0110E0EE24EA94F12C6091170119
:1032B000161770F00E94A9179A818C8190FF27C081
:1032C0008F5F8C83DF91CF911F91FF90EF900895D6
:1032D00020911501422F410F5527551FCA019A0110
:1032E000220F331F280F391F295D3C4F70E0C701A3
:1032F0000E940D2E962F8C8140912503609124030E
:10330000199F800D11240E9407171F5FCFCF815096
:10331000D8CFBF92CF92DF92EF92FF920F931F937D
:10332000CF93DF93FC0182810FEF80FF01E010E07B
:10333000809117011817C0F00E94A9178091A70269
:10334000013009F051C0811102C0809117018150F4
:103350008093A702DF91CF911F910F91FF90EF9083
:10336000DF90CF90BF900895C0911501C12ED12C50
:10337000CC0DDD2DD11DCE01880F991FC80FD91F8F
:10338000C95DDC4F198218821A8234E0E32EF12CD9
:10339000B12C8091A7028B0D893004F18770082E23
:1033A000000C990BC816D90691F4809125038E9DC7
:1033B000A0018F9D500D1124559547955595479522
:1033C0009E0160912403809123030E940717B00E91
:1033D000F1E0EF1AF108E9F61F5FAACF87FFDFCF10
:1033E00090911701890FDBCF90E001966091170152
:1033F00070E00E940D2EACCF0F931F93CF93DF93FD
:10340000809115019091160123E0829FF001112413
:10341000E95DFC4F891740F1C0E0D3E060911701EE
:10342000C61740F10E94A917209111018091A602B0
:10343000820F8093A60290911201920F9093120135
:10344000191654F4082E000C990B409117014150A5
:10345000550B841795071CF0219520931101DF91DE
:10346000CF911F910F9108951182108212828F5F68
:103470003396D0CF0C2F10E070E0C8010E940D2EC3
:1034800020911501820F482F50E02091A602022EB4
:10349000000C330B02171307BCF020911201022E0F
:1034A000000C330B201731077CF08D9F9001112405
:1034B000295D3C4F409125036091240380912303B3
:1034C0000E940717CF5FAACFFA01EE0FFF1FE40F8C
:1034D000F51FE95DFC4F118210821282F3CF8F92AB
:1034E0009F92AF92BF92CF92DF92EF92FF920F9393
:1034F0001F93CF93DF93EC014C81042F10E09801D0
:10350000D8010E94582E9B01AC010E946E2E4B01E7
:103510005C01E0E2F0E0E01BF10BA5E5B0E0AC01FE
:103520009B010E946E2E6B017C019F01DF010E94B6
:10353000502E9B01AC010E94792E9B01AC01280DFD
:10354000391D4A1D5B1DC701B6010E94212EF22EB6
:10355000822F90E039E23F1560F143E0249F900113
:10356000112435952795122F109500E085E5E82E5A
:10357000EF1880911701081758F10E94A9179C8134
:1035800081E0992319F0903219F48FEF80931001A4
:1035900080911001890F8C83DF91CF911F910F9142
:1035A000FF90EF90DF90CF90BF90AF909F908F9063
:1035B000089525E530E0B901681B790B9B01220FC6
:1035C000331F260F371F37FFCCCF2F5F3F4FC9CF99
:1035D0008E2D01FD8F2D20911501622F600F772711
:1035E000771F9B01220F331F260F371F295D3C4F8A
:1035F000412F609124030E9407170F5FBACF0F93EA
:103600001F93CF93DF93EC0110E000E0909117013E
:103610009017110609F06CF40E94A9178C8190E0B4
:103620000196817099278C83DF91CF911F910F9123
:10363000089520911501A801420F511D9A01220FF2
:10364000331F240F351F295D3C4F4C8160912403AB
:103650008091230396959017110651F04CF0442366
:1036600049F0409125030E9407170F5F1F4FCECFEF
:103670004423B9F340E0F7CF4F925F926F927F926D
:103680008F929F92AF92BF92CF92DF92EF92FF9272
:103690000F931F93CF93DF93FC016280448081E0FE
:1036A0008483E1EFF3E07490E0E7F4E0E491812CAF
:1036B00075E0972EF2E0CF2EDD24D394AA24AA94AD
:1036C000B12C55245A94E7190E2F10E08091170160
:1036D000881690F0DF91CF911F910F91FF90EF909E
:1036E000DF90CF90BF90AF909F908F907F906F9022
:1036F0005F904F900C94A917E82CF12C82E086156E
:1037000068F09E9CF0019F9CF00D1124E855FD4F40
:10371000809123038083809124038183411023C0FF
:103720009E9CF0019F9CF00D1124E855FD4F1382E3
:10373000128220911501C701820F911D9C01220F59
:10374000331F280F391F295D3C4F9E9CF0019F9C21
:10375000F00D1124E855FD4F4281618180810E9466
:1037600007178394B3CF9E9CE0019F9CD00D11243A
:10377000C855DD4F8B818823E9F081508B83859D6F
:10378000C00111246C8170E00E94F92DFB01FF271C
:10379000EF50FC4F8491E82FE719E59DC0011124FB
:1037A000B8010E94F92D80912503689FB001112472
:1037B0007A83BFCF0E94CD2E2091250326952158D4
:1037C0002C9DA0012D9D500D1124452F55278417A8
:1037D00095070CF0AECF82E0861588F40E94CD2EBE
:1037E000B5010E940D2E88830E94CD2E20912403C6
:1037F0002695622F70E00E940D2E280F29839E9C33
:10380000F0019F9CF00D1124E855FD4F128280912C
:103810002503893C58F088EC9E9CF0019F9CF00D9C
:103820001124E855FD4F8483838383CF8431A0F72F
:1038300084E1F2CFE2E2F3E080818E7F80836081D9
:103840007181828193810E9426171092DA022FEFF4
:1038500080E792E0215080409040E1F700C00000F6
:103860000C94A917E2E2F3E080818E7F80831092AE
:10387000DA022FEF80E792E0215080409040E1F79C
:1038800000C000000C94A9171092DA028091D702B0
:1038900081110AC081E08093D70280912203817058
:1038A0008093D6020C94321C089560912203669591
:1038B00070E04BE050E088E191E00E94DD2E892B22
:1038C00019F481E08093DA020E94F6259093D102E8
:1038D0008093D00208959091220390FF35C091709B
:1038E000811128C0926090932203662351F0609169
:1038F00022037091230380912403909125030E9459
:10390000261760912203669570E04BE050E088E155
:1039100091E00E94DD2E892BA1F01092DA0281E065
:103920008093D30240912503609124038091230367
:103930000C9449198B3210F09465D5CF880F982BD1
:10394000D2CF0E94551CEBCF0895682F909122038F
:10395000969581E0890F8B3208F081E00C946B1C06
:1039600081E00C94A51C682F9091220396958FEF0F
:10397000890F09F48AE20C946B1C81E00C94B31C4F
:1039800061E00C946B1CE2E2F3E080818160808353
:1039900086950C94C01C8091220380FD0C941A1C07
:1039A0000C94C31C60E00C946B1C8091D8028111B4
:1039B0002EC00E94D50E811104C00E94790F0E9472
:1039C00042170E942217609322037093230380936F
:1039D0002403909325036E7F61F40E9442170E9496
:1039E0002217609322037093230380932403909300
:1039F00025030E940C171092DA028091220380FFA7
:103A000003C086950E94D21C81E08093D80208955D
:103A1000E2E2F3E080818160808386950C94D21C81
:103A20001092D7028091D60281110E94081D0C9439
:103A3000551C0F931F93CF93DF938091DA02882355
:103A400009F496C08091D902E0912203E695E81B23
:103A5000E093D202823091F5F0E0E351FC4FE49123
:103A6000CE2FD0E00EEF17E18091D302882361F0D2
:103A70001092D3020E94F6259093D1028093D00237
:103A80001092D5021092D4020E94F625E091D00245
:103A9000F091D1028E1B9F0B8F3F9F4708F068C0AB
:103AA000EC0FFD1FF093D102E093D00280ED92E085
:103AB000F801DF91CF911F910F910994863049F45D
:103AC000F0E0E651FC4FE491CE2FD0E002E118E1A6
:103AD000CBCF893051F4E695F0E0E951FC4FE49109
:103AE000CE2FD0E00CE419E1BFCF8F3051F4E69532
:103AF000F0E0EC51FC4FE491CE2FD0E009E819E161
:103B0000B3CF853149F4F0E0EF51FC4FE491CE2F73
:103B1000D0E00CEF19E1A8CFC8E2D0E00FE61AE13F
:103B2000883109F4A1CF833239F4EFEDF3E0C59188
:103B3000D49102E218E198CFC4EFD1E00FEF1AE17F
:103B4000843209F491CFC0EDD7E006EF16E185325B
:103B500009F08ACF8E2F63E00E94ED2DE92FF0E06F
:103B6000E452FC4FE491CE2FD0E00CE31BE17CCF7C
:103B7000DF91CF911F910F910895FA01811101C03A
:103B8000FB010994CF93DF93C82FD62F0E945217C1
:103B90008C1740F00E9452178D1720F4DF91CF91BF
:103BA0000C94B01C8C2FDF91CF910C94C01C1F93F0
:103BB000CF93DF93EC01FB01128111111BC00E9416
:103BC000EE0D8272CC3CFCE5DF0709F4A0C008F0E2
:103BD00045C0C63CECE5DE0709F485C0F8F4C33CFB
:103BE0009CE5D90709F475C050F4C23CDC4509F4E2
:103BF0006DC011E0812FDF91CF911F910895C43CDA
:103C00009CE5D90709F46AC04AE059E16DEF78E113
:103C1000C53CDC4571F70E94BD1DECCFC93CFCE5FD
:103C2000DF0709F46AC068F4C73CECE5DE0709F475
:103C30005FC049E159E168E279E1C83CDC4559F3EC
:103C4000D8CFCA3C9CE5D90709F45CC045E857E1E8
:103C50006EE677E1CB3CDC45F1F2CBCFC13DFCE534
:103C6000DF0709F463C098F4CE3C9CE5D90709F45A
:103C700057C008F451C0CF3CFCE5DF0709F453C03E
:103C8000C03DDC4509F0B5CF6EE089E01CC0C43D05
:103C90009CE5D90709F450C058F4C23DFCE5DF07A4
:103CA00009F447C0C33DDC4509F0A3CF88E135C026
:103CB000C53D9CE5D90709F442C06AE285E2CD35ED
:103CC000DD4509F096CF0E94C21D94CF0E94CB1C07
:103CD00091CF4DEB5CE160EB7CE19DCF40EB5CE193
:103CE0006DEB7CE198CF4DEF58E16AE079E193CF3D
:103CF00048E259E169E179E18ECF46E459E167E3B1
:103D000079E189CF47E359E166E479E184CF4EE672
:103D100057E165E877E17FCF81E00E94C01C6ACF60
:103D200065E082E0D0CF68E086E0CDCF64E18FE04F
:103D3000CACF67E185E1C7CF62E289E1C4CF83E200
:103D4000ECCF539A4BB1477F5BB15860EFB7F89413
:103D50009B01220F331F260F371F280F391F2817EB
:103D6000390741F4EFBF8FE594E00197F1F700C008
:103D700000000895DC016D91CD0178E05BB9000091
:103D800000C067FF4BB9660F000000C000C000C054
:103D90004BB900C07A9591F7E2CF83E290E00E94A0
:103DA000F72E823289F484E290E00E94F72E873069
:103DB00059F485E290E00E94F72E91E0863009F0F8
:103DC00090E0892F8170089580E0FCCFCF93C82FB9
:103DD0006FEF811162E283E290E00E940B2F6FEFA0
:103DE000C11167E084E290E00E940B2F6FEFC111D8
:103DF00066E085E290E0CF910C940B2F089586E267
:103E000090E00E94F72E682F70E090E080E0089527
:103E10000895CF93C62F0E94081F6C2F86E290E072
:103E2000CF910C940B2F80E00E94E61E60E070E0C2
:103E3000CB010E94091F0E94FE210E94EA2281E01C
:103E40000C94E61E0E94FE1E0E94FF1E0E94081F88
:103E50000E94CD1E811102C00C94131F0895CF93B0
:103E6000FB01C281CC2309F19C0122513F45203145
:103E7000310520F582510E94FA22C0E08C2FCF91AB
:103E8000089581E00E941B0A43E062E081E00E9405
:103E90007B04F3CF81E00E94260A43E062E081E0E8
:103EA0000E947B04EBCF82E0F6CF8031FFE59F07D5
:103EB00089F381319F45B9F3C1E0E0CF8031EFE56F
:103EC0009E07F9F281319F45C9F682E0DBCF2FEFE3
:103ED000FC0120830895CF93DF93EC018881813822
:103EE000A9F028F4803871F0DF91CF9108958238DD
:103EF00081F08338C9F70E949D1789830E94A0171B
:103F00008A83F2CF0E94A3178983EECF0E945217B3
:103F1000FBCF0E948817F8CFCF93DF93EC01888105
:103F20008138E1F028F4803869F0DF91CF9108956D
:103F3000823811F18338C9F70E94A317482F6A818C
:103F4000898108C0D9810E94A017C82F0E949D179F
:103F50004D2F6C2FDF91CF910C94491989810E94CC
:103F6000D21C8981811104C0DF91CF910C94321C45
:103F7000DF91CF910C94081D8981DF91CF910C9432
:103F80009A17EF92FF920F931F93CF93DF93EC0159
:103F9000062FDC01ED91CD01E150E33108F0ADC019
:103FA000F0E0E459F04D0C94432E198289E08A83A5
:103FB000602FCE01DF91CF911F910F91FF90EF9075
:103FC0000C94FC268981823069F0833071F0813055
:103FD000D9F40E9402260E94492E6A837B838C8337
:103FE0009D83E6CF0E94FF1EF6CF7E0110E0812F59
:103FF0000E947812F701928383831F5FF2E0EF0E35
:10400000F11C1530A1F7D4CF602FCE010E94671F9D
:10401000CFCF89818230C1F76A817B818C819D817C
:104020000E94492E0E94091FC3CF4B816A8189815A
:104030000E94D0219827892798279D838C83B8CF09
:104040002C813D813227232732274B816A81898148
:104050000E94E921ADCF0E94FE21AACF0E948C1FB1
:10406000A7CF0E946B1FA4CF0E943817A1CF0E9438
:10407000932289839DCF0E9495229827892798278C
:104080009A83898395CF6B8170E089819A81AE0193
:104090004C5F5F4F9827892798270E94982288CFE6
:1040A0006B8170E089819A81AE014C5F5F4F9827E8
:1040B000892798270E94BF227BCF0E94EA2278CFCF
:1040C0000E94BD21D6CF6B8170E089819A81AE01BB
:1040D0004C5F5F4F9827892798270E94362268CF28
:1040E0006B8170E089819A81AE014C5F5F4F9827A8
:1040F000892798270E945C225BCF8FEF888358CF57
:10410000CF93DF93EC01FB018281882309F433C153
:10411000C330FDE5DF07C0F5CA3F9CE5D90730F4A1
:104120009E0122503C4524313105B0F50E94E80E35
:1041300090930D0380930C03C1318CE5D80709F4EB
:10414000EEC008F069C0C930ECE5DE0709F4D5C05F
:10415000C8F5C5308CE5D80709F4C7C000F5C330F1
:10416000ECE5DE0709F4B9C008F0BBC0C230DC459D
:1041700009F4ADC080910C0390910D030E94F60EDE
:104180000E94A60980E008C0C136EDE5DE0771F2A5
:10419000C53AFDE5DF0751F2DF91CF910895809197
:1041A0000C038062C7309CE5D90709F493C0809165
:1041B0000C038061C830DC4508F48CC080910C038E
:1041C000806488C080910C038B7FCD30FCE5DF07D5
:1041D00009F480C098F480910C038E7FCB309CE56D
:1041E000D90709F477C080910C038C60CC30DC4592
:1041F00008F470C080910C038D7F6CC080910C031B
:104200008F7ECF30FCE5DF0709F464C008F47BC083
:1042100080910C038F7D5EC0CD3F9CE5D90709F4EA
:104220007AC050F5C531FCE5DF0709F486C098F483
:1042300080910C03837FC3319CE5D90709F44AC000
:1042400008F471C00E94A60990910C03892F97FB76
:1042500087F980583FC0CB3FFCE5DF0709F449C030
:1042600008F055C080910D038160CA3FDC4509F01C
:1042700081CF80930D037ECFC130EDE5DE0709F4D9
:1042800068C0A8F4CF3F8CE5D80709F452C08091EC
:104290000D038360C115DD4560F380910D03982FF8
:1042A000909591708E7F892B90FB81F9E2CFC1367A
:1042B000EDE5DE0709F451C0C53AFDE5DF0709F475
:1042C00053C0C230DD4509F055CF80E043C0809136
:1042D0000C03816080930C034DCF80910C038260AE
:1042E000F9CF80910C038460F5CF80910C03886036
:1042F000F1CF80910D038260BCCF0E94A60980910E
:104300000C038068E7CF80910C03877FE3CF809117
:104310000D038E7FAECF80910D038D7FAACF80914C
:104320000C038F7BD7CF0E94A60980910C038F7757
:10433000D1CF80910D038C7F9CCF80910C0382FBA9
:10434000992790F921E0922790FB82F990FB83F95D
:10435000C1CF81E00E947B0F0DCF90910C03892F7C
:104360008F7E94FF8061B6CF90910C03892F8E7F52
:1043700090FF8160AFCF81E00FCF84E0089590E29D
:10438000699FB001112450E0440F551F640F751F41
:1043900090EA899F600D711D1124CB0187960895C5
:1043A0000F931F93CF93DF930E94BF218C010E9434
:1043B000F72EC82FD0E0DC2FCC27C80101960E9431
:1043C000F72E9E01282BC901DF91CF911F910F91EC
:1043D00008950F931F93CF93DF93122F032F0E9403
:1043E000BF21EC01602F0E940B2F612FCE0101969F
:1043F000DF91CF911F910F910C940B2FAF92BF9231
:10440000CF92DF92EF92FF921F93CF93DF938CEACC
:10441000C82E80E0D82ED0E07601C0E014C0F501AF
:1044200025913491412F6C2F8D2F0E94E92182E03C
:10443000A80EB11C1F5F103191F780E2E80EF11C4D
:10444000CF5FC53019F0570110E0E9CFDF5F80EA98
:10445000C80ED11CD43001F7DF91CF911F91FF908E
:10446000EF90DF90CF90BF90AF900895EF92FF92C2
:104470000F931F93CF93DF93EC018A017C01E60E2B
:10448000F71ECE018796CE15DF0539F4DF91CF9167
:104490001F910F91FF90EF900895C03822E0D2074E
:1044A00040F40E94F72EF80180830F5F1F4F219682
:1044B000E8CFF8011082F9CFCF92DF92EF92FF920E
:1044C0000F931F93CF93DF937C016A018C01060F3A
:1044D000171FEC01CE018796C017D10749F4DF9171
:1044E000CF911F910F91FF90EF90DF90CF900895A3
:1044F000C03822E0D20740F4FE01EE19FF09EC0DAE
:10450000FD1D60810E940B2F2196E4CF462F843041
:1045100038F4753028F4603118F4672F0C94D021EA
:1045200090E080E0089580E1089589E591E00895A4
:10453000EF92FF920F931F93CF93DF93EC018A01C9
:104540007C01E60EF71ECE0189559D4FCE15DF0585
:1045500039F4DF91CF911F910F91FF90EF90089563
:10456000C93521E0D20740F40E94F72EF80180837C
:104570000F5F1F4F2196E7CFF8011082F9CFCF923E
:10458000DF92EF92FF920F931F93CF93DF937C0103
:104590006A018C01060F171FEC01CE0189559D4F52
:1045A000C017D10749F4DF91CF911F910F91FF9070
:1045B000EF90DF90CF900895C93521E0D20740F405
:1045C000FE01EE19FF09EC0DFD1D60810E940B2F0D
:1045D0002196E3CFCF93DF93C7EAD2E060E0CE012C
:1045E0000E940B2F2196C11584E0D807B9F7DF91FF
:1045F000CF910895DF92EF92FF920F931F93CF9385
:10460000DF9300D000D0CDB7DEB7F82E8FE08F1546
:1046100040F08FEF93E00E94F72E07EA12E0882324
:10462000C1F00F900F900F900F90DF91CF911F91DD
:104630000F91FF90EF90DF900895011584E0180727
:1046400081F3C8010E94F72E811101C0FA940F5F17
:104650001F4FF110F2CF19821A821B821C82DD24B7
:10466000D39478018FEFE81AF80AC8010E94F72E58
:1046700089831A828823A9F29FEF980F933078F4E8
:104680008A83D9820E5F1F4FC7010E94F72E8B834A
:10469000882339F2CE0101960E94D105E2CF87012D
:1046A000F9CFCF93DF93EB0186319C4511F50E9442
:1046B000EE0D9A81992399F08A7A91E009F490E0BD
:1046C0009093DB02811109C089E20E94C90D0E940A
:1046D0002E0E80E0DF91CF91089585E3F6CF809193
:1046E000DB02811104C089E20E94D00DF0CF85E386
:1046F000FBCF81E0EFCF0F931F93CF93DF93C42FB6
:10470000D22FFC0182818823C9F04093DE020E94EF
:10471000F6259093DD028093DC0280E28C0F8830D6
:1047200008F050C0C77081E001C0880FCA95EAF751
:10473000DF91CF911F910F910C9440071091DE02F1
:10474000141335C08091DC029091DD020E940E2688
:10475000883C910560F5C0E2CD0F1D17B9F080E2ED
:10476000810F883040F4177081E001C0880F1A95DE
:10477000EAF70E944707C83048F481E09D2F977000
:1047800001C0880F9A95EAF70E944007802F0E9487
:104790003807C830B8F4D77081E001C0880FDA95C7
:1047A000EAF7DF91CF911F910F910C94470780E2B8
:1047B0008C0F883038F4C77081E001C0880FCA952B
:1047C000EAF7EFCFDF91CF911F910F9108950F93EB
:1047D0009C01CB01233F4CE5340759F1A8F4283D57
:1047E000FCE53F0701F1293D4CE53407D1F1273DB8
:1047F0003C4591F406E221EE41EE67ED7CE50E9436
:104800007B2380E00F910895253FFCE53F07E9F009
:10481000B0F0263F3C45F9F0FC018281882339F154
:104820001092DE02EFCF07E225EE45EE68ED7CE563
:10483000E6CF06E221EE40EE63EF7CE5E0CF07E253
:1048400025EE44EE64EF7CE5DACF06E221EE42EE9F
:1048500065EF7CE5D4CF07E225EE46EE66EF7CE51A
:10486000CECF08E221E045EE69ED7CE5C8CF81E0DE
:10487000C9CF9093E3018093E20108959093E402FD
:104880008093E3020895E091E302F091E40230970F
:1048900021F00190F081E02D099480E00895E091ED
:1048A000E302F091E402309799F020912F01222346
:1048B00059F020910C0327FF07C0DC012C911196C1
:1048C0002C93119726E02C930280F381E02D09941C
:1048D0000895E091E302F091E402309739F022E08C
:1048E000DC012C930480F581E02D0994089520913A
:1048F000E1023091E2022817390771F09093E20249
:104900008093E102E091E302F091E402309721F01C
:104910000680F781E02D099408952091DF023091FF
:10492000E0022817390771F09093E0028093DF02CC
:10493000E091E302F091E402309721F00084F185E8
:10494000E02D09940895FC01329680912F0188236F
:1049500021F080910C039EE187FF96E080E091506A
:1049600008F4089521912223D1F38F5FF8CF6623B5
:1049700001F120912F012223F1F020910C0327FF58
:104980001AC0462F4695469546954E3190F467706D
:1049900021E030E002C0220F331F6A95E2F7840F56
:1049A000911DFC01828190E02823392381E0232B93
:1049B00069F480E00895FC0132960896219126174B
:1049C00021F0E817F907D1F7F4CF81E008959C01B1
:1049D000FC0132969FEF80E04191461751F09F3FD6
:1049E00019F4411101C0982F8F5F8630A9F79F3FBE
:1049F00009F40895290F311D97FD3A95F901628355
:104A00000895FC01329608962191261303C0DF0118
:104A100011971C92E817F907B9F70895E62FE69564
:104A2000E695E695EE3168F4E80FF92FF11D677011
:104A300021E030E001C0220F6A95EAF78281822BE3
:104A400082830895E62FE695E695E695EE3170F4BB
:104A5000E80FF92FF11D677021E030E001C0220F4F
:104A60006A95EAF720958281282322830895209170
:104A70002F01222329F020910C0327FD0C940E25F1
:104A80000C94E72420912F01222329F020910C037C
:104A900027FD0C9422250C940125FC01329680916F
:104AA0002F01882351F080910C0387FF06C08EE10F
:104AB000DF011D928A95E9F7089586E0F9CF089500
:104AC0000C945F25811105C081E08093E5020C9470
:104AD000602582E0FACF83E08093E5020C946025A4
:104AE0000C94622581E08093E5020C9460250C947F
:104AF0007225089508950C947A25089508950C94CC
:104B00007925CF930E947D250E9441130E947E2526
:104B1000C0E08C2F0E947812892B31F4CF5FC53012
:104B2000C1F780E0CF91089581E0FCCF08951F92F6
:104B30001FB61F9211248F939F93AF93BF938091C1
:104B4000E602811113C080913F0390914003A09130
:104B50004103B09142034196A11DB11D80933F03D3
:104B600090934003A0934103B0934203BF91AF9150
:104B70009F918F911F901FBE1F90189580914703A2
:104B8000843031F10E94F7041092E60288E190E04F
:104B900020E40FB6F894A895809360000FBE209390
:104BA000600083B7817F846083BF83B7816083BFE8
:104BB0007894889583B78E7F83BF0FB6F894A895B5
:104BC00080916000886180936000109260000FBE49
:104BD00008950E94A6090C94FD0482E084BD93E030
:104BE00095BD9AEF97BD80936E0008952FB7F89406
:104BF00080913F0390914003A0914103B091420303
:104C00002FBF08952FB7F89460913F037091400330
:104C100080914103909142032FBF08959C014FB7AB
:104C2000F89480913F0390914003A0914103B0918B
:104C300042034FBF821B930B089578941F921FB6B7
:104C40001F9211248F939F93AF93BF9380913F0343
:104C500090914003A0914103B09142030196A11DA0
:104C6000B11D80933F0390934003A0934103B09301
:104C70004203BF91AF919F918F911F901FBE1F90D4
:104C8000189581E08093E00080E28093D800109234
:104C9000C9008FE19EE40197F1F700C0000087E0B2
:104CA00090EBDC018093500390935103A093520347
:104CB000B093530388E19CE00FB6F894A8958093D5
:104CC00060000FBE90936000FFCF80910A030895AB
:104CD00008959C0184E08093E9009FEF8091E800B3
:104CE000915085FD06C085ED8A95F1F70000911180
:104CF000F5CF8091E80085FF0CC050E040E066E011
:104D000070E0C9010E940D298091E8008E778093A0
:104D1000E8000895CF93DF93EC0180912F01882361
:104D2000B1F180910C0387FF32C060E284E0809390
:104D3000E9008FEF9091E800815095FD06C095ED58
:104D40009A95F1F700008111F5CF8091E80085FF79
:104D50001BC080912F0170E050E040E0811104C041
:104D600050E040E068E070E0CE010E940D298091A3
:104D7000E8008E778093E80080E2FE01AAEEB2E0C0
:104D800001900D928A95E1F7DF91CF91089568E047
:104D900081E0CDCF8093E7027093E9026093E8024F
:104DA000809147038430F9F48093E9008FEF90916C
:104DB000E800815095FD06C095ED9A95F1F7000049
:104DC0008111F5CF8091E80085FF0DC050E040E0F3
:104DD00063E070E087EE92E00E940D298091E80088
:104DE0008E778093E8000895BC0184E00C94CA2675
:104DF000BC0183E00C94CA26CF93FC01603221F5FC
:104E000080914703843001F5C091E900CF70209173
:104E1000EC00922F917020FD90E8C92B82E08093E6
:104E2000E9008091E80080FF0CC050E040E060E2C3
:104E300070E0CF010E940D298091E8008E77809369
:104E4000E800CF70C093E900CF91089580914603A8
:104E5000811109C00E94EC2A0E94492B8091E20036
:104E600084608093E20008951092460308950C94A4
:104E700072256091430381E0611101C080E00C94D0
:104E80006B259091470381E0943009F080E06091B8
:104E900043030C94702542E061EC81E00E94682A93
:104EA00042E261EC84E00E94682A42E261EC82E026
:104EB0000E94682A42E260EC83E00E94682A909196
:104EC000470381E0943009F080E0609143030C9443
:104ED000622580914903833009F462C030F4813047
:104EE000D9F1823009F49EC008958A3009F48AC04D
:104EF0008B3009F470C0893009F051C080914803AB
:104F0000813209F04CC080914C0390914D03009781
:104F100019F0029709F043C08091E800877F8093E1
:104F2000E8008091E80082FF36C09091F300809104
:104F3000F200029731F48091F100813011F0863057
:104F400021F48091F10080930A038091E8008B772F
:104F50008093E8000C949C2A80914803813AF9F4EC
:104F60008091E800877F8093E80080914C039091C6
:104F70004D03892B61F460E28AEE92E070E00E94BA
:104F8000AB298091E8008B778093E800089560E07A
:104F900090E080E0F3CF809147038111C2CF089564
:104FA00080914803813AD9F780914C0390914D0349
:104FB000892BA9F78091E800877F8093E800809192
:104FC000E80080FFFCCF80912F018093F100809159
:104FD000E8008E77BDCF80914803813201F7809140
:104FE0004C0390914D03892BD1F68091E800877F87
:104FF0008093E8000E949C2A80914A0380932F01AD
:105000000C94A60980914803813249F68091E8000A
:10501000877F8093E8000E949C2A80914B038093B5
:105020000B03089580914803813A09F0B8CF80912D
:10503000E800877F8093E8008091E80080FFFCCF44
:1050400080910B03C2CF84B7877F84BF0FB6F894DB
:10505000A895809160008861809360001092600044
:105060000FBE80E890E00FB6F894809361009093B3
:1050700061000FBE0C9477250E94EC2A0E94492BF8
:10508000E2EEF0E080818460808378940C94D22DED
:1050900083E291E00C943E24809147038530A9F48B
:1050A00080914703853011F00C94E9250E94BE25BC
:1050B000809145038823A1F30E948125882381F3F1
:1050C0000E94F7280E94A609EBCF0895CF93DF93A3
:1050D000CDB7DEB7A0970FB6F894DEBF0FBECDBF39
:1050E00080914703843009F583E08093E900809143
:1050F000E80082FF1AC08091E80090E085FF09C0B7
:1051000050E040E060E270E0CE0101960E945C2930
:1051100091E08091E8008B778093E800992329F053
:1051200060E2CE0101960E94C11FA0960FB6F894CE
:10513000DEBF0FBECDBFDF91CF9108950C94A028A4
:10514000292F33272330310521F168F4213031052F
:1051500009F443C02230310509F444C090E080E0F6
:1051600030E020E026C02132310551F122323105F4
:10517000A9F76330710590F7FB01EE0FFF1FEB52AB
:10518000FE4F208131816E527E4FFB01808190E085
:1051900010C099278130910581F0009729F002977E
:1051A000E9F6E6EFF5E002C0EAE1F6E0849190E08E
:1051B0009F01FA01318320830895E2E0F6E0F6CF03
:1051C0006330710558F6660F771FFB01E552FE4FFD
:1051D0002081318189E090E0ECCF82E190E029E705
:1051E00036E0E7CF8BE590E02EE136E0E2CF80E1DC
:1051F00089BD82E189BD09B400FEFDCF8091D80050
:105200008F7D8093D8008091E00082608093E000E1
:105210008091E00081FDFCCF0895AF92BF92CF92C4
:10522000DF92FF920F931F93CF93DF936C01EB01FB
:105230008A010E94BB2AF82E811123C00115110595
:1052400039F0F80180819181C81BD90BC80ED91E95
:10525000B12CA12C2097A9F08091E80085FD22C0F7
:105260008091E8008E778093E80001151105A1F088
:10527000F80180819181A80EB91EB182A08285E0DB
:10528000F82E8F2DDF91CF911F910F91FF90DF901E
:10529000CF90BF90AF9008950E94BB2A8823D1F28F
:1052A000F82EEFCFF60181916F018093F1002197E5
:1052B000FFEFAF1ABF0ACECFAF92BF92CF92DF926D
:1052C000FF920F931F93CF93DF936C01EB018A0141
:1052D0000E94BB2AF82E811123C00115110539F057
:1052E000F80180819181C81BD90BC80ED91EB12C41
:1052F000A12C2097A9F08091E80085FD22C0809123
:10530000E8008B778093E80001151105A1F0F80102
:1053100080819181A80EB91EB182A08285E0F82E0D
:105320008F2DDF91CF911F910F91FF90DF90CF9044
:10533000BF90AF9008950E94BB2A8823D1F2F82E27
:10534000EFCF8091F100F60181936F012197FFEF7C
:10535000AF1ABF0ACECFFC0180914E0390914F034C
:1053600086179707A0F06115710529F49091E80060
:105370009E779093E80090E06115710551F49111CA
:1053800008C08091E80082FF34C080E00895BC012D
:10539000F2CF809147038823C1F18530C1F180911C
:1053A000E80083FD30C08091E80082FDEACF809163
:1053B000E80080FFE1CF8091F3002091F200382FC8
:1053C0006115710519F02830310558F091E0283049
:1053D000310509F090E02091E8002E772093E80055
:1053E000CBCF81918093F100615071092F5F3F4FC6
:1053F000E7CF80914703882341F0853041F08091C9
:10540000E80083FFBECF81E0089582E0089583E045
:105410000895FC0180914E0390914F0386179707E2
:10542000A0F06115710529F48091E8008E778093D2
:10543000E80090E06115710551F4911108C0809168
:10544000E80082FF35C080E00895BC01F2CF809172
:1054500047038823C9F18530C9F18091E80083FDB5
:1054600031C08091E80082FDEACF8091E80080FFA2
:10547000E1CF8091F3002091F200382F6115710582
:1054800019F02830310558F091E02830310509F045
:1054900090E08091E8008E778093E800CBCF8491F4
:1054A0008093F1003196615071092F5F3F4FE6CF35
:1054B00080914703882341F0853041F08091E800D6
:1054C00083FFBDCF81E0089582E0089583E00895D1
:1054D000982F973028F08F708093E90081E008952D
:1054E0009093E900242F762F50E0981731F07091B7
:1054F000EC002091ED005091F00021FD02C09F5F73
:10550000E8CF3091EB003E7F3093EB003091ED001F
:105510003D7F3093ED003091EB0031603093EB0034
:105520007093EC002093ED005093F0002091EE007A
:1055300027FDE5CF80E008958091480387FF13C0E1
:105540008091E80082FF06C08091E8008B7780930D
:10555000E80004C0809147038111F2CF0895809143
:1055600047038823D9F38091E80080FFF8CF80912A
:10557000E8008E77ECCF2091E4003091E50095E6CD
:10558000A9012091EC00822F817020FF06C080913C
:10559000E80080FF06C080E008952091E80022FD29
:1055A0001AC080914703882389F0853089F0809163
:1055B000EB0085FD0FC02091E4003091E50042171B
:1055C0005307F9F29150E1F684E0089582E00895DE
:1055D00083E0089581E008950E945A2B0E94622B77
:1055E000E0EEF0E0808181608083E8EDF0E0808192
:1055F0008F77808319BCA7EDB0E08C918E7F8C9360
:1056000080818F7E80831092460308950F931F93AD
:10561000CF93DF930E945A2B0E94622BC8EDD0E0FB
:1056200088818F77888388818068888388818F7D4F
:10563000888319BC109247031092430310924503CC
:105640001092440300EE10E0F80180818B7F80838C
:1056500088818160888342E060E080E00E94682A5F
:10566000E1EEF0E080818E7F8083E2EEF0E08081E9
:1056700081608083808188608083F80180818E7F53
:105680008083888180618883DF91CF911F910F9102
:105690000895E8EDF0E080818F7E8083E7EDF0E013
:1056A00080818160808384E082BF81E080934603B3
:1056B0000C94062BE8EDF0E080818E7F80831092C1
:1056C000E20008951092DA001092E10008951F920E
:1056D0000F920FB60F9211242F933F934F935F9326
:1056E0006F937F938F939F93AF93BF93EF93FF93AA
:1056F0008091E10082FF0BC08091E20082FF07C031
:105700008091E1008B7F8093E1000E94D12D8091F8
:10571000DA0080FF19C08091D80080FF15C0809109
:10572000DA008E7F8093DA008091D90080FF96C0E6
:1057300080E189BD82E189BD09B400FEFDCF81E031
:10574000809347030E9426278091E10080FF19C0C3
:105750008091E20080FF15C08091E2008E7F8093EF
:10576000E2008091E20080618093E2008091D800A5
:1057700080628093D80019BC85E0809347030E9423
:1057800039278091E10084FF2BC08091E20084FFE3
:1057900027C080E189BD82E189BD89B5982F9170CC
:1057A00080FFFBCF8091D8008F7D8093D8008091BF
:1057B000E1008F7E8093E1008091E2008F7E8093F4
:1057C000E2008091E20081608093E20080914303D7
:1057D000882309F449C084E0809347030E9441274D
:1057E0008091E10083FF29C08091E20083FF25C002
:1057F0008091E100877F8093E10082E080934703FE
:10580000109243038091E1008E7F8093E1008091AC
:10581000E2008E7F8093E2008091E20080618093BD
:10582000E20042E060E080E00E94682A8091F0009F
:1058300088608093F0000E943727FF91EF91BF911D
:10584000AF919F918F917F916F915F914F913F9118
:105850002F910F900FBE0F901F90189519BC1092AA
:1058600047030E94342770CF8091E30087FD93E0C7
:1058700090934703B3CF1F920F920FB60F9211244C
:105880002F933F934F935F936F937F938F939F9348
:10589000AF93BF93CF93DF93EF93FF93D091E90042
:1058A000DF708091EC00C82FC17080FDC0E81092BD
:1058B000E9008091F000877F8093F00078940E9447
:1058C0007F2C1092E9008091F00088608093F000B6
:1058D000CD2BCF70C093E900FF91EF91DF91CF9175
:1058E000BF91AF919F918F917F916F915F914F91F8
:1058F0003F912F910F900FBE0F901F9018951F93FF
:10590000CF93DF93CDB7DEB7AA970FB6F894DEBF7B
:105910000FBECDBF88E493E02091F100FC012193FC
:10592000CF01F3E080359F07B9F70E946927809186
:10593000E80083FF1EC180914803909149039A308B
:1059400008F017C1E92FF0E0E158F04D0C94432E18
:10595000803899F0823809F00CC180914C038F7027
:10596000873008F006C18093E9008091EB0085FB49
:10597000882780F91092E90006C080914403909135
:105980004503911182609091E800977F9093E80021
:105990008093F1001092F1008091E8008E77E5C0CD
:1059A000882309F4D3C0823009F0E3C080914A0310
:1059B0008111D6C080914C038F702FEF280F2630B5
:1059C00008F0D7C08093E9002091EB0020FFC8C009
:1059D000933031F48091EB0080628093EB00C0C083
:1059E0009091EB0090619093EB0021E030E001C0DA
:1059F000220F8A95EAF72093EA001092EA0080913C
:105A0000EB008860EACF8111B4C010914A031F7780
:105A10008091E3008078812B8093E3008091E800FF
:105A2000877F8093E8000E949C2A8091E80080FF95
:105A3000FCCF8091E30080688093E30082E0111145
:105A400083E08093470395C08058823008F091C06E
:105A500080914A0390914B038C3D23E09207A1F57E
:105A600083E08A838AE289834FB7F894DE01139634
:105A700020E03EE051E2E32FF0E050935700E49144
:105A800020FF03C0E295EF703F5FEF708E2F90E034
:105A9000EA30C0F0C7968D939D932F5F243159F75C
:105AA0004FBF8091E800877F8093E8006AE270E052
:105AB000CE0101960E94AB298091E8008B778093FC
:105AC000E80057C0C096E7CF60914C0370914D033A
:105AD000AE014F5F5F4F0E949E28BC01892B09F4E5
