:100000000C949E020C94D6020C94D6020C94D60248
:100010000C94D6020C94D6020C94D6020C94D60200
:100020000C94D6020C94D6020C9454210C942822E1
:100030000C94841B0C94D6020C94D6020C94D60219
:100040000C94D6020C94D6020C94D6020C94D602D0
:100050000C94D6020C940A1C0C94D6020C94D60272
:100060000C94D6020C94D6020C94D6020C94D602B0
:100070000C94D6020C94D6020C94D6020C94D602A0
:100080000C94D6020C94D6020C94D6020C94D60290
:100090000C94D6020C94D6020C94D6020C94D60280
:1000A0000C94D6020C94D6020C94D60229001E00A1
:1000B0001F0020002100220023002400250026002C
:1000C00027002D002E002A002B0014001A00080023
:1000D000150017001C0018000C00120013002F0060
:1000E00030003100E00004001600070009000A009B
:1000F0000B000D000E000F0033003400280000003C
:10010000E1001D001B000600190005001100100091
:10011000360037003800E50000000151E000E30040
:10012000E2003500000000002C00000050005100EB
:1001300052004F000000000035003A003B003C0038
:100140003D003E003F0040004100420043004400AB
:1001500045004C003900010052000100010001007F
:100160000100010046004700480052000100010064
:100170000100500051004F0001000100010001008A
:100180004A004B0050004F00010000000100010038
:100190000100010001000100010001004D004E00BE
:1001A00051000100000001510100010001000100A7
:1001B000000000000100000001000100010001003A
:1001C0000000000001000100010001000100010029
:1001D0000100010001000100010001000100010017
:1001E0000100010001000100010001000100010007
:1001F00001000100010001000100010001000100F7
:1002000001000100010001000100010001000100E6
:1002100001000100010000000100010001000100D7
:1002200001000100010001000100010001000100C6
:1002300000000100010001000100010000000000B9
:1002400001000000010001000100010000000000A9
:100250000100010001000100010001000100010096
:100260000100010001000100010001000100010086
:100270000100010001000100010001000100010076
:100280000100010001000100010001000100010066
:100290000100010001000100010001000100010056
:1002A0000100000001000100010001000100010047
:1002B0000100010001000100010001000000010037
:1002C0000100010001000100000000000100000029
:1002D000010001000100010000000000000000001A
:1002E000000000002A2B2800000000000000000091
:1002F0000000000000000029000000002C1E342037
:10030000212224342627252E362D3738271E1F205C
:100310002122232425263333362E37381F040506A1
:100320000708090A0B0C0D0E0F10111213141516E5
:100330001718191A1B1C1D2F3130232D35040506E3
:100340000708090A0B0C0D0E0F10111213141516C5
:100350001718191A1B1C1D2F3130354C00000000D6
:10036000000000000000000000000000000000008D
:10037000000000000000000000000000000000007D
:100380007E0F00D4FFFFFFC7000000780C036B0056
:10039000610066006B0061000000160371006D00D3
:1003A0006B006200750069006C00640065007200FB
:1003B00000000403090409025B00030100A0FA091C
:1003C0000400000103010100092111010001224084
:1003D0000007058103080001090401000203000071
:1003E00000092111010001222200070582032000DB
:1003F00001070503032000010904020001030000B6
:100400000009211101000122B60007058403200024
:10041000011201000200000008BD0BDD0A0100010D
:100420000200010660FF0961A1010962150026FFB3
:10043000009520750881020963150026FF009520AC
:1004400075089102C005010902A10185020901A1F7
:100450000005091901290815002501950875018174
:10046000020501093009311581257F950275088142
:100470000609381581257F950175088106050C0A46
:1004800038021581257F950175088106C0C00501D8
:100490000980A101850319012AB700150126B700BB
:1004A000950175108100C0050C0901A10185041991
:1004B000012AA002150126A002950175108100C035
:1004C00005010906A1018506050719E029E71500C0
:1004D00025019508750181020507190029EF15000E
:1004E000250195F075018102050819012905950579
:1004F00075019102950175039101C005010906A1DD
:1005000001050719E029E715002501950875018106
:10051000029501750881010507190029FF150026BC
:10052000FF00950675088100050819012905950544
:1005300075019102950175039101C00011241FBE40
:10054000CFEFDAE0DEBFCDBF04B603FE18C0809166
:10055000B6029091B702A091B802B091B90287306B
:10056000904BA740B04B59F41092B6021092B702CC
:100570001092B8021092B902E0E0F8E3099511E098
:10058000A0E0B1E0E2E1F9E402C005900D92AE39DD
:10059000B107D9F722E0AEE9B1E001C01D92A63B58
:1005A000B207E1F70E9490120C945E240C940000B4
:1005B00081E0089581E008950C94DA0208950C9486
:1005C000DE021F93CF93DF9300D000D00F92CDB700
:1005D000DEB749835A836B833091A10189819A8167
:1005E00031111DC06623B9F02223A9F00E946209CF
:1005F000182F682F89819A810E940E0969817A815A
:10060000812F0F900F900F900F900F90DF91CF914F
:100610001F910C9473180E943A09182FEFCF0E9473
:10062000620969817A81EDCFFC01262F40815181D9
:100630006281738184810C94E10281E00895CF93FB
:10064000DF93EC0160E00E941403BE01DF91CF91C3
:100650000C94DF02E1E0F0E0DF0102C0AA0FBB1F53
:100660006A95E2F7BD01DF0102C0AA0FBB1F4A95E0
:10067000E2F76A2B01C0EE0F2A95EAF7962F98232E
:10068000961302C08E2B0895E0958E230895242F93
:10069000462F682F8091BD010E942A030C94CB083D
:1006A0000C9431110C94341108950E9467080E9433
:1006B00054032FEF84E39CE0215080409040E1F709
:1006C00000C000000C942E1C0F931F93CF93DF9358
:1006D0008C0161E00E941403EC01B8010E947E15B8
:1006E0008823D9F1B801CE010E94DC028823A9F148
:1006F000B801CE010E94D419882379F1B801CE0146
:100700000E946E16882349F1B801CE010E943E195D
:10071000882319F1F8018281882361F0CA35FDE54B
:10072000DF0721F170F4C115ECE5DE07A1F0CE3D45
:10073000DC45C9F0C801DF91CF911F910F910C9456
:10074000D802CB358DE5D807A1F0CC35DD4591F742
:100750000E94820DEFCF0E94550380E0DF91CF9180
:100760001F910F9108950E943B0EF7CF0E948B0DB1
:10077000E1CF0E948E0DDECF0E94681B0C94A50471
:100780000E94A8040C946C1BDF92EF92FF920F93CF
:100790001F93CF93DF93E82FF0E0E452FD4FD49006
:1007A000282F26952695269530E0F901E458FC4F30
:1007B0000491877010E0082E02C0159507950A94E1
:1007C000E2F701701127F901E459FC4FE490F12C94
:1007D000082E02C0F594E7940A94E2F791E0E9222A
:1007E000FF24F901E45AFC4FC491D0E002C0D59532
:1007F000C7958A95E2F7C170DD270115110519F03B
:1008000081EE0E94FA04E114F10419F086EE0E94D0
:10081000FA048D2D0E94F905EF2819F086EE0E944A
:100820008C05012B19F081EE0E948C05CD2B51F027
:100830008CE2DF91CF911F910F91FF90EF90DF90AD
:100840000C94F905DF91CF911F910F91FF90EF90DC
:10085000DF900895EF92FF920F931F93CF93DF9352
:10086000EC01162F0AE08881882309F454C08130F6
:1008700009F04EC08981813099F47E0122E0E20EB8
:10088000F11C8A810E94F905E7012196812F815090
:1008900050F3EFE9FFE03197F1F700C00000F7CF28
:1008A000823041F47E0182E0E80EF11C8A810E94D0
:1008B000FA04EACF833041F47E01E2E0EE0EF11C4F
:1008C0008A810E948C05E0CF843011F02196DDCF23
:1008D0002A81229690E080E0AE014F5F5F4F205367
:1008E000330B2A30310548F0019778F2EFE9FFE049
:1008F0003197F1F700C00000F7CF089FB001099FC2
:10090000700D1124C901860F971F2981EA01E4CFD8
:100910000E94C403BACFDF91CF911F910F91FF9036
:10092000EF90089560E00C942A0408950C949504C7
:1009300081E008950C9498040895CF93C82F0E94E5
:1009400096048C2FCF910C949A0480E00C949D0413
:100950000E94301A0C949D040E94301A9091A001BC
:10096000981721F08093A0010C949D040895CF93D3
:10097000DF93CDB7DEB72B970FB6F894DEBF0FBE6F
:10098000CDBF4F83588769877A878B8761110E9413
:10099000D00C1E821D8285E0FE013796DE01119685
:1009A00001900D928A95E1F78C819D81892B89F4C4
:1009B00049815A816B817C818D819E810E94F10BDE
:1009C0002B960FB6F894DEBF0FBECDBFDF91CF914F
:1009D000089589819A8189238F3F51F3CE01019631
:1009E0000E941D038111E4CFEBCFFC018081918136
:1009F0000C948F09CF93C82F882309F48BC08238B9
:100A0000C1F40E94301A81FD85C089E30E948B0CDD
:100A10000E94F00C2FEF81EE94E021508040904036
:100A2000E1F700C0000089E30E94920CCF910C9482
:100A3000F00C8338A1F40E94301A80FD6BC083E56E
:100A40000E948B0C0E94F00C2FEF81EE94E021505D
:100A500080409040E1F700C0000083E5E5CF843896
:100A6000A1F40E94301A82FD55C087E40E948B0CCD
:100A70000E94F00C2FEF81EE94E0215080409040D6
:100A8000E1F700C0000087E4CFCF8CEF8C0F813AF4
:100A900090F46C2F80910201909103010E94A41A9E
:100AA000882329F08C2F0E94920C0E94F00C8C2F2E
:100AB0000E948B0CBBCF80E28C0F883048F4C7704B
:100AC00081E001C0880FCA95EAF70E94B30CAECF4F
:100AD000EBE5EC0FE33040F4F0E0E95BFE4F8081A2
:100AE00090E0CF910C94641AE8E5EC0FE73150F4F4
:100AF000F0E0EE0FFF1FE75EFE4F80819181CF9106
:100B00000C947A1AC03F30F08C2F0E941413CF91AE
:100B10000C94E713CF910895882309F452C08238CA
:100B200071F40E94301A81FF4CC089E30E948B0C43
:100B30000E94F00C89E30E94920C0C94F00C833814
:100B400059F40E94301A80FF3CC083E50E948B0C50
:100B50000E94F00C83E5EFCF843859F40E94301ADC
:100B600082FF2FC087E40E948B0C0E94F00C87E468
:100B7000E2CF9CEF980F913AF0F290E2980F983004
:100B800050F4877091E001C0990F8A95EAF7892F98
:100B90000E94B90CD2CF9BE5980F933020F490E0DF
:100BA00080E00C94641A98E5980F973120F490E057
:100BB00080E00C947A1A803F20F00E946E130C940F
:100BC000E71308951F93CF93DF93182FEB010E9433
:100BD000FA04209731F4812FDF91CF911F910C946B
:100BE0008C058FE99FE00197F1F700C00000219785
:100BF000F0CF70E060E0893311F460E570E00C94B0
:100C0000E205882321F00E94B30C0C94F00C0895A7
:100C1000882321F00E94B90C0C94F00C0895BF9227
:100C2000CF92DF92EF92FF920F931F93CF93DF93B8
:100C30006C01D62FC72FFC011281F580F2949FE042
:100C4000F9220E94A90CE82E8823B9F0E12E112385
:100C5000A1F08C2F807F803421F080E28D0F8830CE
:100C6000D0F08091900282FD16C082E00E94510D6A
:100C70000E94A90C91E0E82EE926BC2EB2948FE0E8
:100C8000B822FBE0FB1508F468C0EB2DF0E0E05A59
:100C9000FB4D0C94EE23E12CF0CF0C2F0F70C07F96
:100CA00011F00295007F112399F0002359F080E2A2
:100CB0008D0F883010F0D11107C0802F0E94B30C27
:100CC0000E94F00C8D2F41C0802F0E94C30CF8CFE2
:100CD0008D2F0E948C05002309F43FC080E28D0F08
:100CE000883010F0D11104C0802F0E94B90C03C0CD
:100CF000802F0E94C90C0E94F00C2FC00C2F0F7087
:100D0000C07FC03211F00295007FDD2381F0D13029
:100D100009F469C0112309F473C0FF2009F469C004
:100D2000F601858180FFCECF8F70858362C0809170
:100D3000900282FF38C0112359F0002329F0802F40
:100D40000E94B30C0E94F00C80E00E94FA0405C0DF
:100D500080E00E948C050111C7CFEB2DE850FF0BFE
:100D6000349720F40E94301A0E949D04EE2009F46A
:100D70004DC10E94A50C80FD49C1F60112820E945E
:100D80009F0C0E94DC08C6010E9427080E949F0C4D
:100D9000DF91CF911F910F91FF90EF90DF90CF9057
:100DA000BF900C94E708112389F0F11006C00E944F
:100DB000D30C802B0E940106D0CF21E0F212F7CF96
:100DC0000E94D30C802B0E94D90CC7CFF11006C013
:100DD0000E94E60C802F0E940806BFCF31E0F31678
:100DE00009F4BBCFF5CF112331F085E08F1508F45E
:100DF000B4CF802FDFCF94E09F1508F4AECFEACFB9
:100E0000FF2041F3D93349F4FFEF27EE33E0F150EF
:100E100020403040E1F700C000008D2F0E948C057B
:100E20009CCF8C2F86958695837069F0813009F070
:100E300094CF8D2F9C2F9370111102C090E080E011
:100E40000E947A1A8ACF8D2F9C2F9370111102C0A5
:100E500090E080E00E94641A80CF8D2F112329F04A
:100E60000E9414130E94E71378CF0E946E13FACFEA
:100E70008C2F837079F5111170CF4D2F42954695C7
:100E80004770440F440F8D2F8F70042E01C0880FC0
:100E90000A94EAF72D2F2071D4FF07C02FE030E02D
:100EA00001C0220F4A95EAF72095C695C695C370F2
:100EB000822BC23049F058F4C13019F00E94BD08AD
:100EC0004CCF0E94B80849CF0E94C20846CF0E946A
:100ED000B60843CF8695112311F08C2F817088239B
:100EE00009F43BCF4D2F429546954770440F440F70
:100EF0008D2F8F70042E01C0880F0A94EAF72D2FD2
:100F00002071D4FF07C02FE030E001C0220F4A95C6
:100F1000EAF72095C695C695C370822BC23049F07A
:100F200058F4C13019F00E94030917CF0E94FE083F
:100F300014CF0E94080911CF0E94CB080ECFCF70AA
:100F4000112329F08C2F0E94DC088D2F33CF8D2F99
:100F50000E9408068C2F0E94E708FFCED23F51F175
:100F600060F4D03FB9F0D13F81F0112309F449C0BA
:100F7000F110A8CE8C2F8F7121C0D33F11F1D43F37
:100F8000A1F78091900282FF26C08C2F8F711123D0
:100F900011F314C0112349F084E08F1508F4DDCE5D
:100FA0008C2F8F710E94F308D8CE95E09F1508F41E
:100FB000D4CEF6CF8C2F8F711111CDCF0E94DC08CB
:100FC000CCCE112329F08C2F8F710E94D408C5CE6E
:100FD0000E94D108C2CE112349F0CF718C2F0E94FC
:100FE000DC0863E08C2F0E94360DB7CE81E00E94B2
:100FF000510DE1E0EF1508F0B0CE82E00E94510DF6
:10100000ACCEF110FFCE8C2F8F71A5CFDF91CF9199
:101010001F910F91FF90EF90DF90CF90BF900895B8
:101020000F931F93CF93DF93EC01688179818A81BD
:101030000E9499098C010E940D090E94B508B8010F
:10104000CE01DF91CF911F910F910C940F06CF939A
:10105000DF93EC018B819C81892B29F08881998118
:1010600089238F3F59F4DF91CF910895CE010E94DB
:101070001008CE01DF91CF910C941F03CE010E9486
:1010800064038111F3CF0E94A90C882361F38A8144
:10109000882349F38091900282FDE5CF82E0DF91C1
:1010A000CF910C94510D90E080E00E94641A90E082
:1010B00080E00E947A1A0E94D00C0E94F00C0E94DC
:1010C0000E150C94E7130E94990C0C9453080E947F
:1010D000C00C0C94630892959F70963091F058F470
:1010E000925F9F70923058F4803F19F030F4883E40
:1010F00030F481E008959A5FF4CF843FD1F380E02B
:101100000895883EB0F3813FD1F7F3CFFC01808191
:1011100091810E948F090C946B08CF93DF9300D0CC
:1011200000D00F92CDB7DEB70F900F900F900F90B9
:101130000F90DF91CF910895CF93DF9300D000D02F
:1011400000D0CDB7DEB726960FB6F894DEBF0FBE3F
:10115000CDBFDF91CF91089508950C94AC080E9403
:10116000AD088093BE010C94530808950C94AF0809
:101170009091BE01892B0C94AF089091BE018923F8
:101180000C94AF089091BE0189270C94AF080C9481
:10119000AC080C94C7080E94C9088093BD010C9448
:1011A000530880E00C94CB0891E001C0990F8A9518
:1011B000EAF7892F0C94CB0821E030E001C0220F20
:1011C0008A95EAF78091BD01822B0C94CB0821E02F
:1011D00030E001C0220F8A95EAF720958091BD0189
:1011E00082230C94CB0821E030E001C0220F8A95C5
:1011F000EAF78091BD0182270C94CB089091BD0144
:10120000892B0C94CB089091BD0189230C94CB08B9
:101210009091BD0189270C94CB0808952EE0929FF0
:10122000800D1124982F977041E001C0440F9A95CA
:10123000EAF786958695869593E0899FF0011124BB
:10124000EE55FE4F90E080E070E05191DF01119784
:101250009B01082E02C0369527950A94E2F721706B
:1012600021952527242325272C930196833091054A
:1012700061F708952EE0929F800D1124982F9770AA
:1012800086958695869523E0829FF0011124EE5580
:10129000FE4F50E040E080E0219130E0092E02C096
:1012A000369527950A94E2F721703327042E01C062
:1012B000220F0A94EAF7822B4F5F5F4F43305105AC
:1012C00059F70895CF92DF92FF920F931F93CF9318
:1012D000DF936C010091BD018091BE01082BC7E036
:1012E000D0E010E0FC2EC8010C2E02C09595879529
:1012F0000A94E2F780FD0CC02197A0F7F12C8F2D06
:10130000DF91CF911F910F91FF90DF90CF900895C3
:10131000B6018C2F0E941B10019771F3F0CFCF9371
:10132000DF93EC010E946209BE01DF91CF910C9422
:101330001B101F93CF93DF93EB019091A101992391
:1013400031F0CB01DF91CF911F910C948F0988234D
:1013500079F0CB010E946209182F682FCE010E94FC
:101360000E09BE01812FDF91CF911F910C941B10AC
:10137000CB010E943A09182FF4CF1F93CF93DF932C
:10138000C091BF0116E08091C0018C1304C0DF91B1
:10139000CF911F910895D0E01C9FF0011D9FF00D8B
:1013A0001124EF53FE4F408151816281738184810A
:1013B00095810E949C082196C770E5CF4091F1016C
:1013C0005091F2016091F3017091F4018091F50167
:1013D0009091F6010C949C08FF920F931F93CF936A
:1013E000DF938091F601807FD1F48091F30188230F
:1013F000B1F08091BF011091C0016091F101709135
:10140000F201A091F401B091F501062F0723C091DC
:101410000001D091010196E0F92E181306C0DF916A
:10142000CF911F910F91FF90089590E0109711F0C8
:101430000F3F19F401968770F0CFF89E9001F99E46
:10144000300D1124F901EF53FE4F41814713F2CFC4
:1014500040814613EFCF42814111ECCF438154814B
:101460004A1B5B0B4C175D0728F78091F6018F70C4
:1014700080618093F601F901EA53FE4F80818F70FD
:101480008061808381EF91E00E942708DF91CF91F6
:101490001F910F91FF900C94BD09AF92BF92CF9214
:1014A000DF92EF92FF920F931F93CF93DF93CDB70D
:1014B000DEB761970FB6F894DEBF0FBECDBF8C01CB
:1014C00085E0F801DE011D9601900D928A95E1F705
:1014D000F801E28081EFC82E81E0D82E6091F401FE
:1014E0007091F5016115710509F45FC19091F101E9
:1014F0002091F201892F82238F3F09F456C1408148
:101500005181A380B480F090F301F501E61BF70B45
:10151000BF01E0910001F0910101FF2009F4F6C044
:101520008091F601382F307F6E177F0708F0AFC02B
:10153000311179C0FE2C251323C0941321C0E11072
:101540001FC08F7080618093F6010E94DE09C60182
:101550000E9427088091F601F80185838F2D6196FE
:101560000FB6F894DEBF0FBECDBFDF91CF911F91B4
:101570000F91FF90EF90DF90CF90BF90AF900895C4
:10158000AB2829F0842F85238F3F09F027C180E005
:10159000F82FF170DF2E80FF3CC08091BF012091B9
:1015A000C00136E0821315C04D875E878D859E850C
:1015B0000E948F09292F22952F702230F0F02430BD
:1015C00018F59F70F1F0F8019581907FD1F4D12C3E
:1015D0001EC090E0389FF001399FF00D1124EF53A9
:1015E000FE4F6181651306C06081641303C0628190
:1015F0006E110FC001968770D5CF9F7011F08823B0
:1016000031F3805E883018F3C8010E942708FD2C52
:10161000A5CFEE2009F4A2CF8091F60181608093DE
:10162000F601F12C9BCF251306C0941304C0F801DA
:10163000EE2009F487C0C8010E948608882319F1AA
:10164000EE2009F18091F601803270F02091F101D5
:101650003091F20138872F831986BB86AA868C8742
:10166000CE0107960E94270886E0F801A1EFB1E0BD
:1016700001900D928A95E1F70E94EC090E94DE0923
:10168000FF24F3946BCFC8010E942708F9CF3111D2
:1016900013C07A2DB98AA88A6E2D89890E948D0877
:1016A00081EF91E00E94270886E0F60111928A9569
:1016B000E9F70E94DE09B5CF25130FC094130DC0C2
:1016C000E1100BC0F8018583C8010E94270886E05D
:1016D000F60111928A95E9F741CFC8010E94860868
:1016E000882389F2EE2079F28091F601803208F4A5
:1016F000BBCF2091F1013091F2013A8329831B8203
:10170000BD82AC828E83CE010196ACCF6E177F076F
:1017100008F03EC0FE2CEE2009F4B5CF25132AC0F8
:10172000941328C08091F60180FD1BC0982F907FF4
:10173000C1F0F8018583903F31F0982F907F905F42
:101740008F70892B8583C8010E94270886E0F801E5
:10175000A1EFB1E001900D928A95E1F70E94DE09B8
:10176000FDCE86E0F801A1EFB1E001900D928A95DF
:10177000E1F7F4CEC8010E948608811175CF8091EF
:10178000F60181608093F601C8010E942708E6CE29
:101790007A2DB98AA88A6E2D89890E948D0886E0E3
:1017A000F60111928A95E9F7D9CFEE2009F46BCFB3
:1017B000C8010E948608F82E882309F464CF86E0C9
:1017C000F801A1EFB1E001900D928A95E1F781EF68
:1017D00091E00E94F5040E94EC09C0CF81E08E25C3
:1017E000D7CE1F93CF93DF93CDB7DEB72C970FB62D
:1017F000F894DEBF0FBECDBF4F83588769877A87C5
:101800008B879C87CE0107960E944D0A882369F03A
:101810008A859B85892B39F04F815885842F8523B4
:101820008F3F09F071C016E05FC086E0FE01379679
:10183000DE01119601900D928A95E1F78A859B85CC
:10184000892B89F38F81988589238F3F61F32091BC
:10185000C00130E0C9010196877099274091BF010E
:101860004817190671F40E9467081092C00110927F
:10187000BF0186E0E1EFF1E0DF011D928A95E9F713
:10188000D2CF96E0929FD001939FB00D1124AF5319
:10189000BE4FFE01319601900D929A95E1F780932B
:1018A000C0010E94BD09BFCF819FC00111248F5389
:1018B0009E4F0E944D0A8823E9F0E091BF011E9FD0
:1018C000F0011124EF53FE4F4081518162817381F9
:1018D000848195810E949C088091BF0190E00196CF
:1018E000877099278093BF018091BF019091C001BB
:1018F0008913DACF2C960FB6F894DEBF0FBECDBF9A
:10190000DF91CF911F91089569857A858B859C859C
:101910000E949C0888CF682F80910201909103015A
:101920000C94241B682F80910201909103010C9468
:101930002F1B80910201909103010C943A1B80911E
:101940001702859585958595089580911702877072
:10195000089590911702977081E009F480E008954E
:1019600080913A02089590913A02892B80933A022D
:101970000895809590913A02982390933A020895A1
:1019800010923A02089590913902892B809339027E
:101990000895809590913902982390933902089583
:1019A00010923902089580911802089508950C94B8
:1019B000D60C9091900292FD08C090911802981751
:1019C00021F0809318020C94D70C0895809118028E
:1019D000882329F01092180280E00C94D70C089507
:1019E000CF93DF93E0910201F091030180913A02DD
:1019F0008083E0910201F09103018081909139028E
:101A0000892B808390911802992381F0E091020143
:101A1000F09103018081892B808380910201909154
:101A200003010E94901A81110E94E60CC0910201EC
:101A3000D091030140E250E067EF71E0CE010E94D7
:101A40000F24892B69F080E2FE01A7EFB1E001903D
:101A50000D928A95E1F7CE01DF91CF910C943C1A5B
:101A6000DF91CF91089508950C94330D90919002D9
:101A700092FD10C098E0899F90011124622B609321
:101A800017020E94DC08809117028595859585953F
:101A90000C94340D0C94DC081092170280E00C9426
:101AA000340D909117028095892380931702282F77
:101AB000277091F4282F082E000C330B9217130671
:101AC00059F09091900292FD07C085958595859576
:101AD0000E94E7080C944C0D08959091900292FB9F
:101AE000222720F9281769F080FB92F99093900241
:101AF00080918F02909190020E94B80D82E00C9428
:101B0000510D08958091900282FB882780F991E021
:101B100089270C946D0D81E00C946D0D80E00C9480
:101B20006D0D6FEF7FEF90E080E00C94482490E023
:101B300080E00E942424893E9E4F11F40C941C15D1
:101B400080E0089582E090E00C941C2483E090E013
:101B50000C941C24CF9384E090E00E941C24C82F96
:101B600082E290E00E941C24982F8C2FCF91089540
:101B7000CF93C92F682F84E090E00E942A246C2F15
:101B800082E290E0CF910C942A24AB01BC018FE05B
:101B900090E00C943C24AB01BC0183E190E00C94F8
:101BA0003C2460E070E0CB010C94CB0D60E070E071
:101BB000CB010E94C50D0C94D10D69EE7EEF90E033
:101BC00080E00E94482460E082E090E00E942A24A5
:101BD00060E083E090E00E942A241092BE0160E061
:101BE00084E090E00E942A2460E082E290E00E947B
:101BF0002A2460E085E090E00E942A2460E086E0EC
:101C000090E00E942A246FEF87E090E00E942A244F
:101C100040E050E0BA0188E090E00E943C2460E09F
:101C20008DE090E00E942A2440E050E0BA0188E173
:101C300090E00E943C2460E087E190E00E942A242A
:101C400040E050E0BA018CE190E00E943C2470E05A
:101C500060E080E290E00E94482440E050E0BA0159
:101C600088E190E00E943C2480E00E9435150E94AB
:101C700062150C94D60D0C94DD0D682F8EE090E06B
:101C80000C942A240E94EF1B6093490270934A022D
:101C900080934B0290934C026093450270934602EE
:101CA0008093470290934802089585B7806885BF66
:101CB00085B7806885BF0895089508950C945D0EDA
:101CC00008950C94600E0E94550E89EF90E10E94D9
:101CD000261A0E945C0E0C945E0E81E008950C940E
:101CE0006D0E089508950E94710E0C94720E0E945C
:101CF00016110C949C040E94DA1B0E9471150E941C
:101D0000EA110E94770E0C94610E7F928F929F923F
:101D1000AF92BF92CF92DF92EF92FF920F931F93F9
:101D2000CF93DF93CDB7DEB72A970FB6F894DEBF17
:101D30000FBECDBF0E94FF11A82E81110E94420E3E
:101D40005BE3852E52E0952E10E000E0702E802F90
:101D50000E9436116C01F401E190F1904F01E816F8
:101D6000F90609F453C080914D0281FD0E943F1194
:101D7000C7018C259D25B12CEE24E394F12C9C0108
:101D80002E213F21232BE1F10E946F0E8823A9F021
:101D9000BE827F82CE20DF2081E0CD2809F480E062
:101DA00088870E94E31B8160782F9A8789874E81FC
:101DB0005F8168858A850E94B704000F111FF801B2
:101DC000E55CFD4F80819181E826F926F182E08271
:101DD00081E0A11001C080E02A960FB6F894DEBF22
:101DE0000FBECDBFDF91CF911F910F91FF90EF906C
:101DF000DF90CF90BF90AF909F908F907F9008958D
:101E0000B394EE0CFF1CFEE0BF12B9CF0F5F1F4F63
:101E10000530110509F09ACF8FEF89838A831B82E1
:101E20000E94E31B8160782F9D838C8349815A81B6
:101E30006B818D810E94B704CBCF0E94850E0E94DA
:101E400002140C94AC04CF93DF930E941F10EC019A
:101E5000811521E5920708F042C0811530E593070E
:101E600008F09DC0883E910530F5803E910508F050
:101E700092C0883A910588F4853A910508F084C0AB
:101E80008130910509F487C0009709F484C0049754
:101E900008F081C0D0E0C0E07EC08F3B9105D0F754
:101EA000C85AD0E0CC0FDD1FC65BDE4F0990D88149
:101EB000C02DD46470C08115904250F4C11581E0EA
:101EC000D80708F068C0C03FD10520F3D06563C0D3
:101ED000C11590E4D907F0F2DF70D06A5CC08115BB
:101EE00025E5920700F5811534E5930708F08BC0CE
:101EF000811543E5940708F073C0C11582E5D80742
:101F000008F469C0CE018370992721E030E002C057
:101F1000220F331F8A95E2F7C695C69580E2C89FC7
:101F2000E001112454C0C11599E5D907A8F4C115E1
:101F300028E5D20708F06CC0C11536E5D30708F0D4
:101F4000A9CF8C2F0E94B610C82FD0E0DC2FCC2751
:101F5000CC27DF71D0621FC0C1154AE5D40708F451
:101F60005CC0CE0190568115904208F093CF8D2F22
:101F70008F710E94B61090E0982F882788279F7154
:101F80009C012C2BE901E6CFC55AD0E0C858DE4FA2
:101F9000C881D0E0D064CE01DF91CF910895E4E014
:101FA00096958795EA95E1F783702C2F26952695CF
:101FB000237040E2249F90011124382B8C2F8370D2
:101FC000C1E0D0E002C0CC0FDD1F8A95E2F7C22B42
:101FD000D32BDC68E0CFDC2FCC27C16FD06ADBCFFE
:101FE0008370992721E030E002C0220F331F8A95C9
:101FF000E2F7C695C69590E2C99FE0011124C22B75
:10200000D32BDA68C8CFD82FCC27C46FD06AC3CF00
:10201000DC2FCC27C06FD06ABECF8C2F8F700E9470
:10202000B61034E0D695C7953A95E1F7CF709C2F5E
:10203000EC01D069B0CF0E9473180C94230F823842
:102040009105B1F1B0F48133910509F475C048F4FC
:102050008932910509F469C08A32910509F473C087
:1020600008958533910509F459C08933910501F12B
:102070000895833E9105A9F138F4803E9105F9F069
:10208000823E910549F10895863E9105A9F1873E6A
:102090009105C9F1843E910519F52091900221FF27
:1020A0001FC080918F0284FD14C087EE90E00895D8
:1020B00020918F022370A1F080EE90E0089520918E
:1020C0008F0220FD47C03091900230FF09C024FFED
:1020D00044C090E080E004C020918F0222FDF7CF41
:1020E000089520918F0222FD3BC03091900230FD77
:1020F000E3CF24FFF5CFEDCF20918F0223FFF0CF68
:1021000024FDE7CFD2CF20918F0223FD2CC0309148
:10211000900231FFEECF84EE90E0089520918F027F
:1021200025FFDECF89E290E0089520918F0225FF00
:10213000D7CF85E390E0089520918F0226FFD0CF7E
:102140008AE290E0089520918F0226FFC9CF81E3B3
:1021500090E0089589E390E0089583EE90E008957B
:1021600082EE90E0089586EE90E0089590918F02BF
:1021700092FF06C0282F28712830F9F4877F8460E9
:1021800093FF06C0282F28712831F1F4877E8461DF
:102190002091900220FF06C0382F38713830D9F4D2
:1021A000877F816021FF06C0282F28712831D1F454
:1021B000877E816194FD877E0895282F24712430C5
:1021C000F9F68B7F8860DCCF282F2471243101F74A
:1021D0008B7E8861DDCF382F3171313019F78E7FDA
:1021E0008860E0CF282F2171213121F78E7E886110
:1021F000E1CF80E008950C94910D0E94FF112FEF24
:1022000086E791E0215080409040E1F700C0000057
:102210000E94FF1180E00E94361180FF04C00E94DE
:10222000FB100C942E1C08950C94FD100E94970D29
:10223000811102C00E943B0E0E94A20D80934D02AC
:102240000E94AA0D9093900280938F020E94141115
:102250000E94A60D0E94B6088091BD010C94C90889
:1022600008950C94301108950C943311E82FF0E088
:10227000EE0FFF1FE556FD4F80819181089508956F
:1022800080EA8A95F1F7089500C008950C944011F2
:10229000F894E82FE295EF70F0E031A1282F2F702D
:1022A00081E090E001C0880F2A95EAF7982F909579
:1022B000932391A392A1892B82A378940895CF931D
:1022C000DF93C9E8D1E089918F3F11F00E94481156
:1022D00081E0CE38D807B9F7CBE7D1E089918F3FBD
:1022E00011F00E94481181E0C938D807B9F7DF9191
:1022F000CF910895AF92BF92DF92EF92FF920F932A
:102300001F93CF93DF938C01D62EC62FD0E0CE0142
:1023100087579E4F7C01FC0120812F3F09F44DC05F
:10232000F894E22FE295EF70F0E031A12F7081E098
:1023300090E001C0880F2A95EAF7932F982B91A37C
:1023400092A18095892382A378940E944411EBE79F
:10235000F1E049E851E021E030E0B12CA12C61919D
:102360006F3FA9F1A62FA295AF70B0E090968C9127
:1023700090E06F7002C0959587956A95E2F780FDB1
:1023800026C0C901A82AB92A220F331F4E175F079A
:1023900031F7F70180818F3F11F00E94481161E011
:1023A000A114B10409F460E08D2D0E944611CC0FF8
:1023B000DD1FC00FD11FB982A882DF91CF911F917D
:1023C0000F91FF90EF90DF90BF90AF90089590E055
:1023D00080E0D8CF0E945F118AE0EBE9F2E0DF01F4
:1023E000982F1D929A95E9F7E1E9F2E0DF011D923D
:1023F0008A95E9F785E00E944A120C945003FF92F7
:102400000F931F93CF93DF93CDB7DEB72A970FB605
:10241000F894DEBF0FBECDBF8E010F5F1F4F8AE065
:10242000F80111928A95E9F7F12C6F2DC8010E94ED
:102430007A11F394F5E0FF12F8CF4AE050E0B801CA
:1024400081E992E00E940F24FF24F394009709F49D
:10245000F12C892B41F08AE0F801A1E9B2E001906A
:102460000D928A95E1F72F2D45E06BE972E081E945
:1024700092E00E944B120E9452038F2D2A960FB6B3
:10248000F894DEBF0FBECDBFDF91CF911F910F91AA
:10249000FF9008950895FF920F931F93CF93DF93BA
:1024A000F82E092F162FD72FC42F222349F081E0B1
:1024B000809350020E94E31B90934F0280934E0240
:1024C000809150028823A1F080914E0290914F029A
:1024D0000E94FB1B059760F0EF2DF02FA12FBD2F61
:1024E00090E080E0D0E08C179D0744F010925002FD
:1024F000DF91CF911F910F91FF900895219131911C
:102500002D933D930196EFCF0E94291E0E947B0ED2
:102510000C94351E0E94391E0E941D0F0C94531EF0
:102520000E94831B0E94101E0E94630E0E94841250
:102530000E948A120E94730EFBCF8091570280FF87
:102540000DC06091090170E0660F771F603871055A
:1025500070F56115710569F1862F089581FF07C037
:102560006091090184E0689FB0011124EFCF609170
:10257000090182FD0AC0809156028823A9F02091AA
:10258000080160910901821710F088E0ECCF869F66
:10259000C001112433E0880F991F3A95E1F7622FAB
:1025A00070E00E94DA23D2CF68E070E0D5CF8FE7E9
:1025B000089581E008958091570280FF0CC06091DA
:1025C000050170E0759567957595679561157105BD
:1025D00049F1862F089581FF06C06091050170E0E2
:1025E00075956795F3CF6091050182FD0BC09091C1
:1025F00055029923A1F0609104018091050196177D
:1026000038F0682F70E06038710500F38FE70895A7
:10261000899FC001112470E00E94DA23F4CF61E0A9
:1026200070E0D7CF81E00895803F31F40E949D1281
:10263000819580935B020895813F19F40E949D1259
:10264000F8CF823F31F40E949D12819580935A0207
:102650000895833F19F40E949D12F8CF893F29F411
:102660000E94DB1280935C0208958A3F21F40E944D
:10267000DB128195F7CF8B3F31F40E94DB128195FD
:1026800080935D0208958C3F19F40E94DB12F8CF0D
:102690009CE0980F953070F4845F990B21E030E056
:1026A00001C0220F8A95EAF780915902822B80930C
:1026B000590208958D3F31F48091570281608093D3
:1026C000570208958E3F21F4809157028260F7CF20
:1026D0008F3FB9F7809157028460F1CF40915A0241
:1026E000803F59F480915B0287FF0DC010925B021E
:1026F00041110BC01092560208C0813F81F48091B5
:102700005B0218169CF3442381F080915C02909147
:102710005D02892B09F05AC0109255020895823F3C
:1027200049F447FFF0CF10925A0280915B02811169
:10273000ECCFE0CF833F19F41416ACF3E4CF9091C3
:102740005C02893F29F41916F4F610925C02DBCF83
:102750008A3F19F497FFD7CFF8CF90915D028B3F56
:1027600029F497FFD0CF10925D02CDCF8C3F19F4A2
:102770001916CCF3C8CF9CE0980F953090F4845F85
:10278000990B21E030E0B90102C0660F771F8A95EE
:10279000E2F7CB01809590915902892380935902E9
:1027A000B2CF8D3F31F4809157028E7F80935702D4
:1027B000AACF8E3F21F4809157028D7FF7CF8F3FB4
:1027C00009F0A1CF809157028B7FF0CF08950E942E
:1027D000E31B9C0190915A0280915B02982B21F09F
:1027E000309354022093530290915C0280915D02D9
:1027F000982B21F0309352022093510288E592E009
:102800000C94561AEF92FF920F931F93CF93DF937E
:1028100000D000D000D0CDB7DEB786E0E8E5F2E02A
:10282000DE01119601900D928A95E1F7E0905A022F
:10283000F0905B0200915C0210915D0210925A02CE
:1028400010925B0210925C0210925D028E2D8F2915
:1028500091F080915302909154020E94FB1BAC01B5
:1028600090915602992309F43FC080910A01841780
:10287000150608F447C0802F812B91F080915102FA
:10288000909152020E94FB1BAC019091550299233A
:1028900009F477C0809106018417150608F47FC0FB
:1028A00080915A0290915B02892B90915C02892B56
:1028B00090915D02892B11F00E94E71386E0FE01E2
:1028C0003196A8E5B2E001900D928A95E1F726963F
:1028D0000FB6F894DEBF0FBECDBFDF91CF911F9131
:1028E0000F91FF90EF90089520910B018AE0289FAF
:1028F000900111242417350708F0BDCF9F5F9093F6
:10290000560202C09F3FD1F7EE2059F00E949D125F
:102910009FEF1E140CF491E0899F802D1124809369
:102920005A02FF2059F00E949D129FEF1F140CF4D1
:1029300091E0899F802D112480935B0230915A028F
:10294000332309F498CF20915B02222309F493CF1B
:1029500045EB3403C0011124992359F090935A0296
:1029600045EB240390011124332339F030935B02AB
:1029700082CF81E080935A02F3CF81E080935B02A3
:102980007ACF209107018AE0289F90011124241713
:10299000350708F085CF9F5F9093550202C09F3F97
:1029A000D1F7002359F00E94DB129FEF10160CF4B0
:1029B00091E0899F802D112480935C02112359F0AE
:1029C0000E94DB129FEF11160CF491E0899F802D7D
:1029D000112480935D0230915C02332309F460CFAF
:1029E00020915D02222309F45BCF45EB3403C00143
:1029F0001124992359F090935C0245EB2403900134
:102A00001124332339F030935D024ACF81E0809363
:102A10005C02F3CF81E080935D0242CF86E0E8E57F
:102A2000F2E0DF011D928A95E9F7109256021092AA
:102A3000550210925702089583E290E00E941C24F0
:102A4000823289F484E290E00E941C24873059F499
:102A500085E290E00E941C2491E0853209F090E02C
:102A6000892F8170089580E0FCCFCF93C82F6FEF3E
:102A7000811162E283E290E00E942A246FEFC1118B
:102A800067E084E290E00E942A246FEFC11165E2C2
:102A900085E290E0CF910C942A24089586E290E09C
:102AA0000E941C24682F70E090E080E00895089553
:102AB000CF93C62F0E9457156C2F86E290E0CF91DE
:102AC0000C942A2480E00E94351560E070E0CB0170
:102AD0000E9458150E94EB170E94D71881E00C94B1
:102AE00035150E944D150E944E150E9457150E94E3
:102AF0001C15811102C00C9462150895CF93FB013F
:102B0000C281CC2309F19C0122513F45203131057E
:102B100020F582510E94E718C0E08C2FCF910895D4
:102B200081E00E94DC0843E062E081E00E9447030C
:102B3000F3CF81E00E94E70843E062E081E00E9479
:102B40004703EBCF82E0F6CF8031FFE59F0789F3A3
:102B500081319F45B9F3C1E0E0CF8031EFE59E07B9
:102B6000F9F281319F45C9F682E0DBCF2FEFFC01FE
:102B700020830895EF92FF920F931F93CF93DF93DB
:102B8000EC01062FE881E150E33108F05EC0F0E08F
:102B9000E459FB4D0C94EE23198289E08A83602F5F
:102BA000CE01DF91CF911F910F91FF90EF900C9488
:102BB000E91C8981823069F0833071F08130D9F469
:102BC0000E94EF1B0E94F4236A837B838C839D8386
:102BD000E6CF0E944E15F6CF7E0110E0812F0E94B5
:102BE0003611F701928383831F5FF2E0EF0EF11C31
:102BF0001530A1F7D4CF602FCE010E94B615CFCFEC
:102C000089818230C1F76A817B818C819D810E949C
:102C1000F4230E945815C3CF4B816A8189810E9499
:102C2000BD179827892798279D838C83B8CF2C813F
:102C30003D813227232732274B816A8189810E9477
:102C4000D617ADCF0E94EB17AACF8FEF8883A7CFFF
:102C50000E9480188983A3CF0E9482189827892711
:102C600098279A8389839BCF6B8170E089819A81B1
:102C7000AE014C5F5F4F9827892798270E948518DF
:102C80008ECF6B8170E089819A81AE014C5F5F4F7E
:102C90009827892798270E94AC1881CF0E94D718BF
:102CA0007ECF0E94AB17D6CF6B8170E089819A816D
:102CB000AE014C5F5F4F9827892798270E94231801
:102CC0006ECF6B8170E089819A81AE014C5F5F4F5E
:102CD0009827892798270E94491861CFCF93DF93BF
:102CE000EC01FB018281882309F433C1C330FDE587
:102CF000DF07C0F5CA3F9CE5D90730F49E0122509A
:102D00003C4524313105B0F50E94AA0D9093900204
:102D100080938F02C1318CE5D80709F4EEC008F02A
:102D200069C0C930ECE5DE0709F4D5C0C8F5C53087
:102D30008CE5D80709F4C7C000F5C330ECE5DE0721
:102D400009F4B9C008F0BBC0C230DC4509F4ADC01D
:102D500080918F02909190020E94B80D0E946708A6
:102D600080E008C0C136EDE5DE0771F2C53AFDE549
:102D7000DF0751F2DF91CF91089580918F02806239
:102D8000C7309CE5D90709F493C080918F02806118
:102D9000C830DC4508F48CC080918F02806488C004
:102DA00080918F028B7FCD30FCE5DF0709F480C076
:102DB00098F480918F028E7FCB309CE5D90709F47F
:102DC00077C080918F028C60CC30DC4508F470C0F5
:102DD00080918F028D7F6CC080918F028F7ECF306B
:102DE000FCE5DF0709F464C008F47BC080918F0222
:102DF0008F7D5EC0CD3F9CE5D90709F47AC050F5C0
:102E0000C531FCE5DF0709F486C098F480918F0294
:102E1000837FC3319CE5D90709F44AC008F471C027
:102E20000E94670890918F02892F97FB87F980583D
:102E30003FC0CB3FFCE5DF0709F449C008F055C0AF
:102E4000809190028160CA3FDC4509F081CF809378
:102E500090027ECFC130EDE5DE0709F468C0A8F42A
:102E6000CF3F8CE5D80709F452C08091900283606F
:102E7000C115DD4560F380919002982F9095917077
:102E80008E7F892B90FB81F9E2CFC136EDE5DE071D
:102E900009F451C0C53AFDE5DF0709F453C0C2305B
:102EA000DD4509F055CF80E043C080918F028160FD
:102EB00080938F024DCF80918F028260F9CF8091F5
:102EC0008F028460F5CF80918F028860F1CF80916E
:102ED00090028260BCCF0E94670880918F02806858
:102EE000E7CF80918F02877FE3CF809190028E7F22
:102EF000AECF809190028D7FAACF80918F028F7B81
:102F0000D7CF0E94670880918F028F77D1CF8091B1
:102F100090028C7F9CCF80918F0282FB992790F941
:102F200021E0922790FB82F990FB83F9C1CF81E0E9
:102F30000E943D0E0DCF90918F02892F8F7E94FFBE
:102F40008061B6CF90918F02892F8E7F90FF816034
:102F5000AFCF81E00FCF84E0089550E0440F551FBC
:102F60009CE1699F400D511D11249CE8899F400DF3
:102F7000511D1124CA01879608950F931F93CF9373
:102F8000DF930E94AD178C010E941C24C82FD0E053
:102F9000DC2FCC27C80101960E941C249E01282BFF
:102FA000C901DF91CF911F910F9108950F931F9346
:102FB000CF93DF93122F032F0E94AD17EC01602FE8
:102FC0000E942A24612FCE010196DF91CF911F919B
:102FD0000F910C942A24AF92BF92CF92DF92EF927E
:102FE000FF921F93CF93DF938CEAC82E80E0D82EF8
:102FF000D0E07601C0E014C0F50125913491412F55
:103000006C2F8D2F0E94D61782E0A80EB11C1F5F77
:103010001E3091F78CE1E80EF11CCF5FC53019F03E
:10302000570110E0E9CFDF5F8CE8C80ED11CD43027
:1030300001F7DF91CF911F91FF90EF90DF90CF903C
:10304000BF90AF900895EF92FF920F931F93CF938D
:10305000DF93EC018A017C01E60EF71ECE01879614
:10306000CE15DF0539F4DF91CF911F910F91FF90BD
:10307000EF900895C03322E0D20740F40E941C2450
:10308000F80180830F5F1F4F2196E8CFF80110826F
:10309000F9CFCF92DF92EF92FF920F931F93CF93CE
:1030A000DF937C016A018C01060F171FEC01CE0132
:1030B0008796C017D10749F4DF91CF911F910F91E7
:1030C000FF90EF90DF90CF900895C03322E0D207B9
:1030D00040F4FE01EE19FF09EC0DFD1D60810E9418
:1030E0002A242196E4CF462F843038F4753028F412
:1030F0006E3018F4672F0C94BD1790E080E00895AF
:1031000080E1089589EA91E00895EF92FF920F938C
:103110001F93CF93DF93EC018A017C01E60EF71E2B
:10312000CE01895A9D4FCE15DF0539F4DF91CF913D
:103130001F910F91FF90EF900895C93A21E0D207B7
:1031400040F40E941C24F80180830F5F1F4F2196DA
:10315000E7CFF8011082F9CFCF92DF92EF92FF9282
:103160000F931F93CF93DF937C016A018C01060FAD
:10317000171FEC01CE01895A9D4FC017D10749F4A2
:10318000DF91CF911F910F91FF90EF90DF90CF9043
:103190000895C93A21E0D20740F4FE01EE19FF0973
:1031A000EC0DFD1D60810E942A242196E3CFCF9370
:1031B000DF93C7E5D2E060E0CE010E942A24219689
:1031C000C11584E0D807B9F7DF91CF910895DF9258
:1031D000EF92FF920F931F93CF93DF9300D000D015
:1031E000CDB7DEB7F82E8FE08F1540F08FEF93E06C
:1031F0000E941C2407E512E08823C1F00F900F9075
:103200000F900F90DF91CF911F910F91FF90EF9052
:10321000DF900895011584E0180781F3C8010E942A
:103220001C24811101C0FA940F5F1F4FF110F2CFDF
:1032300019821A821B821C82DD24D39478018FEFBD
:10324000E81AF80AC8010E941C2489831A8288237C
:10325000A9F29FEF980F933078F48A83D9820E5F9A
:103260001F4FC7010E941C248B83882339F2CE0193
:1032700001960E949204E2CF8701F9CFCF93DF93AA
:10328000EB0186319C4511F50E94B00C9A8199237F
:1032900099F08A7A91E009F490E090935E028111AE
:1032A00009C089E20E948B0C0E94F00C80E0DF9143
:1032B000CF91089585E3F6CF80915E02811104C01D
:1032C00089E20E94920CF0CF85E3FBCF81E0EFCF43
:1032D0000F931F93CF93DF93C42FD22FFC018281D2
:1032E0008823C9F0409361020E94E31B909360021F
:1032F00080935F0280E28C0F883008F050C0C77066
:1033000081E001C0880FCA95EAF7DF91CF911F9144
:103310000F910C94010610916102141335C0809135
:103320005F02909160020E94FB1B883C910560F552
:10333000C0E2CD0F1D17B9F080E2810F883040F454
:10334000177081E001C0880F1A95EAF70E940806FD
:10335000C83048F481E09D2F977001C0880F9A957E
:10336000EAF70E940106802F0E94F905C830B8F4E0
:10337000D77081E001C0880FDA95EAF7DF91CF912D
:103380001F910F910C94080680E28C0F883038F45E
:10339000C77081E001C0880FCA95EAF7EFCFDF91CF
:1033A000CF911F910F9108950F939C01CB01233F63
:1033B0004CE5340759F1A8F4283DFCE53F0701F13D
:1033C000293D4CE53407D1F1273D3C4591F406E217
:1033D00021EE41EE67ED7CE50E94681980E00F91D7
:1033E0000895253FFCE53F07E9F0B0F0263F3C4556
:1033F000F9F0FC018281882339F110926102EFCF4C
:1034000007E225EE45EE68ED7CE5E6CF06E221EE2B
:1034100040EE63EF7CE5E0CF07E225EE44EE64EF9B
:103420007CE5DACF06E221EE42EE65EF7CE5D4CF13
:1034300007E225EE46EE66EF7CE5CECF08E221E01E
:1034400045EE69ED7CE5C8CF81E0C9CF90939F013F
:1034500080939E0108959093670280936602089579
:10346000E0916602F0916702309721F00190F081BF
:10347000E02D099480E00895E0916602F0916702E2
:10348000309799F020911801222359F020918F0252
:1034900027FF07C0DC012C9111962C93119726E091
:1034A0002C930280F381E02D09940895E091660247
:1034B000F0916702309739F022E0DC012C93048010
:1034C000F581E02D09940895209164023091650200
:1034D0002817390771F09093650280936402E09198
:1034E0006602F0916702309721F00680F781E02DA7
:1034F00009940895209162023091630228173907D8
:1035000071F09093630280936202E0916602F09101
:103510006702309721F00084F185E02D0994089529
:10352000FC01329680911801882321F080918F024E
:103530009EE187FF96E080E0915008F40895219184
:103540002223D1F38F5FF8CF662301F12091180178
:103550002223F1F020918F0227FF1AC0462F4695B3
:10356000469546954E3190F4677021E030E002C0F8
:10357000220F331F6A95E2F7840F911DFC018281AF
:1035800090E02823392381E0232B69F480E008951B
:10359000FC01329608962191261721F0E817F907C9
:1035A000D1F7F4CF81E008959C01FC0132969FEFA2
:1035B00080E04191461751F09F3F19F4411101C03D
:1035C000982F8F5F8630A9F79F3F09F40895290F40
:1035D000311D97FD3A95F90162830895FC013296F9
:1035E00008962191261303C0DF0111971C92E8175A
:1035F000F907B9F70895E62FE695E695E695EE31D9
:1036000068F4E80FF92FF11D677021E030E001C088
:10361000220F6A95EAF78281822B82830895E62F32
:10362000E695E695E695EE3170F4E80FF92FF11D79
:10363000677021E030E001C0220F6A95EAF720951B
:10364000828128232283089520911801222329F0C2
:1036500020918F0227FD0C94FB1A0C94D41A209110
:103660001801222329F020918F0227FD0C940F1BB3
:103670000C94EE1AFC01329680911801882351F0C7
:1036800080918F0287FF06C08EE1DF011D928A952F
:10369000E9F7089586E0F9CF08950C944C1B811149
:1036A00005C081E0809368020C944D1B82E0FACF44
:1036B00083E0809368020C944D1B0C944F1B81E0B7
:1036C000809368020C944D1B0C945F1B0895089521
:1036D0000C94671B089508950C94661BCF930E9469
:1036E0006A1B0E94FF110E946B1BC0E08C2F0E947E
:1036F0003611892B31F4CF5FC530C1F780E0CF910F
:10370000089581E0FCCF08951F921FB61F921124E7
:103710008F939F93AF93BF9380916902811113C0E0
:103720008091A5029091A602A091A702B091A80253
:103730004196A11DB11D8093A5029093A602A0936E
:10374000A702B093A802BF91AF919F918F911F9054
:103750001FBE1F9018958091AD02843031F10E94F8
:10376000BC031092690288E190E020E40FB6F8945F
:10377000A895809360000FBE2093600083B7817F7F
:10378000846083BF83B7816083BF7894889583B753
:103790008E7F83BF0FB6F894A895809160008861F2
:1037A00080936000109260000FBE08950E94670829
:1037B0000C94C00382E084BD93E095BD9AEF97BD61
:1037C00080936E0008952FB7F8948091A502909190
:1037D000A602A091A702B091A8022FBF08952FB70B
:1037E000F8946091A5027091A6028091A702909131
:1037F000A8022FBF08959C014FB7F8948091A502AD
:103800009091A602A091A702B091A8024FBF821B7F
:10381000930B089578941F921FB61F9211248F93D3
:103820009F93AF93BF938091A5029091A602A09120
:10383000A702B091A8020196A11DB11D8093A50217
:103840009093A602A093A702B093A802BF91AF9154
:103850009F918F911F901FBE1F90189581E08093BC
:10386000E00080E28093D8001092C9008FE19EE4CE
:103870000197F1F700C0000087E090EBDC01809336
:10388000B6029093B702A093B802B093B90288E150
:103890009CE00FB6F894A895809360000FBE9093BB
:1038A0006000FFCF80918D02089508959C0184E00F
:1038B0008093E9009FEF8091E800915085FD06C05C
:1038C00085ED8A95F1F700009111F5CF8091E80020
:1038D00085FF0CC050E040E066E070E0C9010E9446
:1038E000FA1E8091E8008E778093E8000895CF93C8
:1038F000DF93EC01809118018823B1F180918F0250
:1039000087FF32C060E284E08093E9008FEF9091FE
:10391000E800815095FD06C095ED9A95F1F70000FD
:103920008111F5CF8091E80085FF1BC080911801BF
:1039300070E050E040E0811104C050E040E068E0F9
:1039400070E0CE010E94FA1E8091E8008E7780938D
:10395000E80080E2FE01ADE6B2E001900D928A95AA
:10396000E1F7DF91CF91089568E081E0CDCF8093BA
:103970006A0270936C0260936B028091AD02843096
:10398000F9F48093E9008FEF9091E800815095FD64
:1039900006C095ED9A95F1F700008111F5CF809161
:1039A000E80085FF0DC050E040E063E070E08AE68B
:1039B00092E00E94FA1E8091E8008E778093E800E2
:1039C0000895BC0184E00C94B71CBC0183E00C9406
:1039D000B71CCF93FC01603221F58091AD02843099
:1039E00001F5C091E900CF702091EC00922F917009
:1039F00020FD90E8C92B82E08093E9008091E800E7
:103A000080FF0CC050E040E060E270E0CF010E9417
:103A1000FA1E8091E8008E778093E800CF70C09303
:103A2000E900CF9108958091AC02811109C00E94F4
:103A3000D9200E9436218091E20084608093E200C8
:103A400008951092AC0208950C945F1B6091A90236
:103A500081E0611101C080E00C94581B9091AD028F
:103A600081E0943009F080E06091A9020C945D1B24
:103A700042E061EC81E00E94552042E261EC84E08A
:103A80000E94552042E261EC82E00E94552042E211
:103A900060EC83E00E9455209091AD0281E094306B
:103AA00009F080E06091A9020C944F1B8091AF0255
:103AB000833009F462C030F48130D9F1823009F4E6
:103AC0009EC008958A3009F48AC08B3009F470C012
:103AD000893009F051C08091AE02813209F04CC0AA
:103AE0008091B2029091B302009719F0029709F009
:103AF00043C08091E800877F8093E8008091E800D0
:103B000082FF36C09091F3008091F200029731F469
:103B10008091F100813011F0863021F48091F10024
:103B200080938D028091E8008B778093E8000C945D
:103B300089208091AE02813AF9F48091E800877F74
:103B40008093E8008091B2029091B302892B61F4D6
:103B500060E28DE692E070E00E94981F8091E8009C
:103B60008B778093E800089560E090E080E0F3CFE9
:103B70008091AD028111C2CF08958091AE02813A49
:103B8000D9F78091B2029091B302892BA9F7809165
:103B9000E800877F8093E8008091E80080FFFCCFF9
:103BA000809118018093F1008091E8008E77BDCF5D
:103BB0008091AE02813201F78091B2029091B302FE
:103BC000892BD1F68091E800877F8093E8000E94DE
:103BD00089208091B002809318010C94670880912D
:103BE000AE02813249F68091E800877F8093E80039
:103BF0000E9489208091B10280938E020895809165
:103C0000AE02813A09F0B8CF8091E800877F8093B7
:103C1000E8008091E80080FFFCCF80918E02C2CF47
:103C200084B7877F84BF0FB6F894A8958091600011
:103C3000886180936000109260000FBE80E890E081
:103C40000FB6F89480936100909361000FBE0C94BE
:103C5000641B0E94D9200E943621E2EEF0E08081B0
:103C60008460808378940C94BF238CE091E00C9462
:103C70002B1A8091AD028530A9F48091AD02853078
:103C800011F00C94D61B0E94AB1B8091AB028823D1
:103C9000A1F30E946E1B882381F30E94E41E0E9400
:103CA0006708EBCF0895CF93DF93CDB7DEB7A0972A
:103CB0000FB6F894DEBF0FBECDBF8091AD02843049
:103CC00009F583E08093E9008091E80082FF1AC043
:103CD0008091E80090E085FF09C050E040E060E29C
:103CE00070E0CE0101960E94491F91E08091E800AA
:103CF0008B778093E800992329F060E2CE0101964A
:103D00000E94BA15A0960FB6F894DEBF0FBECDBFC5
:103D1000DF91CF9108950C948D1E292F33272330E6
:103D2000310521F168F42130310509F443C0223016
:103D3000310509F444C090E080E030E020E026C086
:103D40002132310551F122323105A9F76330710575
:103D500090F7FB01EE0FFF1FEF56FE4F20813181E0
:103D600062577E4FFB01808190E010C0992781301F
:103D7000910581F0009729F00297E9F6ECE8F3E06D
:103D800002C0E2EBF3E0849190E09F01FA013183FD
:103D900020830895EAE9F3E0F6CF6330710558F621
:103DA000660F771FFB01E956FE4F2081318189E0C4
:103DB00090E0ECCF82E190E021E134E0E7CF8BE5C9
:103DC00090E026EB33E0E2CF80E189BD82E189BD5E
:103DD00009B400FEFDCF8091D8008F7D8093D8007C
:103DE0008091E00082608093E0008091E00081FD9E
:103DF000FCCF0895AF92BF92CF92DF92FF920F93C4
:103E00001F93CF93DF936C01EB018A010E94A820DE
:103E1000F82E811123C00115110539F0F8018081B8
:103E20009181C81BD90BC80ED91EB12CA12C20978B
:103E3000A9F08091E80085FD22C08091E8008E778E
:103E40008093E80001151105A1F0F80180819181AE
:103E5000A80EB91EB182A08285E0F82E8F2DDF91C9
:103E6000CF911F910F91FF90DF90CF90BF90AF90B7
:103E700008950E94A8208823D1F2F82EEFCFF601F2
:103E800081916F018093F1002197FFEFAF1ABF0A74
:103E9000CECFAF92BF92CF92DF92FF920F931F933C
:103EA000CF93DF936C01EB018A010E94A820F82ECA
:103EB000811123C00115110539F0F801808191812C
:103EC000C81BD90BC80ED91EB12CA12C2097A9F064
:103ED0008091E80085FD22C08091E8008B77809377
:103EE000E80001151105A1F0F80180819181A80E6B
:103EF000B91EB182A08285E0F82E8F2DDF91CF917F
:103F00001F910F91FF90DF90CF90BF90AF900895D9
:103F10000E94A8208823D1F2F82EEFCF8091F100E3
:103F2000F60181936F012197FFEFAF1ABF0ACECF41
:103F3000FC018091B4029091B50286179707A0F01A
:103F40006115710529F49091E8009E779093E8003F
:103F500090E06115710551F4911108C08091E8005D
:103F600082FF34C080E00895BC01F2CF8091AD02A1
:103F70008823C1F18530C1F18091E80083FD30C014
:103F80008091E80082FDEACF8091E80080FFE1CFD8
:103F90008091F3002091F200382F6115710519F01E
:103FA0002830310558F091E02830310509F090E0D3
:103FB0002091E8002E772093E800CBCF8191809369
:103FC000F100615071092F5F3F4FE7CF8091AD0243
:103FD000882341F0853041F08091E80083FFBECF17
:103FE00081E0089582E0089583E00895FC018091C6
:103FF000B4029091B50286179707A0F0611571057C
:1040000029F48091E8008E778093E80090E06115B4
:10401000710551F4911108C08091E80082FF35C00C
:1040200080E00895BC01F2CF8091AD028823C9F1F0
:104030008530C9F18091E80083FD31C08091E800AE
:1040400082FDEACF8091E80080FFE1CF8091F3000C
:104050002091F200382F6115710519F028303105D3
:1040600058F091E02830310509F090E08091E800A7
:104070008E778093E800CBCF84918093F1003196C6
:10408000615071092F5F3F4FE6CF8091AD028823C9
:1040900041F0853041F08091E80083FFBDCF81E0A1
:1040A000089582E0089583E00895982F973028F0CE
:1040B0008F708093E90081E008959093E900242FA8
:1040C000762F50E0981731F07091EC002091ED00C0
:1040D0005091F00021FD02C09F5FE8CF3091EB00CE
:1040E0003E7F3093EB003091ED003D7F3093ED004B
:1040F0003091EB0031603093EB007093EC00209333
:10410000ED005093F0002091EE0027FDE5CF80E018
:1041100008958091AE0287FF13C08091E80082FF6E
:1041200006C08091E8008B778093E80004C08091FE
:10413000AD028111F2CF08958091AD028823D9F3A9
:104140008091E80080FFF8CF8091E8008E77ECCF77
:104150002091E4003091E50095E6A9012091EC0062
:10416000822F817020FF06C08091E80080FF06C08A
:1041700080E008952091E80022FD1AC08091AD02F0
:10418000882389F0853089F08091EB0085FD0FC090
:104190002091E4003091E50042175307F9F2915065
:1041A000E1F684E0089582E0089583E0089581E0D7
:1041B00008950E9447210E944F21E0EEF0E08081A7
:1041C00081608083E8EDF0E080818F77808319BC87
:1041D000A7EDB0E08C918E7F8C9380818F7E808361
:1041E0001092AC0208950F931F93CF93DF930E9418
:1041F00047210E944F21C8EDD0E088818F778883C6
:1042000088818068888388818F7D888319BC10921B
:10421000AD021092A9021092AB021092AA0200EE17
:1042200010E0F80180818B7F8083888181608883A2
:1042300042E060E080E00E945520E1EEF0E0808105
:104240008E7F8083E2EEF0E08081816080838081D8
:1042500088608083F80180818E7F8083888180617F
:104260008883DF91CF911F910F910895E8EDF0E0E1
:1042700080818F7E8083E7EDF0E0808181608083A4
:1042800084E082BF81E08093AC020C94F320E8EDDF
:10429000F0E080818E7F80831092E200089510927A
:1042A000DA001092E10008951F920F920FB60F925C
:1042B00011242F933F934F935F936F937F938F932B
:1042C0009F93AF93BF93EF93FF938091E10082FFA1
:1042D0000BC08091E20082FF07C08091E1008B7FDC
:1042E0008093E1000E94BE238091DA0080FF19C014
:1042F0008091D80080FF15C08091DA008E7F809376
:10430000DA008091D90080FF96C080E189BD82E10A
:1043100089BD09B400FEFDCF81E08093AD020E940B
:10432000131D8091E10080FF19C08091E20080FFA1
:1043300015C08091E2008E7F8093E2008091E200C0
:1043400080618093E2008091D80080628093D800E1
:1043500019BC85E08093AD020E94261D8091E1008A
:1043600084FF2BC08091E20084FF27C080E189BDDB
:1043700082E189BD89B5982F917080FFFBCF809134
:10438000D8008F7D8093D8008091E1008F7E80934C
:10439000E1008091E2008F7E8093E2008091E20054
:1043A00081608093E2008091A902882309F449C0CA
:1043B00084E08093AD020E942E1D8091E10083FF76
:1043C00029C08091E20083FF25C08091E100877FB2
:1043D0008093E10082E08093AD021092A902809167
:1043E000E1008E7F8093E1008091E2008E7F8093D8
:1043F000E2008091E20080618093E20042E060E0B0
:1044000080E00E9455208091F00088608093F00049
:104410000E94241DFF91EF91BF91AF919F918F91C9
:104420007F916F915F914F913F912F910F900FBEB0
:104430000F901F90189519BC1092AD020E94211D7B
:1044400070CF8091E30087FD93E09093AD02B3CFEE
:104450001F920F920FB60F9211242F933F934F93F9
:104460005F936F937F938F939F93AF93BF93CF93FC
:10447000DF93EF93FF93D091E900DF708091EC0020
:10448000C82FC17080FDC0E81092E9008091F00053
:10449000877F8093F00078940E946C221092E9004C
:1044A0008091F00088608093F000CD2BCF70C09396
:1044B000E900FF91EF91DF91CF91BF91AF919F9173
:1044C0008F917F916F915F914F913F912F910F90BD
:1044D0000FBE0F901F9018951F93CF93DF93CDB70A
:1044E000DEB7AA970FB6F894DEBF0FBECDBF8EEA37
:1044F00092E02091F100FC012193CF01F2E0863B94
:104500009F07B9F70E94561D8091E80083FF1EC1E6
:104510008091AE029091AF029A3008F017C1E92F56
:10452000F0E0E158FB4D0C94EE23803899F082388E
:1045300009F00CC18091B2028F70873008F006C17B
:104540008093E9008091EB0085FB882780F9109229
:10455000E90006C08091AA029091AB02911182609D
:104560009091E800977F9093E8008093F10010927B
:10457000F1008091E8008E77E5C0882309F4D3C06C
:10458000823009F0E3C08091B0028111D6C08091E1
:10459000B2028F702FEF280F263008F0D7C080931B
:1045A000E9002091EB0020FFC8C0933031F48091E6
:1045B000EB0080628093EB00C0C09091EB009061B3
:1045C0009093EB0021E030E001C0220F8A95EAF7DA
:1045D0002093EA001092EA008091EB008860EACF15
:1045E0008111B4C01091B0021F778091E3008078F0
:1045F000812B8093E3008091E800877F8093E8001F
:104600000E9489208091E80080FFFCCF8091E30028
:1046100080688093E30082E0111183E08093AD0213
:1046200095C08058823008F091C08091B00290917E
:10463000B1028C3D23E09207A1F583E08A838AE2F0
:1046400089834FB7F894DE01139620E03EE051E2F3
:10465000E32FF0E050935700E49120FF03C0E29570
:10466000EF703F5FEF708E2F90E0EA30C0F0C7969A
:104670008D939D932F5F243159F74FBF8091E800B0
:10468000877F8093E8006AE270E0CE0101960E9485
:10469000981F8091E8008B778093E80057C0C09600
:1046A000E7CF6091B2027091B302AE014F5F5F4FEE
:1046B0000E948B1EBC01892B09F448C09091E80030
:1046C000977F9093E80089819A810E94F61FE1CF3D
:1046D0008038E1F58091E800877F8093E800809141
:1046E000A9028093F10045CF811130C09091B002B2
:1046F000923060F58091E800877F8093E800909386
:10470000A9020E9489208091A902882311F084E0E7
:1047100005C08091E30087FDFACF81E08093AD0270
:104720000E94381D13C08091B002813079F481E07D
:10473000933009F080E08093AB021092E900809101
:10474000E800877F8093E8000E9489208091E8003C
:1047500083FF0AC08091E800877F8093E800809102
:10476000EB0080628093EB00AA960FB6F894DEBF50
:104770000FBECDBFDF91CF911F9108950895CF93C4
:104780008091AD028823A1F0C091E900CF70909193
:10479000EC00892F817090FD80E8C82B1092E90011
:1047A0008091E80083FD0E946C22CF70C093E900E5
:1047B000CF91089597FB072E16F4009407D077FD4C
:1047C00009D00E94FB2307FC05D03EF4909581950B
:1047D0009F4F0895709561957F4F0895EE0FFF1FCD
:1047E0000590F491E02D0994692796276927782789
:1047F000872778270895AA1BBB1B51E107C0AA1F72
:10480000BB1FA617B70710F0A61BB70B881F991F71
:104810005A95A9F780959095BC01CD010895FB01AB
:10482000DC0104C08D910190801921F44150504069
:10483000C8F7881B990B0895F999FECF92BD81BDE9
:10484000F89A992780B50895A8E1B0E042E050E0D9
:104850000C945024262FF999FECF92BD81BDF89A71
:10486000019700B4021639F01FBA20BD0FB6F894B4
:10487000FA9AF99A0FBE08950396272F0E942B24C7
:104880000E942A24252F0E942B24242F0C942B24B1
:104890000196272F0E942B240C942A24DC01CB01A3
:1048A000FC01F999FECF06C0F2BDE1BDF89A319640
:1048B00000B40D9241505040B8F70895F894FFCFDE
:1048C0004D064D067E067E0611072D07AD06AD0688
:1048D00038079F07AE07AE07CC15D91500160C1682
:1048E00017162216251625162516251625162816FE
:1048F0002C16341641164E16511654166116952272
:10490000BD22A623BD22A623F0221123A6236823BD
:0249100074230E
:10491200C8001902280850011E0A1401521C771CF3
:10492200561CE51CE11C551C01E200E900EA00B539
:1049320000B600B700CD008301CC008A0192019439
:10494200012102230224022502260227022A02B39F
:1049520000B4006F007000818283E200E900EA0087
:10496200B500B600B700CD008301CC008A019201E8
:1049720094012102230224022502260227022A028E
:10498200B300B4006F00700081828390919366F54A
:10499200F7369635349794F632F1F0F431334022FB
:0E49A200B6FB0423044504C803E1030104002E
:00000001FF
