:100000000C942C060C9473060C9473060C947306D3
:100010000C9473060C9473060C9473060C9473067C
:100020000C9473060C9473060C9404210C94D72141
:100030000C9411180C9473060C9473060C947306AC
:100040000C9473060C9473060C9473060C9473064C
:100050000C9473060C9472180C9473060C9473062B
:100060000C9473060C9473060C9473060C9473062C
:100070000C9473060C9473060C9473060C9473061C
:100080000C9473060C9473060C9473060C9473060C
:100090000C9473060C9473060C9473060C947306FC
:1000A0000C9473060C9473060C94730629001E00BE
:1000B0001F0020002100220023002400250026002C
:1000C00027002D002E002A0035004B002B001400C5
:1000D0001A000800150017001C0018000C00120080
:1000E00013002F00300031004C004E003900040096
:1000F0001600070009000A000B000D000E000F009B
:10010000330034002800000000000000E1001D0062
:100110001B00060019000500110010003600370012
:1001200038000000E100000052000000E000E300A1
:10013000E200000000002C00000000000000E200CF
:100140001150E0000000500051004F00010001007C
:100150000100010001000100010001000100010097
:100160000100010001000100010001000100010087
:100170000100010001000100010001000100010077
:100180000100010001000100010001000100010067
:100190000100010001000100010001000100010057
:1001A000010001000100000000000000010001004A
:1001B0000100010001000100010001000100010037
:1001C000010000000100000001000000010001002A
:1001D000010000000000010000000000000001001C
:1001E00010500100000001000100010001000100A9
:1001F00001000100010001000100010001000100F7
:1002000001000100010001000100010001000100E6
:1002100001000100010001000100010001000100D6
:1002200001000100010001000100010001000100C6
:1002300001000100010001000100010001000100B6
:1002400001000100010000000000000001000100A9
:100250000100010001000100010001000100010096
:100260000100000001000000010000000100010089
:10027000010000000000010000000000000001007B
:100280000100010000000100010001000100010067
:100290000100010001000100010001000100010056
:1002A0000100010001000100010001000100010046
:1002B0000100010001000100010001000100010036
:1002C0000100010001000100010001000100010026
:1002D0000100010001000100010001000100010016
:1002E0000100010001000000000000000100010009
:1002F00001000100010001000100010001000100F6
:1003000001000000010000000100000001000100E8
:1003100001000000000001000000000000000100DA
:1003200001000100000001000100010001000100C6
:1003300001000100010001000100010001000100B5
:1003400001000100010001000100010001000100A5
:100350000100010001000100010001000100010095
:100360000100010001000100010001000100010085
:100370000100010001000100010001000100010075
:100380000100010001000000000000000100010068
:100390000100010001000100010001000100010055
:1003A0000100000001000000010000000100010048
:1003B000010000000000010000000000000001003A
:1003C0000100010000000100010001000100010026
:1003D0000100010001000100010001000100010015
:1003E0000100010001000100010001000100010005
:1003F00001000100010001000100010001000100F5
:1004000001000100010001000100010001000100E4
:1004100001000100010001000100010001000100D4
:1004200001000100010000000000000001000100C7
:1004300001000100010001000100010001000100B4
:1004400001000000010000000100000001000100A7
:100450000100000000000100000000000000010099
:100460000100010000000100010001000100010085
:100470000100010001000100010001000100010074
:100480000100010001000100010001000100010064
:100490000100010001000100010001000100010054
:1004A0000100010001000100010001000100010044
:1004B0000100010001000100010001000100010034
:1004C0000100010001000000000000000100010027
:1004D0000100010001000100010001000100010014
:1004E0000100000001000000010000000100010007
:1004F00001000000000001000000000000000100F9
:1005000001000100000001000100010001000100E4
:1005100001000100010001000100010001000100D3
:1005200001000100010001000100010001000100C3
:1005300001000100010001000100010001000100B3
:1005400001000100010001000100010001000100A3
:100550000100010001000100010001000100010093
:100560000100010001000000000000000100010086
:100570000100010001000100010001000100010073
:100580000100000001000000010000000100010066
:100590000100000000000100000000000000010058
:1005A0000100010000000100010001000100010044
:1005B0000100010001000100010001000100010033
:1005C0000100010001000100010001000100010023
:1005D0000100010001000100010001000100010013
:1005E0000100010001000100010001000100010003
:1005F00001000100010001000100010001000100F3
:1006000001000100010000000000000001000100E5
:1006100001000100010001000100010001000100D2
:1006200001000000010000000100000001000100C5
:1006300001000000000001000000000000000100B7
:1006400001000100000001000100010001000100A3
:100650000100010001000100010001000100010092
:100660000100010001000100010001000100010082
:100670000100010001000100010001000100010072
:100680000100010001000100010001000100010062
:100690000100010001000100010001000100010052
:1006A0000100010001000000000000000100010045
:1006B0000100010001000100010001000100010032
:1006C0000100000001000000010000000100010025
:1006D0000100000000000100000000000000010017
:1006E0000100010000000100010001000100010003
:1006F00001000100010001000100010001000100F2
:1007000001000100010001000100010001000100E1
:1007100001000100010001000100010001000100D1
:1007200001000100010001000100010001000100C1
:1007300001000100010001000100010001000100B1
:1007400001000100010000000000000001000100A4
:100750000100010001000100010001000100010091
:100760000100000001000000010000000100010084
:100770000100000000000100000000000000010076
:100780000100010000000100010001000100010062
:100790000100010001000100010001000100010051
:1007A0000100010001000100010001000100010041
:1007B0000100010001000100010001000100010031
:1007C0000100010001000100010001000100010021
:1007D0000100010001000100010001000100010011
:1007E0000100010001000000000000000100010004
:1007F00001000100010001000100010001000100F1
:1008000001000000010000000100000001000100E3
:1008100001000000000001000000000000000100D5
:1008200001000100000001000100010001000100C1
:1008300001000100010001000100010001000100B0
:1008400001000100010001000100010001000100A0
:100850000100010001000100010001000100010090
:100860000100010001000100010001000100010080
:100870000100010001000100010001000100010070
:100880000100010001000000000000000100010063
:100890000100010001000100010001000100010050
:1008A0000100000001000000010000000100010043
:1008B0000100000000000100000000000000010035
:1008C0000100010000000100010001000100010021
:1008D0000100010001000100010001000100010010
:1008E0000100010001000100010001000100010000
:1008F00001000100010001000100010001000100F0
:1009000001000100010001000100010001000100DF
:1009100001000100010001000100010001000100CF
:1009200001000100010000000000000001000100C2
:1009300001000100010001000100010001000100AF
:1009400001000000010000000100000001000100A2
:100950000100000000000100000000000000010094
:100960000100010000000100010001000100010080
:10097000010001000100010001000100010001006F
:10098000010001000100010001000100010001005F
:10099000010001000100010001000100010001004F
:1009A000010001000100010001000100010001003F
:1009B000010001000100010001000100010001002F
:1009C0000100010001000000000000000100010022
:1009D000010001000100010001000100010001000F
:1009E0000100000001000000010000000100010002
:1009F00001000000000001000000000000000100F4
:100A000001000100000001000100010001000100DF
:100A100001000100010001000100010001000100CE
:100A200001000100010001000100010001000100BE
:100A300001000100010001000100010001000100AE
:100A4000010001000100010001000100010001009E
:100A5000010001000100010001000100010001008E
:100A60000100010001000000000000000100010081
:100A7000010001000100010001000100010001006E
:100A80000100000001000000010000000100010061
:100A90000100000000000100000000000000010053
:100AA00001000100000001000100010012036B00C1
:100AB0006500790062006F00610072006400000050
:100AC000160371006D006B006200750069006C0018
:100AD00064006500720000000403090409026D004F
:100AE000040100A0FA09040000010301010009212A
:100AF000110100012240000705810308000A0904D2
:100B000001000103010200092111010001224D0031
:100B10000705820308000A0904020001030000001F
:100B20000921110100012236000705830308000A8C
:100B30000904030001030000000921110100012242
:100B40003900070584032000011201100100000094
:100B500008EDFE606001000102000105010906A127
:100B600001050719E029E7150025019508750181A0
:100B70000205081901290595057501910295017570
:100B80000391010507190029F71500250195F8754E
:100B9000018102C005010980A1018502160100261C
:100BA00003001A81002A8300751095018100C00599
:100BB0000C0901A1018503160100269C021A0100FF
:100BC0002A9C02751095018100C005010902A1014E
:100BD0000901A1000509190129051500250195053F
:100BE0007501810295017503810105010930093103
:100BF0001581257F95027508810609381581257FA5
:100C0000950175088106050C0A38021581257F9526
:100C10000175088106C0C005010906A10105071973
:100C2000E029E715002501950875018102950175F8
:100C3000088101050819012905950575019102959D
:100C400001750391010507190029FF150026FF0012
:100C5000950675088100C00011241FBECFEFDAE0B1
:100C6000DEBFCDBF04B603FE27C080914E02909137
:100C70004F02A0915002B09151028730904BA74093
:100C8000B04BD1F410924E0210924F0210925002CB
:100C90001092510214BE84B7877F84BF0FB6F894B8
:100CA000A895809160008861809360001092600038
:100CB0000FBEE0E0F8E3099511E0A0E0B1E0E8E85C
:100CC000FAE402C005900D92AC33B107D9F722E0E7
:100CD000ACE3B1E001C01D92AE34B207E1F70E946F
:100CE0005A1E0C9416250C94000090E080E00895A4
:100CF0000895089581E00895089581E008950C9481
:100D00007A060E9465102FEF84E39CE0215080401A
:100D10009040E1F700C000000C949518EF92FF920C
:100D20000F931F93CF93DF938C01FC01E080F18040
:100D300080917601811140C082818823C1F1C70171
:100D40000E94E715C82F682FC7010E949315B701AD
:100D50008C2F0E94C607EC01B8010E947F068823F1
:100D600009F44BC0B801CE010E94D009882309F4D0
:100D700044C0C531F0E7DF0720F5C23080E7D8076F
:100D800008F04DC0C115E0E7DE0791F1C130D04752
:100D9000E1F181E080933E0180933F01C801DF9142
:100DA000CF911F910F91FF90EF900C947D06C7019A
:100DB0000E94BF15C82FCBCFC7010E94E715B7010E
:100DC000C8CFCC3380E7D80709F49BC0CD33D047D8
:100DD00001F7F8018281882309F4BAC010923F011B
:100DE0000E94411890933D0180933C0180E296C09F
:100DF000F801828181110E94810680E0DF91CF910C
:100E00001F910F91FF90EF900895F8018281882340
:100E1000A1F380910E02816080930E02EECFF80163
:100E20008281882309F4BACF0E94A217811102C0DF
:100E30000E9488170E94BF1790E090934002809311
:100E40003F02FE01E350F04780913F028160E231B2
:100E5000F10538F4E85EFA4D0C94C62480913F0207
:100E6000826080933F0280913F020E94C3170E94DC
:100E70006510C3CF80913F028460F3CF80913F0221
:100E80008860EFCF80913F028061EBCF80913F027D
:100E90008062E7CF80913F028064E3CF80913F0280
:100EA0008068DFCF80913F028C60DBCF80913F0272
:100EB0008E7FD7CF80913F028D7FD3CF80913F022D
:100EC0008B7FCFCF80913F02877FCBCF80913F0236
:100ED0008F7EC7CF80913F028F7DC3CF80913F022D
:100EE0008F7BBFCF80913F028F77BBCF80913F0236
:100EF000837FB7CF90913F02892F97FB87F9805866
:100F0000B0CFF8018281882361F010923E010E94E7
:100F1000411890933D0180933C0182E00E94CA0DEC
:100F20006CCF80913E0181110FC080913C01909166
:100F30003D010E944D18883C910530F486E20E94E4
:100F40009F0C86E20E947B0D82E00E94D10D55CF5E
:100F500080913F0181110FC080913C0190913D0132
:100F60000E944D18883C910530F487E20E949F0C46
:100F700087E20E947B0D80E2E8CF0C941F0A0C945C
:100F8000210A0C947C060C94C1070895E72FF0E029
:100F900095E0899FE00DF11D112484E0EE0FFF1F05
:100FA0008A95E1F7E60FF11DEE0FFF1FE455FF4FA5
:100FB000859194910895FC01EE0FFF1FE455F54FC4
:100FC0008591949108950E94C6070E9454099C013E
:100FD000811540E4940708F097C0211580E3380795
:100FE00008F0FAC0203E310508F074C0203C3105FD
:100FF00008F0E5C0283A310588F4253A310508F0B3
:10100000E2C02130310509F477C0C9010497813A63
:10101000910508F471C030E020E06EC0C901885A23
:1010200091094597C0F7283A310509F4FEC0293ADD
:10103000310509F4FDC02A3A310509F4FCC02B3A08
:10104000310509F4FBC02C3A310509F4FAC02B3BF9
:10105000310509F4F9C02C3B310509F4F8C02D3AEB
:10106000310509F4F7C0203B310509F4F6C02E3AEA
:10107000310509F4F5C02F3A310509F4F4C0213BDC
:10108000310509F4F3C0223B310509F4F2C0233BDA
:10109000310509F4F1C0243B310509F4F0C0253BCA
:1010A000310509F4EFC0263B310509F4EEC0273BBA
:1010B000310509F4EDC0283B310509F4ECC0293BAA
:1010C000310509F4EBC02A3B310509F4EAC020E000
:1010D00034E412C0211590E2390780F42F3F310526
:1010E00009F050F4283E310538F0C901805F9109BC
:1010F0003065409708F08FCFC9010895C9019F70EE
:101100000E94DB079C01F8CF8115944508F041C08F
:10111000211583E5380708F06AC0211592E53907E3
:1011200038F5211541E5340708F05CC0211580E54C
:10113000380708F454C0C90134E0969587953A956C
:10114000E1F78370422F46954695437090E2499FA0
:10115000A0011124582B822F837021E030E002C0BF
:10116000220F331F8A95E2F7242B352B3C68C4CF1E
:10117000C9018370992741E050E002C0440F551F18
:101180008A95E2F72695269580E2289F9001112402
:10119000EBCF211596E5390748F4922F88272115C2
:1011A0003545C8F59C01246F306AA6CFC901905619
:1011B0003F708115904108F02ECF30629DCFC9015C
:1011C000805C91099DCF253A310549F1263A3105D8
:1011D00049F522E830E490CF3327306C8DCF3F7053
:1011E000306A8ACF322F2227216F306A85CFC9011A
:1011F0008370992741E050E002C0440F551F8A9543
:10120000E2F72695269580E2289F90011124242B51
:10121000352B3A6871CF88279F719C01CECF21E88A
:1012200030E46ACF23E830E467CF22EE34E464CFC1
:1012300029EE34E461CF2AEE34E45ECF25EB34E4CA
:101240005BCF26EB34E458CF23EB34E455CF24EBCB
:1012500034E452CF27EB34E44FCF2CEC34E44CCFC2
:101260002DEC34E449CF23E835E446CF2AE835E4D1
:1012700043CF22E935E440CF24E935E43DCF21E2F4
:1012800036E43ACF23E236E437CF24E236E434CFF3
:1012900025E236E431CF26E236E42ECF27E236E4EB
:1012A0002BCF2AE236E428CF803E910581F1C8F4A5
:1012B0008133910509F462C048F48932910509F43B
:1012C00056C08A32910509F460C0089589339105AA
:1012D000B9F082389105A1F08533910509F440C039
:1012E0000895863E910561F138F4823E9105B1F092
:1012F000833E9105E1F00895873E910551F10895EF
:1013000020913F022370D9F080EE90E00895209163
:101310003F0220FF14C089E390E0089520913F022E
:1013200022FF0DC024FD09C083EE90E008952091B6
:101330003F0222FD31C024FF02C090E080E008950A
:1013400020913F0223FFFBCF24FDF7CF87EE90E0F3
:10135000089520913F0223FFEECF86EE90E008959E
:1013600020913F0225FFEBCF89E290E00895209184
:101370003F0225FFE4CF85E390E0089520913F02EE
:1013800026FFDDCF8AE290E0089520913F0226FFFC
:10139000D6CF81E390E0089582EE90E0089508951D
:1013A0000F931F93CF938C01FB018281811106C0A3
:1013B000C1E08C2FCF911F910F910895C0914D01E5
:1013C000C11125C00531104799F70E94CF0981E06E
:1013D00080934D010E94411890934C0180934B01E2
:1013E000109240011092420110924101109244016A
:1013F000109243011092460110924501109248014B
:101400001092470110924A0110924901D2CF809167
:101410004B0190914C010E944D18883C910540F67B
:1014200080914001E82FF0E0EE0FFF1FEF5BFE4FD1
:10143000118300838F5F80934001C0E0BACF0C948A
:1014400078060C947906CF93DF9385B7806885BFC3
:1014500085B7806885BFA3E2B1E048E251E0C1E012
:10146000D0E08D91E82FE295EF70F0E061A18F70F0
:101470009E0101C0220F8A95EAF7922F909596233C
:1014800091A382A1822B82A34A175B0751F7A3E1A4
:10149000B1E061E070E08D91E82FE295EF70F0E04F
:1014A00041A18F709B0101C0220F8A95EAF7922F0C
:1014B0009095942391A382A1822B82A381E0A332F1
:1014C000B80749F7109259011092580110924F0134
:1014D00010924E0110925B0110925A01109251012C
:1014E0001092500110925D0110925C011092530114
:1014F0001092520110925F0110925E0110925501FC
:1015000010925401109261011092600110925701E3
:1015100010925601DF91CF910C94BD074F925F92CC
:101520007F928F929F92AF92BF92CF92DF92EF9273
:10153000FF920F931F93CF93DF939EE4492E91E088
:10154000592E23E2E22E21E0F22E01E010E0992450
:101550009394E201A990B9902E01DE011E921E9291
:10156000F70181917F01E82FE295EF70F0E091A102
:101570008F70980101C0220F8A95EAF7892F822B7C
:1015800081A382A1822E8094882182A380EA8A95F9
:10159000F1F783E1C82E81E0D82E90E080E0E601EB
:1015A00079916E01472F42954F7050E0EA0178A083
:1015B0004D915C9111977F70E80102C0CC0FDD1F47
:1015C0007A95E2F7BE01672109F072C0B801082ED2
:1015D00002C0660F771F0A94E2F7462B572B11962D
:1015E0005C934E93019680319105C9F681A18822C2
:1015F00081A282A1282B22A38D919C91A816B906C5
:1016000041F0909262010E9441189093640180938E
:101610006301D8E54D16D1E05D0609F09ACF8091BF
:101620006201882391F180916301909164010E948D
:101630004D18069750F180914E0190914F01909373
:1016400059018093580180915001909151019093DC
:101650005B0180935A0180915201909153019093C4
:101660005D0180935C0180915401909155019093AC
:101670005F0180935E018091560190915701909394
:10168000610180936001109262010E94BF0781E0B6
:10169000DF91CF911F910F91FF90EF90DF90CF904E
:1016A000BF90AF909F908F907F905F904F900895E4
:1016B00070E060E092CFE82FF0E0EE0FFF1FE85AF5
:1016C000FE4F808191810895089590936A018093DF
:1016D00069010895E0916901F0916A01309721F064
:1016E0000190F081E02D099480E00895E091690176
:1016F000F0916A01309721F00280F381E02D099486
:101700000895E0916901F0916A01309721F0048019
:10171000F581E02D099408952091670130916801C9
:101720002817390771F09093680180936701E09161
:101730006901F0916A01309721F00680F781E02D70
:1017400009940895209165013091660128173907A1
:1017500071F09093660180936501E0916901F091C9
:101760006A01309721F00084F185E02D09940895F5
:1017700008950C94B80B0E9438180E94230A0C9408
:1017800002195F926F927F928F929F92AF92BF9257
:10179000CF92DF92EF92FF920F931F93CF93DF933D
:1017A00000D000D00F92CDB7DEB70E948E0A9CE623
:1017B000A92E91E0B92E10E000E088248394912CAA
:1017C000502E802F0E945B0B7C01F501C190D190BF
:1017D0005F01C816D90609F45DC080910E0281FD33
:1017E0000E94640B90E080E0CE24DF243401082EB8
:1017F00002C0660C771C0A94E2F796012621372175
:10180000232B09F442C089835A82E620F72081E025
:10181000EF2809F480E08B830E9441188160782FC3
:101820009D838C8349815A816B818D810E94760CC6
:10183000000F111FF801E459FE4F80819181682645
:101840007926718260820E94AF1B0E946A0B909180
:101850006B018917B1F10E946A0B80936B010F90A5
:101860000F900F900F900F90DF91CF911F910F91DC
:10187000FF90EF90DF90CF90BF90AF909F908F90B0
:101880007F906F905F900C94C30701968031910513
:1018900009F0ACCF0F5F1F4F0530110509F090CF55
:1018A0008FEF89838A831B820E9441188160782F81
:1018B0009D838C8349815A816B818D810E94760C36
:1018C000C2CF0F900F900F900F900F90DF91CF919C
:1018D0001F910F91FF90EF90DF90CF90BF90AF904E
:1018E0009F908F907F906F905F900895CF93DF933C
:1018F000CDB7DEB72B970FB6F894DEBF0FBECDBFC6
:101900004F83588769877A878B871E8285E0FE011F
:101910003796DE01119601900D928A95E1F7498183
:101920005A816B817C818D819E812B960FB6F894B4
:10193000DEBF0FBECDBFDF91CF910C94ED12882397
:1019400009F4D8C0823871F40E946A0B81FDD2C0BC
:1019500089E30E948F160E94591789E30E94CC16D2
:101960000C945917833859F40E946A0B80FDC2C049
:1019700083E50E948F160E94591783E5EFCF8438C4
:1019800059F40E946A0B82FDB5C087E40E948F164D
:101990000E94591787E4E2CF9CEF980F913A18F410
:1019A0000E948F16DDCF90E2980F983050F4877028
:1019B00091E001C0990F8A95EAF7892F0E941017CC
:1019C000CFCF9BE5980F933070F4853A31F0863A8B
:1019D00039F083E890E00C948C0B81E890E0FBCF29
:1019E00082E890E0F8CF98E5980F953108F082C032
:1019F000883A09F440C0893A09F440C08A3A09F4A7
:101A000040C08B3A09F440C08C3A09F440C08B3B8B
:101A100009F440C08C3B09F440C08D3A09F440C041
:101A2000803B09F440C08E3A09F440C08F3A09F473
:101A300040C0813B09F440C0823B09F440C0833B75
:101A400009F440C0843B09F440C0853B09F440C020
:101A5000863B09F440C0873B09F440C0883B09F449
:101A600040C0893B09F440C08A3B09F440C090E083
:101A700080E00C94A20B82EE90E0FBCF89EE90E028
:101A8000F8CF8AEE90E0F5CF85EB90E0F2CF86EBD1
:101A900090E0EFCF83EB90E0ECCF84EB90E0E9CFE8
:101AA00087EB90E0E6CF8CEC90E0E3CF8DEC90E01C
:101AB000E0CF83E891E0DDCF8AE891E0DACF82E9F8
:101AC00091E0D7CF84E991E0D4CF81E292E0D1CF09
:101AD00083E292E0CECF84E292E0CBCF85E292E047
:101AE000C8CF86E292E0C5CF87E292E0C2CF8AE219
:101AF00092E0BFCF0895882309F44BC0823871F477
:101B00000E946A0B81FF45C089E30E948F160E94E4
:101B1000591789E30E94CC160C945917833859F44D
:101B20000E946A0B80FF35C083E50E948F160E94D9
:101B3000591783E5EFCF843859F40E946A0B82FF6E
:101B400028C087E40E948F160E94591787E4E2CFCD
:101B50009CEF980F913AF0F290E2980F983050F481
:101B6000877091E001C0990F8A95EAF7892F0E944A
:101B70001617D2CF9BE5980F933020F490E080E0C9
:101B80000C948C0B885A853120F490E080E00C9402
:101B9000A20B0895882321F00E9410170C94591766
:101BA0000895882321F00E9416170C945917089560
:101BB0008F929F92AF92BF92DF92EF92FF920F931C
:101BC0001F93CF93DF9300D000D00F92CDB7DEB735
:101BD0007C016D837983FC01058102950F70128170
:101BE00011110E942F170E948816D82E882371F099
:101BF0001123A1F08D81805E883080F082E00E9408
:101C000072160E94881691E0D82ED926E981E295B5
:101C1000EF70F0E0E65DFA4D0C94C624D12CF6CFBF
:101C200009810F70F981F07F11F00295007F112377
:101C3000B1F0002361F08D81805E883018F02D8135
:101C4000211109C0802F0E9410170E9459178D8101
:101C50000E949F0C15C0802F0E942117F6CF8D8106
:101C60000E947B0D002361F08D81805E883018F02A
:101C70003D81311129C0802F0E9416170E945917EB
:101C8000DD2009F4D3C10E94651680FDCFC1F701A4
:101C900012820E945F160E94AB14C7010E94271097
:101CA0000E945F160F900F900F900F900F90DF9192
:101CB000CF911F910F91FF90EF90DF90BF90AF9069
:101CC0009F908F900C94CD14802F0E942717D6CF11
:101CD00049814F70B42E5981507F503219F0B2941F
:101CE00080EFB8228D81882369F0813029F111239A
:101CF00069F1002359F0F701858180FFA8CF8F702B
:101D0000858304C0112361F0011104C08B2D0E9452
:101D1000CA0DB6CF8B2D0130D1F70E944317B0CF3B
:101D2000011106C00E9446178B2D0E94D10DA8CF2D
:101D3000013009F4A5CFF6CF112321F0063008F0C9
:101D40009FCFE4CF053008F09BCFEECF002361F3A7
:101D50008D810E947B0D94CF8981869586958370B5
:101D600069F0813009F08CCF8D81998193701111C8
:101D700002C090E080E00E94A20B82CF8D81998109
:101D80009370111102C090E080E00E948C0B78CF1C
:101D90008D81112329F00E94BD1A0E94A41B70CFCF
:101DA0000E94251BFACF8981837009F05FC0111151
:101DB00067CF2D81229526952770220F220F8D81C6
:101DC0008F7090E0B0E0A0E04C015D01022E04C0F5
:101DD000880C991CAA1CBB1C0A94D2F7FD8160E0F8
:101DE00070E0CB01F4FF0FC06FE070E080E090E0A6
:101DF00004C0660F771F881F991F2A95D2F7609538
:101E000070958095909529812695269523702D8330
:101E10002230B1F0233019F19B01AC012829392976
:101E20004A295B2929833A834B835C833D816981FD
:101E30007A818B819C813130B1F00E94381420CF9F
:101E40009B01AC01282939294A295B2929833A8336
:101E50004B835C83CA01B9010E94621411CF0E94B6
:101E60003814C501B4010E940E140ACF86951123BF
:101E700011F089818170882309F402CF2D81229588
:101E800026952770220F220F8D818F7090E0B0E091
:101E9000A0E04C015D01022E04C0880C991CAA1C14
:101EA000BB1C0A94D2F73D8160E070E0CB0134FFA7
:101EB0000FC06FE070E080E090E004C0660F771F15
:101EC000881F991F2A95D2F76095709580959095F7
:101ED00049814695469543704D834230B1F0433079
:101EE00019F19B01AC01282939294A295B29298349
:101EF0003A834B835C833D8169817A818B819C81AC
:101F00003130B1F00E943E15BBCE9B01AC012829B7
:101F100039294A295B2929833A834B835C83CA0187
:101F2000B9010E946815ACCE0E943E15C501B401EE
:101F30000E941415A5CE3D81323F09F447C080F4BC
:101F4000303F79F1313FD9F1832F805E8031D0F07D
:101F5000112309F456C001117ACE89818F7133C0E3
:101F60004D81433FD1F1443F99F7112309F43FC01C
:101F700089818F7189830E94AB1463E089810E94FB
:101F800069167ECE5D815F705D8389818F711123BB
:101F900021F00E94AB148D81BACE0E94CD148D81A8
:101FA000C4CE112341F0053008F06ACE89818F71CB
:101FB0000E94F21465CE063008F062CEF7CF898118
:101FC0008F71112339F00E94AB145ACE89818F7121
:101FD0001123C9F30E94CD1453CE112329F0898116
:101FE0008F710E9496144CCE0E948C1449CE81E0D1
:101FF0000E947216023008F443CE82E00E947216EC
:102000003FCE0111A5CE89818F71E4CF49814F70F8
:102010006D81C7010E9475060E94871331CE4981E8
:102020004F706D81C7010E94C5072ACE0F900F9097
:102030000F900F900F90DF91CF911F910F91FF9014
:10204000EF90DF90BF90AF909F908F9008950F9387
:102050001F93CF93DF93EC018B819C81892B29F017
:102060008881998189238F3F29F4DF91CF911F9136
:102070000F910895CE010E948E068823B1F36881E6
:1020800079818A810E9435168C010E9492150E94E6
:102090000314B801CE01DF91CF911F910F910C94E1
:1020A000D80D0E942F170E9440170E9402170E940D
:1020B00059170E94951C0E94A41B90E080E00E948A
:1020C0008C0B90E080E00C94A20B0E941E170C94E5
:1020D00051100E942916282F892F82958F70903CCD
:1020E00080F48A30B0F4843020F4823090F480E0C0
:1020F00008958630E1F781E0203E88F0213FB9F76E
:102100000EC08C3011F08F3091F793FB882780F947
:10211000089581E0203F39F018F4203E40F70895FB
:10212000243F29F7FCCF0895CF93DF9300D000D050
:102130000F92CDB7DEB70F900F900F900F900F90CA
:10214000DF91CF910895CF93DF9300D000D000D0DE
:10215000CDB7DEB726960FB6F894DEBF0FBECDBF63
:10216000DF91CF9108951F93CF93DF93E091770193
:1021700016E0809178018E1304C0DF91CF911F91FA
:102180000895CE2FD0E01E9FF0011124E758FE4F96
:102190004081518162817381848195810E94A31065
:1021A000FE013196E770E5CF4091A9015091AA0157
:1021B0006091AB017091AC018091AD019091AE0145
:1021C0000C94A3101F93CF93DF938091AE01807F77
:1021D000C1F48091AB018823A1F080917701C09177
:1021E00078016091A9017091AA014091AC015091D0
:1021F000AD01D62FD723DA01A095B09516E0C8130C
:1022000004C0DF91CF911F91089590E041155105D1
:1022100011F0DF3F31F401968770F1CF2A0F3B1F99
:1022200017C0189FF001199FF00D1124E758FE4FB9
:1022300021812713F0CF20812613EDCF2281211198
:10224000EACF238134812417350740F3241B350B53
:10225000283C310500F72091AE012F7020612093BA
:10226000AE0126E0289FF001299FF00D1124E258CD
:10227000FE4F80818F708061808389EA91E00E94A7
:102280002710DF91CF911F910C94B3109F92AF92C2
:10229000BF92CF92DF92EF92FF920F931F93CF9353
:1022A000DF93CDB7DEB72B970FB6F894DEBF0FBE26
:1022B000CDBF8C0185E0F801DE01179601900D92EB
:1022C0008A95E1F7D8014C9111965C91119712967D
:1022D000EC9012978091AC019091AD01009709F4B8
:1022E0006BC12091A9013091AA01632F62236F3F36
:1022F00009F462C11396CD90DC909090AB019920C7
:1023000009F4F8C0C816D90608F43FC0F601E81B66
:10231000F90BCF01FF24F394883C910508F0F12CD0
:1023200089EAA82E81E0B82E8091AE01982F907F87
:10233000FF2009F4B7C0911180C0FE2C35132AC0CC
:10234000241328C0E11026C08F7080618093AE01F5
:102350000E94D410C5010E9427108091AE01D801BF
:1023600015968C938F2D2B960FB6F894DEBF0FBE6B
:10237000CDBFDF91CF911F910F91FF90EF90DF9034
:10238000CF90BF90AF909F900895809590958C0DC1
:102390009D1DC0CFCD2829F0842F85238F3F09F0C4
:1023A00019C180E0B82FB170DB2EE0917701209148
:1023B000780136E080FD1CC0EE20A1F28091AE01D4
:1023C00081608093AE01F12CCDCF8E2F90E03E9FA7
:1023D000F0011124E758FE4F6181651306C060814A
:1023E000641303C062816E11E7CFFC013196E77080
:1023F000E213EBCF4F8358878F8198850E9429166F
:10240000292F22952F70903260F0225F2F7022309A
:1024100078F49F7051F0F8019581907F31F4D12CC0
:102420000AC09F7011F08823D1F3805E8830B8F322
:10243000C8010E942710FD2C95CF351306C0241328
:1024400004C0D801EE2009F47BC04F8358878F81E8
:1024500098850E946910882309F4B8C0EE2009F419
:10246000B5C08091AE01803270F02091A901309109
:10247000AA013A8329831B82DD82CC828E83CE011E
:1024800001960E94271086E0F801A9EAB1E00190C8
:102490000D928A95E1F70E94E2100E94D410FF2469
:1024A000F39460CF911113C07C2DDB86CA866E2D0C
:1024B0008B850E94941089EA91E00E94271086E0A3
:1024C000F50111928A95E9F70E94D4104BCF35138C
:1024D000BCCF2413BACFE110B8CFD80115968C9396
:1024E000C8010E94271086E0F50111928A95E9F74C
:1024F000F92C38CFC816D90688F1B601681B790BBC
:10250000CB01F12C883C910508F047C0FE2CEE2051
:1025100009F45CC0351330C024132EC08091AE0185
:1025200080FD21C0982F907FF1F0D80115968C93F3
:102530001597903F39F0982F907F905F8F70892B7F
:1025400015968C93C8010E94271086E0F801A9EA2D
:10255000B1E001900D928A95E1F7B6CF8095909504
:102560008C0D9D1DCECF86E0F801A9EAB1E0019067
:102570000D928A95E1F7F6CE4F8358878F81988523
:102580000E94691081117FCF8091AE01816080939C
:10259000AE01C8010E942710E5CE7C2DDB86CA86DD
:1025A0006E2D8B850E94941086E0E9EAF1E0DF0150
:1025B0001D928A95E9F788CFEE2041F04F83588726
:1025C0008F8198850E94691081115DCFC8010E949A
:1025D000271065CF81E08E25E5CE1F93CF93DF9343
:1025E000CDB7DEB72C970FB6F894DEBF0FBECDBFC8
:1025F0004F83588769877A878B879C87CE01079698
:102600000E944611882369F08A859B85892B39F0C1
:102610004F815885842F85238F3F09F071C016E0C4
:102620005FC086E0FE013796DE01119601900D92A3
:102630008A95E1F78A859B85892B89F388859F8117
:1026400089238F3F61F32091780130E0C901019621
:1026500087709927409177014817190671F40E94F5
:102660006510109278011092770186E0E9EAF1E0B6
:10267000DF011D928A95E9F7D2CF96E0929FD001B3
:10268000939FB00D1124A758BE4FFE0131960190C3
:102690000D929A95E1F7809378010E94B310BFCF15
:1026A000819FC001112487589E4F0E9446118823A4
:1026B000E9F0E09177011E9FF0011124E758FE4FE9
:1026C0004081518162817381848195810E94A31030
:1026D0008091770190E00196877099278093770128
:1026E00080917701909178018913DACF2C960FB6FB
:1026F000F894DEBF0FBECDBFDF91CF911F9108953B
:1027000069857A858B859C850E94A31088CFEF927E
:10271000FF920F931F93CF93DF938C01892B89F046
:10272000F12CEE24E394E8012196F801849184379A
:1027300009F457C0A0F4823009F43EC048F4813057
:10274000D1F0DF91CF911F910F91FF90EF900895FD
:102750009CEF980F9037A8F70E949F0C0AC085370E
:1027600009F44CC09CE7980F903758F78F770E9478
:102770007B0D8E0116C00E5F1F4FFE01849190E20B
:10278000980F983060F48770FE2D01C0FF0F8A9576
:10279000EAF78F2F0E9432170E94591702C00E9439
:1027A0009F0C8F2D815008F4BECFEFE9FFE03197E9
:1027B000F1F700C00000F6CF0E5F1F4FFE018491BD
:1027C00090E2980F983050F48770FE2D01C0FF0FF3
:1027D0008A95EAF78F2F0E943817DECF0E947B0D73
:1027E000E0CF0E5F1F4FFE01C491C150D0F28FE9C0
:1027F0009FE00197F1F700C00000F7CF0E5F1F4F79
:10280000FE01F490CECF08956093E5017093E60148
:102810008093E7019093E8010C945110CF93DF93DC
:1028200000D000D0CDB7DEB769837A838B839C83D9
:102830008091E5019091E601A091E701B091E80156
:1028400029813A814B815C81822B932BA42BB52B60
:102850008093E5019093E601A093E701B093E8012E
:102860000F900F900F900F90DF91CF910C9451101B
:10287000CF93DF9300D000D0CDB7DEB769837A83E2
:102880008B839C838091E5019091E601A091E70103
:10289000B091E80129813A814B815C8182239323A5
:1028A000A423B5238093E5019093E601A093E7016B
:1028B000B093E8010F900F900F900F90DF91CF91A0
:1028C0000C945110CF93DF9300D000D0CDB7DEB77A
:1028D00069837A838B839C838091E5019091E601E3
:1028E000A091E701B091E80129813A814B815C8197
:1028F00082279327A427B5278093E5019093E601CB
:10290000A093E701B093E8010F900F900F900F9004
:10291000DF91CF910C9451101092E1011092E201DD
:102920001092E3011092E4010C94511041E050E048
:1029300060E070E004C0440F551F661F771F8A9542
:10294000D2F74093E1015093E2016093E301709369
:10295000E4010C945110282F81E090E0A0E0B0E059
:1029600004C0880F991FAA1FBB1F2A95D2F7409158
:10297000E1015091E2016091E3017091E401842B47
:10298000952BA62BB72B8093E1019093E201A093A6
:10299000E301B093E4010C94511041E050E060E099
:1029A00070E004C0440F551F661F771F8A95D2F749
:1029B00040955095609570958091E1019091E2016C
:1029C000A091E301B091E40184239523A623B723CA
:1029D0008093E1019093E201A093E301B093E401BD
:1029E0000C945110282F81E090E0A0E0B0E004C0EA
:1029F000880F991FAA1FBB1F2A95D2F74091E101AA
:102A00005091E2016091E3017091E40184279527E0
:102A1000A627B7278093E1019093E201A093E301F9
:102A2000B093E4010C945110CF93DF9300D000D009
:102A3000CDB7DEB769837A838B839C838091E10174
:102A40009091E201A091E301B091E40129813A81E2
:102A50004B815C81822B932BA42BB52B8093E101BE
:102A60009093E201A093E301B093E4010F900F90E3
:102A70000F900F90DF91CF910C945110CF93DF9373
:102A800000D000D0CDB7DEB769837A838B839C8377
:102A90008091E1019091E201A091E301B091E40104
:102AA00029813A814B815C8182239323A423B5231E
:102AB0008093E1019093E201A093E301B093E401DC
:102AC0000F900F900F900F90DF91CF910C945110B9
:102AD000CF93DF9300D000D0CDB7DEB769837A8380
:102AE0008B839C838091E1019091E201A091E301AD
:102AF000B091E40129813A814B815C81822793273F
:102B0000A427B5278093E1019093E201A093E3010C
:102B1000B093E4010F900F900F900F90DF91CF9141
:102B20000C94511008959295907FE92FE80F8770CB
:102B300041E001C0440F8A95EAF7E695E695E695EF
:102B400085E0E89FF0011124E155FE4F30E020E0E0
:102B500070E05191DF011197CB01022E02C09695D2
:102B600087950A94E2F781708195852784238527CC
:102B70008C932F5F3F4F2530310559F70895E92F8A
:102B8000E295E07FE80F982F9770E695E695E69539
:102B900085E0E89FF0011124E155FE4F50E040E050
:102BA00080E0219130E0092E02C0369527950A94E5
:102BB000E2F721703327042E01C0220F0A94EAF7AE
:102BC000822B4F5F5F4F4530510559F70895BF92F3
:102BD000CF92DF92EF92FF920F931F93CF93DF93E9
:102BE0008C01C090E101D090E201E090E301F0900F
:102BF000E4018091E5019091E601A091E701B09197
:102C0000E801C82AD92AEA2AFB2ACFE1D0E0BC2E63
:102C1000D701C6010C2E04C0B695A7959795879548
:102C20000A94D2F780FD0EC0219788F7B12C8B2D26
:102C3000DF91CF911F910F91FF90EF90DF90CF9098
:102C4000BF900895B8018C2F0E94E307019761F3AC
:102C5000EECFCF93DF93D82FC92F0E94E7156D2FAA
:102C60007C2FDF91CF910C94E3071F93CF93DF93D9
:102C7000162FD72F90917601992339F0862F972F11
:102C8000DF91CF911F910C942916882391F0862F04
:102C9000972F0E94E715C82F682F812F9D2F0E9424
:102CA0009315612F7D2F8C2FDF91CF911F910C9465
:102CB000E307862F972F0E94BF15C82FF2CF809170
:102CC000E90185958595859508958091E90187703D
:102CD000089598E0899F90011124622B6093E90187
:102CE0000C94AB149091E901809589238093E901BC
:102CF000282F277061F4282F082E000C330B921711
:102D0000130629F08595859585950C94CD14089525
:102D10009091E901977081E009F480E00895909125
:102D200012019923E1F090913F0297FF18C0E82F1C
:102D3000E695E695E695EF3139F120910001309165
:102D40000101E20FF32FF11D877021E030E001C097
:102D5000220F8A95EAF78181822B81830895209141
:102D6000000130910101F90132969FEF40E051914D
:102D7000851751F09F3F19F4511101C0942F4F5FF7
:102D80004E31A9F79F3F09F40895290F311D97FD92
:102D90003A95F9018283089590911201992301F1E6
:102DA00090913F0297FF1CC0E82FE695E695E695C7
:102DB000EF3139F12091000130910101E20FF32F41
:102DC000F11D877021E030E0A90102C0440F551FBA
:102DD0008A95E2F7CA0180959181892381830895BC
:102DE0002091000130910101F9013296205E3F4FA0
:102DF0009191891303C0DF0111971C92E217F30729
:102E0000B9F7089581E090E0E0910001F0910101AF
:102E1000E80FF91F1082019680329105A9F70895F5
:102E200090910D02982B90930D020895982F9095F4
:102E300080910D02892380930D02089510920D0256
:102E4000089590910C02982B90930C020895982F5E
:102E5000909580910C02892380930C020895109222
:102E60000C02089590910B02982B90930B020895F9
:102E7000982F909580910B02892380930B020895DF
:102E800010920B0208958093EA0108951092EA01CE
:102E900008952091000130910101F9013196205EE1
:102EA0003F4F80E0919191118F5FE217F307D1F7C7
:102EB0000895E0910001F091010180910D0280835D
:102EC000E0910001F0910101808190910C02892B29
:102ED0008083E0910001F0910101808190910B02CB
:102EE000892B80839091EA01992361F0E0910001A0
:102EF000F09101018081892B80830E944917811103
:102F00001092EA0180910001909101010C94760BDE
:102F10006DEE7EEF90E080E00E94002560E082E0B0
:102F200090E00E94EE2460E083E090E00E94EE24B6
:102F300060E084E090E00E94EE2460E085E090E0B4
:102F40000C94EE2490E080E00E94E8249C0181E053
:102F50002D3E3E4F09F080E0089582E090E00C9411
:102F6000E024682F82E090E00C94EE2483E090E06F
:102F70000C94E024682F83E090E00C94EE2484E02D
:102F800090E00C94E024682F84E090E00C94EE2410
:102F900080914502843039F110920F0288E190E06F
:102FA00020E40FB6F894A895809360000FBE20939C
:102FB000600080E00E94C30783B7817F846083BF85
:102FC00083B7816083BF7894889583B78E7F83BFF2
:102FD0000FB6F894A8958091600088618093600096
:102FE000109260000FBE089508950895CF930E9437
:102FF000F4170E948E0A0E94F517C0E08C2F0E94E1
:103000005B0B892B31F4CF5FC530C1F780E0CF91E6
:10301000089581E0FCCF0E9465100E946A0B0C9419
:10302000C3071F921FB61F9211248F939F93AF93D4
:10303000BF9380910F02811113C080913B02909148
:103040003C02A0913D02B0913E024196A11DB11DEE
:1030500080933B0290933C02A0933D02B0933E02CA
:10306000BF91AF919F918F911F901FBE1F90189598
:1030700082E084BD93E095BD9AEF97BD80936E008A
:1030800008952FB7F89480913B0290913C02A09153
:103090003D02B0913E022FBF0895CF92DF92EF9292
:1030A000FF929C014FB7F89480913B0290913C02B3
:1030B000A0913D02B0913E024FBF6C017D01EE2414
:1030C000FF24A90170E060E0C416D506E606F70605
:1030D00038F0821B930BFF90EF90DF90CF90089514
:1030E0000197F7CF1F921FB61F9211248F939F93C2
:1030F000AF93BF9380913B0290913C02A0913D021F
:10310000B0913E020196A11DB11D80933B029093A8
:103110003C02A0933D02B0933E02BF91AF919F91BC
:103120008F911F901FBE1F9018950E948920F894C0
:103130002FEF87EA91E6215080409040E1F700C0F0
:10314000000087E090EBDC0180934E0290934F02E9
:10315000A0935002B093510288E19CE00FB6F8941E
:10316000A895809360000FBE90936000FFCFAF9250
:10317000BF92CF92DF92EF92FF920F931F93CF9364
:10318000C0E0AA24A394B12CE82EF12C8C2F0E942D
:103190005B0B6C0110E000E0C501002E02C0880F3F
:1031A000991F0A94E2F78C219D21892B99F0602FB9
:1031B0007C2F80E00E94C607E816F90659F481E0EA
:1031C000CF911F910F91FF90EF90DF90CF90BF9024
:1031D000AF9008950F5F1F4F00311105E9F6CF5FE3
:1031E000C530A1F680E0ECCFCF93C82F8CE20E94CF
:1031F000B718882321F08C2FCF910C94B71880E05A
:10320000CF910895CF93DF9300D000D0CDB7DEB734
:103210000E94A217811102C00E94881795E6998327
:1032200008C00E948E0A8FE39CE90197F1F700C065
:103230000000A981A150A983A111F3CF89E20E94C6
:10324000F418811110C18AE20E94F41881110E94C1
:10325000881785E00E94F41881110E9495180E9439
:10326000AD1780930E0287E00E94F418882371F056
:103270008BE10E94F418882309F4D1C090910E02CA
:10328000892F8D7F91FF826080930E0280910E02C4
:103290000E94B1170E94BF1790E090934002809364
:1032A0003F0280EE0E94F418882341F090913F0283
:1032B000892F8E7F90FF816080933F0289E30E9477
:1032C000F418882341F090913F02892F8D7F91FF60
:1032D000826080933F0282EE0E94F418882341F0BE
:1032E00090913F02892F8B7F92FF846080933F02F1
:1032F00086EE0E94F418882341F090913F02892FB6
:10330000877F93FF886080933F0283EE0E94F418CA
:10331000882341F090913F02892F8F7E94FF806136
:1033200080933F0285E30E94F418882341F0909136
:103330003F02892F8F7D95FF806280933F0281E35A
:103340000E94F418882341F090913F02892F8F7BCF
:1033500096FF806480933F0281E10E94F4188823E5
:1033600041F090913F02892F97FB87F98058809315
:103370003F0280913F020E94C31787E20E94F41827
:1033800089838EE10E94F418882319F0B981B26014
:10339000B9838FE10E94F418882319F029812460F1
:1033A000298380E20E94F418882319F0398138605B
:1033B000398381E20E94F418882319F04981406121
:1033C000498382E20E94F418882319F059815062DF
:1033D000598383E20E94F418882319F0898180645C
:1033E000898384E20E94F4188823B1F1998190685E
:1033F000998389810E94BA173981232F30E050E0E8
:1034000040E029833A834B835C83CA01B9010F9062
:103410000F900F900F90DF91CF910C9404148EE0D9
:103420000E94F418882339F090910E02892F8B7F27
:1034300092FF846029CF80E10E94F41890910E02DF
:10344000882329F0892F877F93FF88601DCF892FDC
:103450008E7F90FF816018CFA981A111CACF0E94F1
:10346000B617282FCBCF0F900F900F900F90DF91B2
:10347000CF9108958091120280FF12C060910501E2
:1034800085E0689FB00111247595679575956795DE
:1034900060387105A8F561157105A1F1862F0895B1
:1034A00081FF09C06091050185E0689FB00111248A
:1034B00075956795EDCF6091050182FD0AC08091F9
:1034C00013028823D1F090910401609105018917BE
:1034D00028F085E0689FB0011124DACF869FB00103
:1034E000112485E0869F9001879F300D1124692F5C
:1034F00070E0C9010E94B224CBCF65E070E0CECF6E
:103500008FE7089581E008958091120280FF0CC03A
:103510006091030170E075956795759567956115E4
:10352000710549F1862F089581FF06C0609103015E
:1035300070E075956795F3CF6091030182FD0BC034
:10354000909113029923A1F06091020180910301EF
:10355000961738F0682F70E06038710500F38FE738
:103560000895899FC001112470E00E94B224F4CF15
:1035700061E070E0D7CF81E00895803F31F40E9490
:103580003A1A8195809316020895813F19F40E949A
:103590003A1AF8CF823F31F40E943A1A819580930B
:1035A00015020895833F19F40E943A1AF8CF893F13
:1035B00029F40E94841A8093170208958A3F21F407
:1035C0000E94841A8195F7CF8B3F31F40E94841AB0
:1035D00081958093180208958C3F19F40E94841AF3
:1035E000F8CF843F31F480911402816080931402FB
:1035F0000895853F21F4809114028260F7CF863FC1
:1036000021F4809114028460F1CF873F21F48091EE
:1036100014028860EBCF883F21F48091140280610E
:10362000E5CF8D3F31F480911202816080931202C8
:1036300008958E3F21F4809112028260F7CF8F3F70
:10364000B9F7809112028460F1CF90911502803F0A
:1036500041F48091160287FD10921602992371F0B1
:103660000895813F29F4809116021816ACF3F6CF25
:10367000823F81F497FFF2CF1092150280911602DB
:1036800090911702892B90911802892B49F710927B
:1036900013020895833F19F4191674F3DFCF893F9D
:1036A00039F4809117021816CCF610921702D6CF73
:1036B0008A3F29F48091170287FFD0CFF6CF8B3F46
:1036C00039F48091180287FFC9CF10921802C6CF33
:1036D0008C3F29F4809118021816BCF3BFCF843FA9
:1036E00031F4809114028E7F80931402B7CF853F0E
:1036F00021F4809114028D7FF7CF863F21F48091D1
:1037000014028B7FF1CF873F21F480911402877FD1
:10371000EBCF883F21F4809114028F7EE5CF8D3F5F
:1037200031F4809112028E7F8093120297CF8E3FE8
:1037300021F4809112028D7FF7CF8F3F09F08ECF59
:10374000809112028B7FF0CF84E192E00E94810B86
:103750000E944118909311028093100208951F93C4
:10376000CF93DF9300D000D000D0CDB7DEB78091EB
:103770001002909111020E944D18AC018091130229
:103780002091060130E0811106C0209107019AE0E6
:10379000299F900111244217530788F020911502A8
:1037A000A0911602A98310911702B0911802BE834E
:1037B00021110FC09A2F912B9B2B09F0B2C0269696
:1037C0000FB6F894DEBF0FBECDBFDF91CF911F9132
:1037D00008958F3F19F08F5F80931302121624F41F
:1037E0000E943A1A809315028091150287FF05C046
:1037F0000E943A1A8195809315022981121624F4A9
:103800000E943A1A809316028091160287FF05C023
:103810000E943A1A8195809316028091150288239E
:1038200009F455C0309116023D83332309F44FC08B
:10383000282F880F330B440B550B29833A834B8376
:103840005C83CA01B9010E94B92323E333E343E354
:103850005FE369837A838B839C8369817A818B811F
:103860009C810E941D2469837A838B839C83698158
:103870007A818B819C810E948123609315028D81C6
:10388000082E000C990BAA0BBB0B89839A83AB8380
:10389000BC83BC01CD010E94B92323E333E343E39E
:1038A0005FE369837A838B839C8369817A818B81CF
:1038B0009C810E941D2469837A838B839C83698108
:1038C0007A818B819C810E9481236093160211165C
:1038D00024F40E94841A809317028091170287FFB4
:1038E00005C00E94841A8195809317029E81191643
:1038F00024F40E94841A809318028091180287FF92
:1039000005C00E94841A81958093180226960FB6EE
:10391000F894DEBF0FBECDBFDF91CF911F910C9405
:10392000A41B8F3F09F057CF68CF85E0E4E1F2E0B8
:10393000DF011D928A95E9F710921302109212028C
:103940000895809139020895CF93DF9300D00F92AC
:10395000CDB7DEB720914502243019F523E0298345
:103960008A839B832093E9008FEF9091E800815038
:1039700095FD06C095ED9A95F1F700008111F5CF00
:103980008091E80085FF0DC050E040E063E070E00A
:10399000CE0101960E94011F8091E8008E778093EE
:1039A000E8000F900F900F90DF91CF910895CF9383
:1039B000DF9300D00F92CDB7DEB79C018091450216
:1039C000843031F582E08983205831093B832A8392
:1039D00083E08093E9008FEF9091E800815095FD9E
:1039E00006C095ED9A95F1F700008111F5CF809111
:1039F000E80085FF0DC050E040E063E070E0CE01DC
:103A000001960E94011F8091E8008E778093E80064
:103A10000F900F900F90DF91CF9108952091450264
:103A20002430F1F422E02093E9002FEF3091E800F8
:103A3000215035FD06C035ED3A95F1F70000211112
:103A4000F5CF2091E80025FF0BC050E040E065E095
:103A500070E00E94011F8091E8008E778093E8005B
:103A60000895CF93DF93D82FC92F809145028430DA
:103A7000F1F4909112019923E9F090913F0297FFA0
:103A800019C08093E9008FEF9091E800815095FD77
:103A900006C095E19A95F1F700008111F5CF80916C
:103AA000E80050E040E060E270E085FD1AC0DF9180
:103AB000CF91089581E08093E9008FEF9091E80025
:103AC000815095FD06C095ED9A95F1F700008111A2
:103AD000F5CF8091E80085FFEACF50E040E068E054
:103AE00070E08D2F9C2F0E94011F8091E8008E773F
:103AF0008093E80080E2ED2FFC2FA9E1B2E0019075
:103B00000D928A95E1F7D3CF80914402811109C0CB
:103B10000E9489200E94E6208091E20084608093C8
:103B2000E2000895109244020895089508950C94B7
:103B30000B1842E061EC81E00E94052042E061EC5C
:103B400082E00E94052042E061EC83E00E940520B3
:103B500042E261EC84E00C940520809147028930B8
:103B600089F148F4823009F494C0833009F44FC0DD
:103B7000813041F008958A3009F47BC08B3009F41C
:103B800061C0089580914602813A09F03FC080915A
:103B9000E800877F8093E80080914A0290914B0271
:103BA000892B61F460E289E192E070E00E94501F8D
:103BB0008091E8008B778093E800089560E090E0C2
:103BC00080E0F3CF80914602813201F580914A0274
:103BD00090914B02009711F00397C1F48091E80097
:103BE000877F8093E8008091E80082FF0BC080917E
:103BF000F100809339028091E8008B778093E80090
:103C00000C943920809145028111EDCF0895809167
:103C10004602813AD9F780914A0290914B02892B52
:103C2000A9F78091E800877F8093E8008091E80001
:103C300080FFFCCF809112018093F1008091E80019
:103C40008E77DCCF80914602813201F780914A0263
:103C500090914B02892BD1F68091E800877F809369
:103C6000E8000E94392080914802809312010C9450
:103C7000651080914602813249F68091E800877F85
:103C80008093E8000E9439208091490280933A0293
:103C9000089580914602813A09F0B8CF8091E800FA
:103CA000877F8093E8008091E80080FFFCCF8091BF
:103CB0003A02C2CF84B7877F84BF0FB6F894A89525
:103CC00080916000886180936000109260000FBE58
:103CD00080E880936100109261000E94B90B0E94FD
:103CE00089200E94E6208091E20084608093E200B7
:103CF00078940E9466230E94BB0B88E091E00E94AA
:103D0000650B80914502853019F00E94C10BF9CFF7
:103D10000E94C81780914302882399F30E94F617E6
:103D2000882379F30E94EB1EECCF9C01DA01892FE6
:103D3000992783309105C1F068F48130910509F429
:103D400045C0029761F48DE690E02CED3AE02D93AA
:103D50003C93089581329105E1F0829739F190E02A
:103D600080E030E020E0F3CFC9019927213059F0FD
:103D70008230910559F0E8EDFAE0892B81F78491C2
:103D800090E09F01E4CFE0ECFAE0F9CFECEAFAE052
:103D9000F6CF643020F7E62FF0E0EE0FFF1FEC5C6B
:103DA000FE4F2081318189E090E0D1CF6430B8F6B8
:103DB00070E0FB01EE0FFF1FE45DFE4F20813181BB
:103DC000685D7E4FFB01808190E0C1CF82E190E091
:103DD00029E43BE0BCCF80E189BD82E189BD09B423
:103DE00000FEFDCF8091D8008F7D8093D800809118
:103DF000E00082608093E0008091E00081FDFCCFD4
:103E00000895AF92BF92CF92DF92FF920F931F93CC
:103E1000CF93DF936C01EB018A010E945820F82EAA
:103E2000811123C00115110539F0F80180819181BC
:103E3000C81BD90BC80ED91EB12CA12C2097A9F0F4
:103E40008091E80085FD22C08091E8008E77809304
:103E5000E80001151105A1F0F80180819181A80EFB
:103E6000B91EB182A08285E0F82E8F2DDF91CF910F
:103E70001F910F91FF90DF90CF90BF90AF9008956A
:103E80000E9458208823D1F2F82EEFCFF6018191BD
:103E90006F018093F1002197FFEFAF1ABF0ACECFD9
:103EA000FC01CB0120914C0230914D0226173707BF
:103EB00090F0009729F42091E8002E772093E800F5
:103EC00040E0009751F4411108C08091E80082FF62
:103ED00031C080E00895C901F3CF2091450222232B
:103EE000A9F12530A9F12091E80023FD2DC02091F2
:103EF000E80022FDEACF2091E80020FFE2CF3091D8
:103F0000F3002091F200009719F02830310558F0A5
:103F100041E02830310509F040E02091E8002E779B
:103F20002093E800CECF41914093F10001972F5F9D
:103F30003F4FE9CF80914502882341F0853041F021
:103F40008091E80083FFC1CF81E0089582E0089569
:103F500083E00895FC01CB0120914C0230914D0289
:103F60002617370790F0009729F42091E8002E7764
:103F70002093E80040E0009751F4411108C080917F
:103F8000E80082FF32C080E00895C901F3CF20919C
:103F900045022223B1F12530B1F12091E80023FD43
:103FA0002EC02091E80022FDEACF2091E80020FFFA
:103FB000E2CF3091F3002091F200009719F0283001
:103FC000310558F041E02830310509F040E02091FA
:103FD000E8002E772093E800CECF44914093F10083
:103FE000319601972F5F3F4FE8CF8091450288239C
:103FF00041F0853041F08091E80083FFC0CF81E03F
:10400000089582E0089583E00895982F973028F06E
:104010008F708093E90081E008959093E900242F48
:10402000762F50E0981731F07091EC002091ED0060
:104030005091F00021FD02C09F5FE8CF3091EB006E
:104040003E7F3093EB003091ED003D7F3093ED00EB
:104050003091EB0031603093EB007093EC002093D3
:10406000ED005093F0002091EE0027FDE5CF80E0B9
:1040700008958091460287FF13C08091E80082FF77
:1040800006C08091E8008B778093E80004C080919F
:1040900045028111F2CF0895809145028823D9F31A
:1040A0008091E80080FFF8CF8091E8008E77ECCF18
:1040B0002091E4003091E50095E6A9012091EC0003
:1040C000822F817020FF06C08091E80080FF06C02B
:1040D00080E008952091E80022FD1AC080914502F9
:1040E000882389F0853089F08091EB0085FD0FC031
:1040F0002091E4003091E50042175307F9F2915006
:10410000E1F684E0089582E0089583E0089581E077
:1041100008950E94F7200E94FF20E0EEF0E08081E9
:1041200081608083E8EDF0E080818F77808319BC27
:10413000A7EDB0E08C918E7F8C9380818F7E808301
:104140001092440208950F931F93CF93DF930E9420
:10415000F7200E94FF20C8EDD0E088818F77888308
:1041600088818068888388818F7D888319BC1092BC
:10417000450210924102109243021092420200EE58
:1041800010E0F80180818B7F808388818160888343
:1041900042E060E080E00E940520E1EEF0E08081F6
:1041A0008E7F8083E2EEF0E0808181608083808179
:1041B00088608083F80180818E7F80838881806120
:1041C0008883DF91CF911F910F910895E8EDF0E082
:1041D00080818F7E8083E7EDF0E080818160808345
:1041E00084E082BF81E0809344020C94A320E8ED38
:1041F000F0E080818E7F80831092E200089510921B
:10420000DA001092E10008951F920F920FB60F92FC
:1042100011242F933F934F935F936F937F938F93CB
:104220009F93AF93BF93EF93FF938091E10082FF41
:104230000BC08091E20082FF07C08091E1008B7F7C
:104240008093E1000E9465238091DA0080FF19C00D
:104250008091D80080FF15C08091DA008E7F809316
:10426000DA008091D90080FF94C080E189BD82E1AD
:1042700089BD09B400FEFDCF81E0809345020E9414
:10428000841D8091E10080FF19C08091E20080FFD1
:1042900015C08091E2008E7F8093E2008091E20061
:1042A00080618093E2008091D80080628093D80082
:1042B00019BC85E0809345020E94961D8091E10023
:1042C00084FF29C08091E20084FF25C080E189BD80
:1042D00082E189BD09B400FEFDCF8091D8008F7DB9
:1042E0008093D8008091E1008F7E8093E1008091DF
:1042F000E2008F7E8093E2008091E20081608093F3
:10430000E20080914102882309F449C084E080934F
:1043100045020E94971D8091E10083FF29C0809192
:10432000E20083FF25C08091E100877F8093E10058
:1043300082E080934502109241028091E1008E7FDD
:104340008093E1008091E2008E7F8093E200809173
:10435000E20080618093E20042E060E080E00E9441
:1043600005208091F00088608093F0000E94951DE8
:10437000FF91EF91BF91AF919F918F917F916F913D
:104380005F914F913F912F910F900FBE0F901F9013
:10439000189519BC109245020E94921D72CF80910F
:1043A000E30087FD02C081E0B2CF83E0B0CF1F926F
:1043B0000F920FB60F9211242F933F934F935F9359
:1043C0006F937F938F939F93AF93BF93CF93DF931D
:1043D000EF93FF93D091E900DF708091EC00C82F3C
:1043E000C17080FDC0E81092E9008091F000877FE5
:1043F0008093F00078940E941B221092E900809133
:10440000F00088608093F000CD2BCF70C093E9005E
:10441000FF91EF91DF91CF91BF91AF919F918F91DC
:104420007F916F915F914F913F912F910F900FBEB0
:104430000F901F9018951F93CF93DF93CDB7DEB7E2
:10444000AA970FB6F894DEBF0FBECDBF86E492E008
:10445000FC0101962091F100208322E08E34920726
:10446000B9F70E94AD1D8091E80083FF16C18091CD
:104470004602909147029A3008F00FC1E92FF0E010
:10448000E65CFA4D0C94C624803881F0823809F03D
:1044900004C180914A028F708093E9008091EB0003
:1044A00085FB882780F91092E90006C080914202BE
:1044B00090914302911182609091E800977F9093D0
:1044C000E8008093F1001092F1008091E8008E776F
:1044D000E0C0882309F4CEC0823009F0DEC08091AC
:1044E00048028111D1C080914A028F7009F4D5C071
:1044F0008093E9002091EB0020FFC6C0933031F497
:104500008091EB0080628093EB00BEC09091EB0045
:1045100090619093EB0021E030E001C0220F8A957A
:10452000EAF72093EA001092EA008091EB0088609D
:10453000EACF8111B2C0109148021F778091E30049
:104540008078812B8093E3008091E800877F8093BF
:10455000E8000E9439208091E80080FFFCCF809124
:10456000E30080688093E30082E0111183E0809390
:10457000450293C08058823008F08FC08091480275
:10458000909149028C3D23E09207A1F583E08A8354
:104590008AE289834FB7F894DE01139620E03EE06B
:1045A00051E2E32FF0E050935700E49120FF03C065
:1045B000E295EF703F5FEF708E2F90E0EA30C0F031
:1045C000C7968D939D932F5F243159F74FBF8091EC
:1045D000E800877F8093E8006AE270E0CE010196F0
:1045E0000E94501F8091E8008B778093E80055C0AF
:1045F000C096E7CFAE014F5F5F4F60914A020E94C5
:10460000951EBC01892B09F448C08091E800877F82
:104610008093E80089819A810E94AA1FE3CF8038A5
:10462000E1F58091E800877F8093E8008091410266
:104630008093F1004ACF811130C0909148029230AE
:1046400060F58091E800877F8093E80090934102B5
:104650000E94392080914102882311F084E005C036
:104660008091E30087FDFACF81E0809345020E94AC
:10467000991D13C080914802813079F481E0933014
:1046800009F080E0809343021092E9008091E800F5
:10469000877F8093E8000E9439208091E80083FFA3
:1046A0000AC08091E800877F8093E8008091EB004A
:1046B00080628093EB00AA960FB6F894DEBF0FBE1F
:1046C000CDBFDF91CF911F9108950895CF93809131
:1046D00045028823A1F0C091E900CF709091EC00D1
:1046E000892F817090FD80E8C82B1092E90080919D
:1046F000E80083FD0E941B22CF70C093E900CF9198
:1047000008950E9488236894B1110C941724089589
:104710000E94FC2388F09F5798F0B92F9927B75132
:10472000B0F0E1F0660F771F881F991F1AF0BA9555
:10473000C9F714C0B13091F00E941624B1E0089579
:104740000C941624672F782F8827B85F39F0B93F6B
:10475000CCF3869577956795B395D9F73EF4909508
:104760008095709561957F4F8F4F9F4F0895E89486
:1047700009C097FB3EF490958095709561957F4FA9
:104780008F4F9F4F9923A9F0F92F96E9BB27939557
:10479000F695879577956795B795F111F8CFFAF467
:1047A000BB0F11F460FF1BC06F5F7F4F8F4F9F4F98
:1047B00016C0882311F096E911C0772321F09EE8F6
:1047C000872F762F05C0662371F096E8862F70E05C
:1047D00060E02AF09A95660F771F881FDAF7880F36
:1047E0009695879597F9089557FD9058440F551F52
:1047F00059F05F3F71F04795880F97FB991F61F063
:104800009F3F79F087950895121613061406551FD9
:10481000F2CF4695F1DF08C0161617061806991F45
:10482000F1CF86957105610508940895E894BB273A
:1048300066277727CB0197F908950E9430240C94BE
:10484000A1240E94932438F00E949A2420F09523FA
:1048500011F00C948A240C94902411240C941724A5
:104860000E94F42370F3959FC1F3950F50E0551FFC
:10487000629FF001729FBB27F00DB11D639FAA27B5
:10488000F00DB11DAA1F649F6627B00DA11D661F04
:10489000829F2227B00DA11D621F739FB00DA11D25
:1048A000621F839FA00D611D221F749F3327A00DDF
:1048B000611D231F849F600D211D822F762F6A2F7B
:1048C00011249F5750409AF0F1F088234AF0EE0FE0
:1048D000FF1FBB1F661F771F881F91505040A9F70D
:1048E0009E3F510580F00C948A240C9417245F3F5E
:1048F000E4F3983ED4F3869577956795B795F79549
:10490000E7959F5FC1F7FE2B880F911D96958795C0
:1049100097F9089597F99F6780E870E060E008953F
:104920009FEF80EC089500240A94161617061806C7
:104930000906089500240A941216130614060506A3
:104940000895092E0394000C11F4882352F0BB0F34
:1049500040F4BF2B11F460FF04C06F5F7F4F8F4F97
:104960009F4F089597FB072E16F4009407D077FD0C
:1049700009D00E94CC2407FC05D03EF49095819587
:104980009F4F0895709561957F4F0895EE0FFF1F1B
:104990000590F491E02D0994AA1BBB1B51E107C0BF
:1049A000AA1FBB1FA617B70710F0A61BB70B881FBF
:1049B000991F5A95A9F780959095BC01CD0108954E
:1049C000F999FECF92BD81BDF89A992780B50895D7
:1049D000A8E1B0E042E050E00C940825262FF999B8
:1049E000FECF92BD81BDF89A019700B4021639F04E
:1049F0001FBA20BD0FB6F894FA9AF99A0FBE08951F
:104A00000196272F0E94EF240C94EE24DC01CB01A9
:104A1000FC01F999FECF06C0F2BDE1BDF89A3196CE
:104A200000B40D9241505040B8F70895F894FFCF6C
:104A30002E073A073E07420746074A074E07520726
:104A400056075A075E07620766076A076E0772070E
:104A500076077A07100E100E680E680EAC0EC80EA0
:104A6000400E400ED30E400E9B0F9B0F0610400EC3
:104A7000400E0F10442269224D2369224D239922B2
:084A8000BA224D230F231B2372
:104A8800EB012808140A321EA11C311D0E1DD71C6B
:104A9800A41C01363534979694959392919067F6B5
:104AA800F5F431F1F0373233404D3639170CCA0B73
:0C4AB800940B5B0BEE0A070B200B390B74
:00000001FF
