:100000000C94EA030C9422040C9422040C94220411
:100010000C9422040C9422040C9422040C942204C8
:100020000C9422040C9422040C94CC2B0C94A02C41
:100030000C94FC250C9422040C9422040C942204AD
:100040000C9422040C9422040C9422040C94220498
:100050000C9422040C9482260C9422040C94220406
:100060000C9422040C9422040C9422040C94220478
:100070000C9422040C9422040C9422040C94220468
:100080000C9422040C9422040C9422040C94220458
:100090000C9422040C9422040C9422040C94220448
:1000A0000C9422040C9422040C94220429003500A0
:1000B0001E001F0020002100220023002400250034
:1000C000260027002D002E002A0049004A003E008D
:1000D0002B0014001A000800150017001C0018005F
:1000E0000C00120013002F00300031004C004D00B6
:1000F0004000390004001600070009000A000B0048
:100100000D000E000F003300340028000000000036
:1001100000004400E1001D001B000600190005005E
:10012000110010003600370038000000E500000024
:10013000520000004500E000E300E2000000000083
:100140002C00000000000000E600E7000151000064
:10015000500051004F00010035003A003B003C00C8
:100160003D003E003F00400041004200430044008B
:1001700045004C0049000100010039000100520017
:100180000100010001000100010046004700480095
:1001900052000100010001000100010001005000B7
:1001A00051004F0001000100010001004A004B0016
:1001B00050004F000100000000000000010001009D
:1001C00001000100010001000100010001004D00DB
:1001D0004E0051000000010000004B000000010033
:1001E000010001000100000000000100000000000B
:1001F000000001000100005100004A004E004D00C7
:1002000001000100010001000100010001000100E6
:1002100001000100010001000100010001000100D6
:1002200001000100010001000100010001000100C6
:1002300001000100010001000100010001000100B6
:1002400001000100010001000100010001000100A6
:100250000100010001000100010001000100010096
:100260000000000000000100010001000100010089
:100270000100010001000100010001000100000077
:100280000100000001000000010001000100010068
:10029000000000000100000000000000010001005B
:1002A0000100000001000100010001000100010047
:1002B0000100010001000100010001000100010036
:1002C0000100010001000100010001000100010026
:1002D0000100010001000100010001000100010016
:1002E0000100010001000100010001000100010006
:1002F00001000100010001000100010001000100F6
:1003000001000100010001000100000000000000E8
:1003100001000100010001000100010001000100D5
:1003200001000100010001000000010000000100C7
:1003300000000100010001000100000000000100B8
:1003400000000000000001000100010000000100A9
:100350000100010000000000000000002A2B28001E
:100360000000000000000000000000000000002964
:10037000000000002C1E3420212224342627252EA4
:10038000362D3738271E1F202122232425263333DC
:10039000362E37381F0405060708090A0B0C0D0E08
:1003A0000F101112131415161718191A1B1C1D2FD4
:1003B0003130232D350405060708090A0B0C0D0EF4
:1003C0000F101112131415161718191A1B1C1D2FB4
:1003D0003130354C0000000000000000000000003B
:1003E000000000000000000000000000000000000D
:1003F00000000000000000007E0F00D4FFFFFFC7D8
:10040000000000781E0F0500047F3F1F6432146453
:100410003214783C1E1E140A052223252628292A78
:100420002C2D2F3032333536383A3B3D3E40424357
:100430004547494A4C4E5051535557595A5C5E6096
:1004400062646668696B6D6F71737577797B7D7FA8
:1004500081838587898A8C8E90929496989A9C9EA7
:100460009FA1A3A5A7A8AAACAEAFB1B3B4B6B8B9C3
:10047000BBBCBEBFC1C2C3C5C6C7C9CACBCCCDCE2B
:10048000D0D1D2D2D3D4D5D6D7D7D8D9D9DADADB0E
:10049000DBDBDCDCDCDCDCDDDDDDDDDCDCDCDCDC9A
:1004A000DBDBDBDADAD9D9D8D7D7D6D5D4D3D2D2D9
:1004B000D1D0CECDCCCBCAC9C7C6C5C3C2C1BFBEC1
:1004C000BCBBB9B8B6B4B3B1AFAEACAAA8A7A5A32C
:1004D000A19F9E9C9A98969492908E8C8A898785EB
:1004E00083817F7D7B79777573716F6D6B696866CA
:1004F0006462605E5C5A5957555351504E4C4A499C
:1005000047454342403E3D3B3A3836353332302F43
:100510002D2C2A292826252322FFAA7F55400001B9
:1005200001010101010101010202020202020202B3
:100530000203030303030303030404040404040485
:100540000505050505060606060607070707070849
:10055000080808090909090A0A0A0B0B0B0C0C0CFC
:100560000D0D0D0E0E0E0F0F0F1010111111121296
:1005700013131414151516161717181819191A1A13
:100580001B1B1C1D1D1E1E1F202021222223242474
:10059000252626272829292A2B2C2D2D2E2F3031B0
:1005A0003232333435363738393A3B3C3D3E3F40C2
:1005B0004142434445464748494A4C4D4E4F5051AD
:1005C0005354555658595A5B5D5E5F616264656667
:1005D00068696B6C6D6F7072737577787A7B7D7EEE
:1005E0008082838587888A8C8E8F91939596989A3E
:1005F0009C9EA0A2A3A5A7A9ABADAFB1B3B5B7BA56
:10060000BCBEC0C2C4C6C9CBCDCFD1D4D6D8DBDD29
:10061000DFE2E4E7E9EBEEF0F3F5F8FAFDFF1203B1
:100620006C00690073006800750061006E0067006F
:100630000000160371006D006B0062007500690018
:100640006C006400650072000000040309040902E4
:100650005B00030100A0FA0904000001030101008E
:100660000921110100012240000705810308000152
:100670000904010002030000000921110100012208
:100680002200070582032000010705030320000163
:1006900009040200010300000009211101000122E8
:1006A000B6000705840320000112010002000000CB
:1006B00008FF0FB00E0100010200010660FF096192
:1006C000A1010962150026FF009520750881020925
:1006D00063150026FF00952075089102C0050109E9
:1006E00002A10185020901A10005091901290815C6
:1006F00000250195087501810205010930093115B0
:1007000081257F95027508810609381581257F9519
:100710000175088106050C0A38021581257F9501AF
:1007200075088106C0C005010980A1018503190172
:100730002AB700150126B700950175108100C00584
:100740000C0901A101850419012AA002150126A0A6
:1007500002950175108100C005010906A1018506F9
:10076000050719E029E715002501950875018102A3
:100770000507190029EF1500250195F07501810283
:100780000508190129059505750191029501750363
:100790009101C005010906A101050719E029E71526
:1007A00000250195087501810295017508810105F3
:1007B00007190029FF150026FF009506750881001E
:1007C0000508190129059505750191029501750323
:1007D0009101C00011241FBECFEFDAE0DEBFCDBF14
:1007E00004B603FE18C08091C1049091C204A09188
:1007F000C304B091C4048730904BA740B04B59F468
:100800001092C1041092C2041092C3041092C40446
:10081000E0E0F8E3099511E0A0E0B1E0E8EFFFE5E2
:1008200002C005900D92A23EB107D9F724E0A2EED6
:10083000B1E001C01D92A13CB207E1F70E942E1465
:100840000C94D12F0C94000081E0089581E008956C
:100850000C94260408950C942A041F93CF93DF93DD
:1008600000D000D00F92CDB7DEB749835A836B8397
:100870003091E50189819A8131111DC06623B9F05B
:100880002223A9F00E94B90A182F682F89819A8122
:100890000E94650A69817A81812F0F900F900F90D5
:1008A0000F900F90DF91CF911F910C94E9220E943D
:1008B000910A182FEFCF0E94B90A69817A81EDCF92
:1008C000FC01262F408151816281738184810C94C7
:1008D0002D0481E00895CF93DF93EC0160E00E9446
:1008E0006004BE01DF91CF910C942B04E1E0F0E0B5
:1008F000DF0102C0AA0FBB1F6A95E2F7BD01DF014D
:1009000002C0AA0FBB1F4A95E2F76A2B01C0EE0F87
:100910002A95EAF7962F9823961302C08E2B0895F6
:10092000E0958E230895242F462F682F809107028B
:100930000E9476040C94220A0C94B1120C94B41206
:1009400008950E94BE090E94A0042FEF84E39CE05A
:10095000215080409040E1F700C000000C94A62692
:100960000F931F93CF93DF938C0161E00E9460048B
:10097000EC01B8010E94921F882309F441C0B8011C
:10098000CE010E9428048823D9F1B801CE010E942B
:100990004A248823A9F1B801CE010E94E4208823CB
:1009A00079F1B801CE010E94B423882349F1B8013E
:1009B000CE010E943A1E882319F1F8018281882312
:1009C00061F0CA35FDE5DF0721F170F4C115ECE5F2
:1009D000DE07A1F0CE3DDC45C9F0C801DF91CF9123
:1009E0001F910F910C942404CB358DE5D807A1F00D
:1009F000CC35DD4591F70E94D90EEFCF0E94A104BE
:100A000080E0DF91CF911F910F9108950E94920F86
:100A1000F7CF0E94E20EE1CF0E94E50EDECF0E94EA
:100A2000DE250E94FC050C94A71C0E94FF050E9475
:100A3000731D0C94E225DF92EF92FF920F931F93A8
:100A4000CF93DF93E82FF0E0EC5AFC4FD490282F9F
:100A500026952695269530E0F901EC50FC4F04913F
:100A6000877010E0082E02C0159507950A94E2F7EA
:100A700001701127F901EC51FC4FE490F12C082E84
:100A800002C0F594E7940A94E2F791E0E922FF248A
:100A9000F901EC52FC4FC491D0E002C0D595C79546
:100AA0008A95E2F7C170DD270115110519F081EE75
:100AB0000E945106E114F10419F086EE0E945106DD
:100AC0008D2D0E945007EF2819F086EE0E94E30654
:100AD000012B19F081EE0E94E306CD2B51F08CE240
:100AE000DF91CF911F910F91FF90EF90DF900C94C9
:100AF0005007DF91CF911F910F91FF90EF90DF9002
:100B00000895EF92FF920F931F93CF93DF93EC0121
:100B1000162F0AE08881882309F454C0813009F037
:100B20004EC08981813099F47E0122E0E20EF11CF1
:100B30008A810E945007E7012196812F815050F34E
:100B4000EFE9FFE03197F1F700C00000F7CF823006
:100B500041F47E0182E0E80EF11C8A810E94510678
:100B6000EACF833041F47E01E2E0EE0EF11C8A818F
:100B70000E94E306E0CF843011F02196DDCF2A8178
:100B8000229690E080E0AE014F5F5F4F2053330B21
:100B90002A30310548F0019778F2EFE9FFE031970C
:100BA000F1F700C00000F7CF089FB001099F700D5A
:100BB0001124C901860F971F2981EA01E4CF0E9401
:100BC0001B05BACFDF91CF911F910F91FF90EF904E
:100BD000089560E00C94810508950C94EC0581E083
:100BE00008950C94EF050895CF93C82F0E94ED054A
:100BF0008C2FCF910C94F10580E00C94F4050E94A9
:100C0000A6240C94F4050E94A6249091E401981760
:100C100021F08093E4010C94F4050895CF93DF93C1
:100C2000CDB7DEB72B970FB6F894DEBF0FBECDBFA2
:100C30004F83588769877A878B8761110E94270EB7
:100C40001E821D8285E0FE013796DE01119601901D
:100C50000D928A95E1F78C819D81892B89F44981D8
:100C60005A816B817C818D819E810E94480D2B96DB
:100C70000FB6F894DEBF0FBECDBFDF91CF910895C0
:100C800089819A8189238F3F51F3CE0101960E9479
:100C900069048111E4CFEBCFFC01808191810C9438
:100CA000E60ACF93C82F882309F48BC08238C1F499
:100CB0000E94A62481FD85C089E30E94E20D0E9466
:100CC000470E2FEF81EE94E0215080409040E1F7F5
:100CD00000C0000089E30E94E90DCF910C94470EFB
:100CE0008338A1F40E94A62480FD6BC083E50E9496
:100CF000E20D0E94470E2FEF81EE94E021508040DC
:100D00009040E1F700C0000083E5E5CF8438A1F40E
:100D10000E94A62482FD55C087E40E94E20D0E9435
:100D2000470E2FEF81EE94E0215080409040E1F794
:100D300000C0000087E4CFCF8CEF8C0F813A90F495
:100D40006C2F80910601909107010E941A2588233B
:100D500029F08C2F0E94E90D0E94470E8C2F0E94D3
:100D6000E20DBBCF80E28C0F883048F4C77081E081
:100D700001C0880FCA95EAF70E940A0EAECFEBE5D4
:100D8000EC0FE33040F4F0E0E25AFE4F808190E057
:100D9000CF910C94DA24E8E5EC0FE73150F4F0E061
:100DA000EE0FFF1FE05DFE4F80819181CF910C948B
:100DB000F024C03F30F08C2F0E94B214CF910C94DD
:100DC0008515CF910895882309F452C0823871F4B3
:100DD0000E94A62481FF4CC089E30E94E20D0E947C
:100DE000470E89E30E94E90D0C94470E833859F4AD
:100DF0000E94A62480FF3CC083E50E94E20D0E9471
:100E0000470E83E5EFCF843859F40E94A62482FF71
:100E10002FC087E40E94E20D0E94470E87E4E2CFD4
:100E20009CEF980F913AF0F290E2980F983050F4BE
:100E3000877091E001C0990F8A95EAF7892F0E9487
:100E4000100ED2CF9BE5980F933020F490E080E015
:100E50000C94DA2498E5980F973120F490E080E024
:100E60000C94F024803F20F00E940C150C94851502
:100E700008951F93CF93DF93182FEB010E94510623
:100E8000209731F4812FDF91CF911F910C94E306CD
:100E90008FE99FE00197F1F700C000002197F0CFA4
:100EA00070E060E0893311F460E570E00C9439077C
:100EB000882321F00E940A0E0C94470E089588237F
:100EC00021F00E94100E0C94470E0895BF92CF920D
:100ED000DF92EF92FF920F931F93CF93DF936C01FA
:100EE000D62FC72FFC011281F580F2949FE0F922E2
:100EF0000E94000EE82E8823B9F0E12E1123A1F004
:100F00008C2F807F803421F080E28D0F8830D0F0EC
:100F10008091EC0382FD16C082E00E94A80E0E9420
:100F2000000E91E0E82EE926BC2EB2948FE0B822A4
:100F3000FBE0FB1508F468C0EB2DF0E0ED52F04D3E
:100F40000C94B62EE12CF0CF0C2F0F70C07F11F057
:100F50000295007F112399F0002359F080E28D0F54
:100F6000883010F0D11107C0802F0E940A0E0E9415
:100F7000470E8D2F41C0802F0E941A0EF8CF8D2F63
:100F80000E94E306002309F43FC080E28D0F883001
:100F900010F0D11104C0802F0E94100E03C0802FCA
:100FA0000E94200E0E94470E2FC00C2F0F70C07F92
:100FB000C03211F00295007FDD2381F0D13009F4B9
:100FC00069C0112309F473C0FF2009F469C0F60158
:100FD000858180FFCECF8F70858362C08091EC03C6
:100FE00082FF38C0112359F0002329F0802F0E947E
:100FF0000A0E0E94470E80E00E94510605C080E064
:101000000E94E3060111C7CFEB2DE850FF0B349788
:1010100020F40E94A6240E94F405EE2009F44DC19C
:101020000E94FC0D80FD49C1F60112820E94F60D5E
:101030000E94330AC6010E947E090E94F60DDF91CC
:10104000CF911F910F91FF90EF90DF90CF90BF90C5
:101050000C943E0A112389F0F11006C00E942A0E5A
:10106000802B0E945807D0CF21E0F212F7CF0E94C8
:101070002A0E802B0E94300EC7CFF11006C00E94AE
:101080003D0E802F0E945F07BFCF31E0F31609F4B9
:10109000BBCFF5CF112331F085E08F1508F4B4CF25
:1010A000802FDFCF94E09F1508F4AECFEACFFF206A
:1010B00041F3D93349F4FFEF27EE33E0F1502040FC
:1010C0003040E1F700C000008D2F0E94E3069CCF66
:1010D0008C2F86958695837069F0813009F094CFC6
:1010E0008D2F9C2F9370111102C090E080E00E9420
:1010F000F0248ACF8D2F9C2F9370111102C090E0A5
:1011000080E00E94DA2480CF8D2F112329F00E94E5
:10111000B2140E94851578CF0E940C15FACF8C2F3F
:10112000837079F5111170CF4D2F42954695477018
:10113000440F440F8D2F8F70042E01C0880F0A9426
:10114000EAF72D2F2071D4FF07C02FE030E001C057
:10115000220F4A95EAF72095C695C695C370822B53
:10116000C23049F058F4C13019F00E94140A4CCF33
:101170000E940F0A49CF0E94190A46CF0E940D0A09
:1011800043CF8695112311F08C2F8170882309F4A9
:101190003BCF4D2F429546954770440F440F8D2FFE
:1011A0008F70042E01C0880F0A94EAF72D2F20714A
:1011B000D4FF07C02FE030E001C0220F4A95EAF7C4
:1011C0002095C695C695C370822BC23049F058F45D
:1011D000C13019F00E945A0A17CF0E94550A14CF45
:1011E0000E945F0A11CF0E94220A0ECFCF701123F6
:1011F00029F08C2F0E94330A8D2F33CF8D2F0E9420
:101200005F078C2F0E943E0AFFCED23F51F160F45F
:10121000D03FB9F0D13F81F0112309F449C0F1105A
:10122000A8CE8C2F8F7121C0D33F11F1D43FA1F7ED
:101230008091EC0382FF26C08C2F8F71112311F354
:1012400014C0112349F084E08F1508F4DDCE8C2FF3
:101250008F710E944A0AD8CE95E09F1508F4D4CE2B
:10126000F6CF8C2F8F711111CDCF0E94330ACCCEC7
:10127000112329F08C2F8F710E942B0AC5CE0E945A
:10128000280AC2CE112349F0CF718C2F0E94330A55
:1012900063E08C2F0E948D0EB7CE81E00E94A80ED5
:1012A000E1E0EF1508F0B0CE82E00E94A80EACCECF
:1012B000F110FFCE8C2F8F71A5CFDF91CF911F91B1
:1012C0000F91FF90EF90DF90CF90BF9008950F9314
:1012D0001F93CF93DF93EC01688179818A810E940B
:1012E000F00A8C010E94640A0E940C0AB801CE0127
:1012F000DF91CF911F910F910C946607CF93DF93ED
:10130000EC018B819C81892B29F08881998189232B
:101310008F3F59F4DF91CF910895CE010E94670964
:10132000CE01DF91CF910C946B04CE010E94B004EA
:101330008111F3CF0E94000E882361F38A818823F4
:1013400049F38091EC0382FDE5CF82E0DF91CF91FC
:101350000C94A80E90E080E00E94DA2490E080E0F7
:101360000E94F0240E94270E0E94470E0E94AC1695
:101370000C9485150E94F00D0C94AA090E94170E7A
:101380000C94BA0992959F70963091F058F4925F40
:101390009F70923058F4803F19F030F4883E30F45A
:1013A00081E008959A5FF4CF843FD1F380E00895FF
:1013B000883EB0F3813FD1F7F3CFFC01808191816A
:1013C0000E94E60A0C94C209CF93DF9300D000D0AC
:1013D0000F92CDB7DEB70F900F900F900F900F9038
:1013E000DF91CF910895CF93DF9300D000D000D04C
:1013F000CDB7DEB726960FB6F894DEBF0FBECDBFD1
:10140000DF91CF91089508950C94030A0E94040A75
:10141000809308020C94AA0908950C94060A9091EE
:101420000802892B0C94060A9091080289230C94D7
:10143000060A9091080289270C94060A0C94030A64
:101440000C941E0A0E94200A809307020C94AA0999
:1014500080E00C94220A91E001C0990F8A95EAF786
:10146000892F0C94220A21E030E001C0220F8A95D6
:10147000EAF780910702822B0C94220A21E030E0E7
:1014800001C0220F8A95EAF72095809107028223F6
:101490000C94220A21E030E001C0220F8A95EAF77D
:1014A0008091070282270C94220A90910702892BCF
:1014B0000C94220A9091070289230C94220A90919D
:1014C000070289270C94220A089521E1929F800D3A
:1014D0001124982F977041E001C0440F9A95EAF7C4
:1014E00086958695869593E0899FF0011124EA51AF
:1014F000FE4F90E080E070E05191DF0111979B0179
:10150000082E02C0369527950A94E2F7217021959E
:101510002527242325272C9301968330910561F7F5
:10152000089521E1929F800D1124982F9770869540
:101530008695869523E0829FF0011124EA51FE4FA3
:1015400050E040E080E0219130E0092E02C0369565
:1015500027950A94E2F721703327042E01C0220F49
:101560000A94EAF7822B4F5F5F4F4330510559F7DA
:101570000895CF92DF92FF920F931F93CF93DF9343
:101580006C010091070280910802082BC7E0D0E0AF
:1015900010E0FC2EC8010C2E02C0959587950A9488
:1015A000E2F780FD0CC02197A0F7F12C8F2DDF9181
:1015B000CF911F910F91FF90DF90CF900895B601CA
:1015C0008C2F0E949B11019771F3F0CFCF93DF9383
:1015D000EC010E94B90ABE01DF91CF910C949B11DE
:1015E0001F93CF93DF93EB019091E501992331F0A5
:1015F000CB01DF91CF911F910C94E60A882379F0FB
:10160000CB010E94B90A182F682FCE010E94650AEB
:10161000BE01812FDF91CF911F910C949B11CB01C3
:101620000E94910A182FF4CF1F93CF93DF93C0919C
:10163000090216E080910A028C1304C0DF91CF9159
:101640001F910895D0E01C9FF0011D9FF00D112403
:10165000E55FFD4F40815181628173818481958175
:101660000E94F3092196C770E5CF40913B0250914B
:101670003C0260913D0270913E0280913F02909148
:1016800040020C94F309FF920F931F93CF93DF93C3
:1016900080914002807FD1F480913D028823B1F097
:1016A0008091090210910A0260913B0270913C0204
:1016B000A0913E02B0913F02062F0723C091040182
:1016C000D091050196E0F92E181306C0DF91CF9155
:1016D0001F910F91FF90089590E0109711F00F3F28
:1016E00019F401968770F0CFF89E9001F99E300DA5
:1016F0001124F901E55FFD4F41814713F2CF40818D
:101700004613EFCF42814111ECCF438154814A1BF4
:101710005B0B4C175D0728F7809140028F7080614A
:1017200080934002F901E05FFD4F80818F708061FE
:1017300080838BE392E00E947E09DF91CF911F911D
:101740000F91FF900C94140BAF92BF92CF92DF9247
:10175000EF92FF920F931F93CF93DF93CDB7DEB736
:1017600061970FB6F894DEBF0FBECDBF8C0185E048
:10177000F801DE011D9601900D928A95E1F7F801BE
:10178000E2808BE3C82E82E0D82E60913E027091F9
:101790003F026115710509F45FC190913B022091F0
:1017A0003C02892F82238F3F09F456C14081518129
:1017B000A380B480F0903D02F501E61BF70BBF015A
:1017C000E0910401F0910501FF2009F4F6C0809139
:1017D0004002382F307F6E177F0708F0AFC03111FD
:1017E00079C0FE2C251323C0941321C0E1101FC023
:1017F0008F708061809340020E94350BC6010E9469
:101800007E0980914002F80185838F2D61960FB685
:10181000F894DEBF0FBECDBFDF91CF911F910F9126
:10182000FF90EF90DF90CF90BF90AF900895AB28DE
:1018300029F0842F85238F3F09F027C180E0F82FFE
:10184000F170DF2E80FF3CC08091090220910A02D6
:1018500036E0821315C04D875E878D859E850E9478
:10186000E60A292F22952F702230F0F0243018F547
:101870009F70F1F0F8019581907FD1F4D12C1EC0BA
:1018800090E0389FF001399FF00D1124E55FFD4F86
:101890006181651306C06081641303C062816E11AB
:1018A0000FC001968770D5CF9F7011F0882331F358
:1018B000805E883018F3C8010E947E09FD2CA5CFF8
:1018C000EE2009F4A2CF8091400281608093400213
:1018D000F12C9BCF251306C0941304C0F801EE2011
:1018E00009F487C0C8010E94DD09882319F1EE20A0
:1018F00009F180914002803270F020913B023091DA
:101900003C0238872F831986BB86AA868C87CE0136
:1019100007960E947E0986E0F801ABE3B2E00190F1
:101920000D928A95E1F70E94430B0E94350BFF242C
:10193000F3946BCFC8010E947E09F9CF311113C017
:101940007A2DB98AA88A6E2D89890E94E4098BE3D1
:1019500092E00E947E0986E0F60111928A95E9F7ED
:101960000E94350BB5CF25130FC094130DC0E110A5
:101970000BC0F8018583C8010E947E0986E0F6014C
:1019800011928A95E9F741CFC8010E94DD098823A9
:1019900089F2EE2079F280914002803208F4BBCFC8
:1019A00020913B0230913C023A8329831B82BD8205
:1019B000AC828E83CE010196ACCF6E177F0708F004
:1019C0003EC0FE2CEE2009F4B5CF25132AC0941397
:1019D00028C08091400280FD1BC0982F907FC1F0ED
:1019E000F8018583903F31F0982F907F905F8F7042
:1019F000892B8583C8010E947E0986E0F801ABE34C
:101A0000B2E001900D928A95E1F70E94350BFDCE70
:101A100086E0F801ABE3B2E001900D928A95E1F720
:101A2000F4CEC8010E94DD09811175CF809140027A
:101A3000816080934002C8010E947E09E6CE7A2D23
:101A4000B98AA88A6E2D89890E94E40986E0F60188
:101A500011928A95E9F7D9CFEE2009F46BCFC8012E
:101A60000E94DD09F82E882309F464CF86E0F8018E
:101A7000ABE3B2E001900D928A95E1F78BE392E03F
:101A80000E944C060E94430BC0CF81E08E25D7CE2A
:101A90001F93CF93DF93CDB7DEB72C970FB6F89493
:101AA000DEBF0FBECDBF4F83588769877A878B878C
:101AB0009C87CE0107960E94A40B882369F08A8533
:101AC0009B85892B39F04F815885842F85238F3F43
:101AD00009F071C016E05FC086E0FE013796DE01B6
:101AE000119601900D928A95E1F78A859B85892B45
:101AF00089F38F81988589238F3F61F320910A02B2
:101B000030E0C90101968770992740910902481772
:101B1000190671F40E94BE0910920A02109209027D
:101B200086E0EBE3F2E0DF011D928A95E9F7D2CF80
:101B300096E0929FD001939FB00D1124A55FBD4FF9
:101B4000FE01319601900D929A95E1F780930A0279
:101B50000E94140BBFCF819FC0011124855F9D4F50
:101B60000E94A40B8823E9F0E09109021E9FF00176
:101B70001124E55FFD4F4081518162817381848131
:101B800095810E94F3098091090290E00196877087
:101B90009927809309028091090290910A02891382
:101BA000DACF2C960FB6F894DEBF0FBECDBFDF9113
:101BB000CF911F91089569857A858B859C850E94B8
:101BC000F30988CF682F80910601909107010C944A
:101BD0009A25682F80910601909107010C94A52504
:101BE00080910601909107010C94B02580916102CB
:101BF00085958595859508958091610287700895F2
:101C000090916102977081E009F480E008958091DD
:101C10008402089590918402892B80938402089510
:101C20008095909184029823909384020895109255
:101C30008402089590918302892B809383020895F2
:101C40008095909183029823909383020895109237
:101C50008302089580916202089508950C942D0ED8
:101C60009091EC0392FD08C090916202981721F0C8
:101C7000809362020C942E0E089580916202882354
:101C800029F01092620280E00C942E0E0895CF93FA
:101C9000DF93E0910601F091070180918402808337
:101CA000E0910601F0910701808190918302892BD8
:101CB000808390916202992381F0E0910601F09176
:101CC00007018081892B8083809106019091070113
:101CD0000E94062581110E943D0EC0910601D091FF
:101CE000070140E250E061E472E0CE010E945D2F06
:101CF000892B69F080E2FE01A1E4B2E001900D922F
:101D00008A95E1F7CE01DF91CF910C94B224DF9157
:101D1000CF91089508950C948A0E9091EC0392FD52
:101D200010C098E0899F90011124622B609361029A
:101D30000E94330A809161028595859585950C9462
:101D40008B0E0C94330A1092610280E00C948B0E7F
:101D5000909161028095892380936102282F2770DA
:101D600091F4282F082E000C330B9217130659F00C
:101D70009091EC0392FD07C08595859585950E940D
:101D80003E0A0C94A30E08959091EC0392FB222737
:101D900020F9281769F080FB92F99093EC03809169
:101DA000EB039091EC030E940F0F82E00C94A80EBD
:101DB00008958091EC0382FB882780F991E08927C0
:101DC0000C94C40E81E00C94C40E80E00C94C40EFC
:101DD0006FEF7FEF90E080E00C949C2F90E080E02C
:101DE0000E94782F893E9E4F11F40C94301F80E0A2
:101DF000089582E090E00C946A2F83E090E00C94C8
:101E00006A2FCF9384E090E00E946A2FC82F82E26D
:101E100090E00E946A2F982F8C2FCF910895CF9336
:101E2000C92F682F84E090E00E947E2F6C2F82E201
:101E300090E0CF910C947E2FAB01BC018FE090E03D
:101E40000C94902FAB01BC0183E190E00C94902F97
:101E500060E070E0CB010C94220F60E070E0CB01F9
:101E60000E941C0F0C94280F69EE7EEF90E080E03A
:101E70000E949C2F60E082E090E00E947E2F60E054
:101E800083E090E00E947E2F1092080260E084E0E0
:101E900090E00E947E2F60E082E290E00E947E2F20
:101EA00060E085E090E00E947E2F60E086E090E0B8
:101EB0000E947E2F6FEF87E090E00E947E2F40E02F
:101EC00050E0BA0188E090E00E94902F60E08DE041
:101ED00090E00E947E2F40E050E0BA0188E190E05F
:101EE0000E94902F60E087E190E00E947E2F40E00A
:101EF00050E0BA018CE190E00E94902F70E060E029
:101F000080E290E00E949C2F40E050E0BA0188E11E
:101F100090E00E94902F80E00E94491F0E94761F4F
:101F20000C942D0F0C94340F682F8EE090E00C94DD
:101F30007E2F0E94672660939D0270939E0280937D
:101F40009F029093A0026093990270939A028093EB
:101F50009B0290939C02089585B7806885BF85B7E2
:101F6000806885BF0895089508950C94B40F08956E
:101F70000C94B70F0E94AC0F89E792E10E949C2459
:101F80000E94B30F0C94B50F81E008950C94C40F18
:101F9000089508950E94C80F0C94C90F0E949612CC
:101FA0000C94F3050E9452260E94851F0E948613FE
:101FB0000E94CE0F0E94381D0C94B80F3F924F9292
:101FC0005F926F927F928F929F92AF92BF92CF92C9
:101FD000DF92EF92FF920F931F93CF93DF93CDB7D2
:101FE000DEB72A970FB6F894DEBF0FBECDBF0E94B2
:101FF0009B13882E81110E94990F55E8A52E52E05F
:10200000B52E10E000E0302E802F0E94B6122B017A
:102010003C01F501C190D190E190F1905F01C414B1
:10202000D504E604F70409F46FC08091A10281FD94
:102030000E94C112D701C60184259525A625B72582
:10204000912CC12CD12C7601C394AC01BD014C2143
:102050005D216E217F21452B462B472B09F44CC077
:102060000E94C60F8823C9F09E823F824C205D20CB
:102070006E207F2081E045284628472809F480E02B
:1020800088870E945B268160782F9A8789874E8196
:102090005F8168858A850E940E06000F111F000F60
:1020A000111FF801EB57FD4F80819181A281B3810F
:1020B0008C259D25AE25BF2580839183A283B38384
:1020C00081E0811001C080E02A960FB6F894DEBF4F
:1020D0000FBECDBFDF91CF911F910F91FF90EF9079
:1020E000DF90CF90BF90AF909F908F907F906F9038
:1020F0005F904F903F9008959394CC0CDD1CEE1CA4
:10210000FF1CF1E19F12A1CF0F5F1F4F053011059A
:1021100009F079CF8FEF89838A831B820E945B2627
:102120008160782F9D838C8349815A816B818D8159
:102130000E940E06C5CF0E94DE0F0E947C1D0E94E9
:10214000A0150C940306CF93DF930E949F11EC011E
:10215000811521E5920708F042C0811530E593070B
:1021600008F09DC0883E910530F5803E910508F04D
:1021700092C0883A910588F4853A910508F084C0A8
:102180008130910509F487C0009709F484C0049751
:1021900008F081C0D0E0C0E07EC08F3B9105D0F751
:1021A000C85AD0E0CC0FDD1FCF59DE4F0990D8813F
:1021B000C02DD46470C08115904250F4C11581E0E7
:1021C000D80708F068C0C03FD10520F3D06563C0D0
:1021D000C11590E4D907F0F2DF70D06A5CC08115B8
:1021E00025E5920700F5811534E5930708F08BC0CB
:1021F000811543E5940708F073C0C11582E5D8073F
:1022000008F469C0CE018370992721E030E002C054
:10221000220F331F8A95E2F7C695C69580E2C89FC4
:10222000E001112454C0C11599E5D907A8F4C115DE
:1022300028E5D20708F06CC0C11536E5D30708F0D1
:10224000A9CF8C2F0E943612C82FD0E0DC2FCC27CC
:10225000CC27DF71D0621FC0C1154AE5D40708F44E
:102260005CC0CE0190568115904208F093CF8D2F1F
:102270008F710E94361290E0982F882788279F71CF
:102280009C012C2BE901E6CFC55AD0E0C157DE4FA7
:10229000C881D0E0D064CE01DF91CF910895E4E011
:1022A00096958795EA95E1F783702C2F26952695CC
:1022B000237040E2249F90011124382B8C2F8370CF
:1022C000C1E0D0E002C0CC0FDD1F8A95E2F7C22B3F
:1022D000D32BDC68E0CFDC2FCC27C16FD06ADBCFFB
:1022E0008370992721E030E002C0220F331F8A95C6
:1022F000E2F7C695C69590E2C99FE0011124C22B72
:10230000D32BDA68C8CFD82FCC27C46FD06AC3CFFD
:10231000DC2FCC27C06FD06ABECF8C2F8F700E946D
:10232000361234E0D695C7953A95E1F7CF709C2FD9
:10233000EC01D069B0CF0E94E9220C94A31082383E
:102340009105B1F1B0F48133910509F475C048F4F9
:102350008932910509F469C08A32910509F473C084
:1023600008958533910509F459C08933910501F128
:102370000895833E9105A9F138F4803E9105F9F066
:10238000823E910549F10895863E9105A9F1873E67
:102390009105C9F1843E910519F52091EC0321FFC7
:1023A0001FC08091EB0384FD14C087EE90E0089578
:1023B0002091EB032370A1F080EE90E0089520912E
:1023C000EB0320FD47C03091EC0330FF09C024FF30
:1023D00044C090E080E004C02091EB0322FDF7CFE1
:1023E00008952091EB0322FD3BC03091EC0330FDBA
:1023F000E3CF24FFF5CFEDCF2091EB0323FFF0CF08
:1024000024FDE7CFD2CF2091EB0323FD2CC03091E8
:10241000EC0331FFEECF84EE90E008952091EB03C2
:1024200025FFDECF89E290E008952091EB0325FFA0
:10243000D7CF85E390E008952091EB0326FFD0CF1E
:102440008AE290E008952091EB0326FFC9CF81E353
:1024500090E0089589E390E0089583EE90E0089578
:1024600082EE90E0089586EE90E008959091EB035F
:1024700092FF06C0282F28712830F9F4877F8460E6
:1024800093FF06C0282F28712831F1F4877E8461DC
:102490002091EC0320FF06C0382F38713830D9F472
:1024A000877F816021FF06C0282F28712831D1F451
:1024B000877E816194FD877E0895282F24712430C2
:1024C000F9F68B7F8860DCCF282F2471243101F747
:1024D0008B7E8861DDCF382F3171313019F78E7FD7
:1024E0008860E0CF282F2171213121F78E7E88610D
:1024F000E1CF80E008950C94E80E0E949B132FEF2B
:1025000086E791E0215080409040E1F700C0000054
:102510000E949B1380E00E94B61260FF04C00E94DC
:102520007B120C94A62608950C947D120E94EE0E48
:10253000811102C00E94920F0E94F90E8093A102A5
:102540000E94010F9093EC038093EB030E9494127E
:102550000E94FD0E0E940D0A809107020C94200A31
:1025600008950C94B01208950C94B31294E0899FCE
:10257000F0011124EF5FFB4F6081718182819381B3
:102580000895089580EA8A95F1F7089500C00895A6
:102590000C94C212F894E82FE295EF70F0E031A1AC
:1025A000282F2F7081E090E001C0880F2A95EAF76C
:1025B000982F9095932391A392A1892B82A378942D
:1025C0000895CF93DF93C3EAD1E089918F3F11F053
:1025D0000E94CA1281E0C83AD807B9F7C2E9D1E02F
:1025E00089918F3F11F00E94CA1281E0C33AD80747
:1025F000B9F7DF91CF9108954F925F926F927F92DA
:102600008F929F92AF92BF92DF92EF92FF920F93C1
:102610001F93CF93DF938C01D62EC62FD0E0CE012F
:102620008D559E4F7C01FC0120812F3F09F45EC037
:10263000F894E22FE295EF70F0E031A12F7081E085
:1026400090E001C0880F2A95EAF7932F982B91A369
:1026500092A18095892382A378940E94C612E2E910
:10266000F1E023EA31E0412C512C32014394812CDA
:10267000912C540181918F3F89F0A82FA295AF70C2
:10268000B0E090964C9150E08F7002C05595479500
:102690008A95E2F7D301C20140FF03C080E090E0D9
:1026A000DC01882A992AAA2ABB2A440C551C661CDC
:1026B000771C2E173F07F1F6F70180818F3F11F04D
:1026C0000E94CA1261E081149104A104B10409F4CA
:1026D00060E08D2D0E94C812CC0FDD1FCC0FDD1FD6
:1026E000C00FD11F88829982AA82BB82DF91CF91CD
:1026F0001F910F91FF90EF90DF90BF90AF909F9050
:102700008F907F906F905F904F9008950E94E1129C
:1027100084E1E1E0F4E0DF01982F1D929A95E9F75A
:10272000EDEEF3E0DF011D928A95E9F785E00E9466
:10273000E6130C949C04FF920F931F93CF93DF93A7
:10274000CDB7DEB764970FB6F894DEBF0FBECDBF2E
:102750008E010F5F1F4F84E1F80111928A95E9F70E
:10276000F12C6F2DC8010E94FC12F394F5E0FF12CA
:10277000F8CF44E150E0B8018DEE93E00E945D2F68
:10278000FF24F394009709F4F12C892B41F084E1A4
:10279000F801ADEEB3E001900D928A95E1F72F2D8F
:1027A00045E061E074E08DEE93E00E94E7130E9443
:1027B0009E048F2D64960FB6F894DEBF0FBECDBF7A
:1027C000DF91CF911F910F91FF9008950895FF928F
:1027D0000F931F93CF93DF93F82ED92F8B01C42F24
:1027E000222349F081E08093A4020E945B2690930B
:1027F000A3028093A2028091A402882399F0809181
:10280000A2029091A3020E947326059758F0EF2D23
:10281000FD2FD80190E080E0D0E08C179D0744F0B8
:102820001092A402DF91CF911F910F91FF90089514
:1028300001911191219131910D931D932D933D9310
:102840000196EBCF0E94A1280E94D20F0C94AD28D4
:102850000E94B1280E949B100C94CB280E94FB255B
:102860000E9488280E94BA0F0E9422140E942814F5
:102870000E94CA0FFBCF8091AB0280FF0DC0609118
:102880000D0170E0660F771F6038710570F56115F6
:10289000710569F1862F089581FF07C060910D01D0
:1028A00084E0689FB0011124EFCF60910D0182FD9B
:1028B0000AC08091AA028823A9F020910C0160919E
:1028C0000D01821710F088E0ECCF869FC001112423
:1028D00033E0880F991F3A95E1F7622F70E00E946C
:1028E000802ED2CF68E070E0D5CF8FE7089581E0E9
:1028F00008958091AB0280FF0CC06091090170E0E7
:1029000075956795759567956115710549F1862FE0
:10291000089581FF06C06091090170E07595679583
:10292000F3CF6091090182FD0BC09091A902992318
:10293000A1F06091080180910901961738F0682F85
:1029400070E06038710500F38FE70895899FC0013A
:10295000112470E00E94802EF4CF61E070E0D7CFA8
:1029600081E00895803F31F40E943B14819580936B
:10297000AF020895813F19F40E943B14F8CF823FC3
:1029800031F40E943B1481958093AE020895833FF9
:1029900019F40E943B14F8CF893F29F40E9479145E
:1029A0008093B00208958A3F21F40E9479148195A2
:1029B000F7CF8B3F31F40E94791481958093B10257
:1029C00008958C3F19F40E947914F8CF9CE0980F79
:1029D000953070F4845F990B21E030E001C0220F44
:1029E0008A95EAF78091AD02822B8093AD0208951B
:1029F0008D3F31F48091AB0281608093AB020895EA
:102A00008E3F21F48091AB028260F7CF8F3FB9F700
:102A10008091AB028460F1CF4091AE02803F59F4C7
:102A20008091AF0287FF0DC01092AF0241110BC021
:102A30001092AA0208C0813F81F48091AF0218165B
:102A40009CF3442381F08091B0029091B102892BD4
:102A500009F05AC01092A9020895823F49F447FF35
:102A6000F0CF1092AE028091AF028111ECCFE0CF97
:102A7000833F19F41416ACF3E4CF9091B002893F70
:102A800029F41916F4F61092B002DBCF8A3F19F43C
:102A900097FFD7CFF8CF9091B1028B3F29F497FFE2
:102AA000D0CF1092B102CDCF8C3F19F41916CCF3D0
:102AB000C8CF9CE0980F953090F4845F990B21E08B
:102AC00030E0B90102C0660F771F8A95E2F7CB01AB
:102AD00080959091AD0289238093AD02B2CF8D3F56
:102AE00031F48091AB028E7F8093AB02AACF8E3FF0
:102AF00021F48091AB028D7FF7CF8F3F09F0A1CFFA
:102B00008091AB028B7FF0CF08950E945B269C01E1
:102B10009091AE028091AF02982B21F03093A802E1
:102B20002093A7029091B0028091B102982B21F0DE
:102B30003093A6022093A5028CEA92E00C94CC2458
:102B4000EF92FF920F931F93CF93DF9300D000D0AB
:102B500000D0CDB7DEB786E0ECEAF2E0DE011196F8
:102B600001900D928A95E1F7E090AE02F090AF02ED
:102B70000091B0021091B1021092AE021092AF0219
:102B80001092B0021092B1028E2D8F2991F0809197
:102B9000A7029091A8020E947326AC019091AA020C
:102BA000992309F43FC080910E018417150608F49B
:102BB00047C0802F812B91F08091A5029091A602B1
:102BC0000E947326AC019091A902992309F477C061
:102BD00080910A018417150608F47FC08091AE0227
:102BE0009091AF02892B9091B002892B9091B10204
:102BF000892B11F00E94851586E0FE013196ACEA22
:102C0000B2E001900D928A95E1F726960FB6F894FE
:102C1000DEBF0FBECDBFDF91CF911F910F91FF900F
:102C2000EF90089520910F018AE0289F90011124D0
:102C30002417350708F0BDCF9F5F9093AA0202C00A
:102C40009F3FD1F7EE2059F00E943B149FEF1E14D6
:102C50000CF491E0899F802D11248093AE02FF2017
:102C600059F00E943B149FEF1F140CF491E0899FD0
:102C7000802D11248093AF023091AE02332309F4EA
:102C800098CF2091AF02222309F493CF45EB340370
:102C9000C0011124992359F09093AE0245EB24030F
:102CA00090011124332339F03093AF0282CF81E0B9
:102CB0008093AE02F3CF81E08093AF027ACF209170
:102CC0000B018AE0289F900111242417350708F092
:102CD00085CF9F5F9093A90202C09F3FD1F7002349
:102CE00059F00E9479149FEF10160CF491E0899F1F
:102CF000802D11248093B002112359F00E94791481
:102D00009FEF11160CF491E0899F802D1124809380
:102D1000B1023091B002332309F460CF2091B102A7
:102D2000222309F45BCF45EB3403C001112499231E
:102D300059F09093B00245EB240390011124332302
:102D400039F03093B1024ACF81E08093B002F3CFE3
:102D500081E08093B10242CF86E0ECEAF2E0DF014D
:102D60001D928A95E9F71092AA021092A902109278
:102D7000AB020895EF92FF920F931F93CF93DF93CF
:102D8000EB01E82FD11110C0442321F0F0E0E25E06
:102D9000FA4FE4916E2F7E2F8E2FDF91CF911F91EE
:102DA0000F91FF90EF9008950D2F10E0282F30E045
:102DB000442329F0225E3A4FF901249130E0F6E0F5
:102DC000CF9FC0011124EFEFF0E0BF010E946C2EF5
:102DD000AB018C2F90E0880F991FA5E5A49FB0014F
:102DE000A59F700D1124861B970B982F990F980F94
:102DF000BF01601B710B629FD001639FB00D729F7A
:102E0000B00D11248B2F9D9FB0011124672F7727C0
:102E1000EF01C61BD70BBE01629FE001639FD00D7F
:102E2000729FD00D11247F01E91AF108E09EB001D4
:102E3000E19E700DF09E700D1124672F7727E61B21
:102E4000F70BE29F8001E39F100DF29F100D1124FC
:102E5000E12F722F4230510599F048F44115510588
:102E600069F04130510581F0EB2F8D2F07C04430C0
:102E7000510569F080F046305105B1F76E2F8DCFC6
:102E8000E22F7B2F812FFACFE22F7D2FF7CFEB2F71
:102E9000822F712FF3CF7B2F822FED2FEFCF41E0C9
:102EA0000C94BA1608950C944F17CF93DF93762F96
:102EB000E901682F842F0E945317798368838A83DE
:102EC000DF91CF9108954B3A08F04AEA0C945517D8
:102ED00080911504982F9E7F61F4817082608093A9
:102EE0001504809118048B3A18F08AEA809318042C
:102EF00008958635B0F381708465F1CF88E090E065
:102F00000C94722FCF92DF92EF92FF926B017C01B3
:102F10000E946817B701A60188E090E0FF90EF904B
:102F2000DF90CF900C94902F60911504709116044F
:102F300080911704909118040C948217E5E1F4E055
:102F400083E0808311828FEF82838AEA83831482F5
:102F500060817181828193810C9482178091150424
:102F600080FF02C08695089580E00895909119042D
:102F7000933018F49F5F90931904882351F0609167
:102F800015047091160480911704909118040C9404
:102F90008217089581E00C94B61790911904992333
:102FA00019F0915090931904882351F06091150401
:102FB0007091160480911704909118040C94821754
:102FC000089581E00C94CD178091190408958093A1
:102FD0001904662351F060911504709116048091D4
:102FE0001704909118040C948217089560E00C94D3
:102FF000E717809116040895809117040895809131
:103000001804089570E00C94041F609114018091DD
:10301000150480FF0AC08091130123E0829FC00144
:103020001124865E9B4F0C9402188091150190919B
:10303000160123E0829FF0011124E65EFB4F891701
:1030400050F71182108212828F5F3396F8CF9091E1
:10305000150490FF14C0909115012091160133E0E2
:10306000939FF0011124E65EFB4F921710F00C9431
:1030700005188183608342839F5F3396F6CF08955E
:10308000CF93DF9300D00F92CDB7DEB790911504A8
:1030900090FF0AC09E012F5F3F4F0E9463174B8134
:1030A00069818A810E9427180F900F900F90DF91FD
:1030B000CF910895CF93DF93EC01EC81F0E0E75ED0
:1030C000FB4F4491E5E1F4E0628181810E94401868
:1030D0008C818F5F8C83DF91CF910895CF93DF93A5
:1030E000EC01E5E1F4E0438162818C810E944018AB
:1030F0008C818F5F8C83DF91CF9108950F931F9305
:10310000CF93DF9300D00F92CDB7DEB78C018091C3
:10311000B20281110AC09E012F5F3F4F4AEA6FEF52
:103120000E9463178A818093B202F8016481613042
:1031300069F08091B20240E0662361F040E06230C5
:1031400011F44091B20280E060E004C06091B202EC
:1031500040E080E00E942718F801848190E0019609
:1031600063E070E00E94802E84830F900F900F9098
:10317000DF91CF911F910F910895AF92BF92CF929F
:10318000DF92EF92FF920F931F93CF93DF9300D0C4
:103190000F92CDB7DEB7182FF62E042FE22E9091A6
:1031A000150490FF29C0E92FE695AE2FB0E0A85591
:1031B000BE4F8C918093B8039E7F923059F59E014B
:1031C0002F5F3F4F812F0E9463174B8169818A8156
:1031D0000E94271810931604F09217040093180405
:1031E000EE2051F06091150470911604809117043F
:1031F000909118040E9482170F900F900F90DF910A
:10320000CF911F910F91FF90EF90DF90CF90BF90E3
:10321000AF900895823019F400911804DBCF863006
:1032200019F410911604D6CF8930D9F3893191F66B
:10323000E9518E2F8170D82EE695F0E0E75EFA4FC7
:10324000A590B490C12CBB2460911701C61618F04C
:103250000E940518BFCF2C2D30E0A29EC001A39E76
:10326000900DB29E900D112470E00E946C2E812F63
:10327000D11013C0860F40911501420F532F511DDD
:103280009A01220F331F240F351F265E3B4F402F1C
:103290006F2D0E946317C394D7CF861BECCFE5E157
:1032A000F4E09181282F4381628188E0890F0C949A
:1032B000BD1881E00C944F19E5E1F4E09181282FCD
:1032C0004381628188EF890F0C94BD1881E00C94D2
:1032D0005C19E5E1F4E0628128E0620F08F46FEF29
:1032E000282F438181810C94BD1881E00C946919C9
:1032F000E5E1F4E0628128E0621B08F460E0282F39
:10330000438181810C94BD1881E00C947819E5E12A
:10331000F4E0438128E0420F08F44FEF282F628148
:1033200081810C94BD1881E00C948719E5E1F4E0EB
:10333000438128E0421B08F440E0282F628181810C
:103340000C94BD1881E00C94961920E00C94BD18E3
:10335000EF92FF921F93CF93DF93EC0110E0EE24E6
:10336000EA94F12C60911701161770F00E9405186D
:103370009A818C8190FF27C08F5F8C83DF91CF91E2
:103380001F91FF90EF90089520911501422F410F5A
:103390005527551FCA019A01220F331F280F391FC5
:1033A000265E3B4F70E0C7010E94802E962F8C81D5
:1033B0004091180460911704199F800D11240E94F8
:1033C00063171F5FCFCF8150D8CFAF92BF92CF92FC
:1033D000DF92EF92FF920F931F93CF93DF93FC0145
:1033E00082810FEF80FF01E010E042E3A42E809184
:1033F00017011817C8F00E9405188091B402013017
:1034000009F055C0811102C080911701815080934D
:10341000B402DF91CF911F910F91FF90EF90DF9059
:10342000CF90BF90AF900895C0911501C12ED12CBF
:10343000CC0DDD2DD11DCE01880F991FC80FD91FCE
:10344000C65EDB4F198218821A8234E0E32EF12C1B
:10345000B12C8091B4028B0D83331CF16A2D0E9434
:103460005E2E892F082E000C990BC816D90691F4F0
:10347000809118048E9DA0018F9D500D11245595AB
:103480004795559547959E016091170480911604C4
:103490000E946317B00EF1E0EF1AF108D1F61F5F3A
:1034A000A6CF87FFDFCF90911701890FDBCF90E088
:1034B00001966091170170E00E94802EA8CF0F93B3
:1034C0001F93CF93DF93809115019091160123E014
:1034D000829FF0011124E65EFB4F891740F1C0E0A6
:1034E000D3E060911701C61740F10E9405182091A2
:1034F00011018091B302820F8093B3029091120167
:10350000920F90931201191654F4082E000C990B87
:10351000409117014150550B841795071CF02195D8
:1035200020931101DF91CF911F910F910895118286
:10353000108212828F5F3396D0CF0C2F10E070E094
:10354000C8010E94802E20911501820F482F50E063
:103550002091B302022E000C330B02171307BCF0AC
:1035600020911201022E000C330B201731077CF042
:103570008D9F90011124265E3B4F4091180460916D
:103580001704809116040E946317CF5FAACFFA0137
:10359000EE0FFF1FE40FF51FE65EFB4F1182108256
:1035A0001282F3CF8F929F92AF92BF92CF92DF920F
:1035B000EF92FF920F931F93CF93DF93EC014C8117
:1035C000042F10E09801D8010E94CB2E9B01AC0182
:1035D0000E94E12E4B015C01E0E2F0E0E01BF10B08
:1035E000A5E5B0E0AC019B010E94E12E6B017C01DE
:1035F0009F01DF010E94C32E9B01AC010E94EC2EB3
:103600009B01AC01280D391D4A1D5B1DC701B60188
:103610000E94942EF22E822F90E039E23F1560F145
:1036200043E0249F9001112435952795122F109582
:1036300000E085E5E82EEF1880911701081758F192
:103640000E9405189C8181E0992319F0903219F4A9
:103650008FEF8093100180911001890F8C83DF918F
:10366000CF911F910F91FF90EF90DF90CF90BF907F
:10367000AF909F908F90089525E530E0B901681BC9
:10368000790B9B01220F331F260F371F37FFCCCF3B
:103690002F5F3F4FC9CF8E2D01FD8F2D209115013A
:1036A000622F600F7727771F9B01220F331F260F92
:1036B000371F265E3B4F412F609117040E9463170E
:1036C0000F5FBACF0F931F93CF93DF93EC0110E0FE
:1036D00000E0909117019017110609F06CF40E9418
:1036E00005188C8190E00196817099278C83DF9179
:1036F000CF911F910F91089520911501A801420FBC
:10370000511D9A01220F331F240F351F265E3B4F98
:103710004C816091170480911604969590171106BC
:1037200051F04CF0442349F0409118040E94631773
:103730000F5F1F4FCECF4423B9F340E0F7CF4F9236
:103740005F926F927F928F929F92AF92BF92CF9231
:10375000DF92EF92FF920F931F93CF93DF93FC01C1
:103760006280448081E08483E9E1F4E07490E8E9D8
:10377000F4E0E491812C75E0972EF2E0CF2EDD2469
:10378000D394AA24AA94B12C55245A94E7190E2F45
:1037900010E080911701881690F0DF91CF911F9172
:1037A0000F91FF90EF90DF90CF90BF90AF909F90E0
:1037B0008F907F906F905F904F900C940518E82C3D
:1037C000F12C82E0861568F09E9CF0019F9CF00D24
:1037D0001124EB54FD4F80911604808380911704CF
:1037E0008183411023C09E9CF0019F9CF00D112409
:1037F000EB54FD4F1382128220911501C701820FF5
:10380000911D9C01220F331F280F391F265E3B4F4D
:103810009E9CF0019F9CF00D1124EB54FD4F4281C2
:10382000618180810E9463178394B3CF9E9CE001E5
:103830009F9CD00D1124CB54DD4F8B818823E9F060
:1038400081508B83859DC00111246C8170E00E94A2
:103850006C2EFB01FF27E75EFB4F8491E82FE719F1
:10386000E59DC0011124B8010E946C2E80911804BE
:10387000689FB00111247A83BFCF0E94402F20910E
:103880001804269521582C9DA0012D9D500D112422
:10389000452F5527841795070CF0AECF82E086158B
:1038A00088F40E94402FB5010E94802E88830E94D8
:1038B000402F209117042695622F70E00E94802EE1
:1038C000280F29839E9CF0019F9CF00D1124EB543E
:1038D000FD4F128280911804893C58F088EC9E9C20
:1038E000F0019F9CF00D1124EB54FD4F84838383E2
:1038F00083CF8431A0F784E1F2CFE5E1F4E0808169
:103900008E7F808360817181828193810E94821782
:103910001092B9032FEF80E792E021508040904051
:10392000E1F700C000000C940518E5E1F4E08081A7
:103930008E7F80831092B9032FEF80E792E02150B1
:1039400080409040E1F700C000000C9405181092F0
:10395000B9038091B60381110AC081E08093B60358
:103960008091150481708093B5030C94951C089583
:1039700060911504669570E04BE050E088E191E0BD
:103980000E94502F892B19F481E08093B9030E9483
:103990005B269093B0038093AF0308959091150434
:1039A00090FF35C09170811128C0926090931504EA
:1039B000662351F0609115047091160480911704EC
:1039C000909118040E94821760911504669570E02A
:1039D0004BE050E088E191E00E94502F892BA1F04C
:1039E0001092B90381E08093B20340911804609172
:1039F0001704809116040C94A5198B3210F094656D
:103A0000D5CF880F982BD2CF0E94B81CEBCF08954A
:103A1000682F90911504969581E0890F8B3208F0FC
:103A200081E00C94CE1C81E00C94081D682F9091CD
:103A3000150496958FEF890F09F48AE20C94CE1C39
:103A400081E00C94161D61E00C94CE1CE5E1F4E0DD
:103A500080818160808386950C94231D809115045C
:103A600080FD0C947D1C0C94261D60E00C94CE1CF3
:103A70008091B70381112EC00E94EE0E811104C007
:103A80000E94920F0E949E170E947E176093150459
:103A90007093160480931704909318046E7F61F45A
:103AA0000E949E170E947E1760931504709316045F
:103AB00080931704909318040E9468171092B9031A
:103AC0008091150480FF03C086950E94351D81E01A
:103AD0008093B7030895E5E1F4E0808181608083FD
:103AE00086950C94351D1092B6038091B503811113
:103AF0000E946B1D0C94B81C0F931F93CF93DF9300
:103B00008091B903882309F496C08091B803E091AD
:103B10001504E695E81BE093B103823091F5F0E0DF
:103B2000EB5EFB4FE491CE2FD0E00AE518E18091E7
:103B3000B203882361F01092B2030E945B26909337
:103B4000B0038093AF031092B4031092B3030E94AA
:103B50005B26E091AF03F091B0038E1B9F0B8F3F6C
:103B60009F4708F068C0EC0FFD1FF093B003E0938F
:103B7000AF038FEA93E0F801DF91CF911F910F918E
:103B80000994863049F4F0E0EE5EFB4FE491CE2FCD
:103B9000D0E00EE618E1CBCF893051F4E695F0E0A5
:103BA000E15FFB4FE491CE2FD0E008EA19E1BFCFEF
:103BB0008F3051F4E695F0E0E45FFB4FE491CE2FB7
:103BC000D0E005EE19E1B3CF853149F4F0E0E75FCD
:103BD000FB4FE491CE2FD0E00FE51AE1A8CFC8E269
:103BE000D0E002ED1AE1883109F4A1CF833239F433
:103BF000E7E0F4E0C591D4910EE718E198CFC4EF67
:103C0000D1E002E61BE1843209F491CFC0EDD7E0A8
:103C100002E517E1853209F08ACF8E2F63E00E941A
:103C2000522EE92FF0E0EC5FFB4FE491CE2FD0E075
:103C30000FE91BE17CCFDF91CF911F910F91089588
:103C4000FA01811101C0FB010994CF93DF93C82FC2
:103C5000D62F0E94AE178C1740F00E94AE178D171A
:103C600020F4DF91CF910C94131D8C2FDF91CF9115
:103C70000C94231D1F93CF93DF93EC01FB01128162
:103C800011111BC00E94070E8272CC3CFCE5DF07BD
:103C900009F4A0C008F045C0C63CECE5DE0709F415
:103CA00085C0F8F4C33C9CE5D90709F475C050F40D
:103CB000C23CDC4509F46DC011E0812FDF91CF914A
:103CC0001F910895C43C9CE5D90709F46AC046E6F3
:103CD00059E169E579E1C53CDC4571F70E94201E98
:103CE000ECCFC93CFCE5DF0709F46AC068F4C73CC7
:103CF000ECE5DE0709F45FC045E759E164E879E1E6
:103D0000C83CDC4559F3D8CFCA3C9CE5D90709F437
:103D10005CC041EE57E16AEC77E1CB3CDC45F1F267
:103D2000CBCFC13DFCE5DF0709F463C098F4CE3C7E
:103D30009CE5D90709F457C008F451C0CF3CFCE515
:103D4000DF0709F453C0C03DDC4509F0B5CF6EE094
:103D500089E01CC0C43D9CE5D90709F450C058F463
:103D6000C23DFCE5DF0709F447C0C33DDC4509F06F
:103D7000A3CF88E135C0C53D9CE5D90709F442C011
:103D80006AE285E2CD35DD4509F096CF0E94251E19
:103D900094CF0E942E1D91CF40E25DE163E17DE171
:103DA0009DCF43E15DE160E27DE198CF49E559E1D6
:103DB00066E679E193CF44E859E165E779E18ECF92
:103DC00042EA59E163E979E189CF43E959E162EADD
:103DD00079E184CF4AEC57E161EE77E17FCF81E072
:103DE0000E94231D6ACF65E082E0D0CF68E086E0C4
:103DF000CDCF64E18FE0CACF67E185E1C7CF62E252
:103E000089E1C4CF83E2ECCF879A41B34F7751B3B6
:103E10005068EFB7F8949B01220F331F260F371F0E
:103E2000280F391F2817390741F4EFBF8FE594E0B9
:103E30000197F1F700C000000895DC016D91CD01FC
:103E400078E051BB000000C067FF41BB660F000077
:103E500000C000C000C041BB00C07A9591F7E2CF1E
:103E600083E290E00E946A2F823289F484E290E03B
:103E70000E946A2F873059F485E290E00E946A2FF1
:103E800091E0873209F090E0892F8170089580E0F9
:103E9000FCCFCF93C82F6FEF811162E283E290E0F5
:103EA0000E947E2F6FEFC11167E084E290E00E94D4
:103EB0007E2F6FEFC11167E285E290E0CF910C9405
:103EC0007E2F089586E290E00E946A2F682F70E0AE
:103ED00090E080E008950895CF93C62F0E946B1F55
:103EE0006C2F86E290E0CF910C947E2F80E00E94B0
:103EF000491F60E070E0CB010E946C1F0E946122AC
:103F00000E944D2381E00C94491F0E94611F0E9472
:103F1000621F0E946B1F0E94301F811102C00C940F
:103F2000761F0895CF93FB01C281CC2309F19C0138
:103F300022513F452031310520F582510E945D23F9
:103F4000C0E08C2FCF91089581E00E94330A43E0B6
:103F500062E081E00E949304F3CF81E00E943E0A78
:103F600043E062E081E00E949304EBCF82E0F6CF71
:103F70008031FFE59F0789F381319F45B9F3C1E0A7
:103F8000E0CF8031EFE59E07F9F281319F45C9F618
:103F900082E0DBCF2FEFFC0120830895CF93DF93E6
:103FA000EC0188818138A9F028F4803871F0DF9124
:103FB000CF910895823881F08338C9F70E94F917AC
:103FC00089830E94FC178A83F2CF0E94FF1789839E
:103FD000EECF0E94AE17FBCF0E94E417F8CFCF932D
:103FE000DF93EC0188818138E1F028F4803869F0B2
:103FF000DF91CF910895823811F18338C9F70E947B
:10400000FF17482F6A81898108C0D9810E94FC1757
:10401000C82F0E94F9174D2F6C2FDF91CF910C9470
:10402000A51989810E94351D8981811104C0DF9104
:10403000CF910C94951CDF91CF910C946B1D8981CD
:10404000DF91CF910C94F617EF92FF920F931F938D
:10405000CF93DF93EC01E62EDC01ED91CD01E15031
:10406000E33108F0AEC0F0E0E152F04D0C94B62E12
:10407000198289E08A836E2DCE01DF91CF911F9145
:104080000F91FF90EF900C9461278981823069F045
:10409000833071F08130E1F40E9467260E94BC2ECB
:1040A0006A837B838C839D83E6CF0E94621FF6CF59
:1040B0008E01F12C8F2D0E94B612F801828373833A
:1040C0006483F3940D5F1F4FF5E0FF12F3CFD3CF5E
:1040D0006E2DCE010E94CA1FCECF89818230C1F7DA
:1040E0006A817B818C819D810E94BC2E0E946C1F05
:1040F000C2CF4B816A8189810E9433229827892708
:1041000098279D838C83B7CF2C813D81322723272D
:1041100032274B816A8189810E944C22ACCF0E9458
:104120006122A9CF0E94EF1FA6CF0E94CE1FA3CF6E
:104130000E949417A0CF0E94F62289839CCF0E94F0
:10414000F8229827892798279A83898394CF6B81AF
:1041500070E089819A81AE014C5F5F4F9827892773
:1041600098270E94FB2287CF6B8170E089819A811A
:10417000AE014C5F5F4F9827892798270E94222322
:104180007ACF0E944D2377CF0E942122D6CF6B8118
:1041900070E089819A81AE014C5F5F4F9827892733
:1041A00098270E94992267CF6B8170E089819A815C
:1041B000AE014C5F5F4F9827892798270E94BF2246
:1041C0005ACF8FEF888357CFCF93DF93EC01FB015A
:1041D0008281882309F433C1C330FDE5DF07C0F5D0
:1041E000CA3F9CE5D90730F49E0122503C4524315A
:1041F0003105B0F50E94010F9093EC038093EB031F
:10420000C1318CE5D80709F4EEC008F069C0C930A7
:10421000ECE5DE0709F4D5C0C8F5C5308CE5D80754
:1042200009F4C7C000F5C330ECE5DE0709F4B9C0F6
:1042300008F0BBC0C230DC4509F4ADC08091EB038F
:104240009091EC030E940F0F0E94BE0980E008C00D
:10425000C136EDE5DE0771F2C53AFDE5DF0751F243
:10426000DF91CF9108958091EB038062C7309CE588
:10427000D90709F493C08091EB038061C830DC4515
:1042800008F48CC08091EB03806488C08091EB03BC
:104290008B7FCD30FCE5DF0709F480C098F4809176
:1042A000EB038E7FCB309CE5D90709F477C0809172
:1042B000EB038C60CC30DC4508F470C08091EB03DC
:1042C0008D7F6CC08091EB038F7ECF30FCE5DF07E4
:1042D00009F464C008F47BC08091EB038F7D5EC05D
:1042E000CD3F9CE5D90709F47AC050F5C531FCE50E
:1042F000DF0709F486C098F48091EB03837FC33114
:104300009CE5D90709F44AC008F471C00E94BE09AF
:104310009091EB03892F97FB87F980583FC0CB3FE3
:10432000FCE5DF0709F449C008F055C08091EC03B3
:104330008160CA3FDC4509F081CF8093EC037ECFDA
:10434000C130EDE5DE0709F468C0A8F4CF3F8CE585
:10435000D80709F452C08091EC038360C115DD4594
:1043600060F38091EC03982F909591708E7F892B4C
:1043700090FB81F9E2CFC136EDE5DE0709F451C0CB
:10438000C53AFDE5DF0709F453C0C230DD4509F049
:1043900055CF80E043C08091EB0381608093EB03B5
:1043A0004DCF8091EB038260F9CF8091EB03846065
:1043B000F5CF8091EB038860F1CF8091EC038260B0
:1043C000BCCF0E94BE098091EB038068E7CF80914B
:1043D000EB03877FE3CF8091EC038E7FAECF80919C
:1043E000EC038D7FAACF8091EB038F7BD7CF0E9408
:1043F000BE098091EB038F77D1CF8091EC038C7F46
:104400009CCF8091EB0382FB992790F921E09227C2
:1044100090FB82F990FB83F9C1CF81E00E94940F59
:104420000DCF9091EB03892F8F7E94FF8061B6CFE3
:104430009091EB03892F8E7F90FF8160AFCF81E059
:104440000FCF84E0089550E0440F551F92E2699F1A
:10445000400D511D11249AEA899F400D511D1124D0
:10446000CA01879608950F931F93CF93DF930E94FD
:1044700023228C010E946A2FC82FD0E0DC2FCC278A
:10448000C80101960E946A2F9E01282BC901DF9165
:10449000CF911F910F9108950F931F93CF93DF93A7
:1044A000122F032F0E942322EC01602F0E947E2FE7
:1044B000612FCE010196DF91CF911F910F910C9446
:1044C0007E2FAF92BF92CF92DF92EF92FF921F9317
:1044D000CF93DF938CEAC82E80E0D82ED0E076010F
:1044E000C0E014C0F50125913491412F6C2F8D2F20
:1044F0000E944C2282E0A80EB11C1F5F113191F77F
:1045000082E2E80EF11CCF5FC53019F0570110E0D0
:10451000E9CFDF5F8AEAC80ED11CD43001F7DF9102
:10452000CF911F91FF90EF90DF90CF90BF90AF9011
:104530000895EF92FF920F931F93CF93DF93EC01B7
:104540008A017C01E60EF71ECE018796CE15DF05A7
:1045500039F4DF91CF911F910F91FF90EF90089563
:10456000C83A22E0D20740F40E946A2FF801808303
:104570000F5F1F4F2196E8CFF8011082F9CFCF923D
:10458000DF92EF92FF920F931F93CF93DF937C0103
:104590006A018C01060F171FEC01CE018796C01728
:1045A000D10749F4DF91CF911F910F91FF90EF90C8
:1045B000DF90CF900895C83A22E0D20740F4FE0180
:1045C000EE19FF09EC0DFD1D60810E947E2F2196E2
:1045D000E4CF462F843038F4753028F4613118F474
:1045E000672F0C94332290E080E0089580E10895D5
:1045F00081E391E00895EF92FF920F931F93CF9381
:10460000DF93EC018A017C01E60EF71ECE01815397
:104610009D4FCE15DF0539F4DF91CF911F910F919A
:10462000FF90EF900895C13321E0D20740F40E943B
:104630006A2FF80180830F5F1F4F2196E7CFF801A3
:104640001082F9CFCF92DF92EF92FF920F931F93D8
:10465000CF93DF937C016A018C01060F171FEC01D9
:10466000CE0181539D4FC017D10749F4DF91CF91FF
:104670001F910F91FF90EF90DF90CF900895C1337D
:1046800021E0D20740F4FE01EE19FF09EC0DFD1DFB
:1046900060810E947E2F2196E3CFCF93DF93CFECF2
:1046A000D2E060E0CE010E947E2F2196C11584E009
:1046B000D807B9F7DF91CF910895DF92EF92FF927B
:1046C0000F931F93CF93DF9300D000D0CDB7DEB709
:1046D000F82E8FE08F1540F08FEF93E00E946A2F45
:1046E0000FEC12E08823C1F00F900F900F900F9005
:1046F000DF91CF911F910F91FF90EF90DF90089580
:10470000011584E0180781F3C8010E946A2F811106
:1047100001C0FA940F5F1F4FF110F2CF19821A8275
:104720001B821C82DD24D39478018FEFE81AF80AEB
:10473000C8010E946A2F89831A828823A9F29FEFF9
:10474000980F933078F48A83D9820E5F1F4FC70188
:104750000E946A2F8B83882339F2CE0101960E9432
:10476000E905E2CF8701F9CFCF93DF93EB018631E3
:104770009C4511F50E94070E9A81992399F08A7A37
:1047800091E009F490E09093BA03811109C089E2A5
:104790000E94E20D0E94470E80E0DF91CF910895C4
:1047A00085E3F6CF8091BA03811104C089E20E94AB
:1047B000E90DF0CF85E3FBCF81E0EFCF0F931F939F
:1047C000CF93DF93C42FD22FFC0182818823C9F0BD
:1047D0004093BD030E945B269093BC038093BB0370
:1047E00080E28C0F883008F050C0C77081E001C0B3
:1047F000880FCA95EAF7DF91CF911F910F910C9422
:1048000058071091BD03141335C08091BB039091DC
:10481000BC030E947326883C910560F5C0E2CD0F71
:104820001D17B9F080E2810F883040F4177081E0E5
:1048300001C0880F1A95EAF70E945F07C83048F454
:1048400081E09D2F977001C0880F9A95EAF70E942A
:104850005807802F0E945007C830B8F4D77081E005
:1048600001C0880FDA95EAF7DF91CF911F910F9180
:104870000C945F0780E28C0F883038F4C77081E0B9
:1048800001C0880FCA95EAF7EFCFDF91CF911F9152
:104890000F9108950F939C01CB01233F4CE5340702
:1048A00059F1A8F4283DFCE53F0701F1293D4CE50D
:1048B0003407D1F1273D3C4591F406E221EE41EE6B
:1048C00067ED7CE50E94DE2380E00F910895253F8F
:1048D000FCE53F07E9F0B0F0263F3C45F9F0FC016C
:1048E0008281882339F11092BD03EFCF07E225EED4
:1048F00045EE68ED7CE5E6CF06E221EE40EE63EFA3
:104900007CE5E0CF07E225EE44EE64EF7CE5DACF0C
:1049100006E221EE42EE65EF7CE5D4CF07E225EE1C
:1049200046EE66EF7CE5CECF08E221E045EE69ED8C
:104930007CE5C8CF81E0C9CF9093E3018093E20189
:1049400008959093C3038093C2030895E091C20336
:10495000F091C303309721F00190F081E02D09948C
:1049600080E00895E091C203F091C303309799F07D
:1049700020912F01222359F02091EB0327FF07C03C
:10498000DC012C9111962C93119726E02C93028038
:10499000F381E02D09940895E091C203F091C303DF
:1049A000309739F022E0DC012C930480F581E02D72
:1049B000099408952091C0033091C1032817390745
:1049C00071F09093C1038093C003E091C203F09112
:1049D000C303309721F00680F781E02D09940895F4
:1049E0002091BE033091BF032817390771F09093CF
:1049F000BF038093BE03E091C203F091C3033097DD
:104A000021F00084F185E02D09940895FC0132968F
:104A100080912F01882321F08091EB039EE187FF95
:104A200096E080E0915008F4089521912223D1F37B
:104A30008F5FF8CF662301F120912F012223F1F03F
:104A40002091EB0327FF1AC0462F469546954695C1
:104A50004E3190F4677021E030E002C0220F331F26
:104A60006A95E2F7840F911DFC01828190E0282372
:104A7000392381E0232B69F480E00895FC0132960C
:104A800008962191261721F0E817F907D1F7F4CFFE
:104A900081E008959C01FC0132969FEF80E04191F6
:104AA000461751F09F3F19F4411101C0982F8F5FB5
:104AB0008630A9F79F3F09F40895290F311D97FD0E
:104AC0003A95F90162830895FC0132960896219186
:104AD000261303C0DF0111971C92E817F907B9F7F5
:104AE0000895E62FE695E695E695EE3168F4E80F31
:104AF000F92FF11D677021E030E001C0220F6A95A7
:104B0000EAF78281822B82830895E62FE695E69567
:104B1000E695EE3170F4E80FF92FF11D677021E092
:104B200030E001C0220F6A95EAF7209582812823A0
:104B30002283089520912F01222329F02091EB0355
:104B400027FD0C9471250C944A2520912F012223D6
:104B500029F02091EB0327FD0C9485250C94642506
:104B6000FC01329680912F01882351F08091EB0354
:104B700087FF06C08EE1DF011D928A95E9F708954F
:104B800086E0F9CF08950C94C225811105C081E01B
:104B90008093C4030C94C32582E0FACF83E0809312
:104BA000C4030C94C3250C94C52581E08093C403F1
:104BB0000C94C3250C94D525089508950C94DD25F7
:104BC000089508950C94DC25CF930E94E0250E945F
:104BD0009B130E94E125C0E08C2F0E94B612672B28
:104BE000682B692B31F4CF5FC530B1F780E0CF91EE
:104BF000089581E0FCCF08951F921FB61F921124E3
:104C00008F939F93AF93BF938091C503811113C07E
:104C10008091B0049091B104A091B204B091B3041A
:104C20004196A11DB11D8093B0049093B104A0934F
:104C3000B204B093B304BF91AF919F918F911F9035
:104C40001FBE1F9018958091B804843031F10E94E6
:104C50000F051092C50388E190E020E40FB6F894A8
:104C6000A895809360000FBE2093600083B7817F7A
:104C7000846083BF83B7816083BF7894889583B74E
:104C80008E7F83BF0FB6F894A895809160008861ED
:104C900080936000109260000FBE08950E94BE09CC
:104CA0000C94150582E084BD93E095BD9AEF97BD05
:104CB00080936E0008952FB7F8948091B00490917E
:104CC000B104A091B204B091B3042FBF08952FB7DF
:104CD000F8946091B0047091B1048091B204909105
:104CE000B3042FBF08959C014FB7F8948091B0048E
:104CF0009091B104A091B204B091B3044FBF821B54
:104D0000930B089578941F921FB61F9211248F93CE
:104D10009F93AF93BF938091B0049091B104A09101
:104D2000B204B091B3040196A11DB11D8093B004EB
:104D30009093B104A093B204B093B304BF91AF9128
:104D40009F918F911F901FBE1F90189581E08093B7
:104D5000E00080E28093D8001092C9008FE19EE4C9
:104D60000197F1F700C0000087E090EBDC01809331
:104D7000C1049093C204A093C304B093C40488E117
:104D80009CE00FB6F894A895809360000FBE9093B6
:104D90006000FFCF8091E903089508959C0184E0AD
:104DA0008093E9009FEF8091E800915085FD06C057
:104DB00085ED8A95F1F700009111F5CF8091E8001B
:104DC00085FF0CC050E040E066E070E0C9010E9441
:104DD00072298091E8008E778093E8000895CF9340
:104DE000DF93EC0180912F018823B1F18091EB03D7
:104DF00087FF32C060E284E08093E9008FEF9091FA
:104E0000E800815095FD06C095ED9A95F1F70000F8
:104E10008111F5CF8091E80085FF1BC080912F01A3
:104E200070E050E040E0811104C050E040E068E0F4
:104E300070E0CE010E9472298091E8008E77809305
:104E4000E80080E2FE01A9ECB3E001900D928A95A2
:104E5000E1F7DF91CF91089568E081E0CDCF8093B5
:104E6000C6037093C8036093C7038091B80484306D
:104E7000F9F48093E9008FEF9091E800815095FD5F
:104E800006C095ED9A95F1F700008111F5CF80915C
:104E9000E80085FF0DC050E040E063E070E086EC84
:104EA00093E00E9472298091E8008E778093E80059
:104EB0000895BC0184E00C942F27BC0183E00C947E
:104EC0002F27CF93FC01603221F58091B804843004
:104ED00001F5C091E900CF702091EC00922F917004
:104EE00020FD90E8C92B82E08093E9008091E800E2
:104EF00080FF0CC050E040E060E270E0CF010E9413
:104F000072298091E8008E778093E800CF70C0937B
:104F1000E900CF9108958091B704811109C00E94E2
:104F2000512B0E94AE2B8091E20084608093E200BE
:104F300008951092B70408950C94D5256091B40497
:104F400081E0611101C080E00C94CE259091B804FD
:104F500081E0943009F080E06091B4040C94D32592
:104F600042E061EC81E00E94CD2A42E261EC84E003
:104F70000E94CD2A42E261EC82E00E94CD2A42E208
:104F800060EC83E00E94CD2A9091B80481E09430D7
:104F900009F080E06091B4040C94C5258091BA04B6
:104FA000833009F462C030F48130D9F1823009F4E1
:104FB0009EC008958A3009F48AC08B3009F470C00D
:104FC000893009F051C08091B904813209F04CC098
:104FD0008091BD049091BE04009719F0029709F0EA
:104FE00043C08091E800877F8093E8008091E800CB
:104FF00082FF36C09091F3008091F200029731F465
:105000008091F100813011F0863021F48091F1001F
:105010008093E9038091E8008B778093E8000C94FB
:10502000012B8091B904813AF9F48091E800877FDF
:105030008093E8008091BD049091BE04892B61F4B7
:1050400060E289EC93E070E00E94102A8091E80011
:105050008B778093E800089560E090E080E0F3CFE4
:105060008091B8048111C2CF08958091B904813A2A
:10507000D9F78091BD049091BE04892BA9F7809146
:10508000E800877F8093E8008091E80080FFFCCFF4
:1050900080912F018093F1008091E8008E77BDCF41
:1050A0008091B904813201F78091BD049091BE04D2
:1050B000892BD1F68091E800877F8093E8000E94D9
:1050C000012B8091BB0480932F010C94BE09809129
:1050D000B904813249F68091E800877F8093E80027
:1050E0000E94012B8091BC048093EA030895809173
:1050F000B904813A09F0B8CF8091E800877F8093A6
:10510000E8008091E80080FFFCCF8091EA03C2CFE5
:1051100084B7877F84BF0FB6F894A895809160000C
:10512000886180936000109260000FBE80E890E07C
:105130000FB6F89480936100909361000FBE0C94B9
:10514000DA250E94512B0E94AE2BE2EEF0E0808126
:105150008460808378940C94372E83E291E00C94E1
:10516000A1248091B8048530A9F48091B8048530D9
:1051700011F00C944E260E9423268091B6048823B9
:10518000A1F30E94E425882381F30E945C290E94F8
:10519000BE09EBCF0895CF93DF93CDB7DEB7A097CD
:1051A0000FB6F894DEBF0FBECDBF8091B804843037
:1051B00009F583E08093E9008091E80082FF1AC03E
:1051C0008091E80090E085FF09C050E040E060E297
:1051D00070E0CE0101960E94C12991E08091E80023
:1051E0008B778093E800992329F060E2CE01019645
:1051F0000E942420A0960FB6F894DEBF0FBECDBF4C
:10520000DF91CF9108950C940529292F332723305E
:10521000310521F168F42130310509F443C0223011
:10522000310509F444C090E080E030E020E026C081
:105230002132310551F122323105A9F76330710570
:1052400090F7FB01EE0FFF1FEA52FE4F20813181E4
:105250006D527E4FFB01808190E010C09927813014
:10526000910581F0009729F00297E9F6EEE1F6E06A
:1052700002C0EAE4F6E0849190E09F01FA013183F4
:1052800020830895E2E3F6E0F6CF6330710558F627
:10529000660F771FFB01E452FE4F2081318189E0C8
:1052A00090E0ECCF82E190E029EA36E0E7CF8BE5B1
:1052B00090E02EE436E0E2CF80E189BD82E189BD55
:1052C00009B400FEFDCF8091D8008F7D8093D80077
:1052D0008091E00082608093E0008091E00081FD99
:1052E000FCCF0895AF92BF92CF92DF92FF920F93BF
:1052F0001F93CF93DF936C01EB018A010E94202B57
:10530000F82E811123C00115110539F0F8018081B3
:105310009181C81BD90BC80ED91EB12CA12C209786
:10532000A9F08091E80085FD22C08091E8008E7789
:105330008093E80001151105A1F0F80180819181A9
:10534000A80EB91EB182A08285E0F82E8F2DDF91C4
:10535000CF911F910F91FF90DF90CF90BF90AF90B2
:1053600008950E94202B8823D1F2F82EEFCFF6016A
:1053700081916F018093F1002197FFEFAF1ABF0A6F
:10538000CECFAF92BF92CF92DF92FF920F931F9337
:10539000CF93DF936C01EB018A010E94202BF82E42
:1053A000811123C00115110539F0F8018081918127
:1053B000C81BD90BC80ED91EB12CA12C2097A9F05F
:1053C0008091E80085FD22C08091E8008B77809372
:1053D000E80001151105A1F0F80180819181A80E66
:1053E000B91EB182A08285E0F82E8F2DDF91CF917A
:1053F0001F910F91FF90DF90CF90BF90AF900895D5
:105400000E94202B8823D1F2F82EEFCF8091F1005B
:10541000F60181936F012197FFEFAF1ABF0ACECF3C
:10542000FC018091BF049091C00486179707A0F0FB
:105430006115710529F49091E8009E779093E8003A
:1054400090E06115710551F4911108C08091E80058
:1054500082FF34C080E00895BC01F2CF8091B8048F
:105460008823C1F18530C1F18091E80083FD30C00F
:105470008091E80082FDEACF8091E80080FFE1CFD3
:105480008091F3002091F200382F6115710519F019
:105490002830310558F091E02830310509F090E0CE
:1054A0002091E8002E772093E800CBCF8191809364
:1054B000F100615071092F5F3F4FE7CF8091B80431
:1054C000882341F0853041F08091E80083FFBECF12
:1054D00081E0089582E0089583E00895FC018091C1
:1054E000BF049091C00486179707A0F0611571055D
:1054F00029F48091E8008E778093E80090E06115B0
:10550000710551F4911108C08091E80082FF35C007
:1055100080E00895BC01F2CF8091B8048823C9F1DE
:105520008530C9F18091E80083FD31C08091E800A9
:1055300082FDEACF8091E80080FFE1CF8091F30007
:105540002091F200382F6115710519F028303105CE
:1055500058F091E02830310509F090E08091E800A2
:105560008E778093E800CBCF84918093F1003196C1
:10557000615071092F5F3F4FE6CF8091B8048823B7
:1055800041F0853041F08091E80083FFBDCF81E09C
:10559000089582E0089583E00895982F973028F0C9
:1055A0008F708093E90081E008959093E900242FA3
:1055B000762F50E0981731F07091EC002091ED00BB
:1055C0005091F00021FD02C09F5FE8CF3091EB00C9
:1055D0003E7F3093EB003091ED003D7F3093ED0046
:1055E0003091EB0031603093EB007093EC0020932E
:1055F000ED005093F0002091EE0027FDE5CF80E014
:1056000008958091B90487FF13C08091E80082FF5C
:1056100006C08091E8008B778093E80004C08091F9
:10562000B8048111F2CF08958091B8048823D9F38A
:105630008091E80080FFF8CF8091E8008E77ECCF72
:105640002091E4003091E50095E6A9012091EC005D
:10565000822F817020FF06C08091E80080FF06C085
:1056600080E008952091E80022FD1AC08091B804DE
:10567000882389F0853089F08091EB0085FD0FC08B
:105680002091E4003091E50042175307F9F2915060
:10569000E1F684E0089582E0089583E0089581E0D2
:1056A00008950E94BF2B0E94C72BE0EEF0E080819E
:1056B00081608083E8EDF0E080818F77808319BC82
:1056C000A7EDB0E08C918E7F8C9380818F7E80835C
:1056D0001092B70408950F931F93CF93DF930E9406
:1056E000BF2B0E94C72BC8EDD0E088818F778883BD
:1056F00088818068888388818F7D888319BC109217
:10570000B8041092B4041092B6041092B50400EEDE
:1057100010E0F80180818B7F80838881816088839D
:1057200042E060E080E00E94CD2AE1EEF0E080817E
:105730008E7F8083E2EEF0E08081816080838081D3
:1057400088608083F80180818E7F8083888180617A
:105750008883DF91CF911F910F910895E8EDF0E0DC
:1057600080818F7E8083E7EDF0E08081816080839F
:1057700084E082BF81E08093B7040C946B2BE8ED4A
:10578000F0E080818E7F80831092E2000895109275
:10579000DA001092E10008951F920F920FB60F9257
:1057A00011242F933F934F935F936F937F938F9326
:1057B0009F93AF93BF93EF93FF938091E10082FF9C
:1057C0000BC08091E20082FF07C08091E1008B7FD7
:1057D0008093E1000E94362E8091DA0080FF19C08C
:1057E0008091D80080FF15C08091DA008E7F809371
:1057F000DA008091D90080FF96C080E189BD82E106
:1058000089BD09B400FEFDCF81E08093B8040E94F9
:105810008B278091E10080FF19C08091E20080FF1A
:1058200015C08091E2008E7F8093E2008091E200BB
:1058300080618093E2008091D80080628093D800DC
:1058400019BC85E08093B8040E949E278091E100F6
:1058500084FF2BC08091E20084FF27C080E189BDD6
:1058600082E189BD89B5982F917080FFFBCF80912F
:10587000D8008F7D8093D8008091E1008F7E809347
:10588000E1008091E2008F7E8093E2008091E2004F
:1058900081608093E2008091B404882309F449C0B8
:1058A00084E08093B8040E94A6278091E10083FFE2
:1058B00029C08091E20083FF25C08091E100877FAD
:1058C0008093E10082E08093B8041092B404809148
:1058D000E1008E7F8093E1008091E2008E7F8093D3
:1058E000E2008091E20080618093E20042E060E0AB
:1058F00080E00E94CD2A8091F00088608093F000C3
:105900000E949C27FF91EF91BF91AF919F918F9142
:105910007F916F915F914F913F912F910F900FBEAB
:105920000F901F90189519BC1092B8040E949927E7
:1059300070CF8091E30087FD93E09093B804B3CFDC
:105940001F920F920FB60F9211242F933F934F93F4
:105950005F936F937F938F939F93AF93BF93CF93F7
:10596000DF93EF93FF93D091E900DF708091EC001B
:10597000C82FC17080FDC0E81092E9008091F0004E
:10598000877F8093F00078940E94E42C1092E900C5
:105990008091F00088608093F000CD2BCF70C09391
:1059A000E900FF91EF91DF91CF91BF91AF919F916E
:1059B0008F917F916F915F914F913F912F910F90B8
:1059C0000FBE0F901F9018951F93CF93DF93CDB705
:1059D000DEB7AA970FB6F894DEBF0FBECDBF89EB36
:1059E00094E02091F100FC012193CF01F4E0813C8F
:1059F0009F07B9F70E94CE278091E80083FF1EC160
:105A00008091B9049091BA049A3008F017C1E92F37
:105A1000F0E0EE50F04D0C94B62E803899F08238BC
:105A200009F00CC18091BD048F70873008F006C169
:105A30008093E9008091EB0085FB882780F9109224
:105A4000E90006C08091B5049091B604911182607E
:105A50009091E800977F9093E8008093F100109276
:105A6000F1008091E8008E77E5C0882309F4D3C067
:105A7000823009F0E3C08091BB048111D6C08091CF
:105A8000BD048F702FEF280F263008F0D7C0809309
:105A9000E9002091EB0020FFC8C0933031F48091E1
:105AA000EB0080628093EB00C0C09091EB009061AE
:105AB0009093EB0021E030E001C0220F8A95EAF7D5
:105AC0002093EA001092EA008091EB008860EACF10
:105AD0008111B4C01091BB041F778091E3008078DE
