:100000000C94E8030C9420040C9420040C94200419
:100010000C9420040C9420040C9420040C942004D0
:100020000C9420040C9420040C94C32B0C94972C57
:100030000C94F3250C9420040C9420040C942004BC
:100040000C9420040C9420040C9420040C942004A0
:100050000C9420040C9479260C9420040C94200415
:100060000C9420040C9420040C9420040C94200480
:100070000C9420040C9420040C9420040C94200470
:100080000C9420040C9420040C9420040C94200460
:100090000C9420040C9420040C9420040C94200450
:1000A0000C9420040C9420040C94200429003500A6
:1000B0001E001F0020002100220023002400250034
:1000C000260027002D002E002A0049004A001E00AD
:1000D0002B0014001A000800150017001C0018005F
:1000E0000C00120013002F00300031004C004D00B6
:1000F0001F00390004001600070009000A000B0069
:100100000D000E000F003300340028000000000036
:1001100000002000E1001D001B0006001900050082
:10012000110010003600370038000000E100000028
:10013000000000002100E000E300E20000000000F9
:100140002C00000000000000E200E3007600000048
:10015000000000000000010035003A003B003C00B8
:100160003D003E003F00400041004200430044008B
:1001700045004C0049000100010039000100520017
:100180000100010001000100010046004700480095
:1001900052000100010001000100010001005000B7
:1001A00051004F0001000100010001004A004B0016
:1001B00050004F000100000000000000010001009D
:1001C00001000100010001000100010001004D00DB
:1001D0004E0051000000010000004B000000010033
:1001E000010001000100000000000100000000000B
:1001F000000001000100010000004A004E004D0017
:1002000001000100010001000100010001000100E6
:1002100001000100010001000100010001000100D6
:1002200001000100010001000100010001000100C6
:1002300001000100010001000100010001000100B6
:1002400001000100010001000100010001000100A6
:100250000100010001000100010001000100010096
:100260000000000000000100010001000100010089
:100270000100010001000100010001000100000077
:100280000100000001000000010001000100010068
:10029000000000000100000000000000010001005B
:1002A0000100000001000100010001000100010047
:1002B0000100010001000100010001000100010036
:1002C0000100010001000100010001000100010026
:1002D0000100010001000100010001000100010016
:1002E0000100010001000100010001000100010006
:1002F00001000100010001000100010001000100F6
:1003000001000100010001000100000000000000E8
:1003100001000100010001000100010001000100D5
:1003200001000100010001000000010000000100C7
:1003300000000100010001000100000000000100B8
:1003400000000000000001000100010000000100A9
:100350000100010000000000000000002A2B28001E
:100360000000000000000000000000000000002964
:10037000000000002C1E3420212224342627252EA4
:10038000362D3738271E1F202122232425263333DC
:10039000362E37381F0405060708090A0B0C0D0E08
:1003A0000F101112131415161718191A1B1C1D2FD4
:1003B0003130232D350405060708090A0B0C0D0EF4
:1003C0000F101112131415161718191A1B1C1D2FB4
:1003D0003130354C0000000000000000000000003B
:1003E000000000000000000000000000000000000D
:1003F00000000000000000007E0F00D4FFFFFFC7D8
:10040000000000781E0F0500047F3F1F6432146453
:100410003214783C1E1E140A052223252628292A78
:100420002C2D2F3032333536383A3B3D3E40424357
:100430004547494A4C4E5051535557595A5C5E6096
:1004400062646668696B6D6F71737577797B7D7FA8
:1004500081838587898A8C8E90929496989A9C9EA7
:100460009FA1A3A5A7A8AAACAEAFB1B3B4B6B8B9C3
:10047000BBBCBEBFC1C2C3C5C6C7C9CACBCCCDCE2B
:10048000D0D1D2D2D3D4D5D6D7D7D8D9D9DADADB0E
:10049000DBDBDCDCDCDCDCDDDDDDDDDCDCDCDCDC9A
:1004A000DBDBDBDADAD9D9D8D7D7D6D5D4D3D2D2D9
:1004B000D1D0CECDCCCBCAC9C7C6C5C3C2C1BFBEC1
:1004C000BCBBB9B8B6B4B3B1AFAEACAAA8A7A5A32C
:1004D000A19F9E9C9A98969492908E8C8A898785EB
:1004E00083817F7D7B79777573716F6D6B696866CA
:1004F0006462605E5C5A5957555351504E4C4A499C
:1005000047454342403E3D3B3A3836353332302F43
:100510002D2C2A292826252322FFAA7F55400001B9
:1005200001010101010101010202020202020202B3
:100530000203030303030303030404040404040485
:100540000505050505060606060607070707070849
:10055000080808090909090A0A0A0B0B0B0C0C0CFC
:100560000D0D0D0E0E0E0F0F0F1010111111121296
:1005700013131414151516161717181819191A1A13
:100580001B1B1C1D1D1E1E1F202021222223242474
:10059000252626272829292A2B2C2D2D2E2F3031B0
:1005A0003232333435363738393A3B3C3D3E3F40C2
:1005B0004142434445464748494A4C4D4E4F5051AD
:1005C0005354555658595A5B5D5E5F616264656667
:1005D00068696B6C6D6F7072737577787A7B7D7EEE
:1005E0008082838587888A8C8E8F91939596989A3E
:1005F0009C9EA0A2A3A5A7A9ABADAFB1B3B5B7BA56
:10060000BCBEC0C2C4C6C9CBCDCFD1D4D6D8DBDD29
:10061000DFE2E4E7E9EBEEF0F3F5F8FAFDFF0E03B5
:100620004800410044004F004F00500000001603F6
:1006300071006D006B006200750069006C00640061
:100640006500720000000403090409025B00030155
:1006500000A0FA09040000010301010009211101B1
:100660000001224000070581030800010904010080
:1006700002030000000921110100012222000705E8
:100680008203200001070503032000010904020082
:10069000010300000009211101000122B600070535
:1006A00084032000011201000200000008DD0CDAC2
:1006B0000D0100010200010660FF0961A10109624C
:1006C000150026FF00952075088102096315002694
:1006D000FF00952075089102C005010902A101855E
:1006E000020901A100050919012908150025019534
:1006F00008750181020501093009311581257F95B1
:10070000027508810609381581257F9501750881D4
:1007100006050C0A38021581257F950175088106AA
:10072000C0C005010980A101850319012AB7001580
:100730000126B700950175108100C0050C0901A1C3
:1007400001850419012AA002150126A00295017550
:10075000108100C005010906A1018506050719E001
:1007600029E7150025019508750181020507190083
:1007700029EF1500250195F0750181020508190181
:100780002905950575019102950175039101C00533
:10079000010906A101050719E029E71500250195C2
:1007A0000875018102950175088101050719002965
:1007B000FF150026FF009506750881000508190140
:1007C0002905950575019102950175039101C000F8
:1007D00011241FBECFEFDAE0DEBFCDBF04B603FEAB
:1007E00018C08091710390917203A0917303B0912E
:1007F00074038730904BA740B04B59F410927103AB
:10080000109272031092730310927403E0E0F8E305
:10081000099511E0A0E0B1E0EAECFFE502C0059027
:100820000D92A23EB107D9F723E0A2EEB1E001C0DC
:100830001D92A137B207E1F70E942C140C94BA2F35
:100840000C94000081E0089581E008950C94240444
:1008500008950C9428041F93CF93DF9300D000D009
:100860000F92CDB7DEB749835A836B833091E50190
:1008700089819A8131111DC06623B9F02223A9F024
:100880000E94B70A182F682F89819A810E94630AF3
:1008900069817A81812F0F900F900F900F900F90A8
:1008A000DF91CF911F910C94E0220E948F0A182FA4
:1008B000EFCF0E94B70A69817A81EDCFFC01262F24
:1008C000408151816281738184810C942B0481E089
:1008D0000895CF93DF93EC0160E00E945E04BE01B7
:1008E000DF91CF910C942904E1E0F0E0DF0102C038
:1008F000AA0FBB1F6A95E2F7BD01DF0102C0AA0F74
:10090000BB1F4A95E2F76A2B01C0EE0F2A95EAF762
:10091000962F9823961302C08E2B0895E0958E2370
:100920000895242F462F682F809107020E94740497
:100930000C94200A0C94AF120C94B21208950E94E9
:10094000BC090E949E042FEF84E39CE0215080406C
:100950009040E1F700C000000C949D260F931F9378
:10096000CF93DF938C0161E00E945E04EC01B8013B
:100970000E94891F882309F441C0B801CE010E945A
:1009800026048823D9F1B801CE010E94412488238E
:10099000A9F1B801CE010E94DB20882379F1B801CA
:1009A000CE010E94AB23882349F1B801CE010E94F9
:1009B000311E882319F1F8018281882361F0CA353C
:1009C000FDE5DF0721F170F4C115ECE5DE07A1F0CC
:1009D000CE3DDC45C9F0C801DF91CF911F910F9149
:1009E0000C942204CB358DE5D807A1F0CC35DD453C
:1009F00091F70E94D70EEFCF0E949F0480E0DF9115
:100A0000CF911F910F9108950E94900FF7CF0E94F0
:100A1000E00EE1CF0E94E30EDECF0E94D5250E94BA
:100A2000FA050C949E1C0E94FD050E946A1D0C9400
:100A3000D925DF92EF92FF920F931F93CF93DF930D
:100A4000E82FF0E0EC5AFC4FD490282F26952695FD
:100A5000269530E0F901EC50FC4F0491877010E0CE
:100A6000082E02C0159507950A94E2F70170112728
:100A7000F901EC51FC4FE490F12C082E02C0F594E2
:100A8000E7940A94E2F791E0E922FF24F901EC529D
:100A9000FC4FC491D0E002C0D595C7958A95E2F786
:100AA000C170DD270115110519F081EE0E944F0676
:100AB000E114F10419F086EE0E944F068D2D0E947C
:100AC0004E07EF2819F086EE0E94E106012B19F07F
:100AD00081EE0E94E106CD2B51F08CE2DF91CF91A7
:100AE0001F910F91FF90EF90DF900C944E07DF91D4
:100AF000CF911F910F91FF90EF90DF900895EF92AB
:100B0000FF920F931F93CF93DF93EC01162F0AE010
:100B10008881882309F454C0813009F04EC089814E
:100B2000813099F47E0122E0E20EF11C8A810E945C
:100B30004E07E7012196812F815050F3EFE9FFE046
:100B40003197F1F700C00000F7CF823041F47E0109
:100B500082E0E80EF11C8A810E944F06EACF8330C2
:100B600041F47E01E2E0EE0EF11C8A810E94E10672
:100B7000E0CF843011F02196DDCF2A81229690E0DB
:100B800080E0AE014F5F5F4F2053330B2A303105B9
:100B900048F0019778F2EFE9FFE03197F1F700C0F4
:100BA0000000F7CF089FB001099F700D1124C90103
:100BB000860F971F2981EA01E4CF0E941905BACF59
:100BC000DF91CF911F910F91FF90EF90089560E01A
:100BD0000C947F0508950C94EA0581E008950C9427
:100BE000ED050895CF93C82F0E94EB058C2FCF9170
:100BF0000C94EF0580E00C94F2050E949D240C9467
:100C0000F2050E949D249091E401981721F08093B1
:100C1000E4010C94F2050895CF93DF93CDB7DEB7CE
:100C20002B970FB6F894DEBF0FBECDBF4F8358870A
:100C300069877A878B8761110E94250E1E821D822B
:100C400085E0FE013796DE01119601900D928A959E
:100C5000E1F78C819D81892B89F449815A816B81CF
:100C60007C818D819E810E94460D2B960FB6F89453
:100C7000DEBF0FBECDBFDF91CF91089589819A81EC
:100C800089238F3F51F3CE0101960E9467048111A1
:100C9000E4CFEBCFFC01808191810C94E40ACF93E7
:100CA000C82F882309F48BC08238C1F40E949D2488
:100CB00081FD85C089E30E94E00D0E94450E2FEF63
:100CC00081EE94E0215080409040E1F700C00000A8
:100CD00089E30E94E70DCF910C94450E8338A1F46F
:100CE0000E949D2480FD6BC083E50E94E00D0E9460
:100CF000450E2FEF81EE94E0215080409040E1F7C7
:100D000000C0000083E5E5CF8438A1F40E949D2453
:100D100082FD55C087E40E94E00D0E94450E2FEF32
:100D200081EE94E0215080409040E1F700C0000047
:100D300087E4CFCF8CEF8C0F813A90F46C2F8091A9
:100D40000601909107010E941125882329F08C2F1C
:100D50000E94E70D0E94450E8C2F0E94E00DBBCF34
:100D600080E28C0F883048F4C77081E001C0880FA2
:100D7000CA95EAF70E94080EAECFEBE5EC0FE33020
:100D800040F4F0E0E25AFE4F808190E0CF910C9465
:100D9000D124E8E5EC0FE73150F4F0E0EE0FFF1F4F
:100DA000E05DFE4F80819181CF910C94E724C03F9C
:100DB00030F08C2F0E94B014CF910C948315CF91FA
:100DC0000895882309F452C0823871F40E949D244A
:100DD00081FF4CC089E30E94E00D0E94450E89E32B
:100DE0000E94E70D0C94450E833859F40E949D240F
:100DF00080FF3CC083E50E94E00D0E94450E83E524
:100E0000EFCF843859F40E949D2482FF2FC087E4DD
:100E10000E94E00D0E94450E87E4E2CF9CEF980F00
:100E2000913AF0F290E2980F983050F4877091E088
:100E300001C0990F8A95EAF7892F0E940E0ED2CF32
:100E40009BE5980F933020F490E080E00C94D1243F
:100E500098E5980F973120F490E080E00C94E72417
:100E6000803F20F00E940A150C94831508951F936B
:100E7000CF93DF93182FEB010E944F06209731F498
:100E8000812FDF91CF911F910C94E1068FE99FE0B4
:100E90000197F1F700C000002197F0CF70E060E00B
:100EA000893311F460E570E00C943707882321F052
:100EB0000E94080E0C94450E0895882321F00E948C
:100EC0000E0E0C94450E0895BF92CF92DF92EF92D2
:100ED000FF920F931F93CF93DF936C01D62FC72FF1
:100EE000FC011281F580F2949FE0F9220E94FE0D30
:100EF000E82E8823B9F0E12E1123A1F08C2F807FFA
:100F0000803421F080E28D0F8830D0F080911A0378
:100F100082FD16C082E00E94A60E0E94FE0D91E0A6
:100F2000E82EE926BC2EB2948FE0B822FBE0FB1538
:100F300008F468C0EB2DF0E0E454F04D0C949F2EC3
:100F4000E12CF0CF0C2F0F70C07F11F00295007FC5
:100F5000112399F0002359F080E28D0F883010F0B2
:100F6000D11107C0802F0E94080E0E94450E8D2FC0
:100F700041C0802F0E94180EF8CF8D2F0E94E106ED
:100F8000002309F43FC080E28D0F883010F0D111AA
:100F900004C0802F0E940E0E03C0802F0E941E0EE0
:100FA0000E94450E2FC00C2F0F70C07FC03211F071
:100FB0000295007FDD2381F0D13009F469C011234F
:100FC00009F473C0FF2009F469C0F601858180FF30
:100FD000CECF8F70858362C080911A0382FF38C0A4
:100FE000112359F0002329F0802F0E94080E0E943F
:100FF000450E80E00E944F0605C080E00E94E10699
:101000000111C7CFEB2DE850FF0B349720F40E945D
:101010009D240E94F205EE2009F44DC10E94FA0DB4
:1010200080FD49C1F60112820E94F40D0E94310A2E
:10103000C6010E947C090E94F40DDF91CF911F919F
:101040000F91FF90EF90DF90CF90BF900C943C0AEF
:10105000112389F0F11006C00E94280E802B0E94F7
:101060005607D0CF21E0F212F7CF0E94280E802B36
:101070000E942E0EC7CFF11006C00E943B0E802F9B
:101080000E945D07BFCF31E0F31609F4BBCFF5CF67
:10109000112331F085E08F1508F4B4CF802FDFCF16
:1010A00094E09F1508F4AECFEACFFF2041F3D93387
:1010B00049F4FFEF27EE33E0F15020403040E1F7F4
:1010C00000C000008D2F0E94E1069CCF8C2F8695DA
:1010D0008695837069F0813009F094CF8D2F9C2F15
:1010E0009370111102C090E080E00E94E7248ACF43
:1010F0008D2F9C2F9370111102C090E080E00E9410
:10110000D12480CF8D2F112329F00E94B0140E948A
:10111000831578CF0E940A15FACF8C2F837079F54A
:10112000111170CF4D2F429546954770440F440FD3
:101130008D2F8F70042E01C0880F0A94EAF72D2F8F
:101140002071D4FF07C02FE030E001C0220F4A9584
:10115000EAF72095C695C695C370822BC23049F038
:1011600058F4C13019F00E94120A4CCF0E940D0AA7
:1011700049CF0E94170A46CF0E940B0A43CF86959B
:10118000112311F08C2F8170882309F43BCF4D2F50
:10119000429546954770440F440F8D2F8F70042E53
:1011A00001C0880F0A94EAF72D2F2071D4FF07C0E1
:1011B0002FE030E001C0220F4A95EAF72095C6954E
:1011C000C695C370822BC23049F058F4C13019F073
:1011D0000E94580A17CF0E94530A14CF0E945D0A3A
:1011E00011CF0E94200A0ECFCF70112329F08C2F2F
:1011F0000E94310A8D2F33CF8D2F0E945D078C2FD7
:101200000E943C0AFFCED23F51F160F4D03FB9F0CA
:10121000D13F81F0112309F449C0F110A8CE8C2FE1
:101220008F7121C0D33F11F1D43FA1F780911A03F0
:1012300082FF26C08C2F8F71112311F314C011234C
:1012400049F084E08F1508F4DDCE8C2F8F710E9459
:10125000480AD8CE95E09F1508F4D4CEF6CF8C2F4F
:101260008F711111CDCF0E94310ACCCE112329F0FC
:101270008C2F8F710E94290AC5CE0E94260AC2CEE9
:10128000112349F0CF718C2F0E94310A63E08C2F1B
:101290000E948B0EB7CE81E00E94A60EE1E0EF1512
:1012A00008F0B0CE82E00E94A60EACCEF110FFCEC8
:1012B0008C2F8F71A5CFDF91CF911F910F91FF9050
:1012C000EF90DF90CF90BF9008950F931F93CF932F
:1012D000DF93EC01688179818A810E94EE0A8C019A
:1012E0000E94620A0E940A0AB801CE01DF91CF91E2
:1012F0001F910F910C946407CF93DF93EC018B81C6
:101300009C81892B29F08881998189238F3F59F409
:10131000DF91CF910895CE010E946509CE01DF9142
:10132000CF910C946904CE010E94AE048111F3CFD9
:101330000E94FE0D882361F38A81882349F38091FE
:101340001A0382FDE5CF82E0DF91CF910C94A60EC7
:1013500090E080E00E94D12490E080E00E94E724A9
:101360000E94250E0E94450E0E94AA160C94831519
:101370000E94EE0D0C94A8090E94150E0C94B80959
:1013800092959F70963091F058F4925F9F709230D2
:1013900058F4803F19F030F4883E30F481E008952D
:1013A0009A5FF4CF843FD1F380E00895883EB0F394
:1013B000813FD1F7F3CFFC01808191810E94E40A43
:1013C0000C94C009CF93DF9300D000D00F92CDB71B
:1013D000DEB70F900F900F900F900F90DF91CF918D
:1013E0000895CF93DF9300D000D000D0CDB7DEB703
:1013F00026960FB6F894DEBF0FBECDBFDF91CF911A
:10140000089508950C94010A0E94020A809308022C
:101410000C94A80908950C94040A90910802892B51
:101420000C94040A9091080289230C94040A909168
:10143000080289270C94040A0C94010A0C941C0AD3
:101440000E941E0A809307020C94A80980E00C9465
:10145000200A91E001C0990F8A95EAF7892F0C9430
:10146000200A21E030E001C0220F8A95EAF780913E
:101470000702822B0C94200A21E030E001C0220FE9
:101480008A95EAF720958091070282230C94200A1E
:1014900021E030E001C0220F8A95EAF7809107022F
:1014A00082270C94200A90910702892B0C94200A21
:1014B0009091070289230C94200A909107028927B2
:1014C0000C94200A089521E1929F800D1124982FF9
:1014D000977041E001C0440F9A95EAF7869586958A
:1014E000869593E0899FF0011124EA51FE4F90E028
:1014F00080E070E05191DF0111979B01082E02C03E
:10150000369527950A94E2F7217021952527242303
:1015100025272C9301968330910561F7089521E1E9
:10152000929F800D1124982F9770869586958695A9
:1015300023E0829FF0011124EA51FE4F50E040E089
:1015400080E0219130E0092E02C0369527950A945B
:10155000E2F721703327042E01C0220F0A94EAF724
:10156000822B4F5F5F4F4330510559F70895CF925B
:10157000DF92FF920F931F93CF93DF936C01009143
:10158000070280910802082BC7E0D0E010E0FC2E93
:10159000C8010C2E02C0959587950A94E2F780FD4C
:1015A0000CC02197A0F7F12C8F2DDF91CF911F91C7
:1015B0000F91FF90DF90CF900895B6018C2F0E947D
:1015C0009911019771F3F0CFCF93DF93EC010E9453
:1015D000B70ABE01DF91CF910C9499111F93CF935D
:1015E000DF93EB019091E501992331F0CB01DF917D
:1015F000CF911F910C94E40A882379F0CB010E94CB
:10160000B70A182F682FCE010E94630ABE01812FEE
:10161000DF91CF911F910C949911CB010E948F0AF9
:10162000182FF4CF1F93CF93DF93C091090216E0D8
:1016300080910A028C1304C0DF91CF911F9108950D
:10164000D0E01C9FF0011D9FF00D1124E55FFD4FC0
:101650004081518162817381848195810E94F10969
:101660002196C770E5CF40913B0250913C026091BA
:101670003D0270913E0280913F02909140020C9495
:10168000F109FF920F931F93CF93DF938091400254
:10169000807FD1F480913D028823B1F080910902CE
:1016A00010910A0260913B0270913C02A0913E02AF
:1016B000B0913F02062F0723C0910401D09105018C
:1016C00096E0F92E181306C0DF91CF911F910F916C
:1016D000FF90089590E0109711F00F3F19F40196D4
:1016E0008770F0CFF89E9001F99E300D1124F9011A
:1016F000E55FFD4F41814713F2CF40814613EFCFA5
:1017000042814111ECCF438154814A1B5B0B4C1742
:101710005D0728F7809140028F70806180934002BE
:10172000F901E05FFD4F80818F70806180838BE3E2
:1017300092E00E947C09DF91CF911F910F91FF9061
:101740000C94120BAF92BF92CF92DF92EF92FF9266
:101750000F931F93CF93DF93CDB7DEB761970FB68B
:10176000F894DEBF0FBECDBF8C0185E0F801DE012D
:101770001D9601900D928A95E1F7F801E2808BE3C6
:10178000C82E82E0D82E60913E0270913F02611512
:10179000710509F45FC190913B0220913C02892FB1
:1017A00082238F3F09F456C140815181A380B480C8
:1017B000F0903D02F501E61BF70BBF01E09104013B
:1017C000F0910501FF2009F4F6C080914002382F06
:1017D000307F6E177F0708F0AFC0311179C0FE2C43
:1017E000251323C0941321C0E1101FC08F708061A6
:1017F000809340020E94330BC6010E947C098091B5
:101800004002F80185838F2D61960FB6F894DEBFF4
:101810000FBECDBFDF91CF911F910F91FF90EF9041
:10182000DF90CF90BF90AF900895AB2829F0842F20
:1018300085238F3F09F027C180E0F82FF170DF2E5C
:1018400080FF3CC08091090220910A0236E0821399
:1018500015C04D875E878D859E850E94E40A292FDD
:1018600022952F702230F0F0243018F59F70F1F09F
:10187000F8019581907FD1F4D12C1EC090E0389F63
:10188000F001399FF00D1124E55FFD4F6181651373
:1018900006C06081641303C062816E110FC001969F
:1018A0008770D5CF9F7011F0882331F3805E883028
:1018B00018F3C8010E947C09FD2CA5CFEE2009F485
:1018C000A2CF80914002816080934002F12C9BCF97
:1018D000251306C0941304C0F801EE2009F487C054
:1018E000C8010E94DB09882319F1EE2009F18091DB
:1018F0004002803270F020913B0230913C023887E8
:101900002F831986BB86AA868C87CE0107960E94F4
:101910007C0986E0F801ABE3B2E001900D928A9574
:10192000E1F70E94410B0E94330BFF24F3946BCF2D
:10193000C8010E947C09F9CF311113C07A2DB98AF0
:10194000A88A6E2D89890E94E2098BE392E00E94A9
:101950007C0986E0F60111928A95E9F70E94330B23
:10196000B5CF25130FC094130DC0E1100BC0F801C3
:101970008583C8010E947C0986E0F60111928A9550
:10198000E9F741CFC8010E94DB09882389F2EE20E4
:1019900079F280914002803208F4BBCF20913B0263
:1019A00030913C023A8329831B82BD82AC828E83B4
:1019B000CE010196ACCF6E177F0708F03EC0FE2C1B
:1019C000EE2009F4B5CF25132AC0941328C08091C6
:1019D000400280FD1BC0982F907FC1F0F8018583E5
:1019E000903F31F0982F907F905F8F70892B858387
:1019F000C8010E947C0986E0F801ABE3B2E00190E7
:101A00000D928A95E1F70E94330BFDCE86E0F80136
:101A1000ABE3B2E001900D928A95E1F7F4CEC801F4
:101A20000E94DB09811175CF809140028160809313
:101A30004002C8010E947C09E6CE7A2DB98AA88AA4
:101A40006E2D89890E94E20986E0F60111928A953D
:101A5000E9F7D9CFEE2009F46BCFC8010E94DB096A
:101A6000F82E882309F464CF86E0F801ABE3B2E0F6
:101A700001900D928A95E1F78BE392E00E944A066D
:101A80000E94410BC0CF81E08E25D7CE1F93CF930C
:101A9000DF93CDB7DEB72C970FB6F894DEBF0FBE3D
:101AA000CDBF4F83588769877A878B879C87CE0104
:101AB00007960E94A20B882369F08A859B85892B53
:101AC00039F04F815885842F85238F3F09F071C0ED
:101AD00016E05FC086E0FE013796DE0111960190A8
:101AE0000D928A95E1F78A859B85892B89F38F81F1
:101AF000988589238F3F61F320910A0230E0C90164
:101B0000019687709927409109024817190671F4C8
:101B10000E94BC0910920A021092090286E0EBE3CF
:101B2000F2E0DF011D928A95E9F7D2CF96E0929F0D
:101B3000D001939FB00D1124A55FBD4FFE013196DA
:101B400001900D929A95E1F780930A020E94120B80
:101B5000BFCF819FC0011124855F9D4F0E94A20BC2
:101B60008823E9F0E09109021E9FF0011124E55F4E
:101B7000FD4F4081518162817381848195810E94F2
:101B8000F1098091090290E001968770992780936E
:101B900009028091090290910A028913DACF2C96EA
:101BA0000FB6F894DEBF0FBECDBFDF91CF911F916E
:101BB000089569857A858B859C850E94F10988CF77
:101BC000682F80910601909107010C949125682F50
:101BD00080910601909107010C949C25809106014B
:101BE000909107010C94A7258091610285958595B8
:101BF00085950895809161028770089590916102A2
:101C0000977081E009F480E008958091840208953E
:101C100090918402892B80938402089580959091FD
:101C20008402982390938402089510928402089568
:101C300090918302892B80938302089580959091DF
:101C4000830298239093830208951092830208954B
:101C500080916202089508950C942B0E90911A03BE
:101C600092FD08C090916202981721F08093620261
:101C70000C942C0E089580916202882329F0109212
:101C8000620280E00C942C0E0895CF93DF93E091D4
:101C90000601F0910701809184028083E0910601A2
:101CA000F0910701808190918302892B808390912C
:101CB0006202992381F0E0910601F0910701808191
:101CC000892B808380910601909107010E94FD2459
:101CD00081110E943B0EC0910601D091070140E2A4
:101CE00050E061E472E0CE010E94462F892B69F03A
:101CF00080E2FE01A1E4B2E001900D928A95E1F745
:101D0000CE01DF91CF910C94A924DF91CF9108955A
:101D100008950C94880E90911A0392FD10C098E0DB
:101D2000899F90011124622B609361020E94310A05
:101D3000809161028595859585950C94890E0C940A
:101D4000310A1092610280E00C94890E9091610238
:101D50008095892380936102282F277091F4282F82
:101D6000082E000C330B9217130659F090911A03AA
:101D700092FD07C08595859585950E943C0A0C9437
:101D8000A10E089590911A0392FB222720F928179B
:101D900069F080FB92F990931A0380911903909156
:101DA0001A030E940D0F82E00C94A60E08958091F4
:101DB0001A0382FB882780F991E089270C94C20ED0
:101DC00081E00C94C20E80E00C94C20E6FEF7FEFA6
:101DD00090E080E00C94852F90E080E00E94612FDD
:101DE000893E9E4F11F40C94271F80E0089582E0F5
:101DF00090E00C94532F83E090E00C94532FCF93FA
:101E000084E090E00E94532FC82F82E290E00E946D
:101E1000532F982F8C2FCF910895CF93C92F682FD0
:101E200084E090E00E94672F6C2F82E290E0CF91D7
:101E30000C94672FAB01BC018FE090E00C94792FDC
:101E4000AB01BC0183E190E00C94792F60E070E07D
:101E5000CB010C94200F60E070E0CB010E941A0FC0
:101E60000C94260F69EE7EEF90E080E00E94852FB3
:101E700060E082E090E00E94672F60E083E090E005
:101E80000E94672F1092080260E084E090E00E94B8
:101E9000672F60E082E290E00E94672F60E085E0BB
:101EA00090E00E94672F60E086E090E00E94672F3C
:101EB0006FEF87E090E00E94672F40E050E0BA01AA
:101EC00088E090E00E94792F60E08DE090E00E9431
:101ED000672F40E050E0BA0188E190E00E94792F3E
:101EE00060E087E190E00E94672F40E050E0BA0197
:101EF0008CE190E00E94792F70E060E080E290E059
:101F00000E94852F40E050E0BA0188E190E00E94F5
:101F1000792F80E00E94401F0E946D1F0C942B0FB0
:101F20000C94320F682F8EE090E00C94672F0E9483
:101F30005E2660939D0270939E0280939F02909311
:101F4000A0026093990270939A0280939B029093EF
:101F50009C02089585B7806885BF85B7806885BF76
:101F60000895089508950C94B20F08950C94B50F38
:101F70000E94AA0F87E792E10E9493240E94B10F6A
:101F80000C94B30F81E008950C94C20F0895089546
:101F90000E94C60F0C94C70F0E9494120C94F10576
:101FA0000E9449260E947C1F0E9484130E94CC0F2D
:101FB0000E942F1D0C94B60F3F924F925F926F922A
:101FC0007F928F929F92AF92BF92CF92DF92EF92C9
:101FD000FF920F931F93CF93DF93CDB7DEB72A976E
:101FE0000FB6F894DEBF0FBECDBF0E949913882EA6
:101FF00081110E94970F55E8A52E52E0B52E10E0F2
:1020000000E0302E802F0E94B4122B013C01F5011C
:10201000C190D190E190F1905F01C414D504E60421
:10202000F70409F46FC08091A10281FD0E94BF12E4
:10203000D701C60184259525A625B725912CC12C4D
:10204000D12C7601C394AC01BD014C215D216E21E0
:102050007F21452B462B472B09F44CC00E94C40F0F
:102060008823C9F09E823F824C205D206E207F2015
:1020700081E045284628472809F480E088870E94A7
:1020800052268160782F9A8789874E815F81688583
:102090008A850E940C06000F111F000F111FF80106
:1020A000EB57FD4F80819181A281B3818C259D25C5
:1020B000AE25BF2580839183A283B38381E0811005
:1020C00001C080E02A960FB6F894DEBF0FBECDBFE8
:1020D000DF91CF911F910F91FF90EF90DF90CF9004
:1020E000BF90AF909F908F907F906F905F904F9038
:1020F0003F9008959394CC0CDD1CEE1CFF1CF1E185
:102100009F12A1CF0F5F1F4F0530110509F079CF46
:102110008FEF89838A831B820E9452268160782FE9
:102120009D838C8349815A816B818D810E940C062D
:10213000C5CF0E94DC0F0E94731D0E949E150C9457
:102140000106CF93DF930E949D11EC01811521E5DB
:10215000920708F042C0811530E5930708F09DC052
:10216000883E910530F5803E910508F092C0883A8E
:10217000910588F4853A910508F084C08130910575
:1021800009F487C0009709F484C0049708F081C05F
:10219000D0E0C0E07EC08F3B9105D0F7C85AD0E0B8
:1021A000CC0FDD1FCF59DE4F0990D881C02DD464EC
:1021B00070C08115904250F4C11581E0D80708F035
:1021C00068C0C03FD10520F3D06563C0C11590E45D
:1021D000D907F0F2DF70D06A5CC0811525E592075F
:1021E00000F5811534E5930708F08BC0811543E5B0
:1021F000940708F073C0C11582E5D80708F469C0D8
:10220000CE018370992721E030E002C0220F331FF6
:102210008A95E2F7C695C69580E2C89FE001112431
:1022200054C0C11599E5D907A8F4C11528E5D2070E
:1022300008F06CC0C11536E5D30708F0A9CF8C2F84
:102240000E943412C82FD0E0DC2FCC27CC27DF71BE
:10225000D0621FC0C1154AE5D40708F45CC0CE01A6
:1022600090568115904208F093CF8D2F8F710E9468
:10227000341290E0982F882788279F719C012C2B7F
:10228000E901E6CFC55AD0E0C157DE4FC881D0E0A2
:10229000D064CE01DF91CF910895E4E096958795C3
:1022A000EA95E1F783702C2F26952695237040E25E
:1022B000249F90011124382B8C2F8370C1E0D0E033
:1022C00002C0CC0FDD1F8A95E2F7C22BD32BDC684E
:1022D000E0CFDC2FCC27C16FD06ADBCF837099278A
:1022E00021E030E002C0220F331F8A95E2F7C69545
:1022F000C69590E2C99FE0011124C22BD32BDA6866
:10230000C8CFD82FCC27C46FD06AC3CFDC2FCC273F
:10231000C06FD06ABECF8C2F8F700E94341234E011
:10232000D695C7953A95E1F7CF709C2FEC01D0690F
:10233000B0CF0E94E0220C94A11082389105B1F137
:10234000B0F48133910509F475C048F489329105E0
:1023500009F469C08A32910509F473C00895853380
:10236000910509F459C08933910501F10895833E1F
:102370009105A9F138F4803E9105F9F0823E91056E
:1023800049F10895863E9105A9F1873E9105C9F16D
:10239000843E910519F520911A0321FF1FC08091F9
:1023A000190384FD14C087EE90E00895209119036D
:1023B0002370A1F080EE90E008952091190320FD94
:1023C00047C030911A0330FF09C024FF44C090E099
:1023D00080E004C02091190322FDF7CF08952091D9
:1023E000190322FD3BC030911A0330FDE3CF24FFD7
:1023F000F5CFEDCF2091190323FFF0CF24FDE7CFD8
:10240000D2CF2091190323FD2CC030911A0331FF44
:10241000EECF84EE90E008952091190325FFDECFE2
:1024200089E290E008952091190325FFD7CF85E335
:1024300090E008952091190326FFD0CF8AE290E022
:1024400008952091190326FFC9CF81E390E00895F4
:1024500089E390E0089583EE90E0089582EE90E0A5
:10246000089586EE90E008959091190392FF06C0BA
:10247000282F28712830F9F4877F846093FF06C0E5
:10248000282F28712831F1F4877E846120911A0366
:1024900020FF06C0382F38713830D9F4877F81602B
:1024A00021FF06C0282F28712831D1F4877E816151
:1024B00094FD877E0895282F24712430F9F68B7FB0
:1024C0008860DCCF282F2471243101F78B7E88614E
:1024D000DDCF382F3171313019F78E7F8860E0CF32
:1024E000282F2171213121F78E7E8861E1CF80E094
:1024F00008950C94E60E0E9499132FEF86E791E061
:10250000215080409040E1F700C000000E949913E4
:1025100080E00E94B41260FF04C00E9479120C9403
:102520009D2608950C947B120E94EC0E811102C02E
:102530000E94900F0E94F70E8093A1020E94FF0E4E
:1025400090931A03809319030E9492120E94FB0E2B
:102550000E940B0A809107020C941E0A08950C94A5
:10256000AE1208950C94B11294E0899FF0011124E9
:10257000E15DFC4F608171818281938108950895AE
:1025800080EA8A95F1F7089500C008950C94C0126E
:10259000F894E82FE295EF70F0E031A1282F2F702A
:1025A00081E090E001C0880F2A95EAF7982F909576
:1025B000932391A392A1892B82A378940895CF931A
:1025C000DF93C3EAD1E089918F3F11F00E94C812D6
:1025D00081E0C83AD807B9F7C2E9D1E089918F3FC5
:1025E00011F00E94C81281E0C33AD807B9F7DF9111
:1025F000CF9108954F925F926F927F928F929F92A8
:10260000AF92BF92DF92EF92FF920F931F93CF93FF
:10261000DF938C01D62EC62FD0E0CE018D559E4F74
:102620007C01FC0120812F3F09F45EC0F894E22F69
:10263000E295EF70F0E031A12F7081E090E001C0F1
:10264000880F2A95EAF7932F982B91A392A1809552
:10265000892382A378940E94C412E2E9F1E023EA7C
:1026600031E0412C512C32014394812C912C5401A6
:1026700081918F3F89F0A82FA295AF70B0E090961E
:102680004C9150E08F7002C0559547958A95E2F7BE
:10269000D301C20140FF03C080E090E0DC01882A42
:1026A000992AAA2ABB2A440C551C661C771C2E1793
:1026B0003F07F1F6F70180818F3F11F00E94C812A9
:1026C00061E081149104A104B10409F460E08D2D4E
:1026D0000E94C612CC0FDD1FCC0FDD1FC00FD11F13
:1026E00088829982AA82BB82DF91CF911F910F913C
:1026F000FF90EF90DF90BF90AF909F908F907F9072
:102700006F905F904F9008950E94DF1284E1EFE296
:10271000F3E0DF01982F1D929A95E9F7EBE1F3E0E2
:10272000DF011D928A95E9F785E00E94E4130C947D
:102730009A04FF920F931F93CF93DF93CDB7DEB729
:1027400064970FB6F894DEBF0FBECDBF8E010F5F4A
:102750001F4F84E1F80111928A95E9F7F12C6F2D52
:10276000C8010E94FA12F394F5E0FF12F8CF44E199
:1027700050E0B8018BE193E00E94462FFF24F394D0
:10278000009709F4F12C892B41F084E1F801ABE1C9
:10279000B3E001900D928A95E1F72F2D45E06FE2AD
:1027A00073E08BE193E00E94E5130E949C048F2D5F
:1027B00064960FB6F894DEBF0FBECDBFDF91CF9108
:1027C0001F910F91FF9008950895FF920F931F930B
:1027D000CF93DF93F82ED92F8B01C42F222349F0FA
:1027E00081E08093A4020E9452269093A3028093DA
:1027F000A2028091A402882399F08091A202909174
:10280000A3020E946A26059758F0EF2DFD2FD801EC
:1028100090E080E0D0E08C179D0744F01092A40275
:10282000DF91CF911F910F91FF9008950191119128
:10283000219131910D931D932D933D930196EBCFF3
:102840000E9498280E94D00F0C94A4280E94A828C7
:102850000E9499100C94C2280E94F2250E947F28A1
:102860000E94B80F0E9420140E9426140E94C80FD4
:10287000FBCF8091AB0280FF0DC060910D0170E035
:10288000660F771F6038710570F56115710569F184
:10289000862F089581FF07C060910D0184E0689F35
:1028A000B0011124EFCF60910D0182FD0AC080912B
:1028B000AA028823A9F020910C0160910D018217D2
:1028C00010F088E0ECCF869FC001112433E0880F20
:1028D000991F3A95E1F7622F70E00E94692ED2CFDE
:1028E00068E070E0D5CF8FE7089581E0089580918A
:1028F000AB0280FF0CC06091090170E0759567958F
:10290000759567956115710549F1862F089581FFC9
:1029100006C06091090170E075956795F3CF6091ED
:10292000090182FD0BC09091A9029923A1F0609149
:10293000080180910901961738F0682F70E060381F
:10294000710500F38FE70895899FC001112470E09D
:102950000E94692EF4CF61E070E0D7CF81E0089546
:10296000803F31F40E94391481958093AF0208951D
:10297000813F19F40E943914F8CF823F31F40E944C
:10298000391481958093AE020895833F19F40E9413
:102990003914F8CF893F29F40E9477148093B0024C
:1029A00008958A3F21F40E9477148195F7CF8B3FD9
:1029B00031F40E94771481958093B10208958C3F81
:1029C00019F40E947714F8CF9CE0980F953070F4BA
:1029D000845F990B21E030E001C0220F8A95EAF76D
:1029E0008091AD02822B8093AD0208958D3F31F42A
:1029F0008091AB0281608093AB0208958E3F21F4F9
:102A00008091AB028260F7CF8F3FB9F78091AB0224
:102A10008460F1CF4091AE02803F59F48091AF02C3
:102A200087FF0DC01092AF0241110BC01092AA0295
:102A300008C0813F81F48091AF0218169CF34423B3
:102A400081F08091B0029091B102892B09F05AC0B7
:102A50001092A9020895823F49F447FFF0CF1092E7
:102A6000AE028091AF028111ECCFE0CF833F19F429
:102A70001416ACF3E4CF9091B002893F29F41916F3
:102A8000F4F61092B002DBCF8A3F19F497FFD7CF4C
:102A9000F8CF9091B1028B3F29F497FFD0CF1092DD
:102AA000B102CDCF8C3F19F41916CCF3C8CF9CE0FE
:102AB000980F953090F4845F990B21E030E0B901D4
:102AC00002C0660F771F8A95E2F7CB01809590913F
:102AD000AD0289238093AD02B2CF8D3F31F4809156
:102AE000AB028E7F8093AB02AACF8E3F21F4809100
:102AF000AB028D7FF7CF8F3F09F0A1CF8091AB0262
:102B00008B7FF0CF08950E9452269C019091AE02D7
:102B10008091AF02982B21F03093A8022093A70256
:102B20009091B0028091B102982B21F03093A602CF
:102B30002093A5028CEA92E00C94C324EF92FF92BA
:102B40000F931F93CF93DF9300D000D000D0CDB769
:102B5000DEB786E0ECEAF2E0DE01119601900D921C
:102B60008A95E1F7E090AE02F090AF020091B002DA
:102B70001091B1021092AE021092AF021092B00208
:102B80001092B1028E2D8F2991F08091A702909121
:102B9000A8020E946A26AC019091AA02992309F426
:102BA0003FC080910E018417150608F447C0802F9E
:102BB000812B91F08091A5029091A6020E946A2635
:102BC000AC019091A902992309F477C080910A0180
:102BD0008417150608F47FC08091AE029091AF0271
:102BE000892B9091B002892B9091B102892B11F021
:102BF0000E94831586E0FE013196ACEAB2E00190B6
:102C00000D928A95E1F726960FB6F894DEBF0FBEB7
:102C1000CDBFDF91CF911F910F91FF90EF9008955D
:102C200020910F018AE0289F900111242417350775
:102C300008F0BDCF9F5F9093AA0202C09F3FD1F7DB
:102C4000EE2059F00E9439149FEF1E140CF491E00D
:102C5000899F802D11248093AE02FF2059F00E949D
:102C600039149FEF1F140CF491E0899F802D1124DB
:102C70008093AF023091AE02332309F498CF2091B4
:102C8000AF02222309F493CF45EB3403C001112492
:102C9000992359F09093AE0245EB2403900111243F
:102CA000332339F03093AF0282CF81E08093AE02BC
:102CB000F3CF81E08093AF027ACF20910B018AE0BD
:102CC000289F900111242417350708F085CF9F5FB6
:102CD0009093A90202C09F3FD1F7002359F00E94B0
:102CE00077149FEF10160CF491E0899F802D11242A
:102CF0008093B002112359F00E9477149FEF1116B0
:102D00000CF491E0899F802D11248093B1023091C1
:102D1000B002332309F460CF2091B102222309F4D9
:102D20005BCF45EB3403C0011124992359F09093F4
:102D3000B00245EB240390011124332339F0309382
:102D4000B1024ACF81E08093B002F3CF81E080935B
:102D5000B10242CF86E0ECEAF2E0DF011D928A95F3
:102D6000E9F71092AA021092A9021092AB020895FC
:102D7000EF92FF920F931F93CF93DF93EB01E82F16
:102D8000D11110C0442321F0F0E0E25EFA4FE4914B
:102D90006E2F7E2F8E2FDF91CF911F910F91FF907D
:102DA000EF9008950D2F10E0282F30E0442329F0F4
:102DB000225E3A4FF901249130E0F6E0CF9FC00146
:102DC0001124EFEFF0E0BF010E94552EAB018C2FD4
:102DD00090E0880F991FA5E5A49FB001A59F700DF5
:102DE0001124861B970B982F990F980FBF01601B1A
:102DF000710B629FD001639FB00D729FB00D1124C3
:102E00008B2F9D9FB0011124672F7727EF01C61BE1
:102E1000D70BBE01629FE001639FD00D729FD00D62
:102E200011247F01E91AF108E09EB001E19E700DC6
:102E3000F09E700D1124672F7727E61BF70BE29F9A
:102E40008001E39F100DF29F100D1124E12F722FCE
:102E50004230510599F048F44115510569F041306F
:102E6000510581F0EB2F8D2F07C04430510569F0DB
:102E700080F046305105B1F76E2F8DCFE22F7B2FBA
:102E8000812FFACFE22F7D2FF7CFEB2F822F712FDB
:102E9000F3CF7B2F822FED2FEFCF41E00C94B816AC
:102EA00008950C944D17CF93DF93762FE901682F87
:102EB000842F0E945117798368838A83DF91CF9191
:102EC00008954B3A08F04AEA0C9453178091430353
:102ED000982F9E7F61F4817082608093430380917C
:102EE00046038B3A18F08AEA8093460308958635A4
:102EF000B0F381708465F1CF88E090E00C945B2F93
:102F0000CF92DF92EF92FF926B017C010E946617D5
:102F1000B701A60188E090E0FF90EF90DF90CF909E
:102F20000C94792F60914303709144038091450381
:102F3000909146030C948017E3E4F3E083E08083F0
:102F400011828FEF82838AEA838314826081718188
:102F5000828193810C9480178091430380FF02C08B
:102F60008695089580E0089590914703933018F472
:102F70009F5F90934703882351F0609143037091C2
:102F8000440380914503909146030C948017089563
:102F900081E00C94B41790914703992319F0915054
:102FA00090934703882351F0609143037091440349
:102FB00080914503909146030C948017089581E019
:102FC0000C94CB17809147030895809347036623A1
:102FD00051F06091430370914403809145039091B7
:102FE00046030C948017089560E00C94E5178091D7
:102FF0004403089580914503089580914603089500
:1030000070E00C94FB1E609114018091430380FFDB
:103010000AC08091130123E0829FC0011124885BC4
:103020009C4F0C940018809115019091160123E09B
:10303000829FF0011124E85BFC4F891750F7118241
:10304000108212828F5F3396F8CF9091430390FFE6
:1030500014C0909115012091160133E0939FF00167
:103060001124E85BFC4F921710F00C940318818335
:10307000608342839F5F3396F6CF0895CF93DF93AB
:1030800000D00F92CDB7DEB79091430390FF0AC0F6
:103090009E012F5F3F4F0E9461174B8169818A819A
:1030A0000E9425180F900F900F90DF91CF910895F7
:1030B000CF93DF93EC01EC81F0E0E75EFB4F4491AE
:1030C000E3E4F3E0628181810E943E188C818F5F8E
:1030D0008C83DF91CF910895CF93DF93EC01E3E4EC
:1030E000F3E0438162818C810E943E188C818F5F66
:1030F0008C83DF91CF9108950F931F93CF93DF932C
:1031000000D00F92CDB7DEB78C018091B202811151
:103110000AC09E012F5F3F4F4AEA6FEF0E9461177E
:103120008A818093B202F8016481613069F08091F4
:10313000B20240E0662361F040E0623011F4409159
:10314000B20280E060E004C06091B20240E080E042
:103150000E942518F801848190E0019663E070E0F8
:103160000E94692E84830F900F900F90DF91CF9172
:103170001F910F910895AF92BF92CF92DF92EF927D
:10318000FF920F931F93CF93DF9300D00F92CDB791
:10319000DEB7182FF62E042FE22E9091430390FFF6
:1031A00029C0E92FE695AE2FB0E0A855BE4F8C910F
:1031B0008093E6029E7F923059F59E012F5F3F4F2C
:1031C000812F0E9461174B8169818A810E94251895
:1031D00010934403F092450300934603EE2051F010
:1031E000609143037091440380914503909146039D
:1031F0000E9480170F900F900F90DF91CF911F9139
:103200000F91FF90EF90DF90CF90BF90AF90089517
:10321000823019F400914603DBCF863019F4109107
:103220004403D6CF8930D9F3893191F6E9518E2FF5
:103230008170D82EE695F0E0E75EFA4FA590B49045
:10324000C12CBB2460911701C61618F00E94031808
:10325000BFCF2C2D30E0A29EC001A39E900DB29E48
:10326000900D112470E00E94552E812FD11013C0B3
:10327000860F40911501420F532F511D9A01220FC5
:10328000331F240F351F285B3C4F402F6F2D0E94AA
:103290006117C394D7CF861BECCFE3E4F3E09181B1
:1032A000282F4381628188E0890F0C94BB1881E04C
:1032B0000C944D19E3E4F3E09181282F438162815E
:1032C00088EF890F0C94BB1881E00C945A19E3E441
:1032D000F3E0628128E0620F08F46FEF282F43814A
:1032E00081810C94BB1881E00C946719E3E4F3E04E
:1032F000628128E0621B08F460E0282F438181810D
:103300000C94BB1881E00C947619E3E4F3E043815C
:1033100028E0420F08F44FEF282F628181810C943E
:10332000BB1881E00C948519E3E4F3E0438128E0C5
:10333000421B08F440E0282F628181810C94BB1865
:1033400081E00C94941920E00C94BB18EF92FF924A
:103350001F93CF93DF93EC0110E0EE24EA94F12C5D
:1033600060911701161770F00E9403189A818C81E2
:1033700090FF27C08F5F8C83DF91CF911F91FF90CB
:10338000EF90089520911501422F410F5527551FA9
:10339000CA019A01220F331F280F391F285B3C4FA7
:1033A00070E0C7010E94692E962F8C8140914603E0
:1033B00060914503199F800D11240E9461171F5FC2
:1033C000CFCF8150D8CFBF92CF92DF92EF92FF92B2
:1033D0000F931F93CF93DF93FC0182810FEF80FF48
:1033E00001E010E0809117011817C0F00E94031847
:1033F0008091B402013009F051C0811102C0809166
:10340000170181508093B402DF91CF911F910F91EA
:10341000FF90EF90DF90CF90BF900895C09115017D
:10342000C12ED12CCC0DDD2DD11DCE01880F991FC1
:10343000C80FD91FC85BDC4F198218821A8234E08A
:10344000E32EF12CB12C8091B4028B0D893004F164
:103450008770082E000C990BC816D90691F480913C
:1034600046038E9DA0018F9D500D112455954795C3
:10347000559547959E0160914503809144030E94B4
:103480006117B00EF1E0EF1AF108E9F61F5FAACF5D
:1034900087FFDFCF90911701890FDBCF90E0019676
:1034A0006091170170E00E94692EACCF0F931F93BB
:1034B000CF93DF93809115019091160123E0829FB5
:1034C000F0011124E85BFC4F891740F1C0E0D3E024
:1034D00060911701C61740F10E9403182091110155
:1034E0008091B302820F8093B30290911201920FE8
:1034F00090931201191654F4082E000C990B409168
:1035000017014150550B841795071CF02195209306
:103510001101DF91CF911F910F91089511821082B7
:1035200012828F5F3396D0CF0C2F10E070E0C8016D
:103530000E94692E20911501820F482F50E02091A2
:10354000B302022E000C330B02171307BCF02091BC
:103550001201022E000C330B201731077CF08D9FD7
:1035600090011124285B3C4F409146036091450334
:10357000809144030E946117CF5FAACFFA01EE0F3A
:10358000FF1FE40FF51FE85BFC4F118210821282CF
:10359000F3CF8F929F92AF92BF92CF92DF92EF9232
:1035A000FF920F931F93CF93DF93EC014C81042F75
:1035B00010E09801D8010E94B42E9B01AC010E943A
:1035C000CA2E4B015C01E0E2F0E0E01BF10BA5E547
:1035D000B0E0AC019B010E94CA2E6B017C019F01EF
:1035E000DF010E94AC2E9B01AC010E94D52E9B01F5
:1035F000AC01280D391D4A1D5B1DC701B6010E9493
:103600007D2EF22E822F90E039E23F1560F143E0EB
:10361000249F9001112435952795122F109500E0D5
:1036200085E5E82EEF1880911701081758F10E94E0
:1036300003189C8181E0992319F0903219F48FEFDF
:103640008093100180911001890F8C83DF91CF91BD
:103650001F910F91FF90EF90DF90CF90BF90AF90B0
:103660009F908F90089525E530E0B901681B790B94
:103670009B01220F331F260F371F37FFCCCF2F5F41
:103680003F4FC9CF8E2D01FD8F2D20911501622F47
:10369000600F7727771F9B01220F331F260F371FDD
:1036A000285B3C4F412F609145030E9461170F5FDB
:1036B000BACF0F931F93CF93DF93EC0110E000E09C
:1036C000909117019017110609F06CF40E940318ED
:1036D0008C8190E00196817099278C83DF91CF9146
:1036E0001F910F91089520911501A801420F511DBE
:1036F0009A01220F331F240F351F285B3C4F4C814A
:10370000609145038091440396959017110651F0FE
:103710004CF0442349F0409146030E9461170F5F2B
:103720001F4FCECF4423B9F340E0F7CF4F925F92C3
:103730006F927F928F929F92AF92BF92CF92DF92C1
:10374000EF92FF920F931F93CF93DF93FC01628060
:10375000448081E08483E9E1F4E07490E8E9F4E0F6
:10376000E491812C75E0972EF2E0CF2EDD24D394E6
:10377000AA24AA94B12C55245A94E7190E2F10E0CC
:1037800080911701881690F0DF91CF911F910F91D2
:10379000FF90EF90DF90CF90BF90AF909F908F9071
:1037A0007F906F905F904F900C940318E82CF12C51
:1037B00082E0861568F09E9CF0019F9CF00D11241C
:1037C000EB54FD4F809144038083809145038183B6
:1037D000411023C09E9CF0019F9CF00D1124EB54DE
:1037E000FD4F1382128220911501C701820F911D96
:1037F0009C01220F331F280F391F285B3C4F9E9CD2
:10380000F0019F9CF00D1124EB54FD4F428161812A
:1038100080810E9461178394B3CF9E9CE0019F9C9E
:10382000D00D1124CB54DD4F8B818823E9F08150DA
:103830008B83859DC00111246C8170E00E94552E00
:10384000FB01FF27E75EFB4F8491E82FE719E59D19
:10385000C0011124B8010E94552E80914603689F33
:10386000B00111247A83BFCF0E94292F20914603F3
:10387000269521582C9DA0012D9D500D1124452FDA
:103880005527841795070CF0AECF82E0861588F493
:103890000E94292FB5010E94692E88830E94292F3A
:1038A000209145032695622F70E00E94692E280F13
:1038B00029839E9CF0019F9CF00D1124EB54FD4F39
:1038C000128280914603893C58F088EC9E9CF0015E
:1038D0009F9CF00D1124EB54FD4F8483838383CF91
:1038E0008431A0F784E1F2CFE3E4F3E080818E7FBE
:1038F000808360817181828193810E948017109200
:10390000E7022FEF80E792E0215080409040E1F7FE
:1039100000C000000C940318E3E4F3E080818E7F84
:1039200080831092E7022FEF80E792E021508040E1
:103930009040E1F700C000000C9403181092E702D9
:103940008091E40281110AC081E08093E4028091B9
:10395000430381708093E3020C948C1C0895609162
:103960004303669570E04BE050E088E191E00E94EF
:10397000392F892B19F481E08093E7020E945226A7
:103980009093DE028093DD0208959091430390FFAF
:1039900035C09170811128C09260909343036623D3
:1039A00051F06091430370914403809145039091DD
:1039B00046030E94801760914303669570E04BE0D8
:1039C00050E088E191E00E94392F892BA1F01092FC
:1039D000E70281E08093E002409146036091450355
:1039E000809144030C94A3198B3210F09465D5CFC9
:1039F000880F982BD2CF0E94AF1CEBCF0895682F71
:103A000090914303969581E0890F8B3208F081E015
:103A10000C94C51C81E00C94FF1C682F909143030B
:103A200096958FEF890F09F48AE20C94C51C81E00A
:103A30000C940D1D61E00C94C51CE3E4F3E080815F
:103A40008160808386950C941A1D8091430380FDCC
:103A50000C94741C0C941D1D60E00C94C51C80918A
:103A6000E50281112EC00E94EC0E811104C00E945B
:103A7000900F0E949C170E947C17609343037093E1
:103A8000440380934503909346036E7F61F40E9444
:103A90009C170E947C1760934303709344038093A8
:103AA0004503909346030E9466171092E7028091A7
:103AB000430380FF03C086950E942C1D81E0809304
:103AC000E5020895E3E4F3E08081816080838695D8
:103AD0000C942C1D1092E4028091E30281110E944B
:103AE000621D0C94AF1C0F931F93CF93DF938091B3
:103AF000E702882309F496C08091E602E09143032F
:103B0000E695E81BE093DF02823091F5F0E0EB5E92
:103B1000FB4FE491CE2FD0E008E518E18091E00260
:103B2000882361F01092E0020E9452269093DE02F8
:103B30008093DD021092E2021092E1020E9452266E
:103B4000E091DD02F091DE028E1B9F0B8F3F9F47BD
:103B500008F068C0EC0FFD1FF093DE02E093DD0279
:103B60008DED92E0F801DF91CF911F910F910994B3
:103B7000863049F4F0E0EE5EFB4FE491CE2FD0E0CA
:103B80000CE618E1CBCF893051F4E695F0E0E15F27
:103B9000FB4FE491CE2FD0E006EA19E1BFCF8F3082
:103BA00051F4E695F0E0E45FFB4FE491CE2FD0E0D6
:103BB00003EE19E1B3CF853149F4F0E0E75FFB4F45
:103BC000E491CE2FD0E006E51AE1A8CFC8E2D0E01C
:103BD00009EC1AE1883109F4A1CF833239F4E7E026
:103BE000F4E0C591D4910CE718E198CFC4EFD1E08F
:103BF00009E51BE1843209F491CFC0EDD7E000E57F
:103C000017E1853209F08ACF8E2F63E00E94492E9A
:103C1000E92FF0E0EC5FFB4FE491CE2FD0E006E916
:103C20001BE17CCFDF91CF911F910F910895FA0195
:103C3000811101C0FB010994CF93DF93C82FD62FC8
:103C40000E94AC178C1740F00E94AC178D1720F41F
:103C5000DF91CF910C940A1D8C2FDF91CF910C94A2
:103C60001A1D1F93CF93DF93EC01FB0112811111F9
:103C70001BC00E94050E8272CC3CFCE5DF0709F4F4
:103C8000A0C008F045C0C63CECE5DE0709F485C0DD
:103C9000F8F4C33C9CE5D90709F475C050F4C23C64
:103CA000DC4509F46DC011E0812FDF91CF911F91A8
:103CB0000895C43C9CE5D90709F46AC044E659E17B
:103CC00067E579E1C53CDC4571F70E94171EECCF32
:103CD000C93CFCE5DF0709F46AC068F4C73CECE5C1
:103CE000DE0709F45FC043E759E162E879E1C83CC7
:103CF000DC4559F3D8CFCA3C9CE5D90709F45CC030
:103D00004FED57E168EC77E1CB3CDC45F1F2CBCFEE
:103D1000C13DFCE5DF0709F463C098F4CE3C9CE5A7
:103D2000D90709F457C008F451C0CF3CFCE5DF07C0
:103D300009F453C0C03DDC4509F0B5CF6EE089E021
:103D40001CC0C43D9CE5D90709F450C058F4C23DDD
:103D5000FCE5DF0709F447C0C33DDC4509F0A3CF0C
:103D600088E135C0C53D9CE5D90709F442C06AE247
:103D700085E2CD35DD4509F096CF0E941C1E94CF1B
:103D80000E94251D91CF47E15DE16AE07DE19DCF75
:103D90004AE05DE167E17DE198CF47E559E164E6FE
:103DA00079E193CF42E859E163E779E18ECF40EAC8
:103DB00059E161E979E189CF41E959E160EA79E1C5
:103DC00084CF48EC57E16FED77E17FCF81E00E942F
:103DD0001A1D6ACF65E082E0D0CF68E086E0CDCFE3
:103DE00064E18FE0CACF67E185E1C7CF62E289E194
:103DF000C4CF83E2ECCF539A4BB1477F5BB158609D
:103E0000EFB7F8949B01220F331F260F371F280F9F
:103E1000391F2817390741F4EFBF8FE594E0019768
:103E2000F1F700C000000895DC016D91CD0178E04C
:103E30005BB9000000C067FF4BB9660F000000C00F
:103E400000C000C04BB900C07A9591F7E2CF83E281
:103E500090E00E94532F823289F484E290E00E9425
:103E6000532F873059F485E290E00E94532F91E060
:103E7000863209F090E0892F8170089580E0FCCFB0
:103E8000CF93C82F6FEF811162E283E290E00E942E
:103E9000672F6FEFC11167E084E290E00E94672F07
:103EA0006FEFC11166E285E290E0CF910C94672F2D
:103EB000089586E290E00E94532F682F70E090E012
:103EC00080E008950895CF93C62F0E94621F6C2F43
:103ED00086E290E0CF910C94672F80E00E94401F13
:103EE00060E070E0CB010E94631F0E9458220E9494
:103EF000442381E00C94401F0E94581F0E94591FC8
:103F00000E94621F0E94271F811102C00C946D1F26
:103F10000895CF93FB01C281CC2309F19C0122516A
:103F20003F452031310520F582510E945423C0E0E5
:103F30008C2FCF91089581E00E94310A43E062E026
:103F400081E00E949104F3CF81E00E943C0A43E0AB
:103F500062E081E00E949104EBCF82E0F6CF8031F5
:103F6000FFE59F0789F381319F45B9F3C1E0E0CFB9
:103F70008031EFE59E07F9F281319F45C9F682E075
:103F8000DBCF2FEFFC0120830895CF93DF93EC016B
:103F900088818138A9F028F4803871F0DF91CF91C1
:103FA0000895823881F08338C9F70E94F717898312
:103FB0000E94FA178A83F2CF0E94FD178983EECF01
:103FC0000E94AC17FBCF0E94E217F8CFCF93DF938C
:103FD000EC0188818138E1F028F4803869F0DF91C4
:103FE000CF910895823811F18338C9F70E94FD17E7
:103FF000482F6A81898108C0D9810E94FA17C82F89
:104000000E94F7174D2F6C2FDF91CF910C94A319BD
:1040100089810E942C1D8981811104C0DF91CF917B
:104020000C948C1CDF91CF910C94621D8981DF91DF
:10403000CF910C94F417EF92FF920F931F93CF93AD
:10404000DF93EC01E62EDC01ED91CD01E150E3318F
:1040500008F0AEC0F0E0E853F04D0C949F2E1982AA
:1040600089E08A836E2DCE01DF91CF911F910F9150
:10407000FF90EF900C9458278981823069F083304B
:1040800071F08130E1F40E945E260E94A52E6A83C1
:104090007B838C839D83E6CF0E94591FF6CF8E01D0
:1040A000F12C8F2D0E94B412F801828373836483F4
:1040B000F3940D5F1F4FF5E0FF12F3CFD3CF6E2DBA
:1040C000CE010E94C11FCECF89818230C1F76A81A3
:1040D0007B818C819D810E94A52E0E94631FC2CF8F
:1040E0004B816A8189810E942A22982789279827F3
:1040F0009D838C83B7CF2C813D81322723273227A4
:104100004B816A8189810E944322ACCF0E94582250
:10411000A9CF0E94E61FA6CF0E94C51FA3CF0E9471
:104120009217A0CF0E94ED2289839CCF0E94EF229C
:104130009827892798279A83898394CF6B8170E089
:1041400089819A81AE014C5F5F4F98278927982714
:104150000E94F22287CF6B8170E089819A81AE0143
:104160004C5F5F4F9827892798270E9419237ACFA1
:104170000E94442377CF0E941822D6CF6B8170E033
:1041800089819A81AE014C5F5F4F982789279827D4
:104190000E94902267CF6B8170E089819A81AE0185
:1041A0004C5F5F4F9827892798270E94B6225ACFE5
:1041B0008FEF888357CFCF93DF93EC01FB01828190
:1041C000882309F433C1C330FDE5DF07C0F5CA3FDA
:1041D0009CE5D90730F49E0122503C45243131053D
:1041E000B0F50E94FF0E90931A0380931903C1311A
:1041F0008CE5D80709F4EEC008F069C0C930ECE5D9
:10420000DE0709F4D5C0C8F5C5308CE5D80709F438
:10421000C7C000F5C330ECE5DE0709F4B9C008F00B
:10422000BBC0C230DC4509F4ADC080911903909148
:104230001A030E940D0F0E94BC0980E008C0C1361D
:10424000EDE5DE0771F2C53AFDE5DF0751F2DF91DA
:10425000CF910895809119038062C7309CE5D907FA
:1042600009F493C0809119038061C830DC4508F4DB
:104270008CC080911903806488C0809119038B7F62
:10428000CD30FCE5DF0709F480C098F48091190374
:104290008E7FCB309CE5D90709F477C08091190354
:1042A0008C60CC30DC4508F470C0809119038D7FA0
:1042B0006CC0809119038F7ECF30FCE5DF0709F4D5
:1042C00064C008F47BC0809119038F7D5EC0CD3F30
:1042D0009CE5D90709F47AC050F5C531FCE5DF0744
:1042E00009F486C098F480911903837FC3319CE55B
:1042F000D90709F44AC008F471C00E94BC09909122
:104300001903892F97FB87F980583FC0CB3FFCE505
:10431000DF0709F449C008F055C080911A03816095
:10432000CA3FDC4509F081CF80931A037ECFC130AC
:10433000EDE5DE0709F468C0A8F4CF3F8CE5D807A7
:1043400009F452C080911A038360C115DD4560F302
:1043500080911A03982F909591708E7F892B90FBF6
:1043600081F9E2CFC136EDE5DE0709F451C0C53A67
:10437000FDE5DF0709F453C0C230DD4509F055CF34
:1043800080E043C0809119038160809319034DCF71
:10439000809119038260F9CF809119038460F5CF71
:1043A000809119038860F1CF80911A038260BCCF9D
:1043B0000E94BC09809119038068E7CF809119039E
:1043C000877FE3CF80911A038E7FAECF80911A034F
:1043D0008D7FAACF809119038F7BD7CF0E94BC0914
:1043E000809119038F77D1CF80911A038C7F9CCF56
:1043F0008091190382FB992790F921E0922790FB85
:1044000082F990FB83F9C1CF81E00E94920F0DCF1A
:1044100090911903892F8F7E94FF8061B6CF909180
:104420001903892F8E7F90FF8160AFCF81E00FCF7E
:1044300084E0089550E0440F551F92E2699F400DBB
:10444000511D11249AEA899F400D511D1124CA0162
:10445000879608950F931F93CF93DF930E941A229C
:104460008C010E94532FC82FD0E0DC2FCC27C8012D
:1044700001960E94532F9E01282BC901DF91CF91F5
:104480001F910F9108950F931F93CF93DF93122FD6
:10449000032F0E941A22EC01602F0E94672F612FC8
:1044A000CE010196DF91CF911F910F910C94672F50
:1044B000AF92BF92CF92DF92EF92FF921F93CF9372
:1044C000DF938CEAC82E80E0D82ED0E07601C0E0E1
:1044D00014C0F50125913491412F6C2F8D2F0E942E
:1044E000432282E0A80EB11C1F5F113191F782E2D6
:1044F000E80EF11CCF5FC53019F0570110E0E9CF8D
:10450000DF5F8AEAC80ED11CD43001F7DF91CF916A
:104510001F91FF90EF90DF90CF90BF90AF900895E4
:10452000EF92FF920F931F93CF93DF93EC018A01D9
:104530007C01E60EF71ECE018796CE15DF0539F415
:10454000DF91CF911F910F91FF90EF900895C83A9E
:1045500022E0D20740F40E94532FF80180830F5FBE
:104560001F4F2196E8CFF8011082F9CFCF92DF924A
:10457000EF92FF920F931F93CF93DF937C016A0119
:104580008C01060F171FEC01CE018796C017D107CB
:1045900049F4DF91CF911F910F91FF90EF90DF9041
:1045A000CF900895C83A22E0D20740F4FE01EE19F8
:1045B000FF09EC0DFD1D60810E94672F2196E4CF5D
:1045C000462F843038F4753028F4613118F4672FA1
:1045D0000C942A2290E080E0089580E1089581E320
:1045E00091E00895EF92FF920F931F93CF93DF9383
:1045F000EC018A017C01E60EF71ECE0181539D4F2E
:10460000CE15DF0539F4DF91CF911F910F91FF9007
:10461000EF900895C13321E0D20740F40E94532F58
:10462000F80180830F5F1F4F2196E7CFF8011082BA
:10463000F9CFCF92DF92EF92FF920F931F93CF9318
:10464000DF937C016A018C01060F171FEC01CE017C
:1046500081539D4FC017D10749F4DF91CF911F912E
:104660000F91FF90EF90DF90CF900895C13321E03C
:10467000D20740F4FE01EE19FF09EC0DFD1D60812B
:104680000E94672F2196E3CFCF93DF93CFECD2E048
:1046900060E0CE010E94672F2196C11584E0D80703
:1046A000B9F7DF91CF910895DF92EF92FF920F93C8
:1046B0001F93CF93DF9300D000D0CDB7DEB7F82E95
:1046C0008FE08F1540F08FEF93E00E94532F0FEC97
:1046D00012E08823C1F00F900F900F900F90DF91A0
:1046E000CF911F910F91FF90EF90DF9008950115EA
:1046F00084E0180781F3C8010E94532F811101C083
:10470000FA940F5F1F4FF110F2CF19821A821B82A9
:104710001C82DD24D39478018FEFE81AF80AC801CF
:104720000E94532F89831A828823A9F29FEF980F42
:10473000933078F48A83D9820E5F1F4FC7010E949D
:10474000532F8B83882339F2CE0101960E94E7050F
:10475000E2CF8701F9CFCF93DF93EB0186319C4500
:1047600011F50E94050E9A81992399F08A7A91E0B9
:1047700009F490E09093E802811109C089E20E9457
:10478000E00D0E94450E80E0DF91CF91089585E312
:10479000F6CF8091E802811104C089E20E94E70D02
:1047A000F0CF85E3FBCF81E0EFCF0F931F93CF9343
:1047B000DF93C42FD22FFC0182818823C9F040935C
:1047C000EB020E9452269093EA028093E90280E273
:1047D0008C0F883008F050C0C77081E001C0880F8E
:1047E000CA95EAF7DF91CF911F910F910C9456076C
:1047F0001091EB02141335C08091E9029091EA0206
:104800000E946A26883C910560F5C0E2CD0F1D1715
:10481000B9F080E2810F883040F4177081E001C068
:10482000880F1A95EAF70E945D07C83048F481E0C6
:104830009D2F977001C0880F9A95EAF70E9456073E
:10484000802F0E944E07C830B8F4D77081E001C0B5
:10485000880FDA95EAF7DF91CF911F910F910C94B1
:104860005D0780E28C0F883038F4C77081E001C0AA
:10487000880FCA95EAF7EFCFDF91CF911F910F9183
:1048800008950F939C01CB01233F4CE5340759F168
:10489000A8F4283DFCE53F0701F1293D4CE534072C
:1048A000D1F1273D3C4591F406E221EE41EE67ED62
:1048B0007CE50E94D52380E00F910895253FFCE51B
:1048C0003F07E9F0B0F0263F3C45F9F0FC0182815A
:1048D000882339F11092EB02EFCF07E225EE45EE87
:1048E00068ED7CE5E6CF06E221EE40EE63EF7CE585
:1048F000E0CF07E225EE44EE64EF7CE5DACF06E296
:1049000021EE42EE65EF7CE5D4CF07E225EE46EEE0
:1049100066EF7CE5CECF08E221E045EE69ED7CE56F
:10492000C8CF81E0C9CF9093E3018093E20108955D
:104930009093F1028093F0020895E091F002F091DB
:10494000F102309721F00190F081E02D099480E090
:104950000895E091F002F091F102309799F02091E2
:104960002F01222359F02091190327FF07C0DC01F2
:104970002C9111962C93119726E02C930280F381B1
:10498000E02D09940895E091F002F091F102309742
:1049900039F022E0DC012C930480F581E02D0994AC
:1049A00008952091EE023091EF022817390771F037
:1049B0009093EF028093EE02E091F002F091F10209
:1049C000309721F00680F781E02D09940895209119
:1049D000EC023091ED022817390771F09093ED0247
:1049E0008093EC02E091F002F091F102309721F017
:1049F0000084F185E02D09940895FC0132968091A0
:104A00002F01882321F0809119039EE187FF96E012
:104A100080E0915008F4089521912223D1F38F5F13
:104A2000F8CF662301F120912F012223F1F020918C
:104A3000190327FF1AC0462F4695469546954E31D5
:104A400090F4677021E030E002C0220F331F6A95B6
:104A5000E2F7840F911DFC01828190E02823392325
:104A600081E0232B69F480E00895FC0132960896DA
:104A70002191261721F0E817F907D1F7F4CF81E04B
:104A800008959C01FC0132969FEF80E0419146170A
:104A900051F09F3F19F4411101C0982F8F5F86306C
:104AA000A9F79F3F09F40895290F311D97FD3A9505
:104AB000F90162830895FC0132960896219126132C
:104AC00003C0DF0111971C92E817F907B9F70895A1
:104AD000E62FE695E695E695EE3168F4E80FF92FB6
:104AE000F11D677021E030E001C0220F6A95EAF7FE
:104AF0008281822B82830895E62FE695E695E695DE
:104B0000EE3170F4E80FF92FF11D677021E030E00D
:104B100001C0220F6A95EAF720958281282322831B
:104B2000089520912F01222329F02091190327FDB8
:104B30000C9468250C94412520912F01222329F003
:104B40002091190327FD0C947C250C945B25FC0116
:104B5000329680912F01882351F08091190387FFAD
:104B600006C08EE1DF011D928A95E9F7089586E07F
:104B7000F9CF08950C94B925811105C081E0809387
:104B8000F2020C94BA2582E0FACF83E08093F2021D
:104B90000C94BA250C94BC2581E08093F2020C940D
:104BA000BA250C94CC25089508950C94D425089525
:104BB00008950C94D325CF930E94D7250E94991372
:104BC0000E94D825C0E08C2F0E94B412672B682B5E
:104BD000692B31F4CF5FC530B1F780E0CF910895F4
:104BE00081E0FCCF08951F921FB61F9211248F936E
:104BF0009F93AF93BF938091F302811113C0809173
:104C0000600390916103A0916203B09163034196A8
:104C1000A11DB11D8093600390936103A093620373
:104C2000B0936303BF91AF919F918F911F901FBE6F
:104C30001F90189580916803843031F10E940D0512
:104C40001092F30288E190E020E40FB6F894A89562
:104C5000809360000FBE2093600083B7817F8460E3
:104C600083BF83B7816083BF7894889583B78E7F35
:104C700083BF0FB6F894A8958091600088618093F7
:104C80006000109260000FBE08950E94BC090C9451
:104C9000130582E084BD93E095BD9AEF97BD8093A4
:104CA0006E0008952FB7F89480916003909161038E
:104CB000A0916203B09163032FBF08952FB7F894BA
:104CC000609160037091610380916203909163032E
:104CD0002FBF08959C014FB7F89480916003909185
:104CE0006103A0916203B09163034FBF821B930BDA
:104CF000089578941F921FB61F9211248F939F934B
:104D0000AF93BF938091600390916103A091620380
:104D1000B09163030196A11DB11D80936003909330
:104D20006103A0936203B0936303BF91AF919F911E
:104D30008F911F901FBE1F90189581E08093E00017
:104D400080E28093D8001092C9008FE19EE4019721
:104D5000F1F700C0000087E090EBDC018093710365
:104D600090937203A0937303B093740388E19CE063
:104D70000FB6F894A895809360000FBE90936000E2
:104D8000FFCF80911703089508959C0184E08093DC
:104D9000E9009FEF8091E800915085FD06C085ED08
:104DA0008A95F1F700009111F5CF8091E80085FF19
:104DB0000CC050E040E066E070E0C9010E94692943
:104DC0008091E8008E778093E8000895CF93DF9379
:104DD000EC0180912F018823B1F18091190387FFA5
:104DE00032C060E284E08093E9008FEF9091E800A8
:104DF000815095FD06C095ED9A95F1F7000081115F
:104E0000F5CF8091E80085FF1BC080912F0170E0F5
:104E100050E040E0811104C050E040E068E070E004
:104E2000CE010E9469298091E8008E778093E80086
:104E300080E2FE01A7EFB2E001900D928A95E1F7C2
:104E4000DF91CF91089568E081E0CDCF8093F402A7
:104E50007093F6026093F502809168038430F9F450
:104E60008093E9008FEF9091E800815095FD06C096
:104E700095ED9A95F1F700008111F5CF8091E8004A
:104E800085FF0DC050E040E063E070E084EF92E009
:104E90000E9469298091E8008E778093E800089548
:104EA000BC0184E00C942627BC0183E00C942627E7
:104EB000CF93FC01603221F580916803843001F5C5
:104EC000C091E900CF702091EC00922F917020FDED
:104ED00090E8C92B82E08093E9008091E80080FF90
:104EE0000CC050E040E060E270E0CF010E94692910
:104EF0008091E8008E778093E800CF70C093E9003E
:104F0000CF91089580916703811109C00E94482BB9
:104F10000E94A52B8091E20084608093E2000895B6
:104F20001092670308950C94CC256091640381E08E
:104F3000611101C080E00C94C5259091680381E067
:104F4000943009F080E0609164030C94CA2542E03B
:104F500061EC81E00E94C42A42E261EC84E00E949C
:104F6000C42A42E261EC82E00E94C42A42E260EC80
:104F700083E00E94C42A9091680381E0943009F094
:104F800080E0609164030C94BC2580916A038330B7
:104F900009F462C030F48130D9F1823009F49EC046
:104FA00008958A3009F48AC08B3009F470C08930C2
:104FB00009F051C080916903813209F04CC08091A1
:104FC0006D0390916E03009719F0029709F043C0AA
:104FD0008091E800877F8093E8008091E80082FF5D
:104FE00036C09091F3008091F200029731F48091E5
:104FF000F100813011F0863021F48091F10080932E
:1050000017038091E8008B778093E8000C94F82ACE
:1050100080916903813AF9F48091E800877F809359
:10502000E80080916D0390916E03892B61F460E23A
:1050300087EF92E070E00E94072A8091E8008B776A
:105040008093E800089560E090E080E0F3CF8091E5
:1050500068038111C2CF089580916903813AD9F71D
:1050600080916D0390916E03892BA9F78091E800E0
:10507000877F8093E8008091E80080FFFCCF8091DB
:105080002F018093F1008091E8008E77BDCF809151
:105090006903813201F780916D0390916E03892B32
:1050A000D1F68091E800877F8093E8000E94F82A7B
:1050B00080916B0380932F010C94BC09809169034C
:1050C000813249F68091E800877F8093E8000E9452
:1050D000F82A80916C0380931803089580916903E6
:1050E000813A09F0B8CF8091E800877F8093E8008B
:1050F0008091E80080FFFCCF80911803C2CF84B775
:10510000877F84BF0FB6F894A8958091600088616E
:1051100080936000109260000FBE80E890E00FB6B0
:10512000F89480936100909361000FBE0C94D12598
:105130000E94482B0E94A52BE2EEF0E08081846063
:10514000808378940C942E2E83E291E00C94982422
:10515000809168038530A9F480916803853011F04F
:105160000C9445260E941A26809166038823A1F399
:105170000E94DB25882381F30E9453290E94BC09E9
:10518000EBCF0895CF93DF93CDB7DEB7A0970FB6DF
:10519000F894DEBF0FBECDBF80916803843009F55F
:1051A00083E08093E9008091E80082FF1AC080913B
:1051B000E80090E085FF09C050E040E060E270E068
:1051C000CE0101960E94B82991E08091E8008B778A
:1051D0008093E800992329F060E2CE0101960E94B5
:1051E0001B20A0960FB6F894DEBF0FBECDBFDF9197
:1051F000CF9108950C94FC28292F332723303105B3
:1052000021F168F42130310509F443C02230310521
:1052100009F444C090E080E030E020E026C0213274
:10522000310551F122323105A9F76330710590F74C
:10523000FB01EE0FFF1FEA52FE4F208131816D52BC
:105240007E4FFB01808190E010C09927813091054D
:1052500081F0009729F00297E9F6EEE1F6E002C04E
:10526000E6E4F6E0849190E09F01FA013183208327
:105270000895EEE2F6E0F6CF6330710558F6660F5A
:10528000771FFB01E452FE4F2081318189E090E0DD
:10529000ECCF82E190E025EA36E0E7CF8BE590E0C5
:1052A0002AE436E0E2CF80E189BD82E189BD09B41C
:1052B00000FEFDCF8091D8008F7D8093D800809133
:1052C000E00082608093E0008091E00081FDFCCFEF
:1052D0000895AF92BF92CF92DF92FF920F931F93E8
:1052E000CF93DF936C01EB018A010E94172BF82EFC
:1052F000811123C00115110539F0F80180819181D8
:10530000C81BD90BC80ED91EB12CA12C2097A9F00F
:105310008091E80085FD22C08091E8008E7780931F
:10532000E80001151105A1F0F80180819181A80E16
:10533000B91EB182A08285E0F82E8F2DDF91CF912A
:105340001F910F91FF90DF90CF90BF90AF90089585
:105350000E94172B8823D1F2F82EEFCFF60181910E
:105360006F018093F1002197FFEFAF1ABF0ACECFF4
:10537000AF92BF92CF92DF92FF920F931F93CF9382
:10538000DF936C01EB018A010E94172BF82E81112B
:1053900023C00115110539F0F80180819181C81BE6
:1053A000D90BC80ED91EB12CA12C2097A9F0809141
:1053B000E80085FD22C08091E8008B778093E800AB
:1053C00001151105A1F0F80180819181A80EB91E87
:1053D000B182A08285E0F82E8F2DDF91CF911F91B1
:1053E0000F91FF90DF90CF90BF90AF9008950E94F3
:1053F000172B8823D1F2F82EEFCF8091F100F60120
:1054000081936F012197FFEFAF1ABF0ACECFFC0146
:1054100080916F039091700386179707A0F0611534
:10542000710529F49091E8009E779093E80090E050
:105430006115710551F4911108C08091E80082FF57
:1054400034C080E00895BC01F2CF809168038823C6
:10545000C1F18530C1F18091E80083FD30C08091B9
:10546000E80082FDEACF8091E80080FFE1CF8091E3
:10547000F3002091F200382F6115710519F02830E2
:10548000310558F091E02830310509F090E0209185
:10549000E8002E772093E800CBCF81918093F10034
:1054A000615071092F5F3F4FE7CF809168038823D8
:1054B00041F0853041F08091E80083FFBECF81E06C
:1054C000089582E0089583E00895FC0180916F03C0
:1054D0009091700386179707A0F06115710529F464
:1054E0008091E8008E778093E80090E06115710567
:1054F00051F4911108C08091E80082FF35C080E02E
:105500000895BC01F2CF809168038823C9F18530EA
:10551000C9F18091E80083FD31C08091E80082FDEF
:10552000EACF8091E80080FFE1CF8091F3002091E5
:10553000F200382F6115710519F02830310558F047
:1055400091E02830310509F090E08091E8008E77F5
:105550008093E800CBCF84918093F1003196615025
:1055600071092F5F3F4FE6CF80916803882341F098
:10557000853041F08091E80083FFBDCF81E0089540
:1055800082E0089583E00895982F973028F08F7077
:105590008093E90081E008959093E900242F762F0D
:1055A00050E0981731F07091EC002091ED0050918F
:1055B000F00021FD02C09F5FE8CF3091EB003E7FFD
:1055C0003093EB003091ED003D7F3093ED00309152
:1055D000EB0031603093EB007093EC002093ED0012
:1055E0005093F0002091EE0027FDE5CF80E0089574
:1055F0008091690387FF13C08091E80082FF06C095
:105600008091E8008B778093E80004C08091680364
:105610008111F2CF0895809168038823D9F3809196
:10562000E80080FFF8CF8091E8008E77ECCF2091E2
:10563000E4003091E50095E6A9012091EC00822F6D
:10564000817020FF06C08091E80080FF06C080E0E6
:1056500008952091E80022FD1AC0809168038823F4
:1056600089F0853089F08091EB0085FD0FC0209195
:10567000E4003091E50042175307F9F29150E1F64A
:1056800084E0089582E0089583E0089581E008951C
:105690000E94B62B0E94BE2BE0EEF0E0808181607C
:1056A0008083E8EDF0E080818F77808319BCA7EDDF
:1056B000B0E08C918E7F8C9380818F7E808310925E
:1056C000670308950F931F93CF93DF930E94B62B28
:1056D0000E94BE2BC8EDD0E088818F7788838881B7
:1056E0008068888388818F7D888319BC10926803C5
:1056F00010926403109266031092650300EE10E0AE
:10570000F80180818B7F808388818160888342E07B
:1057100060E080E00E94C42AE1EEF0E080818E7FAC
:105720008083E2EEF0E08081816080838081886008
:105730008083F80180818E7F808388818061888367
:10574000DF91CF911F910F910895E8EDF0E08081F6
:105750008F7E8083E7EDF0E080818160808384E04C
:1057600082BF81E0809367030C94622BE8EDF0E048
:1057700080818E7F80831092E20008951092DA007B
:105780001092E10008951F920F920FB60F9211240C
:105790002F933F934F935F936F937F938F939F9339
:1057A000AF93BF93EF93FF938091E10082FF0BC013
:1057B0008091E20082FF07C08091E1008B7F80939F
:1057C000E1000E942D2E8091DA0080FF19C08091A7
:1057D000D80080FF15C08091DA008E7F8093DA00B8
:1057E0008091D90080FF96C080E189BD82E189BDAA
:1057F00009B400FEFDCF81E0809368030E948227F8
:105800008091E10080FF19C08091E20080FF15C007
:105810008091E2008E7F8093E2008091E2008061BF
:105820008093E2008091D80080628093D80019BCF8
:1058300085E0809368030E9495278091E10084FFB2
:105840002BC08091E20084FF27C080E189BD82E106
:1058500089BD89B5982F917080FFFBCF8091D800CA
:105860008F7D8093D8008091E1008F7E8093E1004E
:105870008091E2008F7E8093E2008091E20081605F
:105880008093E20080916403882309F449C084E096
:10589000809368030E949D278091E10083FF29C0C7
:1058A0008091E20083FF25C08091E100877F809393
:1058B000E10082E080936803109264038091E1002C
:1058C0008E7F8093E1008091E2008E7F8093E200E2
:1058D0008091E20080618093E20042E060E080E03D
:1058E0000E94C42A8091F00088608093F0000E949A
:1058F0009327FF91EF91BF91AF919F918F917F91EE
:105900006F915F914F913F912F910F900FBE0F902C
:105910001F90189519BC109268030E94902770CFB1
:105920008091E30087FD93E090936803B3CF1F92CB
:105930000F920FB60F9211242F933F934F935F93C3
:105940006F937F938F939F93AF93BF93CF93DF9387
:10595000EF93FF93D091E900DF708091EC00C82FA6
:10596000C17080FDC0E81092E9008091F000877F4F
:105970008093F00078940E94DB2C1092E9008091D3
:10598000F00088608093F000CD2BCF70C093E900C9
:10599000FF91EF91DF91CF91BF91AF919F918F9147
:1059A0007F916F915F914F913F912F910F900FBE1B
:1059B0000F901F9018951F93CF93DF93CDB7DEB74D
:1059C000AA970FB6F894DEBF0FBECDBF89E693E06D
:1059D0002091F100FC012193CF01F3E081379F0773
:1059E000B9F70E94C5278091E80083FF1EC180910E
:1059F000690390916A039A3008F017C1E92FF0E02B
:105A0000E552F04D0C949F2E803899F0823809F0C1
:105A10000CC180916D038F70873008F006C18093B0
:105A2000E9008091EB0085FB882780F91092E9005E
:105A300006C08091650390916603911182609091F8
:105A4000E800977F9093E8008093F1001092F100B6
:105A50008091E8008E77E5C0882309F4D3C08230B6
:105A600009F0E3C080916B038111D6C080916D0372
:105A70008F702FEF280F263008F0D7C08093E900F1
:105A80002091EB0020FFC8C0933031F48091EB00EF
:105A900080628093EB00C0C09091EB009061909386
:105AA000EB0021E030E001C0220F8A95EAF7209355
:105AB000EA001092EA008091EB008860EACF811141
:105AC000B4C010916B031F778091E3008078812B25
:105AD0008093E3008091E800877F8093E8000E9434
