:100000000C94CB020C9403030C9403030C94030391
:100010000C9403030C9403030C9403030C94030348
:100020000C9403030C9403030C9481210C9455222B
:100030000C94B11B0C9403030C9403030C94030362
:100040000C9403030C9403030C9403030C94030318
:100050000C9403030C94371C0C9403030C940303BB
:100060000C9403030C9403030C9403030C940303F8
:100070000C9403030C9403030C9403030C940303E8
:100080000C9403030C9403030C9403030C940303D8
:100090000C9403030C9403030C9403030C940303C8
:1000A0000C9403030C9403030C94030329001E0017
:1000B0001F0020002100220023002400250026002C
:1000C00027002D002E002A004A0046002B001400B5
:1000D0001A000800150017001C0018000C00120080
:1000E00013002F00300031004B004700E0000400F7
:1000F0001600070009000A000B000D000E000F009B
:10010000330034002800000000000000E1001D0062
:100110001B00060019000500110010003600370012
:1001200038000000E500000052000000E000E3009D
:10013000E200000000002C00000000000000E600CB
:100140000151E4000000500051004F0035003A001A
:100150003B003C003D003E003F00400041004200AB
:100160004300440045004C004900010039000100F3
:10017000520001000100010001000100460047009B
:100180004800520001000100010001000100500080
:1001900051004F0001000100010001004A004B0026
:1001A00050004F00010000000000000001000100AD
:1001B0000100010001000100010001004D004E009E
:1001C00051000000010000004B0000000100010090
:1001D000010000000000010000000000000001001C
:1001E0000100010000004A004E004D000100010026
:1001F00001000100010001000100010001000100F7
:1002000001000100010001000100010001000100E6
:1002100001000100010001000100010001000100D6
:1002200001000100010001000100010001000100C6
:1002300001000100010001000100010001000100B6
:1002400001000100010000000000000001000100A9
:100250000100010001000100010001000100010096
:100260000100000001000000010000000100010089
:10027000010000000000010000000000000001007B
:100280000100010000000100010001000100010067
:100290000100010001000100010001000100010056
:1002A0000100010001000100010001000100010046
:1002B0000100010001000100010001000100010036
:1002C0000100010001000100010001000100010026
:1002D0000100010001000100010001000100010016
:1002E0000100010001000000000000000100010009
:1002F00001000100010001000100010001000100F6
:1003000001000000010000000100000001000100E8
:1003100001000000000001000000000000000100DA
:1003200001000100000001000100010000000000C8
:10033000000000002A2B2800000000000000000040
:100340000000000000000029000000002C1E3420E6
:10035000212224342627252E362D3738271E1F200C
:100360002122232425263333362E37381F04050651
:100370000708090A0B0C0D0E0F1011121314151695
:100380001718191A1B1C1D2F3130232D3504050693
:100390000708090A0B0C0D0E0F1011121314151675
:1003A0001718191A1B1C1D2F3130354C0000000086
:1003B000000000000000000000000000000000003D
:1003C000000000000000000000000000000000002D
:1003D0007E0F00D4FFFFFFC70000007816036C00FB
:1003E00075007800690061006F00660065006E00AE
:1003F00067000000160371006D006B00620075005D
:1004000069006C00640065007200000004030904C8
:1004100009025B00030100A0FA09040000010301C6
:100420000100092111010001224000070581030894
:10043000000109040100020300000009211101006C
:100440000122220007058203200001070503032083
:10045000000109040200010300000009211101004C
:100460000122B600070584032000011201000200EA
:10047000000008BC0BAA0A0100010200010660FF8F
:100480000961A1010962150026FF00952075088108
:10049000020963150026FF00952075089102C0052A
:1004A000010902A10185020901A10005091901291B
:1004B000081500250195087501810205010930091B
:1004C000311581257F95027508810609381581252A
:1004D0007F950175088106050C0A38021581257F74
:1004E000950175088106C0C005010980A101850339
:1004F00019012AB700150126B70095017510810072
:10050000C0050C0901A101850419012AA0021501E9
:1005100026A002950175108100C005010906A10100
:100520008506050719E029E71500250195087501DD
:1005300081020507190029EF1500250195F07501C5
:10054000810205081901290595057501910295019A
:1005500075039101C005010906A101050719E029EC
:10056000E71500250195087501810295017508813F
:10057000010507190029FF150026FF0095067508DB
:10058000810005081901290595057501910295015C
:1005900075039101C00011241FBECFEFDAE0DEBF6A
:1005A000CDBF04B603FE18C08091BB029091BC027F
:1005B000A091BD02B091BE028730904BA740B04BD6
:1005C00059F41092BB021092BC021092BD0210921C
:1005D000BE02E0E0F8E3099511E0A0E0B1E0ECE64E
:1005E000F9E402C005900D92A03AB107D9F722E0D4
:1005F000A0EAB1E001C01D92AB3BB207E1F70E9457
:10060000BC120C948B240C94000081E0089581E0CE
:1006100008950C94070308950C940B031F93CF9334
:10062000DF9300D000D00F92CDB7DEB749835A8355
:100630006B833091A30189819A8131111DC066239A
:10064000B9F02223A9F00E948E09182F682F898102
:100650009A810E943B0969817A81812F0F900F90C6
:100660000F900F900F90DF91CF911F910C94A018D5
:100670000E946709182FEFCF0E948E0969817A8145
:10068000EDCFFC01262F40815181628173818481ED
:100690000C940E0381E00895CF93DF93EC0160E0AA
:1006A0000E944103BE01DF91CF910C940C03E1E065
:1006B000F0E0DF0102C0AA0FBB1F6A95E2F7BD019F
:1006C000DF0102C0AA0FBB1F4A95E2F76A2B01C0E7
:1006D000EE0F2A95EAF7962F9823961302C08E2BD9
:1006E0000895E0958E230895242F462F682F80913A
:1006F000C2010E9457030C94F8080C945D110C94ED
:10070000601108950E9494080E9481032FEF84E3F2
:100710009CE0215080409040E1F700C000000C9424
:100720005B1C0F931F93CF93DF938C0161E00E94BA
:100730004103EC01B8010E94AA158823D9F1B80140
:10074000CE010E9409038823A9F1B801CE010E94BD
:10075000011A882379F1B801CE010E949A168823E4
:1007600049F1B801CE010E946B19882319F1F801F3
:100770008281882361F0CA35FDE5DF0721F170F43D
:10078000C115ECE5DE07A1F0CE3DDC45C9F0C8019E
:10079000DF91CF911F910F910C940503CB358DE51F
:1007A000D807A1F0CC35DD4591F70E94AE0DEFCF13
:1007B0000E94820380E0DF91CF911F910F910895F5
:1007C0000E94670EF7CF0E94B70DE1CF0E94BA0DCD
:1007D000DECF0E94951B0C94D2040E94D5040C9489
:1007E000991BDF92EF92FF920F931F93CF93DF93AA
:1007F000E82FF0E0E45DFC4FD490282F2695269555
:10080000269530E0F901E453FC4F0491877010E025
:10081000082E02C0159507950A94E2F7017011277A
:10082000F901E454FC4FE490F12C082E02C0F59439
:10083000E7940A94E2F791E0E922FF24F901E455F4
:10084000FC4FC491D0E002C0D595C7958A95E2F7D8
:10085000C170DD270115110519F081EE0E942705F1
:10086000E114F10419F086EE0E9427058D2D0E94F7
:100870002606EF2819F086EE0E94B905012B19F023
:1008800081EE0E94B905CD2B51F08CE2DF91CF9122
:100890001F910F91FF90EF90DF900C942606DF914F
:1008A000CF911F910F91FF90EF90DF900895EF92FD
:1008B000FF920F931F93CF93DF93EC01162F0AE063
:1008C0008881882309F454C0813009F04EC08981A1
:1008D000813099F47E0122E0E20EF11C8A810E94AF
:1008E0002606E7012196812F815050F3EFE9FFE0C2
:1008F0003197F1F700C00000F7CF823041F47E015C
:1009000082E0E80EF11C8A810E942705EACF83303D
:1009100041F47E01E2E0EE0EF11C8A810E94B905ED
:10092000E0CF843011F02196DDCF2A81229690E02D
:1009300080E0AE014F5F5F4F2053330B2A3031050B
:1009400048F0019778F2EFE9FFE03197F1F700C046
:100950000000F7CF089FB001099F700D1124C90155
:10096000860F971F2981EA01E4CF0E94F103BACFD5
:10097000DF91CF911F910F91FF90EF90089560E06C
:100980000C94570408950C94C20481E008950C94CB
:10099000C5040895CF93C82F0E94C3048C2FCF9114
:1009A0000C94C70480E00C94CA040E945D1A0C9455
:1009B000CA040E945D1A9091A201981721F08093B9
:1009C000A2010C94CA040895CF93DF93CDB7DEB78C
:1009D0002B970FB6F894DEBF0FBECDBF4F8358875D
:1009E00069877A878B8761110E94FC0C1E821D82A9
:1009F00085E0FE013796DE01119601900D928A95F1
:100A0000E1F78C819D81892B89F449815A816B8121
:100A10007C818D819E810E941D0C2B960FB6F894CF
:100A2000DEBF0FBECDBFDF91CF91089589819A813E
:100A300089238F3F51F3CE0101960E944A03811111
:100A4000E4CFEBCFFC01808191810C94BB09CF9363
:100A5000C82F882309F48BC08238C1F40E945D1A24
:100A600081FD85C089E30E94B70C0E941C0D2FEF09
:100A700081EE94E0215080409040E1F700C00000FA
:100A800089E30E94BE0CCF910C941C0D8338A1F415
:100A90000E945D1A80FD6BC083E50E94B70C0E9426
:100AA0001C0D2FEF81EE94E0215080409040E1F743
:100AB00000C0000083E5E5CF8438A1F40E945D1AF0
:100AC00082FD55C087E40E94B70C0E941C0D2FEFD9
:100AD00081EE94E0215080409040E1F700C000009A
:100AE00087E4CFCF8CEF8C0F813A90F46C2F8091FC
:100AF0000201909103010E94D11A882329F08C2FC2
:100B00000E94BE0C0E941C0D8C2F0E94B70CBBCF04
:100B100080E28C0F883048F4C77081E001C0880FF4
:100B2000CA95EAF70E94DF0CAECFEBE5EC0FE3309D
:100B300040F4F0E0E95BFE4F808190E0CF910C94AF
:100B4000911AE8E5EC0FE73150F4F0E0EE0FFF1FEB
:100B5000E75EFE4F80819181CF910C94A71AC03F30
:100B600030F08C2F0E944013CF910C941314CF912E
:100B70000895882309F452C0823871F40E945D1AE6
:100B800081FF4CC089E30E94B70C0E941C0D89E3D1
:100B90000E94BE0C0C941C0D833859F40E945D1AFF
:100BA00080FF3CC083E50E94B70C0E941C0D83E5CA
:100BB000EFCF843859F40E945D1A82FF2FC087E47A
:100BC0000E94B70C0E941C0D87E4E2CF9CEF980FA7
:100BD000913AF0F290E2980F983050F4877091E0DB
:100BE00001C0990F8A95EAF7892F0E94E50CD2CFB0
:100BF0009BE5980F933020F490E080E00C94911ADC
:100C000098E5980F973120F490E080E00C94A71AB3
:100C1000803F20F00E949A130C94131408951F93A0
:100C2000CF93DF93182FEB010E942705209731F413
:100C3000812FDF91CF911F910C94B9058FE99FE02F
:100C40000197F1F700C000002197F0CF70E060E05D
:100C5000893311F460E570E00C940F06882321F0CD
:100C60000E94DF0C0C941C0D0895882321F00E9433
:100C7000E50C0C941C0D0895BF92CF92DF92EF9279
:100C8000FF920F931F93CF93DF936C01D62FC72F43
:100C9000FC011281F580F2949FE0F9220E94D50CAC
:100CA000E82E8823B9F0E12E1123A1F08C2F807F4C
:100CB000803421F080E28D0F8830D0F08091950251
:100CC00082FD16C082E00E947D0D0E94D50C91E04D
:100CD000E82EE926BC2EB2948FE0B822FBE0FB158B
:100CE00008F468C0EB2DF0E0E357FB4D0C941B2497
:100CF000E12CF0CF0C2F0F70C07F11F00295007F18
:100D0000112399F0002359F080E28D0F883010F004
:100D1000D11107C0802F0E94DF0C0E941C0D8D2F67
:100D200041C0802F0E94EF0CF8CF8D2F0E94B90593
:100D3000002309F43FC080E28D0F883010F0D111FC
:100D400004C0802F0E94E50C03C0802F0E94F50C88
:100D50000E941C0D2FC00C2F0F70C07FC03211F0ED
:100D60000295007FDD2381F0D13009F469C01123A1
:100D700009F473C0FF2009F469C0F601858180FF82
:100D8000CECF8F70858362C08091950282FF38C07C
:100D9000112359F0002329F0802F0E94DF0C0E94BC
:100DA0001C0D80E00E94270505C080E00E94B90567
:100DB0000111C7CFEB2DE850FF0B349720F40E94B0
:100DC0005D1A0E94CA04EE2009F44DC10E94D10CA4
:100DD00080FD49C1F60112820E94CB0C0E940909D4
:100DE000C6010E9454080E94CB0CDF91CF911F9145
:100DF0000F91FF90EF90DF90CF90BF900C9414096B
:100E0000112389F0F11006C00E94FF0C802B0E9474
:100E10002E06D0CF21E0F212F7CF0E94FF0C802BDC
:100E20000E94050DC7CFF11006C00E94120D802F41
:100E30000E943506BFCF31E0F31609F4BBCFF5CFE2
:100E4000112331F085E08F1508F4B4CF802FDFCF68
:100E500094E09F1508F4AECFEACFFF2041F3D933D9
:100E600049F4FFEF27EE33E0F15020403040E1F746
:100E700000C000008D2F0E94B9059CCF8C2F869555
:100E80008695837069F0813009F094CF8D2F9C2F67
:100E90009370111102C090E080E00E94A71A8ACFDF
:100EA0008D2F9C2F9370111102C090E080E00E9462
:100EB000911A80CF8D2F112329F00E9440130E9498
:100EC000131478CF0E949A13FACF8C2F837079F580
:100ED000111170CF4D2F429546954770440F440F26
:100EE0008D2F8F70042E01C0880F0A94EAF72D2FE2
:100EF0002071D4FF07C02FE030E001C0220F4A95D7
:100F0000EAF72095C695C695C370822BC23049F08A
:100F100058F4C13019F00E94EA084CCF0E94E5084D
:100F200049CF0E94EF0846CF0E94E30843CF869541
:100F3000112311F08C2F8170882309F43BCF4D2FA2
:100F4000429546954770440F440F8D2F8F70042EA5
:100F500001C0880F0A94EAF72D2F2071D4FF07C033
:100F60002FE030E001C0220F4A95EAF72095C695A0
:100F7000C695C370822BC23049F058F4C13019F0C5
:100F80000E94300917CF0E942B0914CF0E94350907
:100F900011CF0E94F8080ECFCF70112329F08C2FAB
:100FA0000E9409098D2F33CF8D2F0E9435068C2F7B
:100FB0000E941409FFCED23F51F160F4D03FB9F046
:100FC000D13F81F0112309F449C0F110A8CE8C2F34
:100FD0008F7121C0D33F11F1D43FA1F780919502C9
:100FE00082FF26C08C2F8F71112311F314C011239F
:100FF00049F084E08F1508F4DDCE8C2F8F710E94AC
:101000002009D8CE95E09F1508F4D4CEF6CF8C2FCA
:101010008F711111CDCF0E940909CCCE112329F077
:101020008C2F8F710E940109C5CE0E94FE08C2CE8E
:10103000112349F0CF718C2F0E94090963E08C2F96
:101040000E94620DB7CE81E00E947D0DE1E0EF15B8
:1010500008F0B0CE82E00E947D0DACCEF110FFCE44
:101060008C2F8F71A5CFDF91CF911F910F91FF90A2
:10107000EF90DF90CF90BF9008950F931F93CF9381
:10108000DF93EC01688179818A810E94C5098C0116
:101090000E943A090E94E208B801CE01DF91CF9187
:1010A0001F910F910C943C06CF93DF93EC018B8141
:1010B0009C81892B29F08881998189238F3F59F45C
:1010C000DF91CF910895CE010E943D08CE01DF91BE
:1010D000CF910C944C03CE010E9491038111F3CF68
:1010E0000E94D50C882361F38A81882349F380917B
:1010F000950282FDE5CF82E0DF91CF910C947D0DCA
:1011000090E080E00E94911A90E080E00E94A71A8F
:101110000E94FC0C0E941C0D0E943A150C941314A2
:101120000E94C50C0C9480080E94EC0C0C94900852
:1011300092959F70963091F058F4925F9F70923024
:1011400058F4803F19F030F4883E30F481E008957F
:101150009A5FF4CF843FD1F380E00895883EB0F3E6
:10116000813FD1F7F3CFFC01808191810E94BB09BF
:101170000C949808CF93DF9300D000D00F92CDB796
:10118000DEB70F900F900F900F900F90DF91CF91DF
:101190000895CF93DF9300D000D000D0CDB7DEB755
:1011A00026960FB6F894DEBF0FBECDBFDF91CF916C
:1011B000089508950C94D9080E94DA088093C30119
:1011C0000C94800808950C94DC089091C301892B3D
:1011D0000C94DC089091C30189230C94DC08909155
:1011E000C30189270C94DC080C94D9080C94F408EA
:1011F0000E94F6088093C2010C94800880E00C9451
:10120000F80891E001C0990F8A95EAF7892F0C94AC
:10121000F80821E030E001C0220F8A95EAF78091BA
:10122000C201822B0C94F80821E030E001C0220FAB
:101230008A95EAF720958091C20182230C94F808E0
:1012400021E030E001C0220F8A95EAF78091C201C7
:1012500082270C94F8089091C201892B0C94F8080D
:101260009091C20189230C94F8089091C2018927BA
:101270000C94F80808959295907F890F982F977095
:1012800041E001C0440F9A95EAF7869586958695C8
:1012900093E0899FF0011124EC55FE4F30E020E0EF
:1012A00070E05191DF011197CB01022E02C096959B
:1012B00087950A94E2F78170819585278423852795
:1012C0008C932F5F3F4F2330310559F70895929546
:1012D000907F890F982F977086958695869523E045
:1012E000829FF0011124EC55FE4F50E040E080E079
:1012F000219130E0092E02C0369527950A94E2F735
:1013000021703327042E01C0220F0A94EAF7822BA2
:101310004F5F5F4F4330510559F70895CF92DF92E9
:10132000FF920F931F93CF93DF936C010091C20143
:101330008091C301082BC7E0D0E010E0FC2EC8016B
:101340000C2E02C0959587950A94E2F780FD0CC09B
:101350002197A0F7F12C8F2DDF91CF911F910F9145
:10136000FF90DF90CF900895B6018C2F0E94471018
:10137000019771F3F0CFCF93DF93EC010E948E09B8
:10138000BE01DF91CF910C9447101F93CF93DF9351
:10139000EB019091A301992331F0CB01DF91CF9123
:1013A0001F910C94BB09882379F0CB010E948E0910
:1013B000182F682FCE010E943B09BE01812FDF91BB
:1013C000CF911F910C944710CB010E946709182FF1
:1013D000F4CF1F93CF93DF93C091C40116E08091A7
:1013E000C5018C1304C0DF91CF911F910895D0E007
:1013F0001C9FF0011D9FF00D1124EA53FE4F408108
:10140000518162817381848195810E94C9082196EE
:10141000C770E5CF4091F6015091F7016091F80156
:101420007091F9018091FA019091FB010C94C90827
:10143000FF920F931F93CF93DF938091FB01807FE7
:10144000D1F48091F8018823B1F08091C40110910A
:10145000C5016091F6017091F701A091F901B09179
:10146000FA01062F0723C0910001D091010196E0F7
:10147000F92E181306C0DF91CF911F910F91FF90A5
:10148000089590E0109711F00F3F19F401968770BE
:10149000F0CFF89E9001F99E300D1124F901EA5326
:1014A000FE4F41814713F2CF40814613EFCF428177
:1014B0004111ECCF438154814A1B5B0B4C175D07F4
:1014C00028F78091FB018F7080618093FB01F90107
:1014D000E553FE4F80818F708061808386EF91E0BD
:1014E0000E945408DF91CF911F910F91FF900C94AF
:1014F000E909AF92BF92CF92DF92EF92FF920F93E2
:101500001F93CF93DF93CDB7DEB761970FB6F894F3
:10151000DEBF0FBECDBF8C0185E0F801DE011D9658
:1015200001900D928A95E1F7F801E28086EFC82ECE
:1015300081E0D82E6091F9017091FA016115710571
:1015400009F45FC19091F6012091F701892F822360
:101550008F3F09F456C140815181A380B480F0903F
:10156000F801F501E61BF70BBF01E0910001F091D6
:101570000101FF2009F4F6C08091FB01382F307F74
:101580006E177F0708F0AFC0311179C0FE2C25130C
:1015900023C0941321C0E1101FC08F70806180931D
:1015A000FB010E940A0AC6010E9454088091FB01B7
:1015B000F80185838F2D61960FB6F894DEBF0FBEBC
:1015C000CDBFDF91CF911F910F91FF90EF90DF90F2
:1015D000CF90BF90AF900895AB2829F0842F85233A
:1015E0008F3F09F027C180E0F82FF170DF2E80FFD8
:1015F0003CC08091C4012091C50136E0821315C022
:101600004D875E878D859E850E94BB09292F229577
:101610002F702230F0F0243018F59F70F1F0F801AF
:101620009581907FD1F4D12C1EC090E0389FF001BD
:10163000399FF00D1124EA53FE4F6181651306C0F6
:101640006081641303C062816E110FC001968770C0
:10165000D5CF9F7011F0882331F3805E883018F366
:10166000C8010E945408FD2CA5CFEE2009F4A2CF9A
:101670008091FB0181608093FB01F12C9BCF2513AE
:1016800006C0941304C0F801EE2009F487C0C80115
:101690000E94B308882319F1EE2009F18091FB0123
:1016A000803270F02091F6013091F70138872F8356
:1016B0001986BB86AA868C87CE0107960E9454089D
:1016C00086E0F801A6EFB1E001900D928A95E1F76E
:1016D0000E94180A0E940A0AFF24F3946BCFC801E3
:1016E0000E945408F9CF311113C07A2DB98AA88A03
:1016F0006E2D89890E94BA0886EF91E00E945408F5
:1017000086E0F60111928A95E9F70E940A0AB5CFA0
:1017100025130FC094130DC0E1100BC0F801858391
:10172000C8010E94540886E0F60111928A95E9F7F3
:1017300041CFC8010E94B308882389F2EE2079F2D4
:101740008091FB01803208F4BBCF2091F6013091EB
:10175000F7013A8329831B82BD82AC828E83CE013E
:101760000196ACCF6E177F0708F03EC0FE2CEE202E
:1017700009F4B5CF25132AC0941328C08091FB012A
:1017800080FD1BC0982F907FC1F0F8018583903FAA
:1017900031F0982F907F905F8F70892B8583C801DF
:1017A0000E94540886E0F801A6EFB1E001900D9286
:1017B0008A95E1F70E940A0AFDCE86E0F801A6EFBD
:1017C000B1E001900D928A95E1F7F4CEC8010E9434
:1017D000B308811175CF8091FB0181608093FB017B
:1017E000C8010E945408E6CE7A2DB98AA88A6E2DC7
:1017F00089890E94BA0886E0F60111928A95E9F774
:10180000D9CFEE2009F46BCFC8010E94B308F82E9F
:10181000882309F464CF86E0F801A6EFB1E00190D7
:101820000D928A95E1F786EF91E00E9422050E94D1
:10183000180AC0CF81E08E25D7CE1F93CF93DF93B8
:10184000CDB7DEB72C970FB6F894DEBF0FBECDBF75
:101850004F83588769877A878B879C87CE01079645
:101860000E94790A882369F08A859B85892B39F043
:101870004F815885842F85238F3F09F071C016E072
:101880005FC086E0FE013796DE01119601900D9251
:101890008A95E1F78A859B85892B89F38F819885C5
:1018A00089238F3F61F32091C50130E0C901019682
:1018B000877099274091C4014817190671F40E9456
:1018C00094081092C5011092C40186E0E6EFF1E0A1
:1018D000DF011D928A95E9F7D2CF96E0929FD00161
:1018E000939FB00D1124AA53BE4FFE013196019073
:1018F0000D929A95E1F78093C5010E94E909BFCF47
:10190000819FC00111248A539E4F0E94790A882327
:10191000E9F0E091C4011E9FF0011124EA53FE4F4B
:101920004081518162817381848195810E94C908BF
:101930008091C40190E00196877099278093C4013B
:101940008091C4019091C5018913DACF2C960FB60E
:10195000F894DEBF0FBECDBFDF91CF911F910895E8
:1019600069857A858B859C850E94C90888CF682FF8
:1019700080910201909103010C94511B682F80917A
:101980000201909103010C945C1B809102019091E3
:1019900003010C94671B80911C02859585958595A4
:1019A000089580911C028770089590911C02977091
:1019B00081E009F480E0089580913F0208959091BC
:1019C0003F02892B80933F020895809590913F02BA
:1019D000982390933F02089510923F0208959091AA
:1019E0003E02892B80933E020895809590913E029D
:1019F000982390933E02089510923E02089580919C
:101A00001D02089508950C94020D9091950292FD87
:101A100008C090911D02981721F080931D020C942C
:101A2000030D089580911D02882329F010921D0254
:101A300080E00C94030D0895CF93DF93E0910201B1
:101A4000F091030180913F028083E0910201F091C7
:101A50000301808190913E02892B808390911D0229
:101A6000992381F0E0910201F09103018081892B9B
:101A7000808380910201909103010E94BD1A81111F
:101A80000E94120DC0910201D091030140E250E08A
:101A90006CEF71E0CE010E943C24892B69F080E25A
:101AA000FE01ACEFB1E001900D928A95E1F7CE0115
:101AB000DF91CF910C94691ADF91CF910895089529
:101AC0000C945F0D9091950292FD10C098E0899F53
:101AD00090011124622B60931C020E9409098091DD
:101AE0001C028595859585950C94600D0C940909CB
:101AF00010921C0280E00C94600D90911C02809565
:101B0000892380931C02282F277091F4282F082EF8
:101B1000000C330B9217130659F09091950292FD29
:101B200007C08595859585950E9414090C94780DBC
:101B300008959091950292FB222720F9281769F0C9
:101B400080FB92F990939502809194029091950276
:101B50000E94E40D82E00C947D0D08958091950221
:101B600082FB882780F991E089270C94990D81E008
:101B70000C94990D80E00C94990D6FEF7FEF90E03D
:101B800080E00C94752490E080E00E945124893E0E
:101B90009E4F11F40C94481580E0089582E090E087
:101BA0000C94492483E090E00C944924CF9384E082
:101BB00090E00E944924C82F82E290E00E944924CC
:101BC000982F8C2FCF910895CF93C92F682F84E041
:101BD00090E00E9457246C2F82E290E0CF910C9409
:101BE0005724AB01BC018FE090E00C946924AB0159
:101BF000BC0183E190E00C94692460E070E0CB01CB
:101C00000C94F70D60E070E0CB010E94F10D0C9494
:101C1000FD0D69EE7EEF90E080E00E94752460E0AB
:101C200082E090E00E94572460E083E090E00E9410
:101C300057241092C30160E084E090E00E94572492
:101C400060E082E290E00E94572460E085E090E04E
:101C50000E94572460E086E090E00E9457246FEFD6
:101C600087E090E00E94572440E050E0BA0188E00D
:101C700090E00E94692460E08DE090E00E9457248B
:101C800040E050E0BA0188E190E00E94692460E001
:101C900087E190E00E94572440E050E0BA018CE1D7
:101CA00090E00E94692470E060E080E290E00E9491
:101CB000752440E050E0BA0188E190E00E94692478
:101CC00080E00E9461150E948E150C94020E0C9407
:101CD000090E682F8EE090E00C9457240E941C1C83
:101CE00060934E0270934F02809350029093510282
:101CF00060934A0270934B0280934C0290934D0282
:101D0000089585B7806885BF85B7806885BF0895C9
:101D1000089508950C94890E08950C948C0E0E94D9
:101D2000810E85E291E10E94531A0E94880E0C9464
:101D30008A0E81E008950C94990E089508950E94EA
:101D40009D0E0C949E0E0E9442110C94C9040E9498
:101D5000071C0E949D150E9416120E94A30E0C944F
:101D60008D0E7F928F929F92AF92BF92CF92DF9211
:101D7000EF92FF920F931F93CF93DF93CDB7DEB710
:101D80002A970FB6F894DEBF0FBECDBF0E942B126C
:101D9000A82E81110E946E0E50E4852E52E0952EE1
:101DA00010E000E0702E802F0E9462116C01F4019F
:101DB000E190F1904F01E816F90609F453C08091C3
:101DC000520281FD0E946B11C7018C259D25B12C0B
:101DD000EE24E394F12C9C012E213F21232BE1F1F1
:101DE0000E949B0E8823A9F0BE827F82CE20DF2036
:101DF00081E0CD2809F480E088870E94101C816072
:101E0000782F9A8789874E815F8168858A850E94AD
:101E1000E404000F111FF801E05CFD4F8081918107
:101E2000E826F926F182E08281E0A11001C080E07D
:101E30002A960FB6F894DEBF0FBECDBFDF91CF91CB
:101E40001F910F91FF90EF90DF90CF90BF90AF90D8
:101E50009F908F907F900895B394EE0CFF1CF0E15B
:101E6000BF12B9CF0F5F1F4F0530110509F09ACF90
:101E70008FEF89838A831B820E94101C8160782FD8
:101E80009D838C8349815A816B818D810E94E404FA
:101E9000CBCF0E94B10E0E942E140C94D904CF9384
:101EA000DF930E944B10EC01811521E5920708F0A9
:101EB00042C0811530E5930708F09DC0883E91052A
:101EC00030F5803E910508F092C0883A910588F47B
:101ED000853A910508F084C08130910509F487C0E6
:101EE000009709F484C0049708F081C0D0E0C0E0F6
:101EF0007EC08F3B9105D0F7C85AD0E0CC0FDD1FD4
:101F0000C65BDE4F0990D881C02DD46470C08115A6
:101F1000904250F4C11581E0D80708F068C0C03F76
:101F2000D10520F3D06563C0C11590E4D907F0F264
:101F3000DF70D06A5CC0811525E5920700F5811538
:101F400034E5930708F08BC0811543E5940708F04A
:101F500073C0C11582E5D80708F469C0CE0183704B
:101F6000992721E030E002C0220F331F8A95E2F763
:101F7000C695C69580E2C89FE001112454C0C115E2
:101F800099E5D907A8F4C11528E5D20708F06CC077
:101F9000C11536E5D30708F0A9CF8C2F0E94E210B7
:101FA000C82FD0E0DC2FCC27CC27DF71D0621FC038
:101FB000C1154AE5D40708F45CC0CE0190568115DE
:101FC000904208F093CF8D2F8F710E94E21090E025
:101FD000982F882788279F719C012C2BE901E6CF39
:101FE000C55AD0E0C858DE4FC881D0E0D064CE01D9
:101FF000DF91CF910895E4E096958795EA95E1F712
:1020000083702C2F26952695237040E2249F900103
:102010001124382B8C2F8370C1E0D0E002C0CC0F8C
:10202000DD1F8A95E2F7C22BD32BDC68E0CFDC2FD3
:10203000CC27C16FD06ADBCF8370992721E030E0D5
:1020400002C0220F331F8A95E2F7C695C69590E22B
:10205000C99FE0011124C22BD32BDA68C8CFD82F37
:10206000CC27C46FD06AC3CFDC2FCC27C06FD06A17
:10207000BECF8C2F8F700E94E21034E0D695C795AA
:102080003A95E1F7CF709C2FEC01D069B0CF0E9458
:10209000A0180C944F0F82389105B1F1B0F4813340
:1020A000910509F475C048F48932910509F469C0B5
:1020B0008A32910509F473C008958533910509F4B6
:1020C00059C08933910501F10895833E9105A9F125
:1020D00038F4803E9105F9F0823E910549F108956A
:1020E000863E9105A9F1873E9105C9F1843E91058F
:1020F00019F52091950221FF1FC08091940284FD63
:1021000014C087EE90E00895209194022370A1F00E
:1021100080EE90E008952091940220FD47C0309118
:10212000950230FF09C024FF44C090E080E004C065
:102130002091940222FDF7CF08952091940222FD70
:102140003BC03091950230FDE3CF24FFF5CFEDCFBA
:102150002091940223FFF0CF24FDE7CFD2CF20912E
:10216000940223FD2CC03091950231FFEECF84EE16
:1021700090E008952091940225FFDECF89E290E05F
:1021800008952091940225FFD7CF85E390E008952C
:102190002091940226FFD0CF8AE290E0089520910A
:1021A000940226FFC9CF81E390E0089589E390E08F
:1021B000089583EE90E0089582EE90E0089586EE13
:1021C00090E008959091940292FF06C0282F287104
:1021D0002830F9F4877F846093FF06C0282F287188
:1021E0002831F1F4877E84612091950220FF06C09A
:1021F000382F38713830D9F4877F816021FF06C0CD
:10220000282F28712831D1F4877E816194FD877E43
:102210000895282F24712430F9F68B7F8860DCCF55
:10222000282F2471243101F78B7E8861DDCF382F70
:102230003171313019F78E7F8860E0CF282F2171FE
:10224000213121F78E7E8861E1CF80E008950C94E2
:10225000BD0D0E942B122FEF86E791E021508040A8
:102260009040E1F700C000000E942B1280E00E9425
:10227000621180FF04C00E9427110C945B1C08951A
:102280000C9429110E94C30D811102C00E94670E97
:102290000E94CE0D809352020E94D60D909395021B
:1022A000809394020E9440110E94D20D0E94E30884
:1022B0008091C2010C94F60808950C945C11089565
:1022C0000C945F11E82FF0E0EE0FFF1FE056FD4F7A
:1022D000808191810895089580EA8A95F1F70895A3
:1022E00000C008950C946C11F894E82FE295EF70FB
:1022F000F0E031A1282F2F7081E090E001C0880F1D
:102300002A95EAF7982F9095932391A392A1892B70
:1023100082A378940895CF93DF93CBE8D1E089919D
:102320008F3F11F00E94741181E0C039D807B9F7CE
:10233000CBE7D1E089918F3F11F00E94741181E0C9
:10234000CB38D807B9F7DF91CF910895AF92BF92FC
:10235000DF92EF92FF920F931F93CF93DF938C0145
:10236000D62EC62FD0E0CE0185579E4F7C01FC01B2
:1023700020812F3F09F44DC0F894E22FE295EF70D1
:10238000F0E031A12F7081E090E001C0880F2A9524
:10239000EAF7932F982B91A392A18095892382A38A
:1023A00078940E947011EBE7F1E04BE851E021E0F6
:1023B00030E0B12CA12C61916F3FA9F1A62FA2951D
:1023C000AF70B0E090968C9190E06F7002C09595E0
:1023D00087956A95E2F780FD26C0C901A82AB92A27
:1023E000220F331F4E175F0731F7F70180818F3FB0
:1023F00011F00E94741161E0A114B10409F460E0CD
:102400008D2D0E947211CC0FDD1FC00FD11FB9821C
:10241000A882DF91CF911F910F91FF90EF90DF90F5
:10242000BF90AF90089590E080E0D8CF0E948B11CC
:102430008AE0E0EAF2E0DF01982F1D929A95E9F731
:10244000E6E9F2E0DF011D928A95E9F785E00E9456
:1024500076120C947D03FF920F931F93CF93DF931B
:10246000CDB7DEB72A970FB6F894DEBF0FBECDBF4B
:102470008E010F5F1F4F8AE0F80111928A95E9F7EC
:10248000F12C6F2DC8010E94A611F394F5E0FF1204
:10249000F8CF4AE050E0B80186E992E00E943C247F
:1024A000FF24F394009709F4F12C892B41F08AE082
:1024B000F801A6E9B2E001900D928A95E1F72F2D7F
:1024C00045E060EA72E086E992E00E9477120E949D
:1024D0007F038F2D2A960FB6F894DEBF0FBECDBFB7
:1024E000DF91CF911F910F91FF9008950895FF9272
:1024F0000F931F93CF93DF93F82E092F162FD72F0B
:10250000C42F222349F081E0809355020E94101CC1
:102510009093540280935302809155028823A1F036
:1025200080915302909154020E94281C059760F0FC
:10253000EF2DF02FA12FBD2F90E080E0D0E08C1781
:102540009D0744F010925502DF91CF911F910F919A
:10255000FF900895219131912D933D930196EFCFF6
:102560000E94561E0E94A70E0C94621E0E94661EB8
:102570000E94490F0C94801E0E94B01B0E943D1EB9
:102580000E948F0E0E94B0120E94B6120E949F0EEF
:10259000FBCF80915C0280FF0DC06091090170E06B
:1025A000660F771F6038710570F56115710569F167
:1025B000862F089581FF07C06091090184E0689F1C
:1025C000B0011124EFCF6091090182FD0AC0809112
:1025D0005B028823A9F0209108016091090182170C
:1025E00010F088E0ECCF869FC001112433E0880F03
:1025F000991F3A95E1F7622F70E00E940724D2CF2D
:1026000068E070E0D5CF8FE7089581E0089580916C
:102610005C0280FF0CC06091050170E075956795C4
:10262000759567956115710549F1862F089581FFAC
:1026300006C06091050170E075956795F3CF6091D4
:10264000050182FD0BC090915A029923A1F060917F
:10265000040180910501961738F0682F70E060380A
:10266000710500F38FE70895899FC001112470E080
:102670000E940724F4CF61E070E0D7CF81E0089595
:10268000803F31F40E94C9128195809360020895C1
:10269000813F19F40E94C912F8CF823F31F40E94A1
:1026A000C912819580935F020895833F19F40E94B7
:1026B000C912F8CF893F29F40E9407138093610261
:1026C00008958A3F21F40E9407138195F7CF8B3F2D
:1026D00031F40E94071381958093620208958C3F24
:1026E00019F40E940713F8CF9CE0980F953070F40E
:1026F000845F990B21E030E001C0220F8A95EAF750
:1027000080915E02822B80935E0208958D3F31F4AA
:1027100080915C02816080935C0208958E3F21F479
:1027200080915C028260F7CF8F3FB9F780915C02A5
:102730008460F1CF40915F02803F59F48091600244
:1027400087FF0DC01092600241110BC010925B0216
:1027500008C0813F81F48091600218169CF34423E5
:1027600081F08091610290916202892B09F05AC038
:1027700010925A020895823F49F447FFF0CF109219
:102780005F02809160028111ECCFE0CF833F19F4AA
:102790001416ACF3E4CF90916102893F29F4191625
:1027A000F4F610926102DBCF8A3F19F497FFD7CF7E
:1027B000F8CF909162028B3F29F497FFD0CF10920F
:1027C0006202CDCF8C3F19F41916CCF3C8CF9CE030
:1027D000980F953090F4845F990B21E030E0B901B7
:1027E00002C0660F771F8A95E2F7CB018095909122
:1027F0005E02892380935E02B2CF8D3F31F48091D7
:102800005C028E7F80935C02AACF8E3F21F4809180
:102810005C028D7FF7CF8F3F09F0A1CF80915C02E2
:102820008B7FF0CF08950E94101C9C0190915F0255
:1028300080916002982B21F0309359022093580226
:102840009091610280916202982B21F0309357029F
:10285000209356028DE592E00C94831AEF92FF923A
:102860000F931F93CF93DF9300D000D000D0CDB74C
:10287000DEB786E0EDE5F2E0DE01119601900D9203
:102880008A95E1F7E0905F02F090600200916102AA
:102890001091620210925F02109260021092610227
:1028A000109262028E2D8F2991F0809158029091A2
:1028B00059020E94281CAC0190915B02992309F4F3
:1028C0003FC080910A018417150608F447C0802F85
:1028D000812B91F080915602909157020E94281C02
:1028E000AC0190915A02992309F477C080910601B6
:1028F0008417150608F47FC080915F0290916002F2
:10290000892B90916102892B90916202892B11F0A1
:102910000E94131486E0FE013196ADE5B2E001900D
:102920000D928A95E1F726960FB6F894DEBF0FBE9A
:10293000CDBFDF91CF911F910F91FF90EF90089540
:1029400020910B018AE0289F90011124241735075C
:1029500008F0BDCF9F5F90935B0202C09F3FD1F70D
:10296000EE2059F00E94C9129FEF1E140CF491E062
:10297000899F802D112480935F02FF2059F00E94CF
:10298000C9129FEF1F140CF491E0899F802D112430
:102990008093600230915F02332309F498CF209135
:1029A0006002222309F493CF45EB3403C0011124C4
:1029B000992359F090935F0245EB24039001112471
:1029C000332339F03093600282CF81E080935F023D
:1029D000F3CF81E0809360027ACF209107018AE0F3
:1029E000289F900111242417350708F085CF9F5F99
:1029F00090935A0202C09F3FD1F7002359F00E94E2
:102A000007139FEF10160CF491E0899F802D11247D
:102A100080936102112359F00E9407139FEF111652
:102A20000CF491E0899F802D1124809362023091F3
:102A30006102332309F460CF20916202222309F45A
:102A40005BCF45EB3403C0011124992359F09093D7
:102A5000610245EB240390011124332339F03093B4
:102A600062024ACF81E080936102F3CF81E08093DC
:102A7000620242CF86E0EDE5F2E0DF011D928A9529
:102A8000E9F710925B0210925A0210925C020895CC
:102A900083E290E00E944924823289F484E290E04B
:102AA0000E944924873059F485E290E00E9449242D
:102AB00091E0873209F090E0892F8170089580E0DD
:102AC000FCCFCF93C82F6FEF811162E283E290E0D9
:102AD0000E9457246FEFC11167E084E290E00E94EA
:102AE00057246FEFC11167E285E290E0CF910C941B
:102AF0005724089586E290E00E944924682F70E0F0
:102B000090E080E008950895CF93C62F0E9483152A
:102B10006C2F86E290E0CF910C94572480E00E94C5
:102B2000611560E070E0CB010E9484150E941818C6
:102B30000E94041981E00C9461150E9479150E948D
:102B40007A150E9483150E944815811102C00C94C9
:102B50008E150895CF93FB01C281CC2309F19C010E
:102B600022513F452031310520F582510E94141930
:102B7000C0E08C2FCF91089581E00E94090943E0C5
:102B800062E081E00E947403F3CF81E00E941409A7
:102B900043E062E081E00E947403EBCF82E0F6CF75
:102BA0008031FFE59F0789F381319F45B9F3C1E08B
:102BB000E0CF8031EFE59E07F9F281319F45C9F6FC
:102BC00082E0DBCF2FEFFC0120830895EF92FF928C
:102BD0000F931F93CF93DF93EC01062FE881E15011
:102BE000E33108F05EC0F0E0E756FB4D0C941B2487
:102BF000198289E08A83602FCE01DF91CF911F91E6
:102C00000F91FF90EF900C94161D8981823069F02E
:102C1000833071F08130D9F40E941C1C0E94212461
:102C20006A837B838C839D83E6CF0E947A15F6CFDF
:102C30007E0110E0812F0E946211F701928383834D
:102C40001F5FF2E0EF0EF11C1530A1F7D4CF602F1B
:102C5000CE010E94E215CFCF89818230C1F76A810F
:102C60007B818C819D810E9421240E948415C3CF89
:102C70004B816A8189810E94EA17982789279827C2
:102C80009D838C83B8CF2C813D8132272327322727
:102C90004B816A8189810E940318ADCF0E94181868
:102CA000AACF8FEF8883A7CF0E94AD188983A3CFC7
:102CB0000E94AF189827892798279A8389839BCFEA
:102CC0006B8170E089819A81AE014C5F5F4F9827DC
:102CD000892798270E94B2188ECF6B8170E0898176
:102CE0009A81AE014C5F5F4F9827892798270E94F1
:102CF000D91881CF0E9404197ECF0E94D717D6CF52
:102D00006B8170E089819A81AE014C5F5F4F98279B
:102D1000892798270E9450186ECF6B8170E08981B7
:102D20009A81AE014C5F5F4F9827892798270E94B0
:102D3000761861CFCF93DF93EC01FB01828188236A
:102D400009F433C1C330FDE5DF07C0F5CA3F9CE598
:102D5000D90730F49E0122503C4524313105B0F5AD
:102D60000E94D60D9093950280939402C1318CE518
:102D7000D80709F4EEC008F069C0C930ECE5DE07F9
:102D800009F4D5C0C8F5C5308CE5D80709F4C7C02B
:102D900000F5C330ECE5DE0709F4B9C008F0BBC0AC
:102DA000C230DC4509F4ADC0809194029091950247
:102DB0000E94E40D0E94940880E008C0C136EDE551
:102DC000DE0771F2C53AFDE5DF0751F2DF91CF91E1
:102DD0000895809194028062C7309CE5D90709F478
:102DE00093C0809194028061C830DC4508F48CC0A7
:102DF00080919402806488C0809194028B7FCD3052
:102E0000FCE5DF0709F480C098F4809194028E7F7E
:102E1000CB309CE5D90709F477C0809194028C608F
:102E2000CC30DC4508F470C0809194028D7F6CC07A
:102E3000809194028F7ECF30FCE5DF0709F464C0F7
:102E400008F47BC0809194028F7D5EC0CD3F9CE5ED
:102E5000D90709F47AC050F5C531FCE5DF0709F45C
:102E600086C098F480919402837FC3319CE5D90792
:102E700009F44AC008F471C00E9494089091940229
:102E8000892F97FB87F980583FC0CB3FFCE5DF07D0
:102E900009F449C008F055C0809195028160CA3F8D
:102EA000DC4509F081CF809395027ECFC130EDE5FE
:102EB000DE0709F468C0A8F4CF3F8CE5D80709F411
:102EC00052C0809195028360C115DD4560F3809109
:102ED0009502982F909591708E7F892B90FB81F9A8
:102EE000E2CFC136EDE5DE0709F451C0C53AFDE594
:102EF000DF0709F453C0C230DD4509F055CF80E04B
:102F000043C0809194028160809394024DCF809160
:102F100094028260F9CF809194028460F5CF809111
:102F200094028860F1CF809195028260BCCF0E94AC
:102F30009408809194028068E7CF80919402877F03
:102F4000E3CF809195028E7FAECF809195028D7FE9
:102F5000AACF809194028F7BD7CF0E949408809152
:102F600094028F77D1CF809195028C7F9CCF8091F6
:102F7000940282FB992790F921E0922790FB82F935
:102F800090FB83F9C1CF81E00E94690E0DCF909133
:102F90009402892F8F7E94FF8061B6CF9091940226
:102FA000892F8E7F90FF8160AFCF81E00FCF84E0CB
:102FB000089590E2699FB001112450E0440F551F1D
:102FC000640F751F90EA899F600D711D1124CB015C
:102FD000879608950F931F93CF93DF930E94D9177D
:102FE0008C010E944924C82FD0E0DC2FCC27C801D7
:102FF00001960E9449249E01282BC901DF91CF919F
:103000001F910F9108950F931F93CF93DF93122F6A
:10301000032F0E94D917EC01602F0E945724612FC3
:10302000CE010196DF91CF911F910F910C945724FF
:10303000AF92BF92CF92DF92EF92FF921F93CF9306
:10304000DF938CEAC82E80E0D82ED0E07601C0E075
:1030500014C0F50125913491412F6C2F8D2F0E94C2
:10306000031882E0A80EB11C1F5F103191F780E2B7
:10307000E80EF11CCF5FC53019F0570110E0E9CF21
:10308000DF5F80EAC80ED11CD43001F7DF91CF9109
:103090001F91FF90EF90DF90CF90BF90AF90089579
:1030A000EF92FF920F931F93CF93DF93EC018A016E
:1030B0007C01E60EF71ECE018796CE15DF0539F4AA
:1030C000DF91CF911F910F91FF90EF900895C0383D
:1030D00022E0D20740F40E944924F80180830F5F68
:1030E0001F4F2196E8CFF8011082F9CFCF92DF92DF
:1030F000EF92FF920F931F93CF93DF937C016A01AE
:103100008C01060F171FEC01CE018796C017D1075F
:1031100049F4DF91CF911F910F91FF90EF90DF90D5
:10312000CF900895C03822E0D20740F4FE01EE1996
:10313000FF09EC0DFD1D60810E9457242196E4CF0C
:10314000462F843038F4753028F4603118F4672F36
:103150000C94EA1790E080E0089580E1089589E5F5
:1031600091E00895EF92FF920F931F93CF93DF9317
:10317000EC018A017C01E60EF71ECE0189559D4FB8
:10318000CE15DF0539F4DF91CF911F910F91FF909C
:10319000EF900895C93521E0D20740F40E944924F8
:1031A000F80180830F5F1F4F2196E7CFF80110824F
:1031B000F9CFCF92DF92EF92FF920F931F93CF93AD
:1031C000DF937C016A018C01060F171FEC01CE0111
:1031D00089559D4FC017D10749F4DF91CF911F91B9
:1031E0000F91FF90EF90DF90CF900895C93521E0C7
:1031F000D20740F4FE01EE19FF09EC0DFD1D6081C0
:103200000E9457242196E3CFCF93DF93C7EAD2E001
:1032100060E0CE010E9457242196C11584E0D807B2
:10322000B9F7DF91CF910895DF92EF92FF920F935C
:103230001F93CF93DF9300D000D0CDB7DEB7F82E29
:103240008FE08F1540F08FEF93E00E94492407EA4A
:1032500012E08823C1F00F900F900F900F90DF9134
:10326000CF911F910F91FF90EF90DF90089501157E
:1032700084E0180781F3C8010E944924811101C02C
:10328000FA940F5F1F4FF110F2CF19821A821B823E
:103290001C82DD24D39478018FEFE81AF80AC80164
:1032A0000E94492489831A828823A9F29FEF980FEC
:1032B000933078F48A83D9820E5F1F4FC7010E9432
:1032C00049248B83882339F2CE0101960E94BF04E2
:1032D000E2CF8701F9CFCF93DF93EB0186319C4595
:1032E00011F50E94DC0C9A81992399F08A7A91E079
:1032F00009F490E090936302811109C089E20E9471
:10330000B70C0E941C0D80E0DF91CF91089585E3FA
:10331000F6CF80916302811104C089E20E94BE0C45
:10332000F0CF85E3FBCF81E0EFCF0F931F93CF93D7
:10333000DF93C42FD22FFC0182818823C9F04093F0
:1033400066020E94101C909365028093640280E2E2
:103350008C0F883008F050C0C77081E001C0880F22
:10336000CA95EAF7DF91CF911F910F910C942E0629
:1033700010916602141335C0809164029091650229
:103380000E94281C883C910560F5C0E2CD0F1D17F6
:10339000B9F080E2810F883040F4177081E001C0FD
:1033A000880F1A95EAF70E943506C83048F481E084
:1033B0009D2F977001C0880F9A95EAF70E942E06FC
:1033C000802F0E942606C830B8F4D77081E001C073
:1033D000880FDA95EAF7DF91CF911F910F910C9446
:1033E000350680E28C0F883038F4C77081E001C068
:1033F000880FCA95EAF7EFCFDF91CF911F910F9118
:1034000008950F939C01CB01233F4CE5340759F1FC
:10341000A8F4283DFCE53F0701F1293D4CE53407C0
:10342000D1F1273D3C4591F406E221EE41EE67EDF6
:103430007CE50E94951980E00F910895253FFCE5F9
:103440003F07E9F0B0F0263F3C45F9F0FC018281EE
:10345000882339F110926602EFCF07E225EE45EEA0
:1034600068ED7CE5E6CF06E221EE40EE63EF7CE519
:10347000E0CF07E225EE44EE64EF7CE5DACF06E22A
:1034800021EE42EE65EF7CE5D4CF07E225EE46EE75
:1034900066EF7CE5CECF08E221E045EE69ED7CE504
:1034A000C8CF81E0C9CF9093A1018093A001089576
:1034B00090936C0280936B020895E0916B02F091FF
:1034C0006C02309721F00190F081E02D099480E0AA
:1034D0000895E0916B02F0916C02309799F0209181
:1034E0001801222359F02091940227FF07C0DC0124
:1034F0002C9111962C93119726E02C930280F38146
:10350000E02D09940895E0916B02F0916C023097E0
:1035100039F022E0DC012C930480F581E02D099440
:1035200008952091690230916A022817390771F0D5
:1035300090936A0280936902E0916B02F0916C02B1
:10354000309721F00680F781E02D099408952091AD
:103550006702309168022817390771F0909368026A
:1035600080936702E0916B02F0916C02309721F03A
:103570000084F185E02D09940895FC013296809134
:103580001801882321F0809194029EE187FF96E044
:1035900080E0915008F4089521912223D1F38F5FA8
:1035A000F8CF662301F1209118012223F1F0209138
:1035B000940227FF1AC0462F4695469546954E31F0
:1035C00090F4677021E030E002C0220F331F6A954B
:1035D000E2F7840F911DFC01828190E028233923BA
:1035E00081E0232B69F480E00895FC01329608966F
:1035F0002191261721F0E817F907D1F7F4CF81E0E0
:1036000008959C01FC0132969FEF80E0419146179E
:1036100051F09F3F19F4411101C0982F8F5F863000
:10362000A9F79F3F09F40895290F311D97FD3A9599
:10363000F90162830895FC013296089621912613C0
:1036400003C0DF0111971C92E817F907B9F7089535
:10365000E62FE695E695E695EE3168F4E80FF92F4A
:10366000F11D677021E030E001C0220F6A95EAF792
:103670008281822B82830895E62FE695E695E69572
:10368000EE3170F4E80FF92FF11D677021E030E0A2
:1036900001C0220F6A95EAF72095828128232283B0
:1036A000089520911801222329F02091940227FDEA
:1036B0000C94281B0C94011B20911801222329F043
:1036C0002091940227FD0C943C1B0C941B1BFC01C5
:1036D000329680911801882351F08091940287FFDF
:1036E00006C08EE1DF011D928A95E9F7089586E014
:1036F000F9CF08950C94791B811105C081E0809366
:103700006D020C947A1B82E0FACF83E080936D0205
:103710000C947A1B0C947C1B81E080936D020C94BA
:103720007A1B0C948C1B089508950C94941B089597
:1037300008950C94931BCF930E94971B0E942B1209
:103740000E94981BC0E08C2F0E946211892B31F4DB
:10375000CF5FC530C1F780E0CF91089581E0FCCF05
:1037600008951F921FB61F9211248F939F93AF93BA
:10377000BF9380916E02811113C08091AA02909133
:10378000AB02A091AC02B091AD024196A11DB11D5A
:103790008093AA029093AB02A093AC02B093AD02C7
:1037A000BF91AF919F918F911F901FBE1F90189551
:1037B0008091B202843031F10E94E90310926E02CE
:1037C00088E190E020E40FB6F894A895809360001B
:1037D0000FBE2093600083B7817F846083BF83B76F
:1037E000816083BF7894889583B78E7F83BF0FB63F
:1037F000F894A89580916000886180936000109291
:1038000060000FBE08950E9494080C94ED0382E0BE
:1038100084BD93E095BD9AEF97BD80936E000895A7
:103820002FB7F8948091AA029091AB02A091AC02BC
:10383000B091AD022FBF08952FB7F8946091AA02FE
:103840007091AB028091AC029091AD022FBF0895B0
:103850009C014FB7F8948091AA029091AB02A0917D
:10386000AC02B091AD024FBF821B930B08957894C8
:103870001F921FB61F9211248F939F93AF93BF93F4
:103880008091AA029091AB02A091AC02B091AD02DE
:103890000196A11DB11D8093AA029093AB02A09343
:1038A000AC02B093AD02BF91AF919F918F911F90E9
:1038B0001FBE1F90189581E08093E00080E2809306
:1038C000D8001092C9008FE19EE40197F1F700C083
:1038D000000087E090EBDC018093BB029093BC0278
:1038E000A093BD02B093BE0288E19CE00FB6F894AD
:1038F000A895809360000FBE90936000FFCF8091E9
:103900009202089508959C0184E08093E9009FEF5E
:103910008091E800915085FD06C085ED8A95F1F70C
:1039200000009111F5CF8091E80085FF0CC050E0B8
:1039300040E066E070E0C9010E94271F8091E80026
:103940008E778093E8000895CF93DF93EC01809108
:1039500018018823B1F18091940287FF32C060E2A0
:1039600084E08093E9008FEF9091E800815095FD0D
:1039700006C095ED9A95F1F700008111F5CF809181
:10398000E80085FF1BC08091180170E050E040E026
:10399000811104C050E040E068E070E0CE010E9478
:1039A000271F8091E8008E778093E80080E2FE0177
:1039B000A2E7B2E001900D928A95E1F7DF91CF91F5
:1039C000089568E081E0CDCF80936F02709371021B
:1039D000609370028091B2028430F9F48093E90020
:1039E0008FEF9091E800815095FD06C095ED9A9576
:1039F000F1F700008111F5CF8091E80085FF0DC03F
:103A000050E040E063E070E08FE692E00E94271F04
:103A10008091E8008E778093E8000895BC0184E0EF
:103A20000C94E41CBC0183E00C94E41CCF93FC01D7
:103A3000603221F58091B202843001F5C091E90035
:103A4000CF702091EC00922F917020FD90E8C92B4F
:103A500082E08093E9008091E80080FF0CC050E094
:103A600040E060E270E0CF010E94271F8091E800F3
:103A70008E778093E800CF70C093E900CF910895CE
:103A80008091B102811109C00E9406210E94632128
:103A90008091E20084608093E20008951092B10268
:103AA00008950C948C1B6091AE0281E0611101C0FD
:103AB00080E00C94851B9091B20281E0943009F073
:103AC00080E06091AE020C948A1B42E061EC81E0E0
:103AD0000E94822042E261EC84E00E94822042E265
:103AE00061EC82E00E94822042E260EC83E00E946E
:103AF00082209091B20281E0943009F080E06091E0
:103B0000AE020C947C1B8091B402833009F462C035
:103B100030F48130D9F1823009F49EC008958A30A2
:103B200009F48AC08B3009F470C0893009F051C0A3
:103B30008091B302813209F04CC08091B70290911C
:103B4000B802009719F0029709F043C08091E8008D
:103B5000877F8093E8008091E80082FF36C09091D3
:103B6000F3008091F200029731F48091F1008130EE
:103B700011F0863021F48091F100809392028091BF
:103B8000E8008B778093E8000C94B6208091B30214
:103B9000813AF9F48091E800877F8093E800809172
:103BA000B7029091B802892B61F460E282E792E05B
:103BB00070E00E94C51F8091E8008B778093E80039
:103BC000089560E090E080E0F3CF8091B20281112F
:103BD000C2CF08958091B302813AD9F78091B7029C
:103BE0009091B802892BA9F78091E800877F809394
:103BF000E8008091E80080FFFCCF8091180180935D
:103C0000F1008091E8008E77BDCF8091B3028132C0
:103C100001F78091B7029091B802892BD1F680917B
:103C2000E800877F8093E8000E94B6208091B5026B
:103C3000809318010C9494088091B302813249F664
:103C40008091E800877F8093E8000E94B6208091F1
:103C5000B6028093930208958091B302813A09F0ED
:103C6000B8CF8091E800877F8093E8008091E800DA
:103C700080FFFCCF80919302C2CF84B7877F84BF3F
:103C80000FB6F894A89580916000886180936000D9
:103C9000109260000FBE80E890E00FB6F894809319
:103CA0006100909361000FBE0C94911B0E9406214D
:103CB0000E946321E2EEF0E080818460808378944A
:103CC0000C94EC238CE091E00C94581A8091B20291
:103CD0008530A9F48091B202853011F00C94031C58
:103CE0000E94D81B8091B0028823A1F30E949B1BE5
:103CF000882381F30E94111F0E949408EBCF08953E
:103D0000CF93DF93CDB7DEB7A0970FB6F894DEBFA1
:103D10000FBECDBF8091B202843009F583E080935D
:103D2000E9008091E80082FF1AC08091E80090E0ED
:103D300085FF09C050E040E060E270E0CE010196EE
:103D40000E94761F91E08091E8008B778093E800D5
:103D5000992329F060E2CE0101960E94E615A09613
:103D60000FB6F894DEBF0FBECDBFDF91CF9108959F
:103D70000C94BA1E292F33272330310521F168F422
:103D80002130310509F443C02230310509F444C023
:103D900090E080E030E020E026C02132310551F192
:103DA00022323105A9F76330710590F7FB01EE0F60
:103DB000FF1FED56FE4F2081318160577E4FFB0182
:103DC000808190E010C099278130910581F00097A3
:103DD00029F00297E9F6ECEDF3E002C0ECE0F4E044
:103DE000849190E09F01FA01318320830895E4EFEC
:103DF000F3E0F6CF6330710558F6660F771FFB01CD
:103E0000E756FE4F2081318189E090E0ECCF82E1DE
:103E100090E02BE634E0E7CF8BE590E020E134E062
:103E2000E2CF80E189BD82E189BD09B400FEFDCF0A
:103E30008091D8008F7D8093D8008091E0008260CF
:103E40008093E0008091E00081FDFCCF0895AF9267
:103E5000BF92CF92DF92FF920F931F93CF93DF9386
:103E60006C01EB018A010E94D520F82E811123C03C
:103E70000115110539F0F80180819181C81BD90B1A
:103E8000C80ED91EB12CA12C2097A9F08091E80072
:103E900085FD22C08091E8008E778093E8000115AF
:103EA0001105A1F0F80180819181A80EB91EB1829F
:103EB000A08285E0F82E8F2DDF91CF911F910F9179
:103EC000FF90DF90CF90BF90AF9008950E94D520D3
:103ED0008823D1F2F82EEFCFF60181916F01809304
:103EE000F1002197FFEFAF1ABF0ACECFAF92BF927A
:103EF000CF92DF92FF920F931F93CF93DF936C01CA
:103F0000EB018A010E94D520F82E811123C00115F2
:103F1000110539F0F80180819181C81BD90BC80EB9
:103F2000D91EB12CA12C2097A9F08091E80085FD25
:103F300022C08091E8008B778093E800011511057D
:103F4000A1F0F80180819181A80EB91EB182A082F2
:103F500085E0F82E8F2DDF91CF911F910F91FF906B
:103F6000DF90CF90BF90AF9008950E94D520882316
:103F7000D1F2F82EEFCF8091F100F60181936F011D
:103F80002197FFEFAF1ABF0ACECFFC018091B90293
:103F90009091BA0286179707A0F06115710529F470
:103FA0009091E8009E779093E80090E0611571058C
:103FB00051F4911108C08091E80082FF34C080E084
:103FC0000895BC01F2CF8091B2028823C1F18530FF
:103FD000C1F18091E80083FD30C08091E80082FD4E
:103FE000EACF8091E80080FFE1CF8091F30020913B
:103FF000F200382F6115710519F02830310558F09D
:1040000091E02830310509F090E02091E8002E770A
:104010002093E800CBCF81918093F100615071092A
:104020002F5F3F4FE7CF8091B202882341F0853068
:1040300041F08091E80083FFBECF81E0089582E0E7
:10404000089583E00895FC018091B9029091BA022D
:1040500086179707A0F06115710529F48091E80093
:104060008E778093E80090E06115710551F491110D
:1040700008C08091E80082FF35C080E00895BC014F
:10408000F2CF8091B2028823C9F18530C9F18091C5
:10409000E80083FD31C08091E80082FDEACF809185
:1040A000E80080FFE1CF8091F3002091F200382FEB
:1040B0006115710519F02830310558F091E028306C
:1040C000310509F090E08091E8008E778093E80058
:1040D000CBCF84918093F1003196615071092F5FAD
:1040E0003F4FE6CF8091B202882341F0853041F006
:1040F0008091E80083FFBDCF81E0089582E00895BC
:1041000083E00895982F973028F08F708093E9000E
:1041100081E008959093E900242F762F50E09817BE
:1041200031F07091EC002091ED005091F00021FDF4
:1041300002C09F5FE8CF3091EB003E7F3093EB00F1
:104140003091ED003D7F3093ED003091EB00316018
:104150003093EB007093EC002093ED005093F0004F
:104160002091EE0027FDE5CF80E008958091B30215
:1041700087FF13C08091E80082FF06C08091E800AD
:104180008B778093E80004C08091B2028111F2CF56
:1041900008958091B2028823D9F38091E80080FFCE
:1041A000F8CF8091E8008E77ECCF2091E400309139
:1041B000E50095E6A9012091EC00822F817020FF97
:1041C00006C08091E80080FF06C080E0089520913D
:1041D000E80022FD1AC08091B202882389F0853060
:1041E00089F08091EB0085FD0FC02091E4003091B3
:1041F000E50042175307F9F29150E1F684E0089583
:1042000082E0089583E0089581E008950E9474217A
:104210000E947C21E0EEF0E0808181608083E8ED07
:10422000F0E080818F77808319BCA7EDB0E08C919E
:104230008E7F8C9380818F7E80831092B10208954F
:104240000F931F93CF93DF930E9474210E947C21D0
:10425000C8EDD0E088818F778883888180688883E3
:1042600088818F7D888319BC1092B2021092AE02B1
:104270001092B0021092AF0200EE10E0F8018081BF
:104280008B7F808388818160888342E060E080E06A
:104290000E948220E1EEF0E080818E7F8083E2EE5A
:1042A000F0E0808181608083808188608083F80174
:1042B00080818E7F8083888180618883DF91CF9128
:1042C0001F910F910895E8EDF0E080818F7E80834B
:1042D000E7EDF0E080818160808384E082BF81E04F
:1042E0008093B1020C942021E8EDF0E080818E7F74
:1042F00080831092E20008951092DA001092E1009B
:1043000008951F920F920FB60F9211242F933F938F
:104310004F935F936F937F938F939F93AF93BF93CD
:10432000EF93FF938091E10082FF0BC08091E20048
:1043300082FF07C08091E1008B7F8093E1000E94A3
:10434000EB238091DA0080FF19C08091D80080FFB4
:1043500015C08091DA008E7F8093DA008091D900B9
:1043600080FF96C080E189BD82E189BD09B400FE6D
:10437000FDCF81E08093B2020E94401D8091E10058
:1043800080FF19C08091E20080FF15C08091E2009B
:104390008E7F8093E2008091E20080618093E20052
:1043A0008091D80080628093D80019BC85E080930A
:1043B000B2020E94531D8091E10084FF2BC08091C6
:1043C000E20084FF27C080E189BD82E189BD89B513
:1043D000982F917080FFFBCF8091D8008F7D8093C4
:1043E000D8008091E1008F7E8093E1008091E2000F
:1043F0008F7E8093E2008091E20081608093E200F2
:104400008091AE02882309F449C084E08093B2020F
:104410000E945B1D8091E10083FF29C08091E20032
:1044200083FF25C08091E100877F8093E10082E0D7
:104430008093B2021092AE028091E1008E7F809351
:10444000E1008091E2008E7F8093E2008091E200A3
:1044500080618093E20042E060E080E00E94822080
:104460008091F00088608093F0000E94511DFF91C0
:10447000EF91BF91AF919F918F917F916F915F91DC
:104480004F913F912F910F900FBE0F901F90189555
:1044900019BC1092B2020E944E1D70CF8091E300B1
:1044A00087FD93E09093B202B3CF1F920F920FB6A5
:1044B0000F9211242F933F934F935F936F937F93AA
:1044C0008F939F93AF93BF93CF93DF93EF93FF931C
:1044D000D091E900DF708091EC00C82FC17080FDA1
:1044E000C0E81092E9008091F000877F8093F0008F
:1044F00078940E9499221092E9008091F0008860DF
:104500008093F000CD2BCF70C093E900FF91EF9125
:10451000DF91CF91BF91AF919F918F917F916F91DB
:104520005F914F913F912F910F900FBE0F901F9071
:1045300018951F93CF93DF93CDB7DEB7AA970FB629
:10454000F894DEBF0FBECDBF83EB92E02091F10067
:10455000FC012193CF01F2E08B3B9F07B9F70E944A
:10456000831D8091E80083FF1EC18091B30290916A
:10457000B4029A3008F017C1E92FF0E0E455FB4D82
:104580000C941B24803899F0823809F00CC180917A
:10459000B7028F70873008F006C18093E9008091E0
:1045A000EB0085FB882780F91092E90006C0809116
:1045B000AF029091B002911182609091E800977FD4
:1045C0009093E8008093F1001092F1008091E80050
:1045D0008E77E5C0882309F4D3C0823009F0E3C0A8
:1045E0008091B5028111D6C08091B7028F702FEFF4
:1045F000280F263008F0D7C08093E9002091EB0007
:1046000020FFC8C0933031F48091EB00806280932A
:10461000EB00C0C09091EB0090619093EB0021E023
:1046200030E001C0220F8A95EAF72093EA00109249
:10463000EA008091EB008860EACF8111B4C010914C
:10464000B5021F778091E3008078812B8093E3008F
:104650008091E800877F8093E8000E94B6208091D7
:10466000E80080FFFCCF8091E30080688093E30046
:1046700082E0111183E08093B20295C080588230AD
:1046800008F091C08091B5029091B6028C3D23E074
:104690009207A1F583E08A838AE289834FB7F89471
:1046A000DE01139620E03EE051E2E32FF0E050936C
:1046B0005700E49120FF03C0E295EF703F5FEF7079
:1046C0008E2F90E0EA30C0F0C7968D939D932F5FB8
:1046D000243159F74FBF8091E800877F8093E8002D
:1046E0006AE270E0CE0101960E94C51F8091E80049
:1046F0008B778093E80057C0C096E7CF6091B702F0
:104700007091B802AE014F5F5F4F0E94B81EBC01AE
:10471000892B09F448C09091E800977F9093E800B6
:1047200089819A810E942320E1CF8038E1F5809130
:10473000E800877F8093E8008091AE028093F100CB
:1047400045CF811130C09091B502923060F58091D3
:10475000E800877F8093E8009093AE020E94B62025
:104760008091AE02882311F084E005C08091E300BF
:1047700087FDFACF81E08093B2020E94651D13C0CD
:104780008091B502813079F481E0933009F080E0C6
:104790008093B0021092E9008091E800877F8093B7
:1047A000E8000E94B6208091E80083FF0AC0809153
:1047B000E800877F8093E8008091EB00806280931F
:1047C000EB00AA960FB6F894DEBF0FBECDBFDF9107
:1047D000CF911F9108950895CF938091B2028823BD
:1047E000A1F0C091E900CF709091EC00892F817009
:1047F00090FD80E8C82B1092E9008091E80083FDCD
:104800000E949922CF70C093E900CF91089597FB41
:10481000072E16F4009407D077FD09D00E942824B3
:1048200007FC05D03EF4909581959F4F08957095B3
:1048300061957F4F0895EE0FFF1F0590F491E02DD5
:104840000994692796276927782787277827089565
:10485000AA1BBB1B51E107C0AA1FBB1FA617B707A6
:1048600010F0A61BB70B881F991F5A95A9F78095C2
:104870009095BC01CD010895FB01DC0104C08D9130
:104880000190801921F441505040C8F7881B990BC2
:104890000895F999FECF92BD81BDF89A992780B508
:1048A0000895A8E1B0E042E050E00C947D24262F6A
:1048B000F999FECF92BD81BDF89A019700B4021616
:1048C00039F01FBA20BD0FB6F894FA9AF99A0FBEC4
:1048D00008950396272F0E9458240E945724252FBD
:1048E0000E945824242F0C9458240196272F0E94AC
:1048F00058240C945724DC01CB01FC01F999FECF1C
:1049000006C0F2BDE1BDF89A319600B40D92415057
:104910005040B8F70895F894FFCF7A067A06AB06B0
:10492000AB063E075A07DA06DA066507CC07DB074F
:10493000DB07F81505162C16381643164E165116B9
:1049400051165116511651165416581660166D16FA
:104950007A167D1680168D16C222EA22D323EA2209
:0C496000D3231D233E23D3239523A12342
:10496C00C8001E02280850011E0A14017F1CA41C3A
:10497C00831C121D0E1D821C01E200E900EA00B529
:10498C0000B600B700CD008301CC008A01920194DF
:10499C00012102230224022502260227022A02B345
:1049AC0000B4006F007000818283E200E900EA002D
:1049BC00B500B600B700CD008301CC008A0192018E
:1049CC0094012102230224022502260227022A0234
:1049DC00B300B4006F007000818283909192939524
:1049EC00949697343536F1F4303167F0F5F632336E
:1049FC004022B655057D049F0422043B045B040051
:00000001FF
